{"abi":[{"type":"constructor","inputs":[{"name":"tokenAddress","type":"address","internalType":"address"}],"stateMutability":"nonpayable"},{"type":"function","name":"config","inputs":[],"outputs":[{"name":"token","type":"address","internalType":"contract ERC20Votes"}],"stateMutability":"view"},{"type":"function","name":"getNomineeRanking","inputs":[],"outputs":[{"name":"nominees","type":"address[]","internalType":"address[]"},{"name":"votes","type":"uint256[]","internalType":"uint256[]"}],"stateMutability":"view"},{"type":"function","name":"getNominees","inputs":[],"outputs":[{"name":"","type":"address[]","internalType":"address[]"}],"stateMutability":"view"},{"type":"function","name":"isNominee","inputs":[{"name":"account","type":"address","internalType":"address"}],"outputs":[{"name":"","type":"bool","internalType":"bool"}],"stateMutability":"view"},{"type":"function","name":"nominate","inputs":[{"name":"nominee","type":"address","internalType":"address"},{"name":"shouldNominate","type":"bool","internalType":"bool"}],"outputs":[],"stateMutability":"nonpayable"},{"type":"function","name":"nominations","inputs":[{"name":"nominee","type":"address","internalType":"address"}],"outputs":[{"name":"nominated","type":"bool","internalType":"bool"}],"stateMutability":"view"},{"type":"function","name":"nomineesCount","inputs":[],"outputs":[{"name":"","type":"uint256","internalType":"uint256"}],"stateMutability":"view"},{"type":"function","name":"nomineesSorted","inputs":[{"name":"","type":"uint256","internalType":"uint256"}],"outputs":[{"name":"","type":"address","internalType":"address"}],"stateMutability":"view"},{"type":"function","name":"owner","inputs":[],"outputs":[{"name":"","type":"address","internalType":"address"}],"stateMutability":"view"},{"type":"function","name":"renounceOwnership","inputs":[],"outputs":[],"stateMutability":"nonpayable"},{"type":"function","name":"transferOwnership","inputs":[{"name":"newOwner","type":"address","internalType":"address"}],"outputs":[],"stateMutability":"nonpayable"},{"type":"event","name":"NominationReceived","inputs":[{"name":"nominee","type":"address","indexed":true,"internalType":"address"}],"anonymous":false},{"type":"event","name":"NominationRevoked","inputs":[{"name":"nominee","type":"address","indexed":true,"internalType":"address"}],"anonymous":false},{"type":"event","name":"OwnershipTransferred","inputs":[{"name":"previousOwner","type":"address","indexed":true,"internalType":"address"},{"name":"newOwner","type":"address","indexed":true,"internalType":"address"}],"anonymous":false},{"type":"error","name":"OwnableInvalidOwner","inputs":[{"name":"owner","type":"address","internalType":"address"}]},{"type":"error","name":"OwnableUnauthorizedAccount","inputs":[{"name":"account","type":"address","internalType":"address"}]}],"bytecode":{"object":"0x608060405234801561000f575f5ffd5b50604051610d26380380610d2683398101604081905261002e91610126565b338061005457604051631e4fbdf760e01b81525f60048201526024015b60405180910390fd5b61005d816100d7565b506001600160a01b0381166100a55760405162461bcd60e51b815260206004820152600e60248201526d1d1bdad95b881c995c5d5a5c995960921b604482015260640161004b565b60408051602081019091526001600160a01b0390911690819052600480546001600160a01b0319169091179055610153565b5f80546001600160a01b038381166001600160a01b0319831681178455604051919092169283917f8be0079c531659141344cd1fd0a4f28419497f9722a3daafe3b4186f6b6457e09190a35050565b5f60208284031215610136575f5ffd5b81516001600160a01b038116811461014c575f5ffd5b9392505050565b610bc6806101605f395ff3fe608060405234801561000f575f5ffd5b50600436106100c4575f3560e01c8063980c40791161007d578063ddcca4e111610058578063ddcca4e1146101a5578063f2fde38b146101bb578063f95baf26146101ce575f5ffd5b8063980c40791461013a578063a2064f4514610151578063affd8db014610192575f5ffd5b806379502c55116100ad57806379502c55146101025780638da5cb5b146101155780639636f67c14610125575f5ffd5b806310253227146100c8578063715018a6146100f8575b5f5ffd5b6100db6100d63660046109c5565b6101f0565b6040516001600160a01b0390911681526020015b60405180910390f35b610100610218565b005b6004546100db906001600160a01b031681565b5f546001600160a01b03166100db565b61012d61022b565b6040516100ef9190610a1f565b61014360035481565b6040519081526020016100ef565b61018261015f366004610a53565b6001600160a01b03165f9081526001602081905260409091205460ff1615151490565b60405190151581526020016100ef565b6101006101a0366004610a6c565b61028b565b6101ad610561565b6040516100ef929190610aa5565b6101006101c9366004610a53565b61090d565b6101826101dc366004610a53565b60016020525f908152604090205460ff1681565b600281815481106101ff575f80fd5b5f918252602090912001546001600160a01b0316905081565b61022061094a565b6102295f610976565b565b6060600280548060200260200160405190810160405280929190818152602001828054801561028157602002820191905f5260205f20905b81546001600160a01b03168152600190910190602001808311610263575b5050505050905090565b61029361094a565b80156103a1576001600160a01b0382165f9081526001602081905260409091205460ff161515900361030c5760405162461bcd60e51b815260206004820152601160248201527f616c7265616479206e6f6d696e6174656400000000000000000000000000000060448201526064015b60405180910390fd5b6001600160a01b0382165f818152600160208190526040808320805460ff1916831790556002805480840182559084527f405787fa12a823e0f2b7631cc41b3ba8828b3321ca811111fa75cd3aa3bb5ace0180546001600160a01b0319168517905560038054909201909155517f0c20edab5f0aae928e069b742fcb70692c69c06d5cb6bfff526bba9cf3fbe33f9190a25050565b6001600160a01b0382165f9081526001602052604081205460ff161515900361040c5760405162461bcd60e51b815260206004820152600d60248201527f6e6f74206e6f6d696e61746564000000000000000000000000000000000000006044820152606401610303565b6001600160a01b0382165f908152600160205260408120805460ff19169055600254905b8181101561051f57836001600160a01b03166002828154811061045557610455610afd565b5f918252602090912001546001600160a01b03160361051757600261047b600184610b25565b8154811061048b5761048b610afd565b5f91825260209091200154600280546001600160a01b0390921691839081106104b6576104b6610afd565b905f5260205f20015f6101000a8154816001600160a01b0302191690836001600160a01b0316021790555060028054806104f2576104f2610b3e565b5f8281526020902081015f1990810180546001600160a01b031916905501905561051f565b600101610430565b50600380545f190190556040516001600160a01b038416907f8f409e6d2a5a71ccff16036ebcb0b30a2afe9bd0dcfb4fe255c646fa86b6107a905f90a2505050565b60025460609081905f81900361058e575050604080515f8082526020820190815281830190925292909150565b8067ffffffffffffffff8111156105a7576105a7610b52565b6040519080825280602002602001820160405280156105d0578160200160208202803683370190505b5092508067ffffffffffffffff8111156105ec576105ec610b52565b604051908082528060200260200182016040528015610615578160200160208202803683370190505b5091505f5b81811015610748576002818154811061063557610635610afd565b905f5260205f20015f9054906101000a90046001600160a01b031684828151811061066257610662610afd565b6001600160a01b039283166020918202929092010152600454600280549190921691639ab24eb0918490811061069a5761069a610afd565b5f9182526020909120015460405160e083901b7fffffffff000000000000000000000000000000000000000000000000000000001681526001600160a01b039091166004820152602401602060405180830381865afa1580156106ff573d5f5f3e3d5ffd5b505050506040513d601f19601f820116820180604052508101906107239190610b66565b83828151811061073557610735610afd565b602090810291909101015260010161061a565b505f5b610756600183610b25565b811015610907575f5b600161076b8385610b25565b6107759190610b25565b8110156108fe5783610788826001610b7d565b8151811061079857610798610afd565b60200260200101518482815181106107b2576107b2610afd565b602002602001015110156108f6575f8482815181106107d3576107d3610afd565b60200260200101519050848260016107eb9190610b7d565b815181106107fb576107fb610afd565b602002602001015185838151811061081557610815610afd565b6020908102919091010152808561082d846001610b7d565b8151811061083d5761083d610afd565b6020026020010181815250505f86838151811061085c5761085c610afd565b60200260200101519050868360016108749190610b7d565b8151811061088457610884610afd565b602002602001015187848151811061089e5761089e610afd565b6001600160a01b039092166020928302919091019091015280876108c3856001610b7d565b815181106108d3576108d3610afd565b60200260200101906001600160a01b031690816001600160a01b03168152505050505b60010161075f565b5060010161074b565b50509091565b61091561094a565b6001600160a01b03811661093e57604051631e4fbdf760e01b81525f6004820152602401610303565b61094781610976565b50565b5f546001600160a01b031633146102295760405163118cdaa760e01b8152336004820152602401610303565b5f80546001600160a01b038381166001600160a01b0319831681178455604051919092169283917f8be0079c531659141344cd1fd0a4f28419497f9722a3daafe3b4186f6b6457e09190a35050565b5f602082840312156109d5575f5ffd5b5035919050565b5f8151808452602084019350602083015f5b82811015610a155781516001600160a01b03168652602095860195909101906001016109ee565b5093949350505050565b602081525f610a3160208301846109dc565b9392505050565b80356001600160a01b0381168114610a4e575f5ffd5b919050565b5f60208284031215610a63575f5ffd5b610a3182610a38565b5f5f60408385031215610a7d575f5ffd5b610a8683610a38565b915060208301358015158114610a9a575f5ffd5b809150509250929050565b604081525f610ab760408301856109dc565b82810360208401528084518083526020830191506020860192505f5b81811015610af1578351835260209384019390920191600101610ad3565b50909695505050505050565b634e487b7160e01b5f52603260045260245ffd5b634e487b7160e01b5f52601160045260245ffd5b81810381811115610b3857610b38610b11565b92915050565b634e487b7160e01b5f52603160045260245ffd5b634e487b7160e01b5f52604160045260245ffd5b5f60208284031215610b76575f5ffd5b5051919050565b80820180821115610b3857610b38610b1156fea26469706673582212203ce2ee6e03d4d6fd8af31079133e536c3793522da8ab03d5947d9b02fa8787bd64736f6c634300081e0033","linkReferences":{}},"methodIdentifiers":{"config()":"79502c55","getNomineeRanking()":"ddcca4e1","getNominees()":"9636f67c","isNominee(address)":"a2064f45","nominate(address,bool)":"affd8db0","nominations(address)":"f95baf26","nomineesCount()":"980c4079","nomineesSorted(uint256)":"10253227","owner()":"8da5cb5b","renounceOwnership()":"715018a6","transferOwnership(address)":"f2fde38b"},"id":227}