{"abi":[{"type":"constructor","inputs":[{"name":"name_","type":"string","internalType":"string"},{"name":"uri_","type":"string","internalType":"string"},{"name":"maxCallDataLength_","type":"uint256","internalType":"uint256"},{"name":"maxReturnDataLength_","type":"uint256","internalType":"uint256"},{"name":"maxExecutionsLength_","type":"uint256","internalType":"uint256"}],"stateMutability":"payable"},{"type":"function","name":"ADMIN_ROLE","inputs":[],"outputs":[{"name":"","type":"uint256","internalType":"uint256"}],"stateMutability":"view"},{"type":"function","name":"DENOMINATOR","inputs":[],"outputs":[{"name":"","type":"uint256","internalType":"uint256"}],"stateMutability":"view"},{"type":"function","name":"MAX_CALLDATA_LENGTH","inputs":[],"outputs":[{"name":"","type":"uint256","internalType":"uint256"}],"stateMutability":"view"},{"type":"function","name":"MAX_EXECUTIONS_LENGTH","inputs":[],"outputs":[{"name":"","type":"uint256","internalType":"uint256"}],"stateMutability":"view"},{"type":"function","name":"MAX_RETURN_DATA_LENGTH","inputs":[],"outputs":[{"name":"","type":"uint256","internalType":"uint256"}],"stateMutability":"view"},{"type":"function","name":"PUBLIC_ROLE","inputs":[],"outputs":[{"name":"","type":"uint256","internalType":"uint256"}],"stateMutability":"view"},{"type":"function","name":"adoptMandate","inputs":[{"name":"mandateInitData","type":"tuple","internalType":"struct PowersTypes.MandateInitData","components":[{"name":"nameDescription","type":"string","internalType":"string"},{"name":"targetMandate","type":"address","internalType":"address"},{"name":"config","type":"bytes","internalType":"bytes"},{"name":"conditions","type":"tuple","internalType":"struct PowersTypes.Conditions","components":[{"name":"allowedRole","type":"uint256","internalType":"uint256"},{"name":"votingPeriod","type":"uint32","internalType":"uint32"},{"name":"timelock","type":"uint32","internalType":"uint32"},{"name":"throttleExecution","type":"uint32","internalType":"uint32"},{"name":"needFulfilled","type":"uint16","internalType":"uint16"},{"name":"needNotFulfilled","type":"uint16","internalType":"uint16"},{"name":"quorum","type":"uint8","internalType":"uint8"},{"name":"succeedAt","type":"uint8","internalType":"uint8"}]}]}],"outputs":[{"name":"mandateId","type":"uint16","internalType":"uint16"}],"stateMutability":"nonpayable"},{"type":"function","name":"assignRole","inputs":[{"name":"roleId","type":"uint256","internalType":"uint256"},{"name":"account","type":"address","internalType":"address"}],"outputs":[],"stateMutability":"nonpayable"},{"type":"function","name":"blacklistAddress","inputs":[{"name":"account","type":"address","internalType":"address"},{"name":"blacklisted","type":"bool","internalType":"bool"}],"outputs":[],"stateMutability":"nonpayable"},{"type":"function","name":"canCallMandate","inputs":[{"name":"caller","type":"address","internalType":"address"},{"name":"mandateId","type":"uint16","internalType":"uint16"}],"outputs":[{"name":"","type":"bool","internalType":"bool"}],"stateMutability":"view"},{"type":"function","name":"cancel","inputs":[{"name":"mandateId","type":"uint16","internalType":"uint16"},{"name":"mandateCalldata","type":"bytes","internalType":"bytes"},{"name":"nonce","type":"uint256","internalType":"uint256"}],"outputs":[{"name":"","type":"uint256","internalType":"uint256"}],"stateMutability":"nonpayable"},{"type":"function","name":"castVote","inputs":[{"name":"actionId","type":"uint256","internalType":"uint256"},{"name":"support","type":"uint8","internalType":"uint8"}],"outputs":[],"stateMutability":"nonpayable"},{"type":"function","name":"castVoteWithReason","inputs":[{"name":"actionId","type":"uint256","internalType":"uint256"},{"name":"support","type":"uint8","internalType":"uint8"},{"name":"reason","type":"string","internalType":"string"}],"outputs":[],"stateMutability":"nonpayable"},{"type":"function","name":"closeConstitute","inputs":[],"outputs":[],"stateMutability":"nonpayable"},{"type":"function","name":"closeConstitute","inputs":[{"name":"newAdmin","type":"address","internalType":"address"}],"outputs":[],"stateMutability":"nonpayable"},{"type":"function","name":"constitute","inputs":[{"name":"constituentMandates","type":"tuple[]","internalType":"struct PowersTypes.MandateInitData[]","components":[{"name":"nameDescription","type":"string","internalType":"string"},{"name":"targetMandate","type":"address","internalType":"address"},{"name":"config","type":"bytes","internalType":"bytes"},{"name":"conditions","type":"tuple","internalType":"struct PowersTypes.Conditions","components":[{"name":"allowedRole","type":"uint256","internalType":"uint256"},{"name":"votingPeriod","type":"uint32","internalType":"uint32"},{"name":"timelock","type":"uint32","internalType":"uint32"},{"name":"throttleExecution","type":"uint32","internalType":"uint32"},{"name":"needFulfilled","type":"uint16","internalType":"uint16"},{"name":"needNotFulfilled","type":"uint16","internalType":"uint16"},{"name":"quorum","type":"uint8","internalType":"uint8"},{"name":"succeedAt","type":"uint8","internalType":"uint8"}]}]}],"outputs":[],"stateMutability":"nonpayable"},{"type":"function","name":"eip712Domain","inputs":[],"outputs":[{"name":"fields","type":"bytes1","internalType":"bytes1"},{"name":"name","type":"string","internalType":"string"},{"name":"version","type":"string","internalType":"string"},{"name":"chainId","type":"uint256","internalType":"uint256"},{"name":"verifyingContract","type":"address","internalType":"address"},{"name":"salt","type":"bytes32","internalType":"bytes32"},{"name":"extensions","type":"uint256[]","internalType":"uint256[]"}],"stateMutability":"view"},{"type":"function","name":"fulfill","inputs":[{"name":"mandateId","type":"uint16","internalType":"uint16"},{"name":"actionId","type":"uint256","internalType":"uint256"},{"name":"targets","type":"address[]","internalType":"address[]"},{"name":"values","type":"uint256[]","internalType":"uint256[]"},{"name":"calldatas","type":"bytes[]","internalType":"bytes[]"}],"outputs":[],"stateMutability":"nonpayable"},{"type":"function","name":"getActionCalldata","inputs":[{"name":"actionId","type":"uint256","internalType":"uint256"}],"outputs":[{"name":"callData","type":"bytes","internalType":"bytes"}],"stateMutability":"view"},{"type":"function","name":"getActionData","inputs":[{"name":"actionId","type":"uint256","internalType":"uint256"}],"outputs":[{"name":"mandateId","type":"uint16","internalType":"uint16"},{"name":"proposedAt","type":"uint48","internalType":"uint48"},{"name":"requestedAt","type":"uint48","internalType":"uint48"},{"name":"fulfilledAt","type":"uint48","internalType":"uint48"},{"name":"cancelledAt","type":"uint48","internalType":"uint48"},{"name":"caller","type":"address","internalType":"address"},{"name":"nonce","type":"uint256","internalType":"uint256"}],"stateMutability":"view"},{"type":"function","name":"getActionReturnData","inputs":[{"name":"actionId","type":"uint256","internalType":"uint256"},{"name":"index","type":"uint256","internalType":"uint256"}],"outputs":[{"name":"returnData","type":"bytes","internalType":"bytes"}],"stateMutability":"view"},{"type":"function","name":"getActionState","inputs":[{"name":"actionId","type":"uint256","internalType":"uint256"}],"outputs":[{"name":"","type":"uint8","internalType":"enum PowersTypes.ActionState"}],"stateMutability":"view"},{"type":"function","name":"getActionUri","inputs":[{"name":"actionId","type":"uint256","internalType":"uint256"}],"outputs":[{"name":"_uri","type":"string","internalType":"string"}],"stateMutability":"view"},{"type":"function","name":"getActionVoteData","inputs":[{"name":"actionId","type":"uint256","internalType":"uint256"}],"outputs":[{"name":"voteStart","type":"uint48","internalType":"uint48"},{"name":"voteDuration","type":"uint32","internalType":"uint32"},{"name":"voteEnd","type":"uint256","internalType":"uint256"},{"name":"againstVotes","type":"uint32","internalType":"uint32"},{"name":"forVotes","type":"uint32","internalType":"uint32"},{"name":"abstainVotes","type":"uint32","internalType":"uint32"}],"stateMutability":"view"},{"type":"function","name":"getAdoptedMandate","inputs":[{"name":"mandateId","type":"uint16","internalType":"uint16"}],"outputs":[{"name":"mandate","type":"address","internalType":"address"},{"name":"mandateHash","type":"bytes32","internalType":"bytes32"},{"name":"active","type":"bool","internalType":"bool"}],"stateMutability":"view"},{"type":"function","name":"getAmountRoleHolders","inputs":[{"name":"roleId","type":"uint256","internalType":"uint256"}],"outputs":[{"name":"amountMembers","type":"uint256","internalType":"uint256"}],"stateMutability":"view"},{"type":"function","name":"getConditions","inputs":[{"name":"mandateId","type":"uint16","internalType":"uint16"}],"outputs":[{"name":"conditions","type":"tuple","internalType":"struct PowersTypes.Conditions","components":[{"name":"allowedRole","type":"uint256","internalType":"uint256"},{"name":"votingPeriod","type":"uint32","internalType":"uint32"},{"name":"timelock","type":"uint32","internalType":"uint32"},{"name":"throttleExecution","type":"uint32","internalType":"uint32"},{"name":"needFulfilled","type":"uint16","internalType":"uint16"},{"name":"needNotFulfilled","type":"uint16","internalType":"uint16"},{"name":"quorum","type":"uint8","internalType":"uint8"},{"name":"succeedAt","type":"uint8","internalType":"uint8"}]}],"stateMutability":"view"},{"type":"function","name":"getLatestFulfillment","inputs":[{"name":"mandateId","type":"uint16","internalType":"uint16"}],"outputs":[{"name":"latestFulfillment","type":"uint48","internalType":"uint48"}],"stateMutability":"view"},{"type":"function","name":"getMandateActionAtIndex","inputs":[{"name":"mandateId","type":"uint16","internalType":"uint16"},{"name":"index","type":"uint256","internalType":"uint256"}],"outputs":[{"name":"actionId","type":"uint256","internalType":"uint256"}],"stateMutability":"view"},{"type":"function","name":"getMandateCounter","inputs":[],"outputs":[{"name":"","type":"uint16","internalType":"uint16"}],"stateMutability":"view"},{"type":"function","name":"getQuantityMandateActions","inputs":[{"name":"mandateId","type":"uint16","internalType":"uint16"}],"outputs":[{"name":"quantityMandateActions","type":"uint256","internalType":"uint256"}],"stateMutability":"view"},{"type":"function","name":"getRoleHolderAtIndex","inputs":[{"name":"roleId","type":"uint256","internalType":"uint256"},{"name":"index","type":"uint256","internalType":"uint256"}],"outputs":[{"name":"account","type":"address","internalType":"address"}],"stateMutability":"view"},{"type":"function","name":"getRoleLabel","inputs":[{"name":"roleId","type":"uint256","internalType":"uint256"}],"outputs":[{"name":"label","type":"string","internalType":"string"}],"stateMutability":"view"},{"type":"function","name":"getRoleMetadata","inputs":[{"name":"roleId","type":"uint256","internalType":"uint256"}],"outputs":[{"name":"metadata","type":"string","internalType":"string"}],"stateMutability":"view"},{"type":"function","name":"getTreasury","inputs":[],"outputs":[{"name":"","type":"address","internalType":"address payable"}],"stateMutability":"view"},{"type":"function","name":"hasRoleSince","inputs":[{"name":"account","type":"address","internalType":"address"},{"name":"roleId","type":"uint256","internalType":"uint256"}],"outputs":[{"name":"since","type":"uint48","internalType":"uint48"}],"stateMutability":"view"},{"type":"function","name":"hasVoted","inputs":[{"name":"actionId","type":"uint256","internalType":"uint256"},{"name":"account","type":"address","internalType":"address"}],"outputs":[{"name":"","type":"bool","internalType":"bool"}],"stateMutability":"view"},{"type":"function","name":"isBlacklisted","inputs":[{"name":"account","type":"address","internalType":"address"}],"outputs":[{"name":"","type":"bool","internalType":"bool"}],"stateMutability":"view"},{"type":"function","name":"labelRole","inputs":[{"name":"roleId","type":"uint256","internalType":"uint256"},{"name":"label","type":"string","internalType":"string"},{"name":"metadata","type":"string","internalType":"string"}],"outputs":[],"stateMutability":"nonpayable"},{"type":"function","name":"mandateCounter","inputs":[],"outputs":[{"name":"","type":"uint16","internalType":"uint16"}],"stateMutability":"view"},{"type":"function","name":"name","inputs":[],"outputs":[{"name":"","type":"string","internalType":"string"}],"stateMutability":"view"},{"type":"function","name":"propose","inputs":[{"name":"mandateId","type":"uint16","internalType":"uint16"},{"name":"mandateCalldata","type":"bytes","internalType":"bytes"},{"name":"nonce","type":"uint256","internalType":"uint256"},{"name":"uriAction","type":"string","internalType":"string"}],"outputs":[{"name":"actionId","type":"uint256","internalType":"uint256"}],"stateMutability":"nonpayable"},{"type":"function","name":"request","inputs":[{"name":"mandateId","type":"uint16","internalType":"uint16"},{"name":"mandateCalldata","type":"bytes","internalType":"bytes"},{"name":"nonce","type":"uint256","internalType":"uint256"},{"name":"uriAction","type":"string","internalType":"string"}],"outputs":[{"name":"actionId","type":"uint256","internalType":"uint256"}],"stateMutability":"nonpayable"},{"type":"function","name":"revokeMandate","inputs":[{"name":"mandateId","type":"uint16","internalType":"uint16"}],"outputs":[],"stateMutability":"nonpayable"},{"type":"function","name":"revokeRole","inputs":[{"name":"roleId","type":"uint256","internalType":"uint256"},{"name":"account","type":"address","internalType":"address"}],"outputs":[],"stateMutability":"nonpayable"},{"type":"function","name":"setTreasury","inputs":[{"name":"newTreasury","type":"address","internalType":"address payable"}],"outputs":[],"stateMutability":"nonpayable"},{"type":"function","name":"setUri","inputs":[{"name":"newUri","type":"string","internalType":"string"}],"outputs":[],"stateMutability":"nonpayable"},{"type":"function","name":"uri","inputs":[],"outputs":[{"name":"","type":"string","internalType":"string"}],"stateMutability":"view"},{"type":"function","name":"version","inputs":[],"outputs":[{"name":"","type":"string","internalType":"string"}],"stateMutability":"pure"},{"type":"event","name":"ActionFulfilled","inputs":[{"name":"mandateId","type":"uint16","indexed":true,"internalType":"uint16"},{"name":"actionId","type":"uint256","indexed":true,"internalType":"uint256"},{"name":"targets","type":"address[]","indexed":false,"internalType":"address[]"},{"name":"values","type":"uint256[]","indexed":false,"internalType":"uint256[]"},{"name":"calldatas","type":"bytes[]","indexed":false,"internalType":"bytes[]"}],"anonymous":false},{"type":"event","name":"ActionRequested","inputs":[{"name":"caller","type":"address","indexed":true,"internalType":"address"},{"name":"mandateId","type":"uint16","indexed":true,"internalType":"uint16"},{"name":"mandateCalldata","type":"bytes","indexed":false,"internalType":"bytes"},{"name":"nonce","type":"uint256","indexed":false,"internalType":"uint256"},{"name":"description","type":"string","indexed":false,"internalType":"string"}],"anonymous":false},{"type":"event","name":"BlacklistSet","inputs":[{"name":"account","type":"address","indexed":true,"internalType":"address"},{"name":"blacklisted","type":"bool","indexed":true,"internalType":"bool"}],"anonymous":false},{"type":"event","name":"EIP712DomainChanged","inputs":[],"anonymous":false},{"type":"event","name":"FundsReceived","inputs":[{"name":"value","type":"uint256","indexed":false,"internalType":"uint256"},{"name":"sender","type":"address","indexed":false,"internalType":"address"}],"anonymous":false},{"type":"event","name":"MandateAdopted","inputs":[{"name":"mandateId","type":"uint16","indexed":true,"internalType":"uint16"}],"anonymous":false},{"type":"event","name":"MandateRevoked","inputs":[{"name":"mandateId","type":"uint16","indexed":true,"internalType":"uint16"}],"anonymous":false},{"type":"event","name":"Powers__Initialized","inputs":[{"name":"contractAddress","type":"address","indexed":false,"internalType":"address"},{"name":"name","type":"string","indexed":false,"internalType":"string"},{"name":"uri","type":"string","indexed":false,"internalType":"string"}],"anonymous":false},{"type":"event","name":"ProposedActionCancelled","inputs":[{"name":"actionId","type":"uint256","indexed":true,"internalType":"uint256"}],"anonymous":false},{"type":"event","name":"ProposedActionCreated","inputs":[{"name":"actionId","type":"uint256","indexed":true,"internalType":"uint256"},{"name":"caller","type":"address","indexed":true,"internalType":"address"},{"name":"mandateId","type":"uint16","indexed":true,"internalType":"uint16"},{"name":"signature","type":"string","indexed":false,"internalType":"string"},{"name":"executeCalldata","type":"bytes","indexed":false,"internalType":"bytes"},{"name":"voteStart","type":"uint256","indexed":false,"internalType":"uint256"},{"name":"voteEnd","type":"uint256","indexed":false,"internalType":"uint256"},{"name":"nonce","type":"uint256","indexed":false,"internalType":"uint256"},{"name":"description","type":"string","indexed":false,"internalType":"string"}],"anonymous":false},{"type":"event","name":"RoleLabel","inputs":[{"name":"roleId","type":"uint256","indexed":true,"internalType":"uint256"},{"name":"label","type":"string","indexed":false,"internalType":"string"}],"anonymous":false},{"type":"event","name":"RoleSet","inputs":[{"name":"roleId","type":"uint256","indexed":true,"internalType":"uint256"},{"name":"account","type":"address","indexed":true,"internalType":"address"},{"name":"access","type":"bool","indexed":true,"internalType":"bool"}],"anonymous":false},{"type":"event","name":"VoteCast","inputs":[{"name":"account","type":"address","indexed":true,"internalType":"address"},{"name":"actionId","type":"uint256","indexed":true,"internalType":"uint256"},{"name":"support","type":"uint8","indexed":true,"internalType":"uint8"},{"name":"reason","type":"string","indexed":false,"internalType":"string"}],"anonymous":false},{"type":"error","name":"InvalidShortString","inputs":[]},{"type":"error","name":"Powers__ActionAlreadyFulfilled","inputs":[]},{"type":"error","name":"Powers__ActionAlreadyInitiated","inputs":[]},{"type":"error","name":"Powers__ActionCancelled","inputs":[]},{"type":"error","name":"Powers__ActionNotProposed","inputs":[]},{"type":"error","name":"Powers__ActionNotRequested","inputs":[]},{"type":"error","name":"Powers__AddressBlacklisted","inputs":[]},{"type":"error","name":"Powers__AlreadyCastVote","inputs":[]},{"type":"error","name":"Powers__CalldataTooLong","inputs":[]},{"type":"error","name":"Powers__CallerNotTargetMandate","inputs":[]},{"type":"error","name":"Powers__CannotAddZeroAddress","inputs":[]},{"type":"error","name":"Powers__CannotCallMandate","inputs":[]},{"type":"error","name":"Powers__CannotSetPublicRole","inputs":[]},{"type":"error","name":"Powers__CannotSetZeroAddress","inputs":[]},{"type":"error","name":"Powers__ConstituteClosed","inputs":[]},{"type":"error","name":"Powers__ConstituteOpen","inputs":[]},{"type":"error","name":"Powers__ConstitutionAlreadyExecuted","inputs":[]},{"type":"error","name":"Powers__ExecutionArrayTooLong","inputs":[]},{"type":"error","name":"Powers__ExternalContractBlacklisted","inputs":[]},{"type":"error","name":"Powers__IncorrectInterface","inputs":[{"name":"targetMandate","type":"address","internalType":"address"}]},{"type":"error","name":"Powers__InvalidAddress","inputs":[]},{"type":"error","name":"Powers__InvalidCallData","inputs":[]},{"type":"error","name":"Powers__InvalidIndex","inputs":[]},{"type":"error","name":"Powers__InvalidLabel","inputs":[]},{"type":"error","name":"Powers__InvalidMaxCallDataLength","inputs":[]},{"type":"error","name":"Powers__InvalidMaxExecutionsLength","inputs":[]},{"type":"error","name":"Powers__InvalidName","inputs":[]},{"type":"error","name":"Powers__InvalidReturnCallDataLength","inputs":[]},{"type":"error","name":"Powers__InvalidVoteType","inputs":[]},{"type":"error","name":"Powers__LabelTooLong","inputs":[]},{"type":"error","name":"Powers__LockedRole","inputs":[]},{"type":"error","name":"Powers__MandateFulfillCallFailed","inputs":[]},{"type":"error","name":"Powers__MandateNotActive","inputs":[]},{"type":"error","name":"Powers__MandateRequestFailed","inputs":[]},{"type":"error","name":"Powers__NoMembersInRole","inputs":[]},{"type":"error","name":"Powers__NoVoteNeeded","inputs":[]},{"type":"error","name":"Powers__NotAContract","inputs":[]},{"type":"error","name":"Powers__NotProposerAction","inputs":[]},{"type":"error","name":"Powers__OnlyAdmin","inputs":[]},{"type":"error","name":"Powers__OnlyPowers","inputs":[]},{"type":"error","name":"Powers__PayableNotEnabled","inputs":[]},{"type":"error","name":"Powers__ProposedActionNotActive","inputs":[]},{"type":"error","name":"Powers__UnexpectedActionState","inputs":[]},{"type":"error","name":"Powers__UriTooLong","inputs":[]},{"type":"error","name":"Powers__VoteWithPublicRoleDisallowed","inputs":[]},{"type":"error","name":"StringTooLong","inputs":[{"name":"str","type":"string","internalType":"string"}]}],"bytecode":{"object":"0x6101c060408190526008805461ffff60a01b1916600160a01b1790556145a1388190039081908339810160408190526100379161058c565b84610058604080518082019091526003815262302e3560e81b602082015290565b610062825f610207565b61012052610071816001610207565b61014052815160208084019190912060e052815190820120610100524660a0526100fd60e05161010051604080517f8b73c3c69bb8fe3d512ecc4cf759cc79239f7b179b0ffacaa9a75d522b39400f60208201529081019290925260608201524660808201523060a08201525f9060c00160405160208183030381529060405280519060200120905090565b60805250503060c05284515f0361012757604051634acb0e6d60e01b815260040160405180910390fd5b825f0361014757604051631c58c0e160e01b815260040160405180910390fd5b815f036101675760405163a19bdd3b60e01b815260040160405180910390fd5b805f0361018757604051638a2b742f60e01b815260040160405180910390fd5b6101935f336001610239565b600661019f868261068e565b5060076101ac858261068e565b506101608390526101808290526101a08190526040517f8e09415123fab1f9e22246686c8d24ad9f84c70288cd5fa338213bccd3c5fb76906101f59030906006906007906107c7565b60405180910390a150505050506108a5565b5f6020835110156102225761021b836104a9565b9050610233565b8161022d848261068e565b5060ff90505b92915050565b5f19830361025a5760405163a1dd2b9360e01b815260040160405180910390fd5b6001600160a01b038216610281576040516329f62b5d60e11b815260040160405180910390fd5b5f8381526004602090815260408083206001600160a01b038616845291829052909120548015158380156102b3575080155b15610334576040805180820182526001600160a01b0380881680835265ffffffffffff43811660208086019182526001808b01805491820181555f81815283812098519890920180549451909516600160a01b026001600160d01b031990941697909616969096179190911790915591549083529086905291902055610467565b8315801561033f5750805b15610467576001838101545f9161035591610806565b90505f84600101828154811061036d5761036d610825565b5f918252602091829020604080518082019091529101546001600160a01b0381168252600160a01b900465ffffffffffff16918101919091529050806001868101906103b99087610806565b815481106103c9576103c9610825565b5f918252602091829020835191018054939092015165ffffffffffff16600160a01b026001600160d01b03199093166001600160a01b03909116179190911790556001850180548061041d5761041d610839565b5f828152602080822083015f1990810180546001600160d01b031916905590920190925591516001600160a01b039081168252918690526040808220869055918816815290812055505b831515856001600160a01b0316877f294507a8f5830b538faef39fbdd28f1164f27c8338a32fc7b47ddf82e4c8d9e460405160405180910390a4505050505050565b5f5f829050601f815111156104dc578260405163305a27a960e01b81526004016104d3919061084d565b60405180910390fd5b80516104e782610882565b179392505050565b634e487b7160e01b5f52604160045260245ffd5b5f82601f830112610512575f5ffd5b81516001600160401b0381111561052b5761052b6104ef565b604051601f8201601f19908116603f011681016001600160401b0381118282101715610559576105596104ef565b604052818152838201602001851015610570575f5ffd5b8160208501602083015e5f918101602001919091529392505050565b5f5f5f5f5f60a086880312156105a0575f5ffd5b85516001600160401b038111156105b5575f5ffd5b6105c188828901610503565b602088015190965090506001600160401b038111156105de575f5ffd5b6105ea88828901610503565b60408801516060890151608090990151979a919950979695509350505050565b600181811c9082168061061e57607f821691505b60208210810361063c57634e487b7160e01b5f52602260045260245ffd5b50919050565b601f82111561068957805f5260205f20601f840160051c810160208510156106675750805b601f840160051c820191505b81811015610686575f8155600101610673565b50505b505050565b81516001600160401b038111156106a7576106a76104ef565b6106bb816106b5845461060a565b84610642565b6020601f8211600181146106ed575f83156106d65750848201515b5f19600385901b1c1916600184901b178455610686565b5f84815260208120601f198516915b8281101561071c57878501518255602094850194600190920191016106fc565b508482101561073957868401515f19600387901b60f8161c191681555b50505050600190811b01905550565b5f81546107548161060a565b80855260018216801561076e576001811461078a576107be565b60ff1983166020870152602082151560051b87010193506107be565b845f5260205f205f5b838110156107b55781546020828a010152600182019150602081019050610793565b87016020019450505b50505092915050565b6001600160a01b03841681526060602082018190525f906107ea90830185610748565b82810360408401526107fc8185610748565b9695505050505050565b8181038181111561023357634e487b7160e01b5f52601160045260245ffd5b634e487b7160e01b5f52603260045260245ffd5b634e487b7160e01b5f52603160045260245ffd5b602081525f82518060208401528060208501604085015e5f604082850101526040601f19601f83011684010191505092915050565b8051602080830151919081101561063c575f1960209190910360031b1b16919050565b60805160a05160c05160e05161010051610120516101405161016051610180516101a051613c796109285f395f81816108e70152610ba301525f81816107320152610db401525f818161087301528181610c17015281816112470152611d3301525f6127c201525f61279101525f50505f50505f50505f50505f5050613c795ff3fe608060405234801561000f575f5ffd5b506004361061031a575f3560e01c806375b238fc116101a8578063b4497115116100f3578063edf2a5961161009e578063f2a0bb7511610079578063f2a0bb75146108cf578063f6226e7c146108e2578063fc2d96d014610909578063fe575a871461091c575f5ffd5b8063edf2a5961461086e578063edfd2e8714610895578063f0f44260146108bc575f5ffd5b8063e88efe35116100ce578063e88efe351461083e578063eac989f814610853578063ebef6d971461085b575f5ffd5b8063b449711514610805578063cc5812cf14610818578063d902bf3a1461082b575f5ffd5b80638a4359e0116101535780639b642de11161012e5780639b642de1146107bd578063b367cac0146107d0578063b4324dd3146107e3575f5ffd5b80638a4359e01461078f578063918f8674146107a257806393d7dae5146107aa575f5ffd5b80637c1b5539116101835780637c1b55391461072d578063831af3791461075457806384b0196e14610774575f5ffd5b806375b238fc1461070057806376ff7577146107075780637b3c71d31461071a575f5ffd5b80632e2d8253116102685780634583476b11610213578063666ca2d6116101ee578063666ca2d6146106ba578063685b824a146106da5780637258883f146106ed575f5ffd5b80634583476b146105c657806354fd4d501461068857806356781388146106a7575f5ffd5b806341bd157d1161024357806341bd157d146105545780634385963214610567578063455a4396146105b3575f5ffd5b80632e2d8253146105285780633b19e84a1461053b5780633ca7c02a1461054c575f5ffd5b80631031bdb0116102c85780631d0b19e7116102a35780631d0b19e7146104af5780632179e04e146104c25780632d90fe5f14610515575f5ffd5b80631031bdb0146103d757806312561b1a14610463578063199093bb14610484575f5ffd5b806306fdde03116102f857806306fdde03146103b25780630d7abeaa146103ba5780630de6a601146103c4575f5ffd5b80630398f05f1461031e578063040b8c2414610347578063055dbe1014610390575b5f5ffd5b61033161032c366004612d95565b610947565b60405161033e9190612dda565b60405180910390f35b610379610355366004612dfd565b61ffff165f90815260036020526040902054600160a01b900465ffffffffffff1690565b60405165ffffffffffff909116815260200161033e565b600854600160a01b900461ffff165b60405161ffff909116815260200161033e565b6103316109e9565b6103c2610a75565b005b6103c26103d2366004612e5e565b610a88565b61043c6103e5366004612dfd565b61ffff165f81815260036020908152604091829020548251308184015280840194909452825180850384018152606090940190925282519201919091206001600160a01b038216929091600160d01b900460ff1690565b604080516001600160a01b039094168452602084019290925215159082015260600161033e565b610476610471366004612f54565b610e8f565b60405190815260200161033e565b610497610492366004612faa565b611070565b6040516001600160a01b03909116815260200161033e565b6103c26104bd366004612fde565b6110d4565b6104d56104d0366004612d95565b6110eb565b6040805165ffffffffffff909716875263ffffffff95861660208801528601939093529083166060850152821660808401521660a082015260c00161033e565b610331610523366004612d95565b611170565b610476610536366004613115565b61118f565b6008546001600160a01b0316610497565b6104765f1981565b610331610562366004612faa565b6114c4565b6105a3610575366004612fde565b5f8281526002602090815260408083206001600160a01b038516845260070190915290205460ff1692915050565b604051901515815260200161033e565b6103c26105c13660046131a5565b611581565b6106356105d4366004612d95565b5f908152600260208190526040909120805491810154600390910154600160f01b830461ffff169365ffffffffffff80851694600160301b8104821694600160601b8204831694600160901b909204909216926001600160a01b0390921691565b6040805161ffff909816885265ffffffffffff96871660208901529486169487019490945291841660608601529290921660808401526001600160a01b0390911660a083015260c082015260e00161033e565b604080518082019091526003815262302e3560e81b6020820152610331565b6103c26106b53660046131e1565b6115dc565b6106cd6106c8366004612d95565b6115f6565b60405161033e919061320b565b6103c26106e8366004612fde565b61173f565b6103c26106fb366004613231565b61178c565b6104765f81565b6103c261071536600461324c565b6117a0565b6103c26107283660046132b9565b611882565b6104767f000000000000000000000000000000000000000000000000000000000000000081565b610767610762366004612dfd565b6118c9565b60405161033e919061330f565b61077c6119a4565b60405161033e97969594939291906133a7565b61047661079d36600461343d565b6119e6565b610476606481565b6105a36107b8366004613465565b611a44565b6103c26107cb36600461348f565b611a86565b6103c26107de366004612dfd565b611a9a565b6104766107f1366004612d95565b5f9081526004602052604090206001015490565b61039f610813366004613621565b611b41565b610379610826366004613653565b611ba6565b610331610839366004612d95565b611c1e565b60085461039f90600160a01b900461ffff1681565b610331611c3d565b610476610869366004613115565b611c4a565b6104767f000000000000000000000000000000000000000000000000000000000000000081565b6104766108a3366004612dfd565b61ffff165f908152600360208190526040909120015490565b6103c26108ca366004613231565b61207e565b6103316108dd366004612d95565b6120cf565b6104767f000000000000000000000000000000000000000000000000000000000000000081565b6103c261091736600461366f565b6120ee565b6105a361092a366004613231565b6001600160a01b03165f9081526005602052604090205460ff1690565b5f81815260046020526040902060020180546060919061096690613730565b80601f016020809104026020016040519081016040528092919081815260200182805461099290613730565b80156109dd5780601f106109b4576101008083540402835291602001916109dd565b820191905f5260205f20905b8154815290600101906020018083116109c057829003601f168201915b50505050509050919050565b600680546109f690613730565b80601f0160208091040260200160405190810160405280929190818152602001828054610a2290613730565b8015610a6d5780601f10610a4457610100808354040283529160200191610a6d565b820191905f5260205f20905b815481529060010190602001808311610a5057829003601f168201915b505050505081565b610a7d6121c6565b610a8633612201565b565b61ffff88165f9081526003602052604090208054600160d01b900460ff16610ac357604051632e53afcd60e01b815260040160405180910390fd5b80546001600160a01b03163314610aed57604051635574892960e11b815260040160405180910390fd5b5f8881526002602052604090208054600160301b900465ffffffffffff161580610b2657508054600160901b900465ffffffffffff1615155b15610b44576040516301dd1d1560e71b815260040160405180910390fd5b8054600160601b900465ffffffffffff1615610b735760405163a517239560e01b815260040160405180910390fd5b868581141580610b835750808414155b15610ba15760405163dbf15fa560e01b815260040160405180910390fd5b7f0000000000000000000000000000000000000000000000000000000000000000811115610be25760405163d0b6a17960e01b815260040160405180910390fd5b815471ffffffffffff0000000000000000000000001916600160601b4365ffffffffffff16021782555f5b81811015610e4b577f0000000000000000000000000000000000000000000000000000000000000000868683818110610c4857610c48613768565b9050602002810190610c5a919061377c565b90501115610c7b57604051631c3bc5e360e31b815260040160405180910390fd5b610ca58a8a83818110610c9057610c90613768565b905060200201602081019061092a9190613231565b15610cc3576040516334d52f6b60e01b815260040160405180910390fd5b5f5f8b8b84818110610cd757610cd7613768565b9050602002016020810190610cec9190613231565b6001600160a01b03168a8a85818110610d0757610d07613768565b90506020020135898986818110610d2057610d20613768565b9050602002810190610d32919061377c565b604051610d409291906137bf565b5f6040518083038185875af1925050503d805f8114610d7a576040519150601f19603f3d011682016040523d82523d5f602084013e610d7f565b606091505b509150915081610db257805115610d995780518082602001fd5b604051631d8fb90d60e21b815260040160405180910390fd5b7f0000000000000000000000000000000000000000000000000000000000000000815111610e00576005850180546001810182555f918252602090912001610dfa828261381a565b50610e41565b604080515f602082015260058701910160408051601f1981840301815291905281546001810183555f928352602090922090910190610e3f908261381a565b505b5050600101610c0d565b505081547fffffffffffff000000000000ffffffffffffffffffffffffffffffffffffffff16600160a01b4365ffffffffffff160217909155505050505050505050565b61ffff84165f9081526003602052604081208054600160d01b900460ff16610eca57604051632e53afcd60e01b815260040160405180910390fd5b604051630b704dbd60e11b81525f9073d0b13dfb1825458b83ca6e7e875b2ddcaa346088906316e09b7a90610f09908a908a908a908a906004016138fd565b602060405180830381865af4158015610f24573d5f5f3e3d5ffd5b505050506040513d601f19601f82011682018060405250810190610f48919061392b565b5f81815260026020819052604090912090810154919250906001600160a01b0316336001600160a01b031614610f9157604051637365858560e01b815260040160405180910390fd5b805465ffffffffffff165f03610fba5760405163f661f4bf60e01b815260040160405180910390fd5b8054600160601b900465ffffffffffff16151580610fe757508054600160901b900465ffffffffffff1615155b156110055760405163b831530960e01b815260040160405180910390fd5b80547fffffffffffffffff000000000000ffffffffffffffffffffffffffffffffffff16600160901b4365ffffffffffff160217815560405182907f8eb4cfeba12ece86fc1590773502e55423b37db556543430337376b30d27c42b905f90a2509695505050505050565b5f828152600460205260408120600181015483106110a15760405163472e61bd60e01b815260040160405180910390fd5b8060010183815481106110b6576110b6613768565b5f918252602090912001546001600160a01b03169150505b92915050565b6110dc612259565b6110e782825f612279565b5050565b5f81815260026020526040812080546001820154839283928392839283929091600160c01b90910465ffffffffffff169063ffffffff1661112c8183613956565b60019390930154919a90995065ffffffffffff909216975063ffffffff640100000000820481169750600160401b820481169650600160601b909104169350915050565b5f81815260046020526040902060030180546060919061096690613730565b6008545f90600160b01b900460ff166111bb57604051630889b5b960e31b815260040160405180910390fd5b61ffff86165f9081526003602052604090208054600160d01b900460ff166111f657604051632e53afcd60e01b815260040160405180910390fd5b611201335b88611a44565b61121e57604051637079d1b960e11b815260040160405180910390fd5b6112273361092a565b15611245576040516334d52f6b60e01b815260040160405180910390fd5b7f000000000000000000000000000000000000000000000000000000000000000085111561128657604051631c3bc5e360e31b815260040160405180910390fd5b6002810154604051630b704dbd60e11b815263ffffffff821691600160801b900460ff169073d0b13dfb1825458b83ca6e7e875b2ddcaa346088906316e09b7a906112db908c908c908c908c906004016138fd565b602060405180830381865af41580156112f6573d5f5f3e3d5ffd5b505050506040513d601f19601f8201168201806040525081019061131a919061392b565b5f818152600260205260409020805491955090600160c01b900465ffffffffffff161561135a5760405163b831530960e01b815260040160405180910390fd5b8054600160f01b900461ffff165f03611387576003840180546001810182555f9182526020909120018590555b60048101611396898b83613974565b50805461ffff8b16600160f01b027dffffffffffffffffffffffffffffffffffffffffffffffff00000000000090911665ffffffffffff43161717815560ff82166113e1575f6113e3565b435b815465ffffffffffff91909116600160c01b027fffff000000000000ffffffffffffffffffffffffffffffffffffffffffffffff90911617815560018101805463ffffffff851663ffffffff199091161790556002810180546001600160a01b0319163317905560068101611458878261381a565b506003810187905561ffff8a1633867fb5856a9700a7e851456d3a16348b4ae0fbb11b06ac0af8dbe8e8652c57cc4cbd8c8c4361149b63ffffffff8b1682613a2e565b8e8e6040516114af96959493929190613a41565b60405180910390a45050505095945050505050565b5f828152600260205260409020600501805460609190839081106114ea576114ea613768565b905f5260205f200180546114fd90613730565b80601f016020809104026020016040519081016040528092919081815260200182805461152990613730565b80156115745780601f1061154b57610100808354040283529160200191611574565b820191905f5260205f20905b81548152906001019060200180831161155757829003601f168201915b5050505050905092915050565b611589612259565b6001600160a01b0382165f81815260056020526040808220805460ff191685151590811790915590519092917f921341769c2075d1ae425396063d5ab65ff5006c4bc0bd0821e50ce51fb6012391a35050565b6110e782338360405180602001604052805f8152506124e9565b5f818152600260205260408120805465ffffffffffff1615801561162857508054600160301b900465ffffffffffff16155b801561164257508054600160601b900465ffffffffffff16155b801561165c57508054600160901b900465ffffffffffff16155b1561166957505f92915050565b8054600160601b900465ffffffffffff16156116885750600792915050565b8054600160901b900465ffffffffffff16156116a75750600292915050565b8054600160301b900465ffffffffffff16156116c65750600692915050565b600181015481545f916116f09163ffffffff90911690600160c01b900465ffffffffffff16613956565b65ffffffffffff16905043811061170b575060039392505050565b6117148461266f565b158061172657506117248461270f565b155b15611735575060049392505050565b5060059392505050565b611747612259565b6001600160a01b0381165f9081526005602052604090205460ff1615611780576040516334d52f6b60e01b815260040160405180910390fd5b6110e782826001612279565b6117946121c6565b61179d81612201565b50565b6117a8612259565b81515f036117c9576040516333a0807f60e21b815260040160405180910390fd5b60ff825111156117ec576040516350cc0e8d60e01b815260040160405180910390fd5b60ff8151111561180f5760405163d315c6bd60e01b815260040160405180910390fd5b5f838152600460205260409020600201611829838261381a565b505f838152600460205260409020600301611844828261381a565b50827f4c6d3d4a776b1458bbd518e75903a3f27a0c6f4597b10882784aa64769d56c71836040516118759190612dda565b60405180910390a2505050565b6118c384338585858080601f0160208091040260200160405190810160405280939291908181526020018383808284375f920191909152506124e992505050565b50505050565b60408051610100810182525f80825260208201819052918101829052606081018290526080810182905260a0810182905260c0810182905260e08101919091525061ffff9081165f908152600360209081526040918290208251610100810184526001820154815260029091015463ffffffff808216938301939093526401000000008104831693820193909352600160401b83049091166060820152600160601b820483166080820152600160701b820490921660a083015260ff600160801b8204811660c0840152600160881b9091041660e082015290565b5f6060805f5f5f60606119b561278a565b6119bd6127bb565b604080515f80825260208201909252600f60f81b9b939a50919850469750309650945092509050565b61ffff82165f9081526003602081905260408220908101548310611a1d5760405163472e61bd60e01b815260040160405180910390fd5b806003018381548110611a3257611a32613768565b905f5260205f20015491505092915050565b61ffff81165f9081526003602052604081206001015481611a658583611ba6565b905065ffffffffffff8116151580611a7d57505f1982145b95945050505050565b611a8e612259565b60076110e7828261381a565b611aa2612259565b61ffff81165f90815260036020526040812054600160d01b900460ff1615159003611ae057604051632e53afcd60e01b815260040160405180910390fd5b61ffff81165f8181526003602052604080822080547fffffffffff00ffffffffffffffffffffffffffffffffffffffffffffffffffff169055517ffb1d94dcf467f70febf412166aaa551737afd946ba6a4b4eac970aaf28a7e74f9190a250565b5f611b4a612259565b611b53826127e8565b600854909150611b7090600190600160a01b900461ffff16613a92565b61ffff167f284812f41d73696d76ff026c35ebc1a8e8bf24544551c55dd0877334dca88a5660405160405180910390a25b919050565b5f8181526004602090815260408083206001600160a01b038616845291829052822054808303611bda575f925050506110ce565b81600101600182611beb9190613aac565b81548110611bfb57611bfb613768565b5f91825260209091200154600160a01b900465ffffffffffff1695945050505050565b5f81815260026020526040902060040180546060919061096690613730565b600780546109f690613730565b6008545f90600160b01b900460ff16611c7657604051630889b5b960e31b815260040160405180910390fd5b604051630b704dbd60e11b815273d0b13dfb1825458b83ca6e7e875b2ddcaa346088906316e09b7a90611cb39089908990899089906004016138fd565b602060405180830381865af4158015611cce573d5f5f3e3d5ffd5b505050506040513d601f19601f82011682018060405250810190611cf2919061392b565b61ffff87165f908152600360205260409020805491925090600160d01b900460ff16611d3157604051632e53afcd60e01b815260040160405180910390fd5b7f0000000000000000000000000000000000000000000000000000000000000000851115611d7257604051631c3bc5e360e31b815260040160405180910390fd5b611d7b3361092a565b15611d99576040516334d52f6b60e01b815260040160405180910390fd5b611da2336111fb565b611dbf57604051637079d1b960e11b815260040160405180910390fd5b5f8281526002602052604090208054600160301b900465ffffffffffff16151580611df957508054600160601b900465ffffffffffff1615155b15611e175760405163fc0e49ff60e01b815260040160405180910390fd5b8054600160901b900465ffffffffffff1615611e4657604051632ec3fe1560e11b815260040160405180910390fd5b8154604051633881b32960e01b815273d0b13dfb1825458b83ca6e7e875b2ddcaa34608891633881b32991611e98918c918c918c9130918d91600160a01b90910465ffffffffffff1690600401613abf565b5f6040518083038186803b158015611eae575f5ffd5b505af4158015611ec0573d5f5f3e3d5ffd5b50508254600160f01b900461ffff165f039150611ef39050576003820180546001810182555f9182526020909120018390555b600281018054336001600160a01b031990911617905580547dffffffffffffffffffffffffffffffffffff000000000000ffffffffffff16600160301b4365ffffffffffff16027dffffffffffffffffffffffffffffffffffffffffffffffffffffffffffff1617600160f01b61ffff8a160217815560048101611f78878983613974565b5060068101611f87858261381a565b506003810185905581546040516326a8b78760e11b81525f916001600160a01b031690634d516f0e90611fc69033908d908d908d908d90600401613b0b565b6020604051808303815f875af1158015611fe2573d5f5f3e3d5ffd5b505050506040513d601f19601f820116820180604052508101906120069190613b49565b9050806120265760405163382654b960e21b815260040160405180910390fd5b61ffff8916336001600160a01b03167f98e1e52af9c2155b4c2b4844cdccf64c85cb13dd804231d177ef6fea4325d4058a8a8a8a60405161206a9493929190613b64565b60405180910390a350505095945050505050565b612086612259565b6001600160a01b0381166120ad57604051636e7e8feb60e11b815260040160405180910390fd5b600880546001600160a01b0319166001600160a01b0392909216919091179055565b5f81815260026020526040902060060180546060919061096690613730565b6120f66121c6565b600854600160b01b900460ff1615612121576040516315ea064b60e31b815260040160405180910390fd5b600854600160a01b900461ffff165f5b82518110156121a2575f6001600160a01b031683828151811061215657612156613768565b6020026020010151602001516001600160a01b03161461219a576121938284838151811061218657612186613768565b602002602001015161282b565b8160010191505b600101612131565b506008805461ffff909216600160a01b0261ffff60a01b1990921691909117905550565b6121d05f5f611070565b6001600160a01b0316336001600160a01b031614610a8657604051630eaa87a560e21b815260040160405180910390fd5b336001600160a01b038216146122285761221c5f335f612279565b6122285f826001612279565b50600880547fffffffffffffffffff00ffffffffffffffffffffffffffffffffffffffffffff16600160b01b179055565b333014610a865760405163e890ccbf60e01b815260040160405180910390fd5b5f19830361229a5760405163a1dd2b9360e01b815260040160405180910390fd5b6001600160a01b0382166122c1576040516329f62b5d60e11b815260040160405180910390fd5b5f8381526004602090815260408083206001600160a01b038616845291829052909120548015158380156122f3575080155b15612374576040805180820182526001600160a01b0380881680835265ffffffffffff43811660208086019182526001808b01805491820181555f81815283812098519890920180549451909516600160a01b026001600160d01b0319909416979096169690961791909117909155915490835290869052919020556124a7565b8315801561237f5750805b156124a7576001838101545f9161239591613aac565b90505f8460010182815481106123ad576123ad613768565b5f918252602091829020604080518082019091529101546001600160a01b0381168252600160a01b900465ffffffffffff16918101919091529050806001868101906123f99087613aac565b8154811061240957612409613768565b5f918252602091829020835191018054939092015165ffffffffffff16600160a01b026001600160d01b03199093166001600160a01b03909116179190911790556001850180548061245d5761245d613b8f565b5f828152602080822083015f1990810180546001600160d01b031916905590920190925591516001600160a01b039081168252918690526040808220869055918816815290812055505b831515856001600160a01b0316877f294507a8f5830b538faef39fbdd28f1164f27c8338a32fc7b47ddf82e4c8d9e460405160405180910390a4505050505050565b5f848152600260205260409020805465ffffffffffff16158061251b57508054600160601b900465ffffffffffff1615155b8061253557508054600160901b900465ffffffffffff1615155b8061254f57508054600160301b900465ffffffffffff1615155b80612589575060018101548154439161257f9163ffffffff90911690600160c01b900465ffffffffffff16613956565b65ffffffffffff16105b156125a7576040516322024acd60e21b815260040160405180910390fd5b8054600160f01b900461ffff166125be8582611a44565b6125db57604051637079d1b960e11b815260040160405180910390fd5b6001600160a01b0385165f90815260078301602052604090205460ff16156126165760405163c9e3c8d960e01b815260040160405180910390fd5b612621868686612aae565b8360ff1686866001600160a01b03167f5be2678cab71c7d94235767eb1df3c57673f19e805cdc0edbd2e74854ae9f0f98660405161265f9190612dda565b60405180910390a4505050505050565b5f8181526002602052604081208054829061269490600160f01b900461ffff166118c9565b80515f9081526004602052604090206001015460c08201519192509060ff161580611a7d575060018301546064906126e29063ffffffff600160601b8204811691600160401b900416613ba3565b63ffffffff166126f29190613bbf565b60c08301516127049060ff1683613bbf565b111595945050505050565b5f8181526002602052604081208054829061273490600160f01b900461ffff166118c9565b80515f9081526004602052604090206001015460c08201519192509060ff161580611a7d5750600183015461277890606490600160401b900463ffffffff16613bbf565b60e08301516127049060ff1683613bbf565b60606127b67f00000000000000000000000000000000000000000000000000000000000000005f612b99565b905090565b60606127b67f00000000000000000000000000000000000000000000000000000000000000006001612b99565b600854600160a01b900461ffff16612800818361282b565b60088054600161ffff600160a01b808404821692909201160261ffff60a01b19909116179055919050565b612840816020015163a988d3f560e01b612c42565b612872576020810151604051631f09f19160e21b81526001600160a01b03909116600482015260240160405180910390fd5b61289781602001516001600160a01b03165f9081526005602052604090205460ff1690565b156128b5576040516334d52f6b60e01b815260040160405180910390fd5b6060810151515f191480156128d457505f816060015160c0015160ff16115b156128f257604051632e562fc560e01b815260040160405180910390fd5b61ffff8083165f908152600360209081526040918290208054858301516001600160a01b03167fffffffffff00ffffffffffff00000000000000000000000000000000000000009091168117600160d01b17825560608087015180516001850155938401516002840180548688015193870151608088015160a089015160c08a015160e0909a015160ff908116600160881b0271ff0000000000000000000000000000000000199b909116600160801b0270ff0000000000000000000000000000000019928e16600160701b029290921670ffffff00000000000000000000000000001993909d16600160601b026dffff0000000000000000000000001963ffffffff958616600160401b02166dffffffffffff0000000000000000199986166401000000000267ffffffffffffffff199097169590981694909417949094179690961694909417179290921697909717919091179390931692909217909355835184830151925163b1f50f8960e01b8152919263b1f50f8992612a7c9288929091600401613bd6565b5f604051808303815f87803b158015612a93575f5ffd5b505af1158015612aa5573d5f5f3e3d5ffd5b50505050505050565b5f8381526002602090815260408083206001600160a01b038616845260078101909252909120805460ff1916600117905560ff8216612b2b57600181018054640100000000900463ffffffff16906004612b0783613c1f565b91906101000a81548163ffffffff021916908363ffffffff160217905550506118c3565b5f1960ff831601612b5557600181018054600160401b900463ffffffff16906008612b0783613c1f565b60011960ff831601612b8057600181018054600160601b900463ffffffff1690600c612b0783613c1f565b6040516333397b4360e11b815260040160405180910390fd5b606060ff8314612bb357612bac83612c64565b90506110ce565b818054612bbf90613730565b80601f0160208091040260200160405190810160405280929190818152602001828054612beb90613730565b8015612c365780601f10612c0d57610100808354040283529160200191612c36565b820191905f5260205f20905b815481529060010190602001808311612c1957829003601f168201915b505050505090506110ce565b5f612c4c83612ca1565b8015612c5d5750612c5d8383612cd3565b9392505050565b60605f612c7083612d6e565b6040805160208082528183019092529192505f91906020820181803683375050509182525060208101929092525090565b5f612cb3826301ffc9a760e01b612cd3565b80156110ce5750612ccc826001600160e01b0319612cd3565b1592915050565b6040516001600160e01b0319821660248201525f90819060440160408051601f19818403018152919052602080820180517bffffffffffffffffffffffffffffffffffffffffffffffffffffffff166301ffc9a760e01b17815282519293505f9283928392909183918a617530fa92503d91505f519050828015612d58575060208210155b8015612d6357505f81115b979650505050505050565b5f60ff8216601f8111156110ce57604051632cd44ac360e21b815260040160405180910390fd5b5f60208284031215612da5575f5ffd5b5035919050565b5f81518084528060208401602086015e5f602082860101526020601f19601f83011685010191505092915050565b602081525f612c5d6020830184612dac565b803561ffff81168114611ba1575f5ffd5b5f60208284031215612e0d575f5ffd5b612c5d82612dec565b5f5f83601f840112612e26575f5ffd5b50813567ffffffffffffffff811115612e3d575f5ffd5b6020830191508360208260051b8501011115612e57575f5ffd5b9250929050565b5f5f5f5f5f5f5f5f60a0898b031215612e75575f5ffd5b612e7e89612dec565b975060208901359650604089013567ffffffffffffffff811115612ea0575f5ffd5b612eac8b828c01612e16565b909750955050606089013567ffffffffffffffff811115612ecb575f5ffd5b612ed78b828c01612e16565b909550935050608089013567ffffffffffffffff811115612ef6575f5ffd5b612f028b828c01612e16565b999c989b5096995094979396929594505050565b5f5f83601f840112612f26575f5ffd5b50813567ffffffffffffffff811115612f3d575f5ffd5b602083019150836020828501011115612e57575f5ffd5b5f5f5f5f60608587031215612f67575f5ffd5b612f7085612dec565b9350602085013567ffffffffffffffff811115612f8b575f5ffd5b612f9787828801612f16565b9598909750949560400135949350505050565b5f5f60408385031215612fbb575f5ffd5b50508035926020909101359150565b6001600160a01b038116811461179d575f5ffd5b5f5f60408385031215612fef575f5ffd5b82359150602083013561300181612fca565b809150509250929050565b634e487b7160e01b5f52604160045260245ffd5b604051610100810167ffffffffffffffff811182821017156130445761304461300c565b60405290565b6040516080810167ffffffffffffffff811182821017156130445761304461300c565b604051601f8201601f1916810167ffffffffffffffff811182821017156130965761309661300c565b604052919050565b5f5f67ffffffffffffffff8411156130b8576130b861300c565b50601f8301601f19166020016130cd8161306d565b9150508281528383830111156130e1575f5ffd5b828260208301375f602084830101529392505050565b5f82601f830112613106575f5ffd5b612c5d8383356020850161309e565b5f5f5f5f5f60808688031215613129575f5ffd5b61313286612dec565b9450602086013567ffffffffffffffff81111561314d575f5ffd5b61315988828901612f16565b90955093505060408601359150606086013567ffffffffffffffff81111561317f575f5ffd5b61318b888289016130f7565b9150509295509295909350565b801515811461179d575f5ffd5b5f5f604083850312156131b6575f5ffd5b82356131c181612fca565b9150602083013561300181613198565b803560ff81168114611ba1575f5ffd5b5f5f604083850312156131f2575f5ffd5b82359150613202602084016131d1565b90509250929050565b602081016008831061322b57634e487b7160e01b5f52602160045260245ffd5b91905290565b5f60208284031215613241575f5ffd5b8135612c5d81612fca565b5f5f5f6060848603121561325e575f5ffd5b83359250602084013567ffffffffffffffff81111561327b575f5ffd5b613287868287016130f7565b925050604084013567ffffffffffffffff8111156132a3575f5ffd5b6132af868287016130f7565b9150509250925092565b5f5f5f5f606085870312156132cc575f5ffd5b843593506132dc602086016131d1565b9250604085013567ffffffffffffffff8111156132f7575f5ffd5b61330387828801612f16565b95989497509550505050565b5f610100820190508251825263ffffffff602084015116602083015263ffffffff604084015116604083015263ffffffff60608401511660608301526080830151613360608084018261ffff169052565b5060a083015161337660a084018261ffff169052565b5060c083015161338b60c084018260ff169052565b5060e08301516133a060e084018260ff169052565b5092915050565b60ff60f81b8816815260e060208201525f6133c560e0830189612dac565b82810360408401526133d78189612dac565b606084018890526001600160a01b038716608085015260a0840186905283810360c0850152845180825260208087019350909101905f5b8181101561342c57835183526020938401939092019160010161340e565b50909b9a5050505050505050505050565b5f5f6040838503121561344e575f5ffd5b61345783612dec565b946020939093013593505050565b5f5f60408385031215613476575f5ffd5b823561348181612fca565b915061320260208401612dec565b5f6020828403121561349f575f5ffd5b813567ffffffffffffffff8111156134b5575f5ffd5b6134c1848285016130f7565b949350505050565b803563ffffffff81168114611ba1575f5ffd5b5f61010082840312156134ed575f5ffd5b6134f5613020565b823581529050613507602083016134c9565b6020820152613518604083016134c9565b6040820152613529606083016134c9565b606082015261353a60808301612dec565b608082015261354b60a08301612dec565b60a082015261355c60c083016131d1565b60c082015261356d60e083016131d1565b60e082015292915050565b5f6101608284031215613589575f5ffd5b61359161304a565b9050813567ffffffffffffffff8111156135a9575f5ffd5b6135b5848285016130f7565b82525060208201356135c681612fca565b6020820152604082013567ffffffffffffffff8111156135e4575f5ffd5b8201601f810184136135f4575f5ffd5b6136038482356020840161309e565b60408301525061361683606084016134dc565b606082015292915050565b5f60208284031215613631575f5ffd5b813567ffffffffffffffff811115613647575f5ffd5b6134c184828501613578565b5f5f60408385031215613664575f5ffd5b823561345781612fca565b5f6020828403121561367f575f5ffd5b813567ffffffffffffffff811115613695575f5ffd5b8201601f810184136136a5575f5ffd5b803567ffffffffffffffff8111156136bf576136bf61300c565b8060051b6136cf6020820161306d565b918252602081840181019290810190878411156136ea575f5ffd5b6020850192505b83831015612d6357823567ffffffffffffffff81111561370f575f5ffd5b61371e89602083890101613578565b835250602092830192909101906136f1565b600181811c9082168061374457607f821691505b60208210810361376257634e487b7160e01b5f52602260045260245ffd5b50919050565b634e487b7160e01b5f52603260045260245ffd5b5f5f8335601e19843603018112613791575f5ffd5b83018035915067ffffffffffffffff8211156137ab575f5ffd5b602001915036819003821315612e57575f5ffd5b818382375f9101908152919050565b601f82111561381557805f5260205f20601f840160051c810160208510156137f35750805b601f840160051c820191505b81811015613812575f81556001016137ff565b50505b505050565b815167ffffffffffffffff8111156138345761383461300c565b613848816138428454613730565b846137ce565b6020601f82116001811461387a575f83156138635750848201515b5f19600385901b1c1916600184901b178455613812565b5f84815260208120601f198516915b828110156138a95787850151825560209485019460019092019101613889565b50848210156138c657868401515f19600387901b60f8161c191681555b50505050600190811b01905550565b81835281816020850137505f828201602090810191909152601f909101601f19169091010190565b61ffff85168152606060208201525f61391a6060830185876138d5565b905082604083015295945050505050565b5f6020828403121561393b575f5ffd5b5051919050565b634e487b7160e01b5f52601160045260245ffd5b65ffffffffffff81811683821601908111156110ce576110ce613942565b67ffffffffffffffff83111561398c5761398c61300c565b6139a08361399a8354613730565b836137ce565b5f601f8411600181146139d1575f85156139ba5750838201355b5f19600387901b1c1916600186901b178355613812565b5f83815260208120601f198716915b82811015613a0057868501358255602094850194600190920191016139e0565b5086821015613a1c575f1960f88860031b161c19848701351681555b505060018560011b0183555050505050565b808201808211156110ce576110ce613942565b60c081525f60c082015260e060208201525f613a6160e08301888a6138d5565b86604084015285606084015284608084015282810360a0840152613a858185612dac565b9998505050505050505050565b61ffff82811682821603908111156110ce576110ce613942565b818103818111156110ce576110ce613942565b61ffff8716815260a060208201525f613adc60a0830187896138d5565b6001600160a01b0395909516604083015250606081019290925265ffffffffffff166080909101529392505050565b6001600160a01b038616815261ffff85166020820152608060408201525f613b376080830185876138d5565b90508260608301529695505050505050565b5f60208284031215613b59575f5ffd5b8151612c5d81613198565b606081525f613b776060830186886138d5565b8460208401528281036040840152612d638185612dac565b634e487b7160e01b5f52603160045260245ffd5b63ffffffff81811683821601908111156110ce576110ce613942565b80820281158282048414176110ce576110ce613942565b61ffff84168152608060208201525f613bf26080830185612dac565b8281038060408501525f825260208101606085015250613c156020820185612dac565b9695505050505050565b5f63ffffffff821663ffffffff8103613c3a57613c3a613942565b6001019291505056fea26469706673582212206def8d435edabe21f9c7358e3eb1605e96eb573fe4bbfc700e6113a6246de12f64736f6c634300081e0033","linkReferences":{}},"methodIdentifiers":{"ADMIN_ROLE()":"75b238fc","DENOMINATOR()":"918f8674","MAX_CALLDATA_LENGTH()":"edf2a596","MAX_EXECUTIONS_LENGTH()":"f6226e7c","MAX_RETURN_DATA_LENGTH()":"7c1b5539","PUBLIC_ROLE()":"3ca7c02a","adoptMandate((string,address,bytes,(uint256,uint32,uint32,uint32,uint16,uint16,uint8,uint8)))":"b4497115","assignRole(uint256,address)":"685b824a","blacklistAddress(address,bool)":"455a4396","canCallMandate(address,uint16)":"93d7dae5","cancel(uint16,bytes,uint256)":"12561b1a","castVote(uint256,uint8)":"56781388","castVoteWithReason(uint256,uint8,string)":"7b3c71d3","closeConstitute()":"0d7abeaa","closeConstitute(address)":"7258883f","constitute((string,address,bytes,(uint256,uint32,uint32,uint32,uint16,uint16,uint8,uint8))[])":"fc2d96d0","eip712Domain()":"84b0196e","fulfill(uint16,uint256,address[],uint256[],bytes[])":"0de6a601","getActionCalldata(uint256)":"d902bf3a","getActionData(uint256)":"4583476b","getActionReturnData(uint256,uint256)":"41bd157d","getActionState(uint256)":"666ca2d6","getActionUri(uint256)":"f2a0bb75","getActionVoteData(uint256)":"2179e04e","getAdoptedMandate(uint16)":"1031bdb0","getAmountRoleHolders(uint256)":"b4324dd3","getConditions(uint16)":"831af379","getLatestFulfillment(uint16)":"040b8c24","getMandateActionAtIndex(uint16,uint256)":"8a4359e0","getMandateCounter()":"055dbe10","getQuantityMandateActions(uint16)":"edfd2e87","getRoleHolderAtIndex(uint256,uint256)":"199093bb","getRoleLabel(uint256)":"0398f05f","getRoleMetadata(uint256)":"2d90fe5f","getTreasury()":"3b19e84a","hasRoleSince(address,uint256)":"cc5812cf","hasVoted(uint256,address)":"43859632","isBlacklisted(address)":"fe575a87","labelRole(uint256,string,string)":"76ff7577","mandateCounter()":"e88efe35","name()":"06fdde03","propose(uint16,bytes,uint256,string)":"2e2d8253","request(uint16,bytes,uint256,string)":"ebef6d97","revokeMandate(uint16)":"b367cac0","revokeRole(uint256,address)":"1d0b19e7","setTreasury(address)":"f0f44260","setUri(string)":"9b642de1","uri()":"eac989f8","version()":"54fd4d50"},"id":128}