{"abi":[{"type":"constructor","inputs":[{"name":"name_","type":"string","internalType":"string"},{"name":"uri_","type":"string","internalType":"string"},{"name":"maxCallDataLength_","type":"uint256","internalType":"uint256"},{"name":"maxReturnDataLength_","type":"uint256","internalType":"uint256"},{"name":"maxExecutionsLength_","type":"uint256","internalType":"uint256"}],"stateMutability":"payable"},{"type":"receive","stateMutability":"payable"},{"type":"function","name":"ADMIN_ROLE","inputs":[],"outputs":[{"name":"","type":"uint256","internalType":"uint256"}],"stateMutability":"view"},{"type":"function","name":"DENOMINATOR","inputs":[],"outputs":[{"name":"","type":"uint256","internalType":"uint256"}],"stateMutability":"view"},{"type":"function","name":"FOUNDED_AT","inputs":[],"outputs":[{"name":"","type":"uint256","internalType":"uint256"}],"stateMutability":"view"},{"type":"function","name":"MAX_CALLDATA_LENGTH","inputs":[],"outputs":[{"name":"","type":"uint256","internalType":"uint256"}],"stateMutability":"view"},{"type":"function","name":"MAX_EXECUTIONS_LENGTH","inputs":[],"outputs":[{"name":"","type":"uint256","internalType":"uint256"}],"stateMutability":"view"},{"type":"function","name":"MAX_RETURN_DATA_LENGTH","inputs":[],"outputs":[{"name":"","type":"uint256","internalType":"uint256"}],"stateMutability":"view"},{"type":"function","name":"PUBLIC_ROLE","inputs":[],"outputs":[{"name":"","type":"uint256","internalType":"uint256"}],"stateMutability":"view"},{"type":"function","name":"adoptMandate","inputs":[{"name":"mandateInitData","type":"tuple","internalType":"struct PowersTypes.MandateInitData","components":[{"name":"nameDescription","type":"string","internalType":"string"},{"name":"targetMandate","type":"address","internalType":"address"},{"name":"config","type":"bytes","internalType":"bytes"},{"name":"conditions","type":"tuple","internalType":"struct PowersTypes.Conditions","components":[{"name":"allowedRole","type":"uint256","internalType":"uint256"},{"name":"votingPeriod","type":"uint32","internalType":"uint32"},{"name":"timelock","type":"uint32","internalType":"uint32"},{"name":"throttleExecution","type":"uint32","internalType":"uint32"},{"name":"needFulfilled","type":"uint16","internalType":"uint16"},{"name":"needNotFulfilled","type":"uint16","internalType":"uint16"},{"name":"quorum","type":"uint8","internalType":"uint8"},{"name":"succeedAt","type":"uint8","internalType":"uint8"}]}]}],"outputs":[{"name":"mandateId","type":"uint16","internalType":"uint16"}],"stateMutability":"nonpayable"},{"type":"function","name":"assignRole","inputs":[{"name":"roleId","type":"uint256","internalType":"uint256"},{"name":"account","type":"address","internalType":"address"}],"outputs":[],"stateMutability":"nonpayable"},{"type":"function","name":"blacklistAddress","inputs":[{"name":"account","type":"address","internalType":"address"},{"name":"blacklisted","type":"bool","internalType":"bool"}],"outputs":[],"stateMutability":"nonpayable"},{"type":"function","name":"canCallMandate","inputs":[{"name":"caller","type":"address","internalType":"address"},{"name":"mandateId","type":"uint16","internalType":"uint16"}],"outputs":[{"name":"","type":"bool","internalType":"bool"}],"stateMutability":"view"},{"type":"function","name":"cancel","inputs":[{"name":"mandateId","type":"uint16","internalType":"uint16"},{"name":"mandateCalldata","type":"bytes","internalType":"bytes"},{"name":"nonce","type":"uint256","internalType":"uint256"}],"outputs":[{"name":"","type":"uint256","internalType":"uint256"}],"stateMutability":"nonpayable"},{"type":"function","name":"castVote","inputs":[{"name":"actionId","type":"uint256","internalType":"uint256"},{"name":"support","type":"uint8","internalType":"uint8"}],"outputs":[],"stateMutability":"nonpayable"},{"type":"function","name":"castVoteWithReason","inputs":[{"name":"actionId","type":"uint256","internalType":"uint256"},{"name":"support","type":"uint8","internalType":"uint8"},{"name":"reason","type":"string","internalType":"string"}],"outputs":[],"stateMutability":"nonpayable"},{"type":"function","name":"closeConstitute","inputs":[],"outputs":[],"stateMutability":"nonpayable"},{"type":"function","name":"closeConstitute","inputs":[{"name":"newAdmin","type":"address","internalType":"address"}],"outputs":[],"stateMutability":"nonpayable"},{"type":"function","name":"constitute","inputs":[{"name":"constituentMandates","type":"tuple[]","internalType":"struct PowersTypes.MandateInitData[]","components":[{"name":"nameDescription","type":"string","internalType":"string"},{"name":"targetMandate","type":"address","internalType":"address"},{"name":"config","type":"bytes","internalType":"bytes"},{"name":"conditions","type":"tuple","internalType":"struct PowersTypes.Conditions","components":[{"name":"allowedRole","type":"uint256","internalType":"uint256"},{"name":"votingPeriod","type":"uint32","internalType":"uint32"},{"name":"timelock","type":"uint32","internalType":"uint32"},{"name":"throttleExecution","type":"uint32","internalType":"uint32"},{"name":"needFulfilled","type":"uint16","internalType":"uint16"},{"name":"needNotFulfilled","type":"uint16","internalType":"uint16"},{"name":"quorum","type":"uint8","internalType":"uint8"},{"name":"succeedAt","type":"uint8","internalType":"uint8"}]}]}],"outputs":[],"stateMutability":"nonpayable"},{"type":"function","name":"eip712Domain","inputs":[],"outputs":[{"name":"fields","type":"bytes1","internalType":"bytes1"},{"name":"name","type":"string","internalType":"string"},{"name":"version","type":"string","internalType":"string"},{"name":"chainId","type":"uint256","internalType":"uint256"},{"name":"verifyingContract","type":"address","internalType":"address"},{"name":"salt","type":"bytes32","internalType":"bytes32"},{"name":"extensions","type":"uint256[]","internalType":"uint256[]"}],"stateMutability":"view"},{"type":"function","name":"fulfill","inputs":[{"name":"mandateId","type":"uint16","internalType":"uint16"},{"name":"actionId","type":"uint256","internalType":"uint256"},{"name":"targets","type":"address[]","internalType":"address[]"},{"name":"values","type":"uint256[]","internalType":"uint256[]"},{"name":"calldatas","type":"bytes[]","internalType":"bytes[]"}],"outputs":[],"stateMutability":"nonpayable"},{"type":"function","name":"getActionCalldata","inputs":[{"name":"actionId","type":"uint256","internalType":"uint256"}],"outputs":[{"name":"callData","type":"bytes","internalType":"bytes"}],"stateMutability":"view"},{"type":"function","name":"getActionData","inputs":[{"name":"actionId","type":"uint256","internalType":"uint256"}],"outputs":[{"name":"mandateId","type":"uint16","internalType":"uint16"},{"name":"proposedAt","type":"uint48","internalType":"uint48"},{"name":"requestedAt","type":"uint48","internalType":"uint48"},{"name":"fulfilledAt","type":"uint48","internalType":"uint48"},{"name":"cancelledAt","type":"uint48","internalType":"uint48"},{"name":"caller","type":"address","internalType":"address"},{"name":"nonce","type":"uint256","internalType":"uint256"}],"stateMutability":"view"},{"type":"function","name":"getActionReturnData","inputs":[{"name":"actionId","type":"uint256","internalType":"uint256"},{"name":"index","type":"uint256","internalType":"uint256"}],"outputs":[{"name":"returnData","type":"bytes","internalType":"bytes"}],"stateMutability":"view"},{"type":"function","name":"getActionState","inputs":[{"name":"actionId","type":"uint256","internalType":"uint256"}],"outputs":[{"name":"","type":"uint8","internalType":"enum PowersTypes.ActionState"}],"stateMutability":"view"},{"type":"function","name":"getActionUri","inputs":[{"name":"actionId","type":"uint256","internalType":"uint256"}],"outputs":[{"name":"_uri","type":"string","internalType":"string"}],"stateMutability":"view"},{"type":"function","name":"getActionVoteData","inputs":[{"name":"actionId","type":"uint256","internalType":"uint256"}],"outputs":[{"name":"voteStart","type":"uint48","internalType":"uint48"},{"name":"voteDuration","type":"uint32","internalType":"uint32"},{"name":"voteEnd","type":"uint256","internalType":"uint256"},{"name":"againstVotes","type":"uint32","internalType":"uint32"},{"name":"forVotes","type":"uint32","internalType":"uint32"},{"name":"abstainVotes","type":"uint32","internalType":"uint32"}],"stateMutability":"view"},{"type":"function","name":"getAdoptedMandate","inputs":[{"name":"mandateId","type":"uint16","internalType":"uint16"}],"outputs":[{"name":"mandate","type":"address","internalType":"address"},{"name":"mandateHash","type":"bytes32","internalType":"bytes32"},{"name":"active","type":"bool","internalType":"bool"}],"stateMutability":"view"},{"type":"function","name":"getAmountRoleHolders","inputs":[{"name":"roleId","type":"uint256","internalType":"uint256"}],"outputs":[{"name":"amountMembers","type":"uint256","internalType":"uint256"}],"stateMutability":"view"},{"type":"function","name":"getConditions","inputs":[{"name":"mandateId","type":"uint16","internalType":"uint16"}],"outputs":[{"name":"conditions","type":"tuple","internalType":"struct PowersTypes.Conditions","components":[{"name":"allowedRole","type":"uint256","internalType":"uint256"},{"name":"votingPeriod","type":"uint32","internalType":"uint32"},{"name":"timelock","type":"uint32","internalType":"uint32"},{"name":"throttleExecution","type":"uint32","internalType":"uint32"},{"name":"needFulfilled","type":"uint16","internalType":"uint16"},{"name":"needNotFulfilled","type":"uint16","internalType":"uint16"},{"name":"quorum","type":"uint8","internalType":"uint8"},{"name":"succeedAt","type":"uint8","internalType":"uint8"}]}],"stateMutability":"view"},{"type":"function","name":"getLatestFulfillment","inputs":[{"name":"mandateId","type":"uint16","internalType":"uint16"}],"outputs":[{"name":"latestFulfillment","type":"uint48","internalType":"uint48"}],"stateMutability":"view"},{"type":"function","name":"getMandateActionAtIndex","inputs":[{"name":"mandateId","type":"uint16","internalType":"uint16"},{"name":"index","type":"uint256","internalType":"uint256"}],"outputs":[{"name":"actionId","type":"uint256","internalType":"uint256"}],"stateMutability":"view"},{"type":"function","name":"getMandateCounter","inputs":[],"outputs":[{"name":"","type":"uint16","internalType":"uint16"}],"stateMutability":"view"},{"type":"function","name":"getQuantityMandateActions","inputs":[{"name":"mandateId","type":"uint16","internalType":"uint16"}],"outputs":[{"name":"quantityMandateActions","type":"uint256","internalType":"uint256"}],"stateMutability":"view"},{"type":"function","name":"getRoleHolderAtIndex","inputs":[{"name":"roleId","type":"uint256","internalType":"uint256"},{"name":"index","type":"uint256","internalType":"uint256"}],"outputs":[{"name":"account","type":"address","internalType":"address"}],"stateMutability":"view"},{"type":"function","name":"getRoleLabel","inputs":[{"name":"roleId","type":"uint256","internalType":"uint256"}],"outputs":[{"name":"label","type":"string","internalType":"string"}],"stateMutability":"view"},{"type":"function","name":"getRoleMetadata","inputs":[{"name":"roleId","type":"uint256","internalType":"uint256"}],"outputs":[{"name":"metadata","type":"string","internalType":"string"}],"stateMutability":"view"},{"type":"function","name":"getTreasury","inputs":[],"outputs":[{"name":"","type":"address","internalType":"address payable"}],"stateMutability":"view"},{"type":"function","name":"hasRoleSince","inputs":[{"name":"account","type":"address","internalType":"address"},{"name":"roleId","type":"uint256","internalType":"uint256"}],"outputs":[{"name":"since","type":"uint48","internalType":"uint48"}],"stateMutability":"view"},{"type":"function","name":"hasVoted","inputs":[{"name":"actionId","type":"uint256","internalType":"uint256"},{"name":"account","type":"address","internalType":"address"}],"outputs":[{"name":"","type":"bool","internalType":"bool"}],"stateMutability":"view"},{"type":"function","name":"isBlacklisted","inputs":[{"name":"account","type":"address","internalType":"address"}],"outputs":[{"name":"","type":"bool","internalType":"bool"}],"stateMutability":"view"},{"type":"function","name":"labelRole","inputs":[{"name":"roleId","type":"uint256","internalType":"uint256"},{"name":"label","type":"string","internalType":"string"},{"name":"metadata","type":"string","internalType":"string"}],"outputs":[],"stateMutability":"nonpayable"},{"type":"function","name":"mandateCounter","inputs":[],"outputs":[{"name":"","type":"uint16","internalType":"uint16"}],"stateMutability":"view"},{"type":"function","name":"name","inputs":[],"outputs":[{"name":"","type":"string","internalType":"string"}],"stateMutability":"view"},{"type":"function","name":"propose","inputs":[{"name":"mandateId","type":"uint16","internalType":"uint16"},{"name":"mandateCalldata","type":"bytes","internalType":"bytes"},{"name":"nonce","type":"uint256","internalType":"uint256"},{"name":"uriAction","type":"string","internalType":"string"}],"outputs":[{"name":"actionId","type":"uint256","internalType":"uint256"}],"stateMutability":"nonpayable"},{"type":"function","name":"request","inputs":[{"name":"mandateId","type":"uint16","internalType":"uint16"},{"name":"mandateCalldata","type":"bytes","internalType":"bytes"},{"name":"nonce","type":"uint256","internalType":"uint256"},{"name":"uriAction","type":"string","internalType":"string"}],"outputs":[{"name":"actionId","type":"uint256","internalType":"uint256"}],"stateMutability":"nonpayable"},{"type":"function","name":"revokeMandate","inputs":[{"name":"mandateId","type":"uint16","internalType":"uint16"}],"outputs":[],"stateMutability":"nonpayable"},{"type":"function","name":"revokeRole","inputs":[{"name":"roleId","type":"uint256","internalType":"uint256"},{"name":"account","type":"address","internalType":"address"}],"outputs":[],"stateMutability":"nonpayable"},{"type":"function","name":"setTreasury","inputs":[{"name":"newTreasury","type":"address","internalType":"address payable"}],"outputs":[],"stateMutability":"nonpayable"},{"type":"function","name":"setUri","inputs":[{"name":"newUri","type":"string","internalType":"string"}],"outputs":[],"stateMutability":"nonpayable"},{"type":"function","name":"uri","inputs":[],"outputs":[{"name":"","type":"string","internalType":"string"}],"stateMutability":"view"},{"type":"function","name":"version","inputs":[],"outputs":[{"name":"","type":"string","internalType":"string"}],"stateMutability":"pure"},{"type":"event","name":"ActionFulfilled","inputs":[{"name":"mandateId","type":"uint16","indexed":true,"internalType":"uint16"},{"name":"actionId","type":"uint256","indexed":true,"internalType":"uint256"},{"name":"targets","type":"address[]","indexed":false,"internalType":"address[]"},{"name":"values","type":"uint256[]","indexed":false,"internalType":"uint256[]"},{"name":"calldatas","type":"bytes[]","indexed":false,"internalType":"bytes[]"}],"anonymous":false},{"type":"event","name":"ActionRequested","inputs":[{"name":"caller","type":"address","indexed":true,"internalType":"address"},{"name":"mandateId","type":"uint16","indexed":true,"internalType":"uint16"},{"name":"mandateCalldata","type":"bytes","indexed":false,"internalType":"bytes"},{"name":"nonce","type":"uint256","indexed":false,"internalType":"uint256"},{"name":"description","type":"string","indexed":false,"internalType":"string"}],"anonymous":false},{"type":"event","name":"BlacklistSet","inputs":[{"name":"account","type":"address","indexed":true,"internalType":"address"},{"name":"blacklisted","type":"bool","indexed":true,"internalType":"bool"}],"anonymous":false},{"type":"event","name":"EIP712DomainChanged","inputs":[],"anonymous":false},{"type":"event","name":"FundsReceived","inputs":[{"name":"sender","type":"address","indexed":false,"internalType":"address"},{"name":"value","type":"uint256","indexed":false,"internalType":"uint256"}],"anonymous":false},{"type":"event","name":"MandateAdopted","inputs":[{"name":"mandateId","type":"uint16","indexed":true,"internalType":"uint16"}],"anonymous":false},{"type":"event","name":"MandateRevoked","inputs":[{"name":"mandateId","type":"uint16","indexed":true,"internalType":"uint16"}],"anonymous":false},{"type":"event","name":"PowersRoleSet","inputs":[{"name":"roleId","type":"uint256","indexed":true,"internalType":"uint256"},{"name":"account","type":"address","indexed":true,"internalType":"address"},{"name":"access","type":"bool","indexed":true,"internalType":"bool"}],"anonymous":false},{"type":"event","name":"Powers__Initialized","inputs":[{"name":"contractAddress","type":"address","indexed":false,"internalType":"address"},{"name":"name","type":"string","indexed":false,"internalType":"string"},{"name":"uri","type":"string","indexed":false,"internalType":"string"}],"anonymous":false},{"type":"event","name":"ProposedActionCancelled","inputs":[{"name":"actionId","type":"uint256","indexed":true,"internalType":"uint256"}],"anonymous":false},{"type":"event","name":"ProposedActionCreated","inputs":[{"name":"actionId","type":"uint256","indexed":true,"internalType":"uint256"},{"name":"caller","type":"address","indexed":true,"internalType":"address"},{"name":"mandateId","type":"uint16","indexed":true,"internalType":"uint16"},{"name":"signature","type":"string","indexed":false,"internalType":"string"},{"name":"executeCalldata","type":"bytes","indexed":false,"internalType":"bytes"},{"name":"voteStart","type":"uint256","indexed":false,"internalType":"uint256"},{"name":"voteEnd","type":"uint256","indexed":false,"internalType":"uint256"},{"name":"nonce","type":"uint256","indexed":false,"internalType":"uint256"},{"name":"description","type":"string","indexed":false,"internalType":"string"}],"anonymous":false},{"type":"event","name":"RoleLabel","inputs":[{"name":"roleId","type":"uint256","indexed":true,"internalType":"uint256"},{"name":"label","type":"string","indexed":false,"internalType":"string"}],"anonymous":false},{"type":"event","name":"VoteCast","inputs":[{"name":"account","type":"address","indexed":true,"internalType":"address"},{"name":"actionId","type":"uint256","indexed":true,"internalType":"uint256"},{"name":"support","type":"uint8","indexed":true,"internalType":"uint8"},{"name":"reason","type":"string","indexed":false,"internalType":"string"}],"anonymous":false},{"type":"error","name":"InvalidShortString","inputs":[]},{"type":"error","name":"Powers__ActionAlreadyFulfilled","inputs":[]},{"type":"error","name":"Powers__ActionAlreadyInitiated","inputs":[]},{"type":"error","name":"Powers__ActionCancelled","inputs":[]},{"type":"error","name":"Powers__ActionNotProposed","inputs":[]},{"type":"error","name":"Powers__ActionNotRequested","inputs":[]},{"type":"error","name":"Powers__AddressBlacklisted","inputs":[]},{"type":"error","name":"Powers__AlreadyCastVote","inputs":[]},{"type":"error","name":"Powers__CalldataTooLong","inputs":[]},{"type":"error","name":"Powers__CallerNotTargetMandate","inputs":[]},{"type":"error","name":"Powers__CannotAddPowersAddressAsMember","inputs":[]},{"type":"error","name":"Powers__CannotAddZeroAddress","inputs":[]},{"type":"error","name":"Powers__CannotCallMandate","inputs":[]},{"type":"error","name":"Powers__CannotSetPublicRole","inputs":[]},{"type":"error","name":"Powers__CannotSetZeroAddress","inputs":[]},{"type":"error","name":"Powers__ConstituteClosed","inputs":[]},{"type":"error","name":"Powers__ConstituteOpen","inputs":[]},{"type":"error","name":"Powers__ConstitutionAlreadyExecuted","inputs":[]},{"type":"error","name":"Powers__ExecutionArrayTooLong","inputs":[]},{"type":"error","name":"Powers__ExternalContractBlacklisted","inputs":[]},{"type":"error","name":"Powers__IncorrectInterface","inputs":[{"name":"targetMandate","type":"address","internalType":"address"}]},{"type":"error","name":"Powers__InvalidAddress","inputs":[]},{"type":"error","name":"Powers__InvalidCallData","inputs":[]},{"type":"error","name":"Powers__InvalidIndex","inputs":[]},{"type":"error","name":"Powers__InvalidLabel","inputs":[]},{"type":"error","name":"Powers__InvalidMaxCallDataLength","inputs":[]},{"type":"error","name":"Powers__InvalidMaxExecutionsLength","inputs":[]},{"type":"error","name":"Powers__InvalidName","inputs":[]},{"type":"error","name":"Powers__InvalidReturnCallDataLength","inputs":[]},{"type":"error","name":"Powers__InvalidVoteType","inputs":[]},{"type":"error","name":"Powers__LabelTooLong","inputs":[]},{"type":"error","name":"Powers__LockedRole","inputs":[]},{"type":"error","name":"Powers__MandateFulfillCallFailed","inputs":[]},{"type":"error","name":"Powers__MandateNotActive","inputs":[]},{"type":"error","name":"Powers__MandateRequestFailed","inputs":[]},{"type":"error","name":"Powers__NoMembersInRole","inputs":[]},{"type":"error","name":"Powers__NoVoteNeeded","inputs":[]},{"type":"error","name":"Powers__NotAContract","inputs":[]},{"type":"error","name":"Powers__NotProposerAction","inputs":[]},{"type":"error","name":"Powers__OnlyAdmin","inputs":[]},{"type":"error","name":"Powers__OnlyPowers","inputs":[]},{"type":"error","name":"Powers__PayableNotEnabled","inputs":[]},{"type":"error","name":"Powers__ProposedActionNotActive","inputs":[]},{"type":"error","name":"Powers__UnexpectedActionState","inputs":[]},{"type":"error","name":"Powers__UriTooLong","inputs":[]},{"type":"error","name":"Powers__VoteWithPublicRoleDisallowed","inputs":[]},{"type":"error","name":"StringTooLong","inputs":[{"name":"str","type":"string","internalType":"string"}]}],"bytecode":{"object":"0x6101e060408190526008805461ffff60a01b1916600160a01b17905561489038819003908190833981016040819052610037916105bd565b8461005b604080518082019091526006815265076302e362e360d41b602082015290565b610065825f61020f565b6101205261007481600161020f565b61014052815160208084019190912060e052815190820120610100524660a05261010060e05161010051604080517f8b73c3c69bb8fe3d512ecc4cf759cc79239f7b179b0ffacaa9a75d522b39400f60208201529081019290925260608201524660808201523060a08201525f9060c00160405160208183030381529060405280519060200120905090565b60805250503060c05284515f0361012a57604051634acb0e6d60e01b815260040160405180910390fd5b825f0361014a57604051631c58c0e160e01b815260040160405180910390fd5b815f0361016a5760405163a19bdd3b60e01b815260040160405180910390fd5b805f0361018a57604051638a2b742f60e01b815260040160405180910390fd5b6101965f336001610241565b60066101a286826106bf565b5060076101af85826106bf565b506101608390526101808290526101a0819052436101c0526040517f8e09415123fab1f9e22246686c8d24ad9f84c70288cd5fa338213bccd3c5fb76906101fd9030906006906007906107f8565b60405180910390a150505050506108d6565b5f60208351101561022a57610223836104da565b905061023b565b8161023584826106bf565b5060ff90505b92915050565b5f1983036102625760405163a1dd2b9360e01b815260040160405180910390fd5b6001600160a01b038216610289576040516329f62b5d60e11b815260040160405180910390fd5b306001600160a01b038316036102b25760405163ca208ab960e01b815260040160405180910390fd5b5f8381526004602090815260408083206001600160a01b038616845291829052909120548015158380156102e4575080155b15610365576040805180820182526001600160a01b0380881680835265ffffffffffff43811660208086019182526001808b01805491820181555f81815283812098519890920180549451909516600160a01b026001600160d01b031990941697909616969096179190911790915591549083529086905291902055610498565b831580156103705750805b15610498576001838101545f9161038691610837565b90505f84600101828154811061039e5761039e610856565b5f918252602091829020604080518082019091529101546001600160a01b0381168252600160a01b900465ffffffffffff16918101919091529050806001868101906103ea9087610837565b815481106103fa576103fa610856565b5f918252602091829020835191018054939092015165ffffffffffff16600160a01b026001600160d01b03199093166001600160a01b03909116179190911790556001850180548061044e5761044e61086a565b5f828152602080822083015f1990810180546001600160d01b031916905590920190925591516001600160a01b039081168252918690526040808220869055918816815290812055505b831515856001600160a01b0316877f460c228e73612fca5a452b9cef387929d98c11b684fea0353af55d6ea0e9842160405160405180910390a4505050505050565b5f5f829050601f8151111561050d578260405163305a27a960e01b8152600401610504919061087e565b60405180910390fd5b8051610518826108b3565b179392505050565b634e487b7160e01b5f52604160045260245ffd5b5f82601f830112610543575f5ffd5b81516001600160401b0381111561055c5761055c610520565b604051601f8201601f19908116603f011681016001600160401b038111828210171561058a5761058a610520565b6040528181528382016020018510156105a1575f5ffd5b8160208501602083015e5f918101602001919091529392505050565b5f5f5f5f5f60a086880312156105d1575f5ffd5b85516001600160401b038111156105e6575f5ffd5b6105f288828901610534565b602088015190965090506001600160401b0381111561060f575f5ffd5b61061b88828901610534565b60408801516060890151608090990151979a919950979695509350505050565b600181811c9082168061064f57607f821691505b60208210810361066d57634e487b7160e01b5f52602260045260245ffd5b50919050565b601f8211156106ba57805f5260205f20601f840160051c810160208510156106985750805b601f840160051c820191505b818110156106b7575f81556001016106a4565b50505b505050565b81516001600160401b038111156106d8576106d8610520565b6106ec816106e6845461063b565b84610673565b6020601f82116001811461071e575f83156107075750848201515b5f19600385901b1c1916600184901b1784556106b7565b5f84815260208120601f198516915b8281101561074d578785015182556020948501946001909201910161072d565b508482101561076a57868401515f19600387901b60f8161c191681555b50505050600190811b01905550565b5f81546107858161063b565b80855260018216801561079f57600181146107bb576107ef565b60ff1983166020870152602082151560051b87010193506107ef565b845f5260205f205f5b838110156107e65781546020828a0101526001820191506020810190506107c4565b87016020019450505b50505092915050565b6001600160a01b03841681526060602082018190525f9061081b90830185610779565b828103604084015261082d8185610779565b9695505050505050565b8181038181111561023b57634e487b7160e01b5f52601160045260245ffd5b634e487b7160e01b5f52603260045260245ffd5b634e487b7160e01b5f52603160045260245ffd5b602081525f82518060208401528060208501604085015e5f604082850101526040601f19601f83011684010191505092915050565b8051602080830151919081101561066d575f1960209190910360031b1b16919050565b60805160a05160c05160e05161010051610120516101405161016051610180516101a0516101c051613f2d6109635f395f6107f801525f8181610b9e0152610e7201525f818161090501526110b901525f8181610afa01528181610ee601528181611548015261200201525f612aa601525f612a7501525f50505f50505f50505f50505f5050613f2d5ff3fe60806040526004361061031c575f3560e01c806375b238fc1161019c578063b4497115116100e7578063edf2a59611610092578063f2a0bb751161006d578063f2a0bb7514610b6e578063f6226e7c14610b8d578063fc2d96d014610bc0578063fe575a8714610bdf575f5ffd5b8063edf2a59614610ae9578063edfd2e8714610b1c578063f0f4426014610b4f575f5ffd5b8063e88efe35116100c2578063e88efe3514610a95578063eac989f814610ab6578063ebef6d9714610aca575f5ffd5b8063b449711514610a38578063cc5812cf14610a57578063d902bf3a14610a76575f5ffd5b80638a4359e0116101475780639b642de1116101225780639b642de1146109cc578063b367cac0146109eb578063b4324dd314610a0a575f5ffd5b80638a4359e01461097a578063918f86741461099957806393d7dae5146109ad575f5ffd5b80637c1b5539116101775780637c1b5539146108f4578063831af3791461092757806384b0196e14610953575f5ffd5b806375b238fc146108a357806376ff7577146108b65780637b3c71d3146108d5575f5ffd5b80632e2d8253116102675780634583476b1161021257806356781388116101ed578063567813881461081a578063666ca2d614610839578063685b824a146108655780637258883f14610884575f5ffd5b80634583476b146106e957806354fd4d50146107b95780635532f99b146107e7575f5ffd5b806341bd157d1161024257806341bd157d146106535780634385963214610672578063455a4396146106ca575f5ffd5b80632e2d8253146106035780633b19e84a146106225780633ca7c02a1461063f575f5ffd5b80631031bdb0116102c75780631d0b19e7116102a25780631d0b19e7146105665780632179e04e146105855780632d90fe5f146105e4575f5ffd5b80631031bdb01461046a57806312561b1a14610502578063199093bb1461052f575f5ffd5b806306fdde03116102f757806306fdde03146104215780630d7abeaa146104355780630de6a6011461044b575f5ffd5b80630398f05f14610369578063040b8c241461039e578063055dbe10146103f3575f5ffd5b36610365577f8e47b87b0ef542cdfa1659c551d88bad38aa7f452d2bbb349ab7530dfec8be8f33604080516001600160a01b0390921682523460208301520160405180910390a1005b5f5ffd5b348015610374575f5ffd5b50610388610383366004613063565b610c16565b60405161039591906130a8565b60405180910390f35b3480156103a9575f5ffd5b506103dc6103b83660046130cb565b61ffff165f90815260036020526040902054600160a01b900465ffffffffffff1690565b60405165ffffffffffff9091168152602001610395565b3480156103fe575f5ffd5b50600854600160a01b900461ffff165b60405161ffff9091168152602001610395565b34801561042c575f5ffd5b50610388610cb8565b348015610440575f5ffd5b50610449610d44565b005b348015610456575f5ffd5b5061044961046536600461312c565b610d57565b348015610475575f5ffd5b506104db6104843660046130cb565b61ffff165f81815260036020908152604091829020548251308184015280840194909452825180850384018152606090940190925282519201919091206001600160a01b038216929091600160d01b900460ff1690565b604080516001600160a01b0390941684526020840192909252151590820152606001610395565b34801561050d575f5ffd5b5061052161051c366004613222565b611194565b604051908152602001610395565b34801561053a575f5ffd5b5061054e610549366004613278565b611375565b6040516001600160a01b039091168152602001610395565b348015610571575f5ffd5b506104496105803660046132ac565b6113d9565b348015610590575f5ffd5b506105a461059f366004613063565b6113f0565b6040805165ffffffffffff909716875263ffffffff95861660208801528601939093529083166060850152821660808401521660a082015260c001610395565b3480156105ef575f5ffd5b506103886105fe366004613063565b611471565b34801561060e575f5ffd5b5061052161061d3660046133e3565b611490565b34801561062d575f5ffd5b506008546001600160a01b031661054e565b34801561064a575f5ffd5b506105215f1981565b34801561065e575f5ffd5b5061038861066d366004613278565b61178f565b34801561067d575f5ffd5b506106ba61068c3660046132ac565b5f8281526002602090815260408083206001600160a01b038516845260070190915290205460ff1692915050565b6040519015158152602001610395565b3480156106d5575f5ffd5b506104496106e4366004613473565b61184c565b3480156106f4575f5ffd5b50610766610703366004613063565b5f9081526002602081905260409091206001810154815492820154600390920154600160301b9182900461ffff169465ffffffffffff80861695938404811694600160601b8504821694600160901b9004909116926001600160a01b0390911691565b6040805161ffff909816885265ffffffffffff96871660208901529486169487019490945291841660608601529290921660808401526001600160a01b0390911660a083015260c082015260e001610395565b3480156107c4575f5ffd5b50604080518082019091526006815265076302e362e360d41b6020820152610388565b3480156107f2575f5ffd5b506105217f000000000000000000000000000000000000000000000000000000000000000081565b348015610825575f5ffd5b506104496108343660046134af565b6118a7565b348015610844575f5ffd5b50610858610853366004613063565b6118c1565b60405161039591906134d9565b348015610870575f5ffd5b5061044961087f3660046132ac565b611a25565b34801561088f575f5ffd5b5061044961089e3660046134ff565b611a72565b3480156108ae575f5ffd5b506105215f81565b3480156108c1575f5ffd5b506104496108d036600461351a565b611a86565b3480156108e0575f5ffd5b506104496108ef366004613587565b611b68565b3480156108ff575f5ffd5b506105217f000000000000000000000000000000000000000000000000000000000000000081565b348015610932575f5ffd5b506109466109413660046130cb565b611baf565b60405161039591906135dd565b34801561095e575f5ffd5b50610967611c8a565b6040516103959796959493929190613675565b348015610985575f5ffd5b5061052161099436600461370b565b611ccc565b3480156109a4575f5ffd5b50610521606481565b3480156109b8575f5ffd5b506106ba6109c7366004613733565b611d2a565b3480156109d7575f5ffd5b506104496109e636600461375d565b611d6c565b3480156109f6575f5ffd5b50610449610a053660046130cb565b611d80565b348015610a15575f5ffd5b50610521610a24366004613063565b5f9081526004602052604090206001015490565b348015610a43575f5ffd5b5061040e610a523660046138ef565b611e27565b348015610a62575f5ffd5b506103dc610a71366004613921565b611e75565b348015610a81575f5ffd5b50610388610a90366004613063565b611eed565b348015610aa0575f5ffd5b5060085461040e90600160a01b900461ffff1681565b348015610ac1575f5ffd5b50610388611f0c565b348015610ad5575f5ffd5b50610521610ae43660046133e3565b611f19565b348015610af4575f5ffd5b506105217f000000000000000000000000000000000000000000000000000000000000000081565b348015610b27575f5ffd5b50610521610b363660046130cb565b61ffff165f908152600360208190526040909120015490565b348015610b5a575f5ffd5b50610449610b693660046134ff565b612334565b348015610b79575f5ffd5b50610388610b88366004613063565b612385565b348015610b98575f5ffd5b506105217f000000000000000000000000000000000000000000000000000000000000000081565b348015610bcb575f5ffd5b50610449610bda36600461393d565b6123a4565b348015610bea575f5ffd5b506106ba610bf93660046134ff565b6001600160a01b03165f9081526005602052604090205460ff1690565b5f818152600460205260409020600201805460609190610c35906139fe565b80601f0160208091040260200160405190810160405280929190818152602001828054610c61906139fe565b8015610cac5780601f10610c8357610100808354040283529160200191610cac565b820191905f5260205f20905b815481529060010190602001808311610c8f57829003601f168201915b50505050509050919050565b60068054610cc5906139fe565b80601f0160208091040260200160405190810160405280929190818152602001828054610cf1906139fe565b8015610d3c5780601f10610d1357610100808354040283529160200191610d3c565b820191905f5260205f20905b815481529060010190602001808311610d1f57829003601f168201915b505050505081565b610d4c61247c565b610d55336124b7565b565b61ffff88165f9081526003602052604090208054600160d01b900460ff16610d9257604051632e53afcd60e01b815260040160405180910390fd5b80546001600160a01b03163314610dbc57604051635574892960e11b815260040160405180910390fd5b5f8881526002602052604090208054600160301b900465ffffffffffff161580610df557508054600160901b900465ffffffffffff1615155b15610e13576040516301dd1d1560e71b815260040160405180910390fd5b8054600160601b900465ffffffffffff1615610e425760405163a517239560e01b815260040160405180910390fd5b868581141580610e525750808414155b15610e705760405163dbf15fa560e01b815260040160405180910390fd5b7f0000000000000000000000000000000000000000000000000000000000000000811115610eb15760405163d0b6a17960e01b815260040160405180910390fd5b815471ffffffffffff0000000000000000000000001916600160601b4365ffffffffffff16021782555f5b81811015611150577f0000000000000000000000000000000000000000000000000000000000000000868683818110610f1757610f17613a36565b9050602002810190610f299190613a4a565b90501115610f4a57604051631c3bc5e360e31b815260040160405180910390fd5b610f748a8a83818110610f5f57610f5f613a36565b9050602002016020810190610bf991906134ff565b15610f92576040516334d52f6b60e01b815260040160405180910390fd5b5f5f8b8b84818110610fa657610fa6613a36565b9050602002016020810190610fbb91906134ff565b6001600160a01b03168a8a85818110610fd657610fd6613a36565b90506020020135898986818110610fef57610fef613a36565b90506020028101906110019190613a4a565b60405161100f929190613a8d565b5f6040518083038185875af1925050503d805f8114611049576040519150601f19603f3d011682016040523d82523d5f602084013e61104e565b606091505b5091509150816110b75784547fffff000000000000ffffffffffffffffffffffffffffffffffffffffffffffff16600160c01b4365ffffffffffff160217855580511561109e5780518082602001fd5b604051631d8fb90d60e21b815260040160405180910390fd5b7f0000000000000000000000000000000000000000000000000000000000000000815111611105576005850180546001810182555f9182526020909120016110ff8282613ae8565b50611146565b604080515f602082015260058701910160408051601f1981840301815291905281546001810183555f9283526020909220909101906111449082613ae8565b505b5050600101610edc565b505081547fffffffffffff000000000000ffffffffffffffffffffffffffffffffffffffff16600160a01b4365ffffffffffff160217909155505050505050505050565b61ffff84165f9081526003602052604081208054600160d01b900460ff166111cf57604051632e53afcd60e01b815260040160405180910390fd5b604051630b704dbd60e11b81525f9073__$b8401669eb6e3c34470049924d5a7c9ef9$__906316e09b7a9061120e908a908a908a908a90600401613bcb565b602060405180830381865af4158015611229573d5f5f3e3d5ffd5b505050506040513d601f19601f8201168201806040525081019061124d9190613bf9565b5f81815260026020819052604090912090810154919250906001600160a01b0316336001600160a01b03161461129657604051637365858560e01b815260040160405180910390fd5b805465ffffffffffff165f036112bf5760405163f661f4bf60e01b815260040160405180910390fd5b8054600160601b900465ffffffffffff161515806112ec57508054600160901b900465ffffffffffff1615155b1561130a5760405163b831530960e01b815260040160405180910390fd5b80547fffffffffffffffff000000000000ffffffffffffffffffffffffffffffffffff16600160901b4365ffffffffffff160217815560405182907f8eb4cfeba12ece86fc1590773502e55423b37db556543430337376b30d27c42b905f90a2509695505050505050565b5f828152600460205260408120600181015483106113a65760405163472e61bd60e01b815260040160405180910390fd5b8060010183815481106113bb576113bb613a36565b5f918252602090912001546001600160a01b03169150505b92915050565b6113e161250f565b6113ec82825f61252f565b5050565b5f8181526002602052604081206001810154829182918291829182919065ffffffffffff811690600160401b900463ffffffff1661142e8183613c24565b60019390930154919a90995065ffffffffffff909216975063ffffffff600160601b820481169750600160801b820481169650600160a01b909104169350915050565b5f818152600460205260409020600301805460609190610c35906139fe565b6008545f90600160b01b900460ff166114bc57604051630889b5b960e31b815260040160405180910390fd5b61ffff86165f9081526003602052604090208054600160d01b900460ff166114f757604051632e53afcd60e01b815260040160405180910390fd5b611502335b88611d2a565b61151f57604051637079d1b960e11b815260040160405180910390fd5b61152833610bf9565b15611546576040516334d52f6b60e01b815260040160405180910390fd5b7f000000000000000000000000000000000000000000000000000000000000000085111561158757604051631c3bc5e360e31b815260040160405180910390fd5b6002810154604051630b704dbd60e11b815263ffffffff821691600160801b900460ff169073__$b8401669eb6e3c34470049924d5a7c9ef9$__906316e09b7a906115dc908c908c908c908c90600401613bcb565b602060405180830381865af41580156115f7573d5f5f3e3d5ffd5b505050506040513d601f19601f8201168201806040525081019061161b9190613bf9565b5f818152600260205260409020600181015491955090600160301b900461ffff161561165a5760405163fc0e49ff60e01b815260040160405180910390fd5b6003840180546001810182555f91825260209091200185905560048101611682898b83613c42565b50805465ffffffffffff19164365ffffffffffff1617815560018101805467ffff0000000000001916600160301b61ffff8d160217905560ff82166116c7575f6116c9565b435b60018201805465ffffffffffff929092166bffffffff0000ffffffffffff1990921691909117600160401b63ffffffff861602179055600281018054336001600160a01b0319909116179055600681016117238782613ae8565b506003810187905561ffff8a1633867fb5856a9700a7e851456d3a16348b4ae0fbb11b06ac0af8dbe8e8652c57cc4cbd8c8c4361176663ffffffff8b1682613cfc565b8e8e60405161177a96959493929190613d0f565b60405180910390a45050505095945050505050565b5f828152600260205260409020600501805460609190839081106117b5576117b5613a36565b905f5260205f200180546117c8906139fe565b80601f01602080910402602001604051908101604052809291908181526020018280546117f4906139fe565b801561183f5780601f106118165761010080835404028352916020019161183f565b820191905f5260205f20905b81548152906001019060200180831161182257829003601f168201915b5050505050905092915050565b61185461250f565b6001600160a01b0382165f81815260056020526040808220805460ff191685151590811790915590519092917f921341769c2075d1ae425396063d5ab65ff5006c4bc0bd0821e50ce51fb6012391a35050565b6113ec82338360405180602001604052805f8152506127c8565b5f818152600260205260408120805465ffffffffffff161580156118f357508054600160301b900465ffffffffffff16155b801561190d57508054600160601b900465ffffffffffff16155b801561192757508054600160901b900465ffffffffffff16155b1561193457505f92915050565b8054600160c01b900465ffffffffffff16156119535750600892915050565b8054600160601b900465ffffffffffff16156119725750600792915050565b8054600160901b900465ffffffffffff16156119915750600292915050565b8054600160301b900465ffffffffffff16156119b05750600692915050565b60018101545f906119d69063ffffffff600160401b8204169065ffffffffffff16613c24565b65ffffffffffff1690504381106119f1575060039392505050565b6119fa8461294d565b1580611a0c5750611a0a846129f0565b155b15611a1b575060049392505050565b5060059392505050565b611a2d61250f565b6001600160a01b0381165f9081526005602052604090205460ff1615611a66576040516334d52f6b60e01b815260040160405180910390fd5b6113ec8282600161252f565b611a7a61247c565b611a83816124b7565b50565b611a8e61250f565b81515f03611aaf576040516333a0807f60e21b815260040160405180910390fd5b60ff82511115611ad2576040516350cc0e8d60e01b815260040160405180910390fd5b60ff81511115611af55760405163d315c6bd60e01b815260040160405180910390fd5b5f838152600460205260409020600201611b0f8382613ae8565b505f838152600460205260409020600301611b2a8282613ae8565b50827f4c6d3d4a776b1458bbd518e75903a3f27a0c6f4597b10882784aa64769d56c7183604051611b5b91906130a8565b60405180910390a2505050565b611ba984338585858080601f0160208091040260200160405190810160405280939291908181526020018383808284375f920191909152506127c892505050565b50505050565b60408051610100810182525f80825260208201819052918101829052606081018290526080810182905260a0810182905260c0810182905260e08101919091525061ffff9081165f908152600360209081526040918290208251610100810184526001820154815260029091015463ffffffff808216938301939093526401000000008104831693820193909352600160401b83049091166060820152600160601b820483166080820152600160701b820490921660a083015260ff600160801b8204811660c0840152600160881b9091041660e082015290565b5f6060805f5f5f6060611c9b612a6e565b611ca3612a9f565b604080515f80825260208201909252600f60f81b9b939a50919850469750309650945092509050565b61ffff82165f9081526003602081905260408220908101548310611d035760405163472e61bd60e01b815260040160405180910390fd5b806003018381548110611d1857611d18613a36565b905f5260205f20015491505092915050565b61ffff81165f9081526003602052604081206001015481611d4b8583611e75565b905065ffffffffffff8116151580611d6357505f1982145b95945050505050565b611d7461250f565b60076113ec8282613ae8565b611d8861250f565b61ffff81165f90815260036020526040812054600160d01b900460ff1615159003611dc657604051632e53afcd60e01b815260040160405180910390fd5b61ffff81165f8181526003602052604080822080547fffffffffff00ffffffffffffffffffffffffffffffffffffffffffffffffffff169055517ffb1d94dcf467f70febf412166aaa551737afd946ba6a4b4eac970aaf28a7e74f9190a250565b5f611e3061250f565b50600854600160a01b900461ffff16611e498183612acc565b60088054600161ffff600160a01b808404821692909201160261ffff60a01b199091161790555b919050565b5f8181526004602090815260408083206001600160a01b038616845291829052822054808303611ea9575f925050506113d3565b81600101600182611eba9190613d60565b81548110611eca57611eca613a36565b5f91825260209091200154600160a01b900465ffffffffffff1695945050505050565b5f818152600260205260409020600401805460609190610c35906139fe565b60078054610cc5906139fe565b6008545f90600160b01b900460ff16611f4557604051630889b5b960e31b815260040160405180910390fd5b604051630b704dbd60e11b815273__$b8401669eb6e3c34470049924d5a7c9ef9$__906316e09b7a90611f82908990899089908990600401613bcb565b602060405180830381865af4158015611f9d573d5f5f3e3d5ffd5b505050506040513d601f19601f82011682018060405250810190611fc19190613bf9565b61ffff87165f908152600360205260409020805491925090600160d01b900460ff1661200057604051632e53afcd60e01b815260040160405180910390fd5b7f000000000000000000000000000000000000000000000000000000000000000085111561204157604051631c3bc5e360e31b815260040160405180910390fd5b61204a33610bf9565b15612068576040516334d52f6b60e01b815260040160405180910390fd5b612071336114fc565b61208e57604051637079d1b960e11b815260040160405180910390fd5b5f8281526002602052604090208054600160301b900465ffffffffffff161515806120c857508054600160601b900465ffffffffffff1615155b156120e65760405163fc0e49ff60e01b815260040160405180910390fd5b8054600160901b900465ffffffffffff161561211557604051632ec3fe1560e11b815260040160405180910390fd5b8154604051633881b32960e01b815273__$b8401669eb6e3c34470049924d5a7c9ef9$__91633881b32991612167918c918c918c9130918d91600160a01b90910465ffffffffffff1690600401613d73565b5f6040518083038186803b15801561217d575f5ffd5b505af415801561218f573d5f5f3e3d5ffd5b505050506001810154600160301b900461ffff165f036121c3576003820180546001810182555f9182526020909120018390555b600281018054336001600160a01b031990911617905580546bffffffffffff0000000000001916600160301b4365ffffffffffff16810291909117825560018201805467ffff000000000000191661ffff8b169092029190911790556004810161222e878983613c42565b506006810161223d8582613ae8565b506003810185905581546040516326a8b78760e11b81525f916001600160a01b031690634d516f0e9061227c9033908d908d908d908d90600401613dbf565b6020604051808303815f875af1158015612298573d5f5f3e3d5ffd5b505050506040513d601f19601f820116820180604052508101906122bc9190613dfd565b9050806122dc5760405163382654b960e21b815260040160405180910390fd5b61ffff8916336001600160a01b03167f98e1e52af9c2155b4c2b4844cdccf64c85cb13dd804231d177ef6fea4325d4058a8a8a8a6040516123209493929190613e18565b60405180910390a350505095945050505050565b61233c61250f565b6001600160a01b03811661236357604051636e7e8feb60e11b815260040160405180910390fd5b600880546001600160a01b0319166001600160a01b0392909216919091179055565b5f818152600260205260409020600601805460609190610c35906139fe565b6123ac61247c565b600854600160b01b900460ff16156123d7576040516315ea064b60e31b815260040160405180910390fd5b600854600160a01b900461ffff165f5b8251811015612458575f6001600160a01b031683828151811061240c5761240c613a36565b6020026020010151602001516001600160a01b031614612450576124498284838151811061243c5761243c613a36565b6020026020010151612acc565b8160010191505b6001016123e7565b506008805461ffff909216600160a01b0261ffff60a01b1990921691909117905550565b6124865f5f611375565b6001600160a01b0316336001600160a01b031614610d5557604051630eaa87a560e21b815260040160405180910390fd5b336001600160a01b038216146124de576124d25f335f61252f565b6124de5f82600161252f565b50600880547fffffffffffffffffff00ffffffffffffffffffffffffffffffffffffffffffff16600160b01b179055565b333014610d555760405163e890ccbf60e01b815260040160405180910390fd5b5f1983036125505760405163a1dd2b9360e01b815260040160405180910390fd5b6001600160a01b038216612577576040516329f62b5d60e11b815260040160405180910390fd5b306001600160a01b038316036125a05760405163ca208ab960e01b815260040160405180910390fd5b5f8381526004602090815260408083206001600160a01b038616845291829052909120548015158380156125d2575080155b15612653576040805180820182526001600160a01b0380881680835265ffffffffffff43811660208086019182526001808b01805491820181555f81815283812098519890920180549451909516600160a01b026001600160d01b031990941697909616969096179190911790915591549083529086905291902055612786565b8315801561265e5750805b15612786576001838101545f9161267491613d60565b90505f84600101828154811061268c5761268c613a36565b5f918252602091829020604080518082019091529101546001600160a01b0381168252600160a01b900465ffffffffffff16918101919091529050806001868101906126d89087613d60565b815481106126e8576126e8613a36565b5f918252602091829020835191018054939092015165ffffffffffff16600160a01b026001600160d01b03199093166001600160a01b03909116179190911790556001850180548061273c5761273c613e43565b5f828152602080822083015f1990810180546001600160d01b031916905590920190925591516001600160a01b039081168252918690526040808220869055918816815290812055505b831515856001600160a01b0316877f460c228e73612fca5a452b9cef387929d98c11b684fea0353af55d6ea0e9842160405160405180910390a4505050505050565b5f848152600260205260409020805465ffffffffffff1615806127fa57508054600160601b900465ffffffffffff1615155b8061281457508054600160901b900465ffffffffffff1615155b8061282e57508054600160301b900465ffffffffffff1615155b8061286457506001810154439061285a9063ffffffff600160401b8204169065ffffffffffff16613c24565b65ffffffffffff16105b15612882576040516322024acd60e21b815260040160405180910390fd5b6001810154600160301b900461ffff1661289c8582611d2a565b6128b957604051637079d1b960e11b815260040160405180910390fd5b6001600160a01b0385165f90815260078301602052604090205460ff16156128f45760405163c9e3c8d960e01b815260040160405180910390fd5b6128ff868686612d7d565b8360ff1686866001600160a01b03167f5be2678cab71c7d94235767eb1df3c57673f19e805cdc0edbd2e74854ae9f0f98660405161293d91906130a8565b60405180910390a4505050505050565b5f8181526002602052604081206001810154829061297590600160301b900461ffff16611baf565b80515f9081526004602052604090206001015460c08201519192509060ff161580611d63575060018301546064906129c39063ffffffff600160a01b8204811691600160801b900416613e57565b63ffffffff166129d39190613e73565b60c08301516129e59060ff1683613e73565b111595945050505050565b5f81815260026020526040812060018101548290612a1890600160301b900461ffff16611baf565b80515f9081526004602052604090206001015460c08201519192509060ff161580611d6357506001830154612a5c90606490600160801b900463ffffffff16613e73565b60e08301516129e59060ff1683613e73565b6060612a9a7f00000000000000000000000000000000000000000000000000000000000000005f612e67565b905090565b6060612a9a7f00000000000000000000000000000000000000000000000000000000000000006001612e67565b612ae1816020015163a988d3f560e01b612f10565b612b13576020810151604051631f09f19160e21b81526001600160a01b03909116600482015260240160405180910390fd5b612b3881602001516001600160a01b03165f9081526005602052604090205460ff1690565b15612b56576040516334d52f6b60e01b815260040160405180910390fd5b6060810151515f19148015612b7557505f816060015160c0015160ff16115b15612b9357604051632e562fc560e01b815260040160405180910390fd5b61ffff8083165f908152600360209081526040918290208054858301516001600160a01b03167fffffffffff00ffffffffffff00000000000000000000000000000000000000009091168117600160d01b17825560608087015180516001850155938401516002840180548688015193870151608088015160a089015160c08a015160e0909a015160ff908116600160881b0271ff0000000000000000000000000000000000199b909116600160801b0270ff0000000000000000000000000000000019928e16600160701b029290921670ffffff00000000000000000000000000001993909d16600160601b026dffff0000000000000000000000001963ffffffff958616600160401b02166dffffffffffff0000000000000000199986166401000000000267ffffffffffffffff199097169590981694909417949094179690961694909417179290921697909717919091179390931692909217909355835184830151925163b1f50f8960e01b8152919263b1f50f8992612d1d9288929091600401613e8a565b5f604051808303815f87803b158015612d34575f5ffd5b505af1158015612d46573d5f5f3e3d5ffd5b505060405161ffff861692507f284812f41d73696d76ff026c35ebc1a8e8bf24544551c55dd0877334dca88a5691505f90a2505050565b5f8381526002602090815260408083206001600160a01b038616845260078101909252909120805460ff1916600117905560ff8216612df957600181018054600160601b900463ffffffff1690600c612dd583613ed3565b91906101000a81548163ffffffff021916908363ffffffff16021790555050611ba9565b5f1960ff831601612e2357600181018054600160801b900463ffffffff16906010612dd583613ed3565b60011960ff831601612e4e57600181018054600160a01b900463ffffffff16906014612dd583613ed3565b6040516333397b4360e11b815260040160405180910390fd5b606060ff8314612e8157612e7a83612f32565b90506113d3565b818054612e8d906139fe565b80601f0160208091040260200160405190810160405280929190818152602001828054612eb9906139fe565b8015612f045780601f10612edb57610100808354040283529160200191612f04565b820191905f5260205f20905b815481529060010190602001808311612ee757829003601f168201915b505050505090506113d3565b5f612f1a83612f6f565b8015612f2b5750612f2b8383612fa1565b9392505050565b60605f612f3e8361303c565b6040805160208082528183019092529192505f91906020820181803683375050509182525060208101929092525090565b5f612f81826301ffc9a760e01b612fa1565b80156113d35750612f9a826001600160e01b0319612fa1565b1592915050565b6040516001600160e01b0319821660248201525f90819060440160408051601f19818403018152919052602080820180517bffffffffffffffffffffffffffffffffffffffffffffffffffffffff166301ffc9a760e01b17815282519293505f9283928392909183918a617530fa92503d91505f519050828015613026575060208210155b801561303157505f81115b979650505050505050565b5f60ff8216601f8111156113d357604051632cd44ac360e21b815260040160405180910390fd5b5f60208284031215613073575f5ffd5b5035919050565b5f81518084528060208401602086015e5f602082860101526020601f19601f83011685010191505092915050565b602081525f612f2b602083018461307a565b803561ffff81168114611e70575f5ffd5b5f602082840312156130db575f5ffd5b612f2b826130ba565b5f5f83601f8401126130f4575f5ffd5b50813567ffffffffffffffff81111561310b575f5ffd5b6020830191508360208260051b8501011115613125575f5ffd5b9250929050565b5f5f5f5f5f5f5f5f60a0898b031215613143575f5ffd5b61314c896130ba565b975060208901359650604089013567ffffffffffffffff81111561316e575f5ffd5b61317a8b828c016130e4565b909750955050606089013567ffffffffffffffff811115613199575f5ffd5b6131a58b828c016130e4565b909550935050608089013567ffffffffffffffff8111156131c4575f5ffd5b6131d08b828c016130e4565b999c989b5096995094979396929594505050565b5f5f83601f8401126131f4575f5ffd5b50813567ffffffffffffffff81111561320b575f5ffd5b602083019150836020828501011115613125575f5ffd5b5f5f5f5f60608587031215613235575f5ffd5b61323e856130ba565b9350602085013567ffffffffffffffff811115613259575f5ffd5b613265878288016131e4565b9598909750949560400135949350505050565b5f5f60408385031215613289575f5ffd5b50508035926020909101359150565b6001600160a01b0381168114611a83575f5ffd5b5f5f604083850312156132bd575f5ffd5b8235915060208301356132cf81613298565b809150509250929050565b634e487b7160e01b5f52604160045260245ffd5b604051610100810167ffffffffffffffff81118282101715613312576133126132da565b60405290565b6040516080810167ffffffffffffffff81118282101715613312576133126132da565b604051601f8201601f1916810167ffffffffffffffff81118282101715613364576133646132da565b604052919050565b5f5f67ffffffffffffffff841115613386576133866132da565b50601f8301601f191660200161339b8161333b565b9150508281528383830111156133af575f5ffd5b828260208301375f602084830101529392505050565b5f82601f8301126133d4575f5ffd5b612f2b8383356020850161336c565b5f5f5f5f5f608086880312156133f7575f5ffd5b613400866130ba565b9450602086013567ffffffffffffffff81111561341b575f5ffd5b613427888289016131e4565b90955093505060408601359150606086013567ffffffffffffffff81111561344d575f5ffd5b613459888289016133c5565b9150509295509295909350565b8015158114611a83575f5ffd5b5f5f60408385031215613484575f5ffd5b823561348f81613298565b915060208301356132cf81613466565b803560ff81168114611e70575f5ffd5b5f5f604083850312156134c0575f5ffd5b823591506134d06020840161349f565b90509250929050565b60208101600983106134f957634e487b7160e01b5f52602160045260245ffd5b91905290565b5f6020828403121561350f575f5ffd5b8135612f2b81613298565b5f5f5f6060848603121561352c575f5ffd5b83359250602084013567ffffffffffffffff811115613549575f5ffd5b613555868287016133c5565b925050604084013567ffffffffffffffff811115613571575f5ffd5b61357d868287016133c5565b9150509250925092565b5f5f5f5f6060858703121561359a575f5ffd5b843593506135aa6020860161349f565b9250604085013567ffffffffffffffff8111156135c5575f5ffd5b6135d1878288016131e4565b95989497509550505050565b5f610100820190508251825263ffffffff602084015116602083015263ffffffff604084015116604083015263ffffffff6060840151166060830152608083015161362e608084018261ffff169052565b5060a083015161364460a084018261ffff169052565b5060c083015161365960c084018260ff169052565b5060e083015161366e60e084018260ff169052565b5092915050565b60ff60f81b8816815260e060208201525f61369360e083018961307a565b82810360408401526136a5818961307a565b606084018890526001600160a01b038716608085015260a0840186905283810360c0850152845180825260208087019350909101905f5b818110156136fa5783518352602093840193909201916001016136dc565b50909b9a5050505050505050505050565b5f5f6040838503121561371c575f5ffd5b613725836130ba565b946020939093013593505050565b5f5f60408385031215613744575f5ffd5b823561374f81613298565b91506134d0602084016130ba565b5f6020828403121561376d575f5ffd5b813567ffffffffffffffff811115613783575f5ffd5b61378f848285016133c5565b949350505050565b803563ffffffff81168114611e70575f5ffd5b5f61010082840312156137bb575f5ffd5b6137c36132ee565b8235815290506137d560208301613797565b60208201526137e660408301613797565b60408201526137f760608301613797565b6060820152613808608083016130ba565b608082015261381960a083016130ba565b60a082015261382a60c0830161349f565b60c082015261383b60e0830161349f565b60e082015292915050565b5f6101608284031215613857575f5ffd5b61385f613318565b9050813567ffffffffffffffff811115613877575f5ffd5b613883848285016133c5565b825250602082013561389481613298565b6020820152604082013567ffffffffffffffff8111156138b2575f5ffd5b8201601f810184136138c2575f5ffd5b6138d18482356020840161336c565b6040830152506138e483606084016137aa565b606082015292915050565b5f602082840312156138ff575f5ffd5b813567ffffffffffffffff811115613915575f5ffd5b61378f84828501613846565b5f5f60408385031215613932575f5ffd5b823561372581613298565b5f6020828403121561394d575f5ffd5b813567ffffffffffffffff811115613963575f5ffd5b8201601f81018413613973575f5ffd5b803567ffffffffffffffff81111561398d5761398d6132da565b8060051b61399d6020820161333b565b918252602081840181019290810190878411156139b8575f5ffd5b6020850192505b8383101561303157823567ffffffffffffffff8111156139dd575f5ffd5b6139ec89602083890101613846565b835250602092830192909101906139bf565b600181811c90821680613a1257607f821691505b602082108103613a3057634e487b7160e01b5f52602260045260245ffd5b50919050565b634e487b7160e01b5f52603260045260245ffd5b5f5f8335601e19843603018112613a5f575f5ffd5b83018035915067ffffffffffffffff821115613a79575f5ffd5b602001915036819003821315613125575f5ffd5b818382375f9101908152919050565b601f821115613ae357805f5260205f20601f840160051c81016020851015613ac15750805b601f840160051c820191505b81811015613ae0575f8155600101613acd565b50505b505050565b815167ffffffffffffffff811115613b0257613b026132da565b613b1681613b1084546139fe565b84613a9c565b6020601f821160018114613b48575f8315613b315750848201515b5f19600385901b1c1916600184901b178455613ae0565b5f84815260208120601f198516915b82811015613b775787850151825560209485019460019092019101613b57565b5084821015613b9457868401515f19600387901b60f8161c191681555b50505050600190811b01905550565b81835281816020850137505f828201602090810191909152601f909101601f19169091010190565b61ffff85168152606060208201525f613be8606083018587613ba3565b905082604083015295945050505050565b5f60208284031215613c09575f5ffd5b5051919050565b634e487b7160e01b5f52601160045260245ffd5b65ffffffffffff81811683821601908111156113d3576113d3613c10565b67ffffffffffffffff831115613c5a57613c5a6132da565b613c6e83613c6883546139fe565b83613a9c565b5f601f841160018114613c9f575f8515613c885750838201355b5f19600387901b1c1916600186901b178355613ae0565b5f83815260208120601f198716915b82811015613cce5786850135825560209485019460019092019101613cae565b5086821015613cea575f1960f88860031b161c19848701351681555b505060018560011b0183555050505050565b808201808211156113d3576113d3613c10565b60c081525f60c082015260e060208201525f613d2f60e08301888a613ba3565b86604084015285606084015284608084015282810360a0840152613d53818561307a565b9998505050505050505050565b818103818111156113d3576113d3613c10565b61ffff8716815260a060208201525f613d9060a083018789613ba3565b6001600160a01b0395909516604083015250606081019290925265ffffffffffff166080909101529392505050565b6001600160a01b038616815261ffff85166020820152608060408201525f613deb608083018587613ba3565b90508260608301529695505050505050565b5f60208284031215613e0d575f5ffd5b8151612f2b81613466565b606081525f613e2b606083018688613ba3565b8460208401528281036040840152613031818561307a565b634e487b7160e01b5f52603160045260245ffd5b63ffffffff81811683821601908111156113d3576113d3613c10565b80820281158282048414176113d3576113d3613c10565b61ffff84168152608060208201525f613ea6608083018561307a565b8281038060408501525f825260208101606085015250613ec9602082018561307a565b9695505050505050565b5f63ffffffff821663ffffffff8103613eee57613eee613c10565b6001019291505056fea26469706673582212207bc95de6696e0b048f4cfc8ed0dde8fd9fcf95aa914507e7582ceac6ec3389dd64736f6c634300081e0033","linkReferences":{"src/libraries/Checks.sol":{"Checks":[{"start":6979,"length":20},{"start":7953,"length":20},{"start":10423,"length":20},{"start":10889,"length":20}]}}},"methodIdentifiers":{"ADMIN_ROLE()":"75b238fc","DENOMINATOR()":"918f8674","FOUNDED_AT()":"5532f99b","MAX_CALLDATA_LENGTH()":"edf2a596","MAX_EXECUTIONS_LENGTH()":"f6226e7c","MAX_RETURN_DATA_LENGTH()":"7c1b5539","PUBLIC_ROLE()":"3ca7c02a","adoptMandate((string,address,bytes,(uint256,uint32,uint32,uint32,uint16,uint16,uint8,uint8)))":"b4497115","assignRole(uint256,address)":"685b824a","blacklistAddress(address,bool)":"455a4396","canCallMandate(address,uint16)":"93d7dae5","cancel(uint16,bytes,uint256)":"12561b1a","castVote(uint256,uint8)":"56781388","castVoteWithReason(uint256,uint8,string)":"7b3c71d3","closeConstitute()":"0d7abeaa","closeConstitute(address)":"7258883f","constitute((string,address,bytes,(uint256,uint32,uint32,uint32,uint16,uint16,uint8,uint8))[])":"fc2d96d0","eip712Domain()":"84b0196e","fulfill(uint16,uint256,address[],uint256[],bytes[])":"0de6a601","getActionCalldata(uint256)":"d902bf3a","getActionData(uint256)":"4583476b","getActionReturnData(uint256,uint256)":"41bd157d","getActionState(uint256)":"666ca2d6","getActionUri(uint256)":"f2a0bb75","getActionVoteData(uint256)":"2179e04e","getAdoptedMandate(uint16)":"1031bdb0","getAmountRoleHolders(uint256)":"b4324dd3","getConditions(uint16)":"831af379","getLatestFulfillment(uint16)":"040b8c24","getMandateActionAtIndex(uint16,uint256)":"8a4359e0","getMandateCounter()":"055dbe10","getQuantityMandateActions(uint16)":"edfd2e87","getRoleHolderAtIndex(uint256,uint256)":"199093bb","getRoleLabel(uint256)":"0398f05f","getRoleMetadata(uint256)":"2d90fe5f","getTreasury()":"3b19e84a","hasRoleSince(address,uint256)":"cc5812cf","hasVoted(uint256,address)":"43859632","isBlacklisted(address)":"fe575a87","labelRole(uint256,string,string)":"76ff7577","mandateCounter()":"e88efe35","name()":"06fdde03","propose(uint16,bytes,uint256,string)":"2e2d8253","request(uint16,bytes,uint256,string)":"ebef6d97","revokeMandate(uint16)":"b367cac0","revokeRole(uint256,address)":"1d0b19e7","setTreasury(address)":"f0f44260","setUri(string)":"9b642de1","uri()":"eac989f8","version()":"54fd4d50"},"id":123}