{"abi":[{"type":"constructor","inputs":[{"name":"name_","type":"string","internalType":"string"},{"name":"uri_","type":"string","internalType":"string"},{"name":"maxCallDataLength_","type":"uint256","internalType":"uint256"},{"name":"maxReturnDataLength_","type":"uint256","internalType":"uint256"},{"name":"maxExecutionsLength_","type":"uint256","internalType":"uint256"}],"stateMutability":"payable"},{"type":"receive","stateMutability":"payable"},{"type":"function","name":"ADMIN_ROLE","inputs":[],"outputs":[{"name":"","type":"uint256","internalType":"uint256"}],"stateMutability":"view"},{"type":"function","name":"DENOMINATOR","inputs":[],"outputs":[{"name":"","type":"uint256","internalType":"uint256"}],"stateMutability":"view"},{"type":"function","name":"FOUNDED_AT","inputs":[],"outputs":[{"name":"","type":"uint256","internalType":"uint256"}],"stateMutability":"view"},{"type":"function","name":"MAX_CALLDATA_LENGTH","inputs":[],"outputs":[{"name":"","type":"uint256","internalType":"uint256"}],"stateMutability":"view"},{"type":"function","name":"MAX_EXECUTIONS_LENGTH","inputs":[],"outputs":[{"name":"","type":"uint256","internalType":"uint256"}],"stateMutability":"view"},{"type":"function","name":"MAX_RETURN_DATA_LENGTH","inputs":[],"outputs":[{"name":"","type":"uint256","internalType":"uint256"}],"stateMutability":"view"},{"type":"function","name":"PUBLIC_ROLE","inputs":[],"outputs":[{"name":"","type":"uint256","internalType":"uint256"}],"stateMutability":"view"},{"type":"function","name":"adoptMandate","inputs":[{"name":"mandateInitData","type":"tuple","internalType":"struct PowersTypes.MandateInitData","components":[{"name":"nameDescription","type":"string","internalType":"string"},{"name":"targetMandate","type":"address","internalType":"address"},{"name":"config","type":"bytes","internalType":"bytes"},{"name":"conditions","type":"tuple","internalType":"struct PowersTypes.Conditions","components":[{"name":"allowedRole","type":"uint256","internalType":"uint256"},{"name":"votingPeriod","type":"uint32","internalType":"uint32"},{"name":"timelock","type":"uint32","internalType":"uint32"},{"name":"throttleExecution","type":"uint32","internalType":"uint32"},{"name":"needFulfilled","type":"uint16","internalType":"uint16"},{"name":"needNotFulfilled","type":"uint16","internalType":"uint16"},{"name":"quorum","type":"uint8","internalType":"uint8"},{"name":"succeedAt","type":"uint8","internalType":"uint8"}]}]}],"outputs":[{"name":"mandateId","type":"uint16","internalType":"uint16"}],"stateMutability":"nonpayable"},{"type":"function","name":"assignRole","inputs":[{"name":"roleId","type":"uint256","internalType":"uint256"},{"name":"account","type":"address","internalType":"address"}],"outputs":[],"stateMutability":"nonpayable"},{"type":"function","name":"blacklistAddress","inputs":[{"name":"account","type":"address","internalType":"address"},{"name":"blacklisted","type":"bool","internalType":"bool"}],"outputs":[],"stateMutability":"nonpayable"},{"type":"function","name":"canCallMandate","inputs":[{"name":"caller","type":"address","internalType":"address"},{"name":"mandateId","type":"uint16","internalType":"uint16"}],"outputs":[{"name":"","type":"bool","internalType":"bool"}],"stateMutability":"view"},{"type":"function","name":"cancel","inputs":[{"name":"mandateId","type":"uint16","internalType":"uint16"},{"name":"mandateCalldata","type":"bytes","internalType":"bytes"},{"name":"nonce","type":"uint256","internalType":"uint256"}],"outputs":[{"name":"","type":"uint256","internalType":"uint256"}],"stateMutability":"nonpayable"},{"type":"function","name":"castVote","inputs":[{"name":"actionId","type":"uint256","internalType":"uint256"},{"name":"support","type":"uint8","internalType":"uint8"}],"outputs":[],"stateMutability":"nonpayable"},{"type":"function","name":"castVoteWithReason","inputs":[{"name":"actionId","type":"uint256","internalType":"uint256"},{"name":"support","type":"uint8","internalType":"uint8"},{"name":"reason","type":"string","internalType":"string"}],"outputs":[],"stateMutability":"nonpayable"},{"type":"function","name":"closeConstitute","inputs":[],"outputs":[],"stateMutability":"nonpayable"},{"type":"function","name":"closeConstitute","inputs":[{"name":"newAdmin","type":"address","internalType":"address"}],"outputs":[],"stateMutability":"nonpayable"},{"type":"function","name":"constitute","inputs":[{"name":"constituentMandates","type":"tuple[]","internalType":"struct PowersTypes.MandateInitData[]","components":[{"name":"nameDescription","type":"string","internalType":"string"},{"name":"targetMandate","type":"address","internalType":"address"},{"name":"config","type":"bytes","internalType":"bytes"},{"name":"conditions","type":"tuple","internalType":"struct PowersTypes.Conditions","components":[{"name":"allowedRole","type":"uint256","internalType":"uint256"},{"name":"votingPeriod","type":"uint32","internalType":"uint32"},{"name":"timelock","type":"uint32","internalType":"uint32"},{"name":"throttleExecution","type":"uint32","internalType":"uint32"},{"name":"needFulfilled","type":"uint16","internalType":"uint16"},{"name":"needNotFulfilled","type":"uint16","internalType":"uint16"},{"name":"quorum","type":"uint8","internalType":"uint8"},{"name":"succeedAt","type":"uint8","internalType":"uint8"}]}]}],"outputs":[],"stateMutability":"nonpayable"},{"type":"function","name":"eip712Domain","inputs":[],"outputs":[{"name":"fields","type":"bytes1","internalType":"bytes1"},{"name":"name","type":"string","internalType":"string"},{"name":"version","type":"string","internalType":"string"},{"name":"chainId","type":"uint256","internalType":"uint256"},{"name":"verifyingContract","type":"address","internalType":"address"},{"name":"salt","type":"bytes32","internalType":"bytes32"},{"name":"extensions","type":"uint256[]","internalType":"uint256[]"}],"stateMutability":"view"},{"type":"function","name":"fulfill","inputs":[{"name":"mandateId","type":"uint16","internalType":"uint16"},{"name":"actionId","type":"uint256","internalType":"uint256"},{"name":"targets","type":"address[]","internalType":"address[]"},{"name":"values","type":"uint256[]","internalType":"uint256[]"},{"name":"calldatas","type":"bytes[]","internalType":"bytes[]"}],"outputs":[],"stateMutability":"nonpayable"},{"type":"function","name":"getActionCalldata","inputs":[{"name":"actionId","type":"uint256","internalType":"uint256"}],"outputs":[{"name":"callData","type":"bytes","internalType":"bytes"}],"stateMutability":"view"},{"type":"function","name":"getActionData","inputs":[{"name":"actionId","type":"uint256","internalType":"uint256"}],"outputs":[{"name":"mandateId","type":"uint16","internalType":"uint16"},{"name":"proposedAt","type":"uint48","internalType":"uint48"},{"name":"requestedAt","type":"uint48","internalType":"uint48"},{"name":"fulfilledAt","type":"uint48","internalType":"uint48"},{"name":"cancelledAt","type":"uint48","internalType":"uint48"},{"name":"caller","type":"address","internalType":"address"},{"name":"nonce","type":"uint256","internalType":"uint256"}],"stateMutability":"view"},{"type":"function","name":"getActionReturnData","inputs":[{"name":"actionId","type":"uint256","internalType":"uint256"},{"name":"index","type":"uint256","internalType":"uint256"}],"outputs":[{"name":"returnData","type":"bytes","internalType":"bytes"}],"stateMutability":"view"},{"type":"function","name":"getActionState","inputs":[{"name":"actionId","type":"uint256","internalType":"uint256"}],"outputs":[{"name":"","type":"uint8","internalType":"enum PowersTypes.ActionState"}],"stateMutability":"view"},{"type":"function","name":"getActionUri","inputs":[{"name":"actionId","type":"uint256","internalType":"uint256"}],"outputs":[{"name":"_uri","type":"string","internalType":"string"}],"stateMutability":"view"},{"type":"function","name":"getActionVoteData","inputs":[{"name":"actionId","type":"uint256","internalType":"uint256"}],"outputs":[{"name":"voteStart","type":"uint48","internalType":"uint48"},{"name":"voteDuration","type":"uint32","internalType":"uint32"},{"name":"voteEnd","type":"uint256","internalType":"uint256"},{"name":"againstVotes","type":"uint32","internalType":"uint32"},{"name":"forVotes","type":"uint32","internalType":"uint32"},{"name":"abstainVotes","type":"uint32","internalType":"uint32"}],"stateMutability":"view"},{"type":"function","name":"getAdoptedMandate","inputs":[{"name":"mandateId","type":"uint16","internalType":"uint16"}],"outputs":[{"name":"mandate","type":"address","internalType":"address"},{"name":"mandateHash","type":"bytes32","internalType":"bytes32"},{"name":"active","type":"bool","internalType":"bool"}],"stateMutability":"view"},{"type":"function","name":"getAmountRoleHolders","inputs":[{"name":"roleId","type":"uint256","internalType":"uint256"}],"outputs":[{"name":"amountMembers","type":"uint256","internalType":"uint256"}],"stateMutability":"view"},{"type":"function","name":"getConditions","inputs":[{"name":"mandateId","type":"uint16","internalType":"uint16"}],"outputs":[{"name":"conditions","type":"tuple","internalType":"struct PowersTypes.Conditions","components":[{"name":"allowedRole","type":"uint256","internalType":"uint256"},{"name":"votingPeriod","type":"uint32","internalType":"uint32"},{"name":"timelock","type":"uint32","internalType":"uint32"},{"name":"throttleExecution","type":"uint32","internalType":"uint32"},{"name":"needFulfilled","type":"uint16","internalType":"uint16"},{"name":"needNotFulfilled","type":"uint16","internalType":"uint16"},{"name":"quorum","type":"uint8","internalType":"uint8"},{"name":"succeedAt","type":"uint8","internalType":"uint8"}]}],"stateMutability":"view"},{"type":"function","name":"getLatestFulfillment","inputs":[{"name":"mandateId","type":"uint16","internalType":"uint16"}],"outputs":[{"name":"latestFulfillment","type":"uint48","internalType":"uint48"}],"stateMutability":"view"},{"type":"function","name":"getMandateActionAtIndex","inputs":[{"name":"mandateId","type":"uint16","internalType":"uint16"},{"name":"index","type":"uint256","internalType":"uint256"}],"outputs":[{"name":"actionId","type":"uint256","internalType":"uint256"}],"stateMutability":"view"},{"type":"function","name":"getMandateCounter","inputs":[],"outputs":[{"name":"","type":"uint16","internalType":"uint16"}],"stateMutability":"view"},{"type":"function","name":"getQuantityMandateActions","inputs":[{"name":"mandateId","type":"uint16","internalType":"uint16"}],"outputs":[{"name":"quantityMandateActions","type":"uint256","internalType":"uint256"}],"stateMutability":"view"},{"type":"function","name":"getRoleHolderAtIndex","inputs":[{"name":"roleId","type":"uint256","internalType":"uint256"},{"name":"index","type":"uint256","internalType":"uint256"}],"outputs":[{"name":"account","type":"address","internalType":"address"}],"stateMutability":"view"},{"type":"function","name":"getRoleLabel","inputs":[{"name":"roleId","type":"uint256","internalType":"uint256"}],"outputs":[{"name":"label","type":"string","internalType":"string"}],"stateMutability":"view"},{"type":"function","name":"getRoleMetadata","inputs":[{"name":"roleId","type":"uint256","internalType":"uint256"}],"outputs":[{"name":"metadata","type":"string","internalType":"string"}],"stateMutability":"view"},{"type":"function","name":"getTreasury","inputs":[],"outputs":[{"name":"","type":"address","internalType":"address payable"}],"stateMutability":"view"},{"type":"function","name":"hasRoleSince","inputs":[{"name":"account","type":"address","internalType":"address"},{"name":"roleId","type":"uint256","internalType":"uint256"}],"outputs":[{"name":"since","type":"uint48","internalType":"uint48"}],"stateMutability":"view"},{"type":"function","name":"hasVoted","inputs":[{"name":"actionId","type":"uint256","internalType":"uint256"},{"name":"account","type":"address","internalType":"address"}],"outputs":[{"name":"","type":"bool","internalType":"bool"}],"stateMutability":"view"},{"type":"function","name":"isBlacklisted","inputs":[{"name":"account","type":"address","internalType":"address"}],"outputs":[{"name":"","type":"bool","internalType":"bool"}],"stateMutability":"view"},{"type":"function","name":"labelRole","inputs":[{"name":"roleId","type":"uint256","internalType":"uint256"},{"name":"label","type":"string","internalType":"string"},{"name":"metadata","type":"string","internalType":"string"}],"outputs":[],"stateMutability":"nonpayable"},{"type":"function","name":"mandateCounter","inputs":[],"outputs":[{"name":"","type":"uint16","internalType":"uint16"}],"stateMutability":"view"},{"type":"function","name":"name","inputs":[],"outputs":[{"name":"","type":"string","internalType":"string"}],"stateMutability":"view"},{"type":"function","name":"propose","inputs":[{"name":"mandateId","type":"uint16","internalType":"uint16"},{"name":"mandateCalldata","type":"bytes","internalType":"bytes"},{"name":"nonce","type":"uint256","internalType":"uint256"},{"name":"uriAction","type":"string","internalType":"string"}],"outputs":[{"name":"actionId","type":"uint256","internalType":"uint256"}],"stateMutability":"nonpayable"},{"type":"function","name":"request","inputs":[{"name":"mandateId","type":"uint16","internalType":"uint16"},{"name":"mandateCalldata","type":"bytes","internalType":"bytes"},{"name":"nonce","type":"uint256","internalType":"uint256"},{"name":"uriAction","type":"string","internalType":"string"}],"outputs":[{"name":"actionId","type":"uint256","internalType":"uint256"}],"stateMutability":"nonpayable"},{"type":"function","name":"revokeMandate","inputs":[{"name":"mandateId","type":"uint16","internalType":"uint16"}],"outputs":[],"stateMutability":"nonpayable"},{"type":"function","name":"revokeRole","inputs":[{"name":"roleId","type":"uint256","internalType":"uint256"},{"name":"account","type":"address","internalType":"address"}],"outputs":[],"stateMutability":"nonpayable"},{"type":"function","name":"setTreasury","inputs":[{"name":"newTreasury","type":"address","internalType":"address payable"}],"outputs":[],"stateMutability":"nonpayable"},{"type":"function","name":"setUri","inputs":[{"name":"newUri","type":"string","internalType":"string"}],"outputs":[],"stateMutability":"nonpayable"},{"type":"function","name":"uri","inputs":[],"outputs":[{"name":"","type":"string","internalType":"string"}],"stateMutability":"view"},{"type":"function","name":"version","inputs":[],"outputs":[{"name":"","type":"string","internalType":"string"}],"stateMutability":"pure"},{"type":"event","name":"ActionFulfilled","inputs":[{"name":"mandateId","type":"uint16","indexed":true,"internalType":"uint16"},{"name":"actionId","type":"uint256","indexed":true,"internalType":"uint256"},{"name":"targets","type":"address[]","indexed":false,"internalType":"address[]"},{"name":"values","type":"uint256[]","indexed":false,"internalType":"uint256[]"},{"name":"calldatas","type":"bytes[]","indexed":false,"internalType":"bytes[]"}],"anonymous":false},{"type":"event","name":"ActionRequested","inputs":[{"name":"caller","type":"address","indexed":true,"internalType":"address"},{"name":"mandateId","type":"uint16","indexed":true,"internalType":"uint16"},{"name":"mandateCalldata","type":"bytes","indexed":false,"internalType":"bytes"},{"name":"nonce","type":"uint256","indexed":false,"internalType":"uint256"},{"name":"description","type":"string","indexed":false,"internalType":"string"}],"anonymous":false},{"type":"event","name":"BlacklistSet","inputs":[{"name":"account","type":"address","indexed":true,"internalType":"address"},{"name":"blacklisted","type":"bool","indexed":true,"internalType":"bool"}],"anonymous":false},{"type":"event","name":"EIP712DomainChanged","inputs":[],"anonymous":false},{"type":"event","name":"FundsReceived","inputs":[{"name":"sender","type":"address","indexed":false,"internalType":"address"},{"name":"value","type":"uint256","indexed":false,"internalType":"uint256"}],"anonymous":false},{"type":"event","name":"MandateAdopted","inputs":[{"name":"mandateId","type":"uint16","indexed":true,"internalType":"uint16"}],"anonymous":false},{"type":"event","name":"MandateRevoked","inputs":[{"name":"mandateId","type":"uint16","indexed":true,"internalType":"uint16"}],"anonymous":false},{"type":"event","name":"Powers__Initialized","inputs":[{"name":"contractAddress","type":"address","indexed":false,"internalType":"address"},{"name":"name","type":"string","indexed":false,"internalType":"string"},{"name":"uri","type":"string","indexed":false,"internalType":"string"}],"anonymous":false},{"type":"event","name":"ProposedActionCancelled","inputs":[{"name":"actionId","type":"uint256","indexed":true,"internalType":"uint256"}],"anonymous":false},{"type":"event","name":"ProposedActionCreated","inputs":[{"name":"actionId","type":"uint256","indexed":true,"internalType":"uint256"},{"name":"caller","type":"address","indexed":true,"internalType":"address"},{"name":"mandateId","type":"uint16","indexed":true,"internalType":"uint16"},{"name":"signature","type":"string","indexed":false,"internalType":"string"},{"name":"executeCalldata","type":"bytes","indexed":false,"internalType":"bytes"},{"name":"voteStart","type":"uint256","indexed":false,"internalType":"uint256"},{"name":"voteEnd","type":"uint256","indexed":false,"internalType":"uint256"},{"name":"nonce","type":"uint256","indexed":false,"internalType":"uint256"},{"name":"description","type":"string","indexed":false,"internalType":"string"}],"anonymous":false},{"type":"event","name":"RoleLabel","inputs":[{"name":"roleId","type":"uint256","indexed":true,"internalType":"uint256"},{"name":"label","type":"string","indexed":false,"internalType":"string"}],"anonymous":false},{"type":"event","name":"RoleSet","inputs":[{"name":"roleId","type":"uint256","indexed":true,"internalType":"uint256"},{"name":"account","type":"address","indexed":true,"internalType":"address"},{"name":"access","type":"bool","indexed":true,"internalType":"bool"}],"anonymous":false},{"type":"event","name":"VoteCast","inputs":[{"name":"account","type":"address","indexed":true,"internalType":"address"},{"name":"actionId","type":"uint256","indexed":true,"internalType":"uint256"},{"name":"support","type":"uint8","indexed":true,"internalType":"uint8"},{"name":"reason","type":"string","indexed":false,"internalType":"string"}],"anonymous":false},{"type":"error","name":"InvalidShortString","inputs":[]},{"type":"error","name":"Powers__ActionAlreadyFulfilled","inputs":[]},{"type":"error","name":"Powers__ActionAlreadyInitiated","inputs":[]},{"type":"error","name":"Powers__ActionCancelled","inputs":[]},{"type":"error","name":"Powers__ActionNotProposed","inputs":[]},{"type":"error","name":"Powers__ActionNotRequested","inputs":[]},{"type":"error","name":"Powers__AddressBlacklisted","inputs":[]},{"type":"error","name":"Powers__AlreadyCastVote","inputs":[]},{"type":"error","name":"Powers__CalldataTooLong","inputs":[]},{"type":"error","name":"Powers__CallerNotTargetMandate","inputs":[]},{"type":"error","name":"Powers__CannotAddZeroAddress","inputs":[]},{"type":"error","name":"Powers__CannotCallMandate","inputs":[]},{"type":"error","name":"Powers__CannotSetPublicRole","inputs":[]},{"type":"error","name":"Powers__CannotSetZeroAddress","inputs":[]},{"type":"error","name":"Powers__ConstituteClosed","inputs":[]},{"type":"error","name":"Powers__ConstituteOpen","inputs":[]},{"type":"error","name":"Powers__ConstitutionAlreadyExecuted","inputs":[]},{"type":"error","name":"Powers__ExecutionArrayTooLong","inputs":[]},{"type":"error","name":"Powers__ExternalContractBlacklisted","inputs":[]},{"type":"error","name":"Powers__IncorrectInterface","inputs":[{"name":"targetMandate","type":"address","internalType":"address"}]},{"type":"error","name":"Powers__InvalidAddress","inputs":[]},{"type":"error","name":"Powers__InvalidCallData","inputs":[]},{"type":"error","name":"Powers__InvalidIndex","inputs":[]},{"type":"error","name":"Powers__InvalidLabel","inputs":[]},{"type":"error","name":"Powers__InvalidMaxCallDataLength","inputs":[]},{"type":"error","name":"Powers__InvalidMaxExecutionsLength","inputs":[]},{"type":"error","name":"Powers__InvalidName","inputs":[]},{"type":"error","name":"Powers__InvalidReturnCallDataLength","inputs":[]},{"type":"error","name":"Powers__InvalidVoteType","inputs":[]},{"type":"error","name":"Powers__LabelTooLong","inputs":[]},{"type":"error","name":"Powers__LockedRole","inputs":[]},{"type":"error","name":"Powers__MandateFulfillCallFailed","inputs":[]},{"type":"error","name":"Powers__MandateNotActive","inputs":[]},{"type":"error","name":"Powers__MandateRequestFailed","inputs":[]},{"type":"error","name":"Powers__NoMembersInRole","inputs":[]},{"type":"error","name":"Powers__NoVoteNeeded","inputs":[]},{"type":"error","name":"Powers__NotAContract","inputs":[]},{"type":"error","name":"Powers__NotProposerAction","inputs":[]},{"type":"error","name":"Powers__OnlyAdmin","inputs":[]},{"type":"error","name":"Powers__OnlyPowers","inputs":[]},{"type":"error","name":"Powers__PayableNotEnabled","inputs":[]},{"type":"error","name":"Powers__ProposedActionNotActive","inputs":[]},{"type":"error","name":"Powers__UnexpectedActionState","inputs":[]},{"type":"error","name":"Powers__UriTooLong","inputs":[]},{"type":"error","name":"Powers__VoteWithPublicRoleDisallowed","inputs":[]},{"type":"error","name":"StringTooLong","inputs":[{"name":"str","type":"string","internalType":"string"}]}],"bytecode":{"object":"0x6101e060408190526008805461ffff60a01b1916600160a01b17905561487a3881900390819083398101604081905261003791610591565b84610058604080518082019091526003815262302e3560e81b602082015290565b610062825f61020c565b6101205261007181600161020c565b61014052815160208084019190912060e052815190820120610100524660a0526100fd60e05161010051604080517f8b73c3c69bb8fe3d512ecc4cf759cc79239f7b179b0ffacaa9a75d522b39400f60208201529081019290925260608201524660808201523060a08201525f9060c00160405160208183030381529060405280519060200120905090565b60805250503060c05284515f0361012757604051634acb0e6d60e01b815260040160405180910390fd5b825f0361014757604051631c58c0e160e01b815260040160405180910390fd5b815f036101675760405163a19bdd3b60e01b815260040160405180910390fd5b805f0361018757604051638a2b742f60e01b815260040160405180910390fd5b6101935f33600161023e565b600661019f8682610693565b5060076101ac8582610693565b506101608390526101808290526101a0819052436101c0526040517f8e09415123fab1f9e22246686c8d24ad9f84c70288cd5fa338213bccd3c5fb76906101fa9030906006906007906107cc565b60405180910390a150505050506108aa565b5f60208351101561022757610220836104ae565b9050610238565b816102328482610693565b5060ff90505b92915050565b5f19830361025f5760405163a1dd2b9360e01b815260040160405180910390fd5b6001600160a01b038216610286576040516329f62b5d60e11b815260040160405180910390fd5b5f8381526004602090815260408083206001600160a01b038616845291829052909120548015158380156102b8575080155b15610339576040805180820182526001600160a01b0380881680835265ffffffffffff43811660208086019182526001808b01805491820181555f81815283812098519890920180549451909516600160a01b026001600160d01b03199094169790961696909617919091179091559154908352908690529190205561046c565b831580156103445750805b1561046c576001838101545f9161035a9161080b565b90505f8460010182815481106103725761037261082a565b5f918252602091829020604080518082019091529101546001600160a01b0381168252600160a01b900465ffffffffffff16918101919091529050806001868101906103be908761080b565b815481106103ce576103ce61082a565b5f918252602091829020835191018054939092015165ffffffffffff16600160a01b026001600160d01b03199093166001600160a01b0390911617919091179055600185018054806104225761042261083e565b5f828152602080822083015f1990810180546001600160d01b031916905590920190925591516001600160a01b039081168252918690526040808220869055918816815290812055505b831515856001600160a01b0316877f294507a8f5830b538faef39fbdd28f1164f27c8338a32fc7b47ddf82e4c8d9e460405160405180910390a4505050505050565b5f5f829050601f815111156104e1578260405163305a27a960e01b81526004016104d89190610852565b60405180910390fd5b80516104ec82610887565b179392505050565b634e487b7160e01b5f52604160045260245ffd5b5f82601f830112610517575f5ffd5b81516001600160401b03811115610530576105306104f4565b604051601f8201601f19908116603f011681016001600160401b038111828210171561055e5761055e6104f4565b604052818152838201602001851015610575575f5ffd5b8160208501602083015e5f918101602001919091529392505050565b5f5f5f5f5f60a086880312156105a5575f5ffd5b85516001600160401b038111156105ba575f5ffd5b6105c688828901610508565b602088015190965090506001600160401b038111156105e3575f5ffd5b6105ef88828901610508565b60408801516060890151608090990151979a919950979695509350505050565b600181811c9082168061062357607f821691505b60208210810361064157634e487b7160e01b5f52602260045260245ffd5b50919050565b601f82111561068e57805f5260205f20601f840160051c8101602085101561066c5750805b601f840160051c820191505b8181101561068b575f8155600101610678565b50505b505050565b81516001600160401b038111156106ac576106ac6104f4565b6106c0816106ba845461060f565b84610647565b6020601f8211600181146106f2575f83156106db5750848201515b5f19600385901b1c1916600184901b17845561068b565b5f84815260208120601f198516915b828110156107215787850151825560209485019460019092019101610701565b508482101561073e57868401515f19600387901b60f8161c191681555b50505050600190811b01905550565b5f81546107598161060f565b808552600182168015610773576001811461078f576107c3565b60ff1983166020870152602082151560051b87010193506107c3565b845f5260205f205f5b838110156107ba5781546020828a010152600182019150602081019050610798565b87016020019450505b50505092915050565b6001600160a01b03841681526060602082018190525f906107ef9083018561074d565b8281036040840152610801818561074d565b9695505050505050565b8181038181111561023857634e487b7160e01b5f52601160045260245ffd5b634e487b7160e01b5f52603260045260245ffd5b634e487b7160e01b5f52603160045260245ffd5b602081525f82518060208401528060208501604085015e5f604082850101526040601f19601f83011684010191505092915050565b80516020808301519190811015610641575f1960209190910360031b1b16919050565b60805160a05160c05160e05161010051610120516101405161016051610180516101a0516101c051613f436109375f395f6107f301525f8181610b990152610e6d01525f8181610900015261107e01525f8181610af501528181610ee1015281816115110152611ffd01525f612a8c01525f612a5b01525f50505f50505f50505f50505f5050613f435ff3fe60806040526004361061031c575f3560e01c806375b238fc1161019c578063b4497115116100e7578063edf2a59611610092578063f2a0bb751161006d578063f2a0bb7514610b69578063f6226e7c14610b88578063fc2d96d014610bbb578063fe575a8714610bda575f5ffd5b8063edf2a59614610ae4578063edfd2e8714610b17578063f0f4426014610b4a575f5ffd5b8063e88efe35116100c2578063e88efe3514610a90578063eac989f814610ab1578063ebef6d9714610ac5575f5ffd5b8063b449711514610a33578063cc5812cf14610a52578063d902bf3a14610a71575f5ffd5b80638a4359e0116101475780639b642de1116101225780639b642de1146109c7578063b367cac0146109e6578063b4324dd314610a05575f5ffd5b80638a4359e014610975578063918f86741461099457806393d7dae5146109a8575f5ffd5b80637c1b5539116101775780637c1b5539146108ef578063831af3791461092257806384b0196e1461094e575f5ffd5b806375b238fc1461089e57806376ff7577146108b15780637b3c71d3146108d0575f5ffd5b80632e2d8253116102675780634583476b1161021257806356781388116101ed5780635678138814610815578063666ca2d614610834578063685b824a146108605780637258883f1461087f575f5ffd5b80634583476b146106e957806354fd4d50146107b75780635532f99b146107e2575f5ffd5b806341bd157d1161024257806341bd157d146106535780634385963214610672578063455a4396146106ca575f5ffd5b80632e2d8253146106035780633b19e84a146106225780633ca7c02a1461063f575f5ffd5b80631031bdb0116102c75780631d0b19e7116102a25780631d0b19e7146105665780632179e04e146105855780632d90fe5f146105e4575f5ffd5b80631031bdb01461046a57806312561b1a14610502578063199093bb1461052f575f5ffd5b806306fdde03116102f757806306fdde03146104215780630d7abeaa146104355780630de6a6011461044b575f5ffd5b80630398f05f14610369578063040b8c241461039e578063055dbe10146103f3575f5ffd5b36610365577f8e47b87b0ef542cdfa1659c551d88bad38aa7f452d2bbb349ab7530dfec8be8f33604080516001600160a01b0390921682523460208301520160405180910390a1005b5f5ffd5b348015610374575f5ffd5b5061038861038336600461305f565b610c11565b60405161039591906130a4565b60405180910390f35b3480156103a9575f5ffd5b506103dc6103b83660046130c7565b61ffff165f90815260036020526040902054600160a01b900465ffffffffffff1690565b60405165ffffffffffff9091168152602001610395565b3480156103fe575f5ffd5b50600854600160a01b900461ffff165b60405161ffff9091168152602001610395565b34801561042c575f5ffd5b50610388610cb3565b348015610440575f5ffd5b50610449610d3f565b005b348015610456575f5ffd5b50610449610465366004613128565b610d52565b348015610475575f5ffd5b506104db6104843660046130c7565b61ffff165f81815260036020908152604091829020548251308184015280840194909452825180850384018152606090940190925282519201919091206001600160a01b038216929091600160d01b900460ff1690565b604080516001600160a01b0390941684526020840192909252151590820152606001610395565b34801561050d575f5ffd5b5061052161051c36600461321e565b611159565b604051908152602001610395565b34801561053a575f5ffd5b5061054e610549366004613274565b61133a565b6040516001600160a01b039091168152602001610395565b348015610571575f5ffd5b506104496105803660046132a8565b61139e565b348015610590575f5ffd5b506105a461059f36600461305f565b6113b5565b6040805165ffffffffffff909716875263ffffffff95861660208801528601939093529083166060850152821660808401521660a082015260c001610395565b3480156105ef575f5ffd5b506103886105fe36600461305f565b61143a565b34801561060e575f5ffd5b5061052161061d3660046133df565b611459565b34801561062d575f5ffd5b506008546001600160a01b031661054e565b34801561064a575f5ffd5b506105215f1981565b34801561065e575f5ffd5b5061038861066d366004613274565b61178e565b34801561067d575f5ffd5b506106ba61068c3660046132a8565b5f8281526002602090815260408083206001600160a01b038516845260070190915290205460ff1692915050565b6040519015158152602001610395565b3480156106d5575f5ffd5b506104496106e436600461346f565b61184b565b3480156106f4575f5ffd5b5061076461070336600461305f565b5f908152600260208190526040909120805491810154600390910154600160f01b830461ffff169365ffffffffffff80851694600160301b8104821694600160601b8204831694600160901b909204909216926001600160a01b0390921691565b6040805161ffff909816885265ffffffffffff96871660208901529486169487019490945291841660608601529290921660808401526001600160a01b0390911660a083015260c082015260e001610395565b3480156107c2575f5ffd5b50604080518082019091526003815262302e3560e81b6020820152610388565b3480156107ed575f5ffd5b506105217f000000000000000000000000000000000000000000000000000000000000000081565b348015610820575f5ffd5b5061044961082f3660046134ab565b6118a6565b34801561083f575f5ffd5b5061085361084e36600461305f565b6118c0565b60405161039591906134d5565b34801561086b575f5ffd5b5061044961087a3660046132a8565b611a09565b34801561088a575f5ffd5b506104496108993660046134fb565b611a56565b3480156108a9575f5ffd5b506105215f81565b3480156108bc575f5ffd5b506104496108cb366004613516565b611a6a565b3480156108db575f5ffd5b506104496108ea366004613583565b611b4c565b3480156108fa575f5ffd5b506105217f000000000000000000000000000000000000000000000000000000000000000081565b34801561092d575f5ffd5b5061094161093c3660046130c7565b611b93565b60405161039591906135d9565b348015610959575f5ffd5b50610962611c6e565b6040516103959796959493929190613671565b348015610980575f5ffd5b5061052161098f366004613707565b611cb0565b34801561099f575f5ffd5b50610521606481565b3480156109b3575f5ffd5b506106ba6109c236600461372f565b611d0e565b3480156109d2575f5ffd5b506104496109e1366004613759565b611d50565b3480156109f1575f5ffd5b50610449610a003660046130c7565b611d64565b348015610a10575f5ffd5b50610521610a1f36600461305f565b5f9081526004602052604090206001015490565b348015610a3e575f5ffd5b5061040e610a4d3660046138eb565b611e0b565b348015610a5d575f5ffd5b506103dc610a6c36600461391d565b611e70565b348015610a7c575f5ffd5b50610388610a8b36600461305f565b611ee8565b348015610a9b575f5ffd5b5060085461040e90600160a01b900461ffff1681565b348015610abc575f5ffd5b50610388611f07565b348015610ad0575f5ffd5b50610521610adf3660046133df565b611f14565b348015610aef575f5ffd5b506105217f000000000000000000000000000000000000000000000000000000000000000081565b348015610b22575f5ffd5b50610521610b313660046130c7565b61ffff165f908152600360208190526040909120015490565b348015610b55575f5ffd5b50610449610b643660046134fb565b612348565b348015610b74575f5ffd5b50610388610b8336600461305f565b612399565b348015610b93575f5ffd5b506105217f000000000000000000000000000000000000000000000000000000000000000081565b348015610bc6575f5ffd5b50610449610bd5366004613939565b6123b8565b348015610be5575f5ffd5b506106ba610bf43660046134fb565b6001600160a01b03165f9081526005602052604090205460ff1690565b5f818152600460205260409020600201805460609190610c30906139fa565b80601f0160208091040260200160405190810160405280929190818152602001828054610c5c906139fa565b8015610ca75780601f10610c7e57610100808354040283529160200191610ca7565b820191905f5260205f20905b815481529060010190602001808311610c8a57829003601f168201915b50505050509050919050565b60068054610cc0906139fa565b80601f0160208091040260200160405190810160405280929190818152602001828054610cec906139fa565b8015610d375780601f10610d0e57610100808354040283529160200191610d37565b820191905f5260205f20905b815481529060010190602001808311610d1a57829003601f168201915b505050505081565b610d47612490565b610d50336124cb565b565b61ffff88165f9081526003602052604090208054600160d01b900460ff16610d8d57604051632e53afcd60e01b815260040160405180910390fd5b80546001600160a01b03163314610db757604051635574892960e11b815260040160405180910390fd5b5f8881526002602052604090208054600160301b900465ffffffffffff161580610df057508054600160901b900465ffffffffffff1615155b15610e0e576040516301dd1d1560e71b815260040160405180910390fd5b8054600160601b900465ffffffffffff1615610e3d5760405163a517239560e01b815260040160405180910390fd5b868581141580610e4d5750808414155b15610e6b5760405163dbf15fa560e01b815260040160405180910390fd5b7f0000000000000000000000000000000000000000000000000000000000000000811115610eac5760405163d0b6a17960e01b815260040160405180910390fd5b815471ffffffffffff0000000000000000000000001916600160601b4365ffffffffffff16021782555f5b81811015611115577f0000000000000000000000000000000000000000000000000000000000000000868683818110610f1257610f12613a32565b9050602002810190610f249190613a46565b90501115610f4557604051631c3bc5e360e31b815260040160405180910390fd5b610f6f8a8a83818110610f5a57610f5a613a32565b9050602002016020810190610bf491906134fb565b15610f8d576040516334d52f6b60e01b815260040160405180910390fd5b5f5f8b8b84818110610fa157610fa1613a32565b9050602002016020810190610fb691906134fb565b6001600160a01b03168a8a85818110610fd157610fd1613a32565b90506020020135898986818110610fea57610fea613a32565b9050602002810190610ffc9190613a46565b60405161100a929190613a89565b5f6040518083038185875af1925050503d805f8114611044576040519150601f19603f3d011682016040523d82523d5f602084013e611049565b606091505b50915091508161107c578051156110635780518082602001fd5b604051631d8fb90d60e21b815260040160405180910390fd5b7f00000000000000000000000000000000000000000000000000000000000000008151116110ca576005850180546001810182555f9182526020909120016110c48282613ae4565b5061110b565b604080515f602082015260058701910160408051601f1981840301815291905281546001810183555f9283526020909220909101906111099082613ae4565b505b5050600101610ed7565b505081547fffffffffffff000000000000ffffffffffffffffffffffffffffffffffffffff16600160a01b4365ffffffffffff160217909155505050505050505050565b61ffff84165f9081526003602052604081208054600160d01b900460ff1661119457604051632e53afcd60e01b815260040160405180910390fd5b604051630b704dbd60e11b81525f90732ad6bf262f9b10ffb09876a0ee90f7d9b18901f4906316e09b7a906111d3908a908a908a908a90600401613bc7565b602060405180830381865af41580156111ee573d5f5f3e3d5ffd5b505050506040513d601f19601f820116820180604052508101906112129190613bf5565b5f81815260026020819052604090912090810154919250906001600160a01b0316336001600160a01b03161461125b57604051637365858560e01b815260040160405180910390fd5b805465ffffffffffff165f036112845760405163f661f4bf60e01b815260040160405180910390fd5b8054600160601b900465ffffffffffff161515806112b157508054600160901b900465ffffffffffff1615155b156112cf5760405163b831530960e01b815260040160405180910390fd5b80547fffffffffffffffff000000000000ffffffffffffffffffffffffffffffffffff16600160901b4365ffffffffffff160217815560405182907f8eb4cfeba12ece86fc1590773502e55423b37db556543430337376b30d27c42b905f90a2509695505050505050565b5f8281526004602052604081206001810154831061136b5760405163472e61bd60e01b815260040160405180910390fd5b80600101838154811061138057611380613a32565b5f918252602090912001546001600160a01b03169150505b92915050565b6113a6612523565b6113b182825f612543565b5050565b5f81815260026020526040812080546001820154839283928392839283929091600160c01b90910465ffffffffffff169063ffffffff166113f68183613c20565b60019390930154919a90995065ffffffffffff909216975063ffffffff640100000000820481169750600160401b820481169650600160601b909104169350915050565b5f818152600460205260409020600301805460609190610c30906139fa565b6008545f90600160b01b900460ff1661148557604051630889b5b960e31b815260040160405180910390fd5b61ffff86165f9081526003602052604090208054600160d01b900460ff166114c057604051632e53afcd60e01b815260040160405180910390fd5b6114cb335b88611d0e565b6114e857604051637079d1b960e11b815260040160405180910390fd5b6114f133610bf4565b1561150f576040516334d52f6b60e01b815260040160405180910390fd5b7f000000000000000000000000000000000000000000000000000000000000000085111561155057604051631c3bc5e360e31b815260040160405180910390fd5b6002810154604051630b704dbd60e11b815263ffffffff821691600160801b900460ff1690732ad6bf262f9b10ffb09876a0ee90f7d9b18901f4906316e09b7a906115a5908c908c908c908c90600401613bc7565b602060405180830381865af41580156115c0573d5f5f3e3d5ffd5b505050506040513d601f19601f820116820180604052508101906115e49190613bf5565b5f818152600260205260409020805491955090600160c01b900465ffffffffffff16156116245760405163b831530960e01b815260040160405180910390fd5b8054600160f01b900461ffff165f03611651576003840180546001810182555f9182526020909120018590555b60048101611660898b83613c3e565b50805461ffff8b16600160f01b027dffffffffffffffffffffffffffffffffffffffffffffffff00000000000090911665ffffffffffff43161717815560ff82166116ab575f6116ad565b435b815465ffffffffffff91909116600160c01b027fffff000000000000ffffffffffffffffffffffffffffffffffffffffffffffff90911617815560018101805463ffffffff851663ffffffff199091161790556002810180546001600160a01b03191633179055600681016117228782613ae4565b506003810187905561ffff8a1633867fb5856a9700a7e851456d3a16348b4ae0fbb11b06ac0af8dbe8e8652c57cc4cbd8c8c4361176563ffffffff8b1682613cf8565b8e8e60405161177996959493929190613d0b565b60405180910390a45050505095945050505050565b5f828152600260205260409020600501805460609190839081106117b4576117b4613a32565b905f5260205f200180546117c7906139fa565b80601f01602080910402602001604051908101604052809291908181526020018280546117f3906139fa565b801561183e5780601f106118155761010080835404028352916020019161183e565b820191905f5260205f20905b81548152906001019060200180831161182157829003601f168201915b5050505050905092915050565b611853612523565b6001600160a01b0382165f81815260056020526040808220805460ff191685151590811790915590519092917f921341769c2075d1ae425396063d5ab65ff5006c4bc0bd0821e50ce51fb6012391a35050565b6113b182338360405180602001604052805f8152506127b3565b5f818152600260205260408120805465ffffffffffff161580156118f257508054600160301b900465ffffffffffff16155b801561190c57508054600160601b900465ffffffffffff16155b801561192657508054600160901b900465ffffffffffff16155b1561193357505f92915050565b8054600160601b900465ffffffffffff16156119525750600792915050565b8054600160901b900465ffffffffffff16156119715750600292915050565b8054600160301b900465ffffffffffff16156119905750600692915050565b600181015481545f916119ba9163ffffffff90911690600160c01b900465ffffffffffff16613c20565b65ffffffffffff1690504381106119d5575060039392505050565b6119de84612939565b15806119f057506119ee846129d9565b155b156119ff575060049392505050565b5060059392505050565b611a11612523565b6001600160a01b0381165f9081526005602052604090205460ff1615611a4a576040516334d52f6b60e01b815260040160405180910390fd5b6113b182826001612543565b611a5e612490565b611a67816124cb565b50565b611a72612523565b81515f03611a93576040516333a0807f60e21b815260040160405180910390fd5b60ff82511115611ab6576040516350cc0e8d60e01b815260040160405180910390fd5b60ff81511115611ad95760405163d315c6bd60e01b815260040160405180910390fd5b5f838152600460205260409020600201611af38382613ae4565b505f838152600460205260409020600301611b0e8282613ae4565b50827f4c6d3d4a776b1458bbd518e75903a3f27a0c6f4597b10882784aa64769d56c7183604051611b3f91906130a4565b60405180910390a2505050565b611b8d84338585858080601f0160208091040260200160405190810160405280939291908181526020018383808284375f920191909152506127b392505050565b50505050565b60408051610100810182525f80825260208201819052918101829052606081018290526080810182905260a0810182905260c0810182905260e08101919091525061ffff9081165f908152600360209081526040918290208251610100810184526001820154815260029091015463ffffffff808216938301939093526401000000008104831693820193909352600160401b83049091166060820152600160601b820483166080820152600160701b820490921660a083015260ff600160801b8204811660c0840152600160881b9091041660e082015290565b5f6060805f5f5f6060611c7f612a54565b611c87612a85565b604080515f80825260208201909252600f60f81b9b939a50919850469750309650945092509050565b61ffff82165f9081526003602081905260408220908101548310611ce75760405163472e61bd60e01b815260040160405180910390fd5b806003018381548110611cfc57611cfc613a32565b905f5260205f20015491505092915050565b61ffff81165f9081526003602052604081206001015481611d2f8583611e70565b905065ffffffffffff8116151580611d4757505f1982145b95945050505050565b611d58612523565b60076113b18282613ae4565b611d6c612523565b61ffff81165f90815260036020526040812054600160d01b900460ff1615159003611daa57604051632e53afcd60e01b815260040160405180910390fd5b61ffff81165f8181526003602052604080822080547fffffffffff00ffffffffffffffffffffffffffffffffffffffffffffffffffff169055517ffb1d94dcf467f70febf412166aaa551737afd946ba6a4b4eac970aaf28a7e74f9190a250565b5f611e14612523565b611e1d82612ab2565b600854909150611e3a90600190600160a01b900461ffff16613d5c565b61ffff167f284812f41d73696d76ff026c35ebc1a8e8bf24544551c55dd0877334dca88a5660405160405180910390a25b919050565b5f8181526004602090815260408083206001600160a01b038616845291829052822054808303611ea4575f92505050611398565b81600101600182611eb59190613d76565b81548110611ec557611ec5613a32565b5f91825260209091200154600160a01b900465ffffffffffff1695945050505050565b5f818152600260205260409020600401805460609190610c30906139fa565b60078054610cc0906139fa565b6008545f90600160b01b900460ff16611f4057604051630889b5b960e31b815260040160405180910390fd5b604051630b704dbd60e11b8152732ad6bf262f9b10ffb09876a0ee90f7d9b18901f4906316e09b7a90611f7d908990899089908990600401613bc7565b602060405180830381865af4158015611f98573d5f5f3e3d5ffd5b505050506040513d601f19601f82011682018060405250810190611fbc9190613bf5565b61ffff87165f908152600360205260409020805491925090600160d01b900460ff16611ffb57604051632e53afcd60e01b815260040160405180910390fd5b7f000000000000000000000000000000000000000000000000000000000000000085111561203c57604051631c3bc5e360e31b815260040160405180910390fd5b61204533610bf4565b15612063576040516334d52f6b60e01b815260040160405180910390fd5b61206c336114c5565b61208957604051637079d1b960e11b815260040160405180910390fd5b5f8281526002602052604090208054600160301b900465ffffffffffff161515806120c357508054600160601b900465ffffffffffff1615155b156120e15760405163fc0e49ff60e01b815260040160405180910390fd5b8054600160901b900465ffffffffffff161561211057604051632ec3fe1560e11b815260040160405180910390fd5b8154604051633881b32960e01b8152732ad6bf262f9b10ffb09876a0ee90f7d9b18901f491633881b32991612162918c918c918c9130918d91600160a01b90910465ffffffffffff1690600401613d89565b5f6040518083038186803b158015612178575f5ffd5b505af415801561218a573d5f5f3e3d5ffd5b50508254600160f01b900461ffff165f0391506121bd9050576003820180546001810182555f9182526020909120018390555b600281018054336001600160a01b031990911617905580547dffffffffffffffffffffffffffffffffffff000000000000ffffffffffff16600160301b4365ffffffffffff16027dffffffffffffffffffffffffffffffffffffffffffffffffffffffffffff1617600160f01b61ffff8a160217815560048101612242878983613c3e565b50600681016122518582613ae4565b506003810185905581546040516326a8b78760e11b81525f916001600160a01b031690634d516f0e906122909033908d908d908d908d90600401613dd5565b6020604051808303815f875af11580156122ac573d5f5f3e3d5ffd5b505050506040513d601f19601f820116820180604052508101906122d09190613e13565b9050806122f05760405163382654b960e21b815260040160405180910390fd5b61ffff8916336001600160a01b03167f98e1e52af9c2155b4c2b4844cdccf64c85cb13dd804231d177ef6fea4325d4058a8a8a8a6040516123349493929190613e2e565b60405180910390a350505095945050505050565b612350612523565b6001600160a01b03811661237757604051636e7e8feb60e11b815260040160405180910390fd5b600880546001600160a01b0319166001600160a01b0392909216919091179055565b5f818152600260205260409020600601805460609190610c30906139fa565b6123c0612490565b600854600160b01b900460ff16156123eb576040516315ea064b60e31b815260040160405180910390fd5b600854600160a01b900461ffff165f5b825181101561246c575f6001600160a01b031683828151811061242057612420613a32565b6020026020010151602001516001600160a01b0316146124645761245d8284838151811061245057612450613a32565b6020026020010151612af5565b8160010191505b6001016123fb565b506008805461ffff909216600160a01b0261ffff60a01b1990921691909117905550565b61249a5f5f61133a565b6001600160a01b0316336001600160a01b031614610d5057604051630eaa87a560e21b815260040160405180910390fd5b336001600160a01b038216146124f2576124e65f335f612543565b6124f25f826001612543565b50600880547fffffffffffffffffff00ffffffffffffffffffffffffffffffffffffffffffff16600160b01b179055565b333014610d505760405163e890ccbf60e01b815260040160405180910390fd5b5f1983036125645760405163a1dd2b9360e01b815260040160405180910390fd5b6001600160a01b03821661258b576040516329f62b5d60e11b815260040160405180910390fd5b5f8381526004602090815260408083206001600160a01b038616845291829052909120548015158380156125bd575080155b1561263e576040805180820182526001600160a01b0380881680835265ffffffffffff43811660208086019182526001808b01805491820181555f81815283812098519890920180549451909516600160a01b026001600160d01b031990941697909616969096179190911790915591549083529086905291902055612771565b831580156126495750805b15612771576001838101545f9161265f91613d76565b90505f84600101828154811061267757612677613a32565b5f918252602091829020604080518082019091529101546001600160a01b0381168252600160a01b900465ffffffffffff16918101919091529050806001868101906126c39087613d76565b815481106126d3576126d3613a32565b5f918252602091829020835191018054939092015165ffffffffffff16600160a01b026001600160d01b03199093166001600160a01b03909116179190911790556001850180548061272757612727613e59565b5f828152602080822083015f1990810180546001600160d01b031916905590920190925591516001600160a01b039081168252918690526040808220869055918816815290812055505b831515856001600160a01b0316877f294507a8f5830b538faef39fbdd28f1164f27c8338a32fc7b47ddf82e4c8d9e460405160405180910390a4505050505050565b5f848152600260205260409020805465ffffffffffff1615806127e557508054600160601b900465ffffffffffff1615155b806127ff57508054600160901b900465ffffffffffff1615155b8061281957508054600160301b900465ffffffffffff1615155b8061285357506001810154815443916128499163ffffffff90911690600160c01b900465ffffffffffff16613c20565b65ffffffffffff16105b15612871576040516322024acd60e21b815260040160405180910390fd5b8054600160f01b900461ffff166128888582611d0e565b6128a557604051637079d1b960e11b815260040160405180910390fd5b6001600160a01b0385165f90815260078301602052604090205460ff16156128e05760405163c9e3c8d960e01b815260040160405180910390fd5b6128eb868686612d78565b8360ff1686866001600160a01b03167f5be2678cab71c7d94235767eb1df3c57673f19e805cdc0edbd2e74854ae9f0f98660405161292991906130a4565b60405180910390a4505050505050565b5f8181526002602052604081208054829061295e90600160f01b900461ffff16611b93565b80515f9081526004602052604090206001015460c08201519192509060ff161580611d47575060018301546064906129ac9063ffffffff600160601b8204811691600160401b900416613e6d565b63ffffffff166129bc9190613e89565b60c08301516129ce9060ff1683613e89565b111595945050505050565b5f818152600260205260408120805482906129fe90600160f01b900461ffff16611b93565b80515f9081526004602052604090206001015460c08201519192509060ff161580611d4757506001830154612a4290606490600160401b900463ffffffff16613e89565b60e08301516129ce9060ff1683613e89565b6060612a807f00000000000000000000000000000000000000000000000000000000000000005f612e63565b905090565b6060612a807f00000000000000000000000000000000000000000000000000000000000000006001612e63565b600854600160a01b900461ffff16612aca8183612af5565b60088054600161ffff600160a01b808404821692909201160261ffff60a01b19909116179055919050565b612b0a816020015163a988d3f560e01b612f0c565b612b3c576020810151604051631f09f19160e21b81526001600160a01b03909116600482015260240160405180910390fd5b612b6181602001516001600160a01b03165f9081526005602052604090205460ff1690565b15612b7f576040516334d52f6b60e01b815260040160405180910390fd5b6060810151515f19148015612b9e57505f816060015160c0015160ff16115b15612bbc57604051632e562fc560e01b815260040160405180910390fd5b61ffff8083165f908152600360209081526040918290208054858301516001600160a01b03167fffffffffff00ffffffffffff00000000000000000000000000000000000000009091168117600160d01b17825560608087015180516001850155938401516002840180548688015193870151608088015160a089015160c08a015160e0909a015160ff908116600160881b0271ff0000000000000000000000000000000000199b909116600160801b0270ff0000000000000000000000000000000019928e16600160701b029290921670ffffff00000000000000000000000000001993909d16600160601b026dffff0000000000000000000000001963ffffffff958616600160401b02166dffffffffffff0000000000000000199986166401000000000267ffffffffffffffff199097169590981694909417949094179690961694909417179290921697909717919091179390931692909217909355835184830151925163b1f50f8960e01b8152919263b1f50f8992612d469288929091600401613ea0565b5f604051808303815f87803b158015612d5d575f5ffd5b505af1158015612d6f573d5f5f3e3d5ffd5b50505050505050565b5f8381526002602090815260408083206001600160a01b038616845260078101909252909120805460ff1916600117905560ff8216612df557600181018054640100000000900463ffffffff16906004612dd183613ee9565b91906101000a81548163ffffffff021916908363ffffffff16021790555050611b8d565b5f1960ff831601612e1f57600181018054600160401b900463ffffffff16906008612dd183613ee9565b60011960ff831601612e4a57600181018054600160601b900463ffffffff1690600c612dd183613ee9565b6040516333397b4360e11b815260040160405180910390fd5b606060ff8314612e7d57612e7683612f2e565b9050611398565b818054612e89906139fa565b80601f0160208091040260200160405190810160405280929190818152602001828054612eb5906139fa565b8015612f005780601f10612ed757610100808354040283529160200191612f00565b820191905f5260205f20905b815481529060010190602001808311612ee357829003601f168201915b50505050509050611398565b5f612f1683612f6b565b8015612f275750612f278383612f9d565b9392505050565b60605f612f3a83613038565b6040805160208082528183019092529192505f91906020820181803683375050509182525060208101929092525090565b5f612f7d826301ffc9a760e01b612f9d565b80156113985750612f96826001600160e01b0319612f9d565b1592915050565b6040516001600160e01b0319821660248201525f90819060440160408051601f19818403018152919052602080820180517bffffffffffffffffffffffffffffffffffffffffffffffffffffffff166301ffc9a760e01b17815282519293505f9283928392909183918a617530fa92503d91505f519050828015613022575060208210155b801561302d57505f81115b979650505050505050565b5f60ff8216601f81111561139857604051632cd44ac360e21b815260040160405180910390fd5b5f6020828403121561306f575f5ffd5b5035919050565b5f81518084528060208401602086015e5f602082860101526020601f19601f83011685010191505092915050565b602081525f612f276020830184613076565b803561ffff81168114611e6b575f5ffd5b5f602082840312156130d7575f5ffd5b612f27826130b6565b5f5f83601f8401126130f0575f5ffd5b50813567ffffffffffffffff811115613107575f5ffd5b6020830191508360208260051b8501011115613121575f5ffd5b9250929050565b5f5f5f5f5f5f5f5f60a0898b03121561313f575f5ffd5b613148896130b6565b975060208901359650604089013567ffffffffffffffff81111561316a575f5ffd5b6131768b828c016130e0565b909750955050606089013567ffffffffffffffff811115613195575f5ffd5b6131a18b828c016130e0565b909550935050608089013567ffffffffffffffff8111156131c0575f5ffd5b6131cc8b828c016130e0565b999c989b5096995094979396929594505050565b5f5f83601f8401126131f0575f5ffd5b50813567ffffffffffffffff811115613207575f5ffd5b602083019150836020828501011115613121575f5ffd5b5f5f5f5f60608587031215613231575f5ffd5b61323a856130b6565b9350602085013567ffffffffffffffff811115613255575f5ffd5b613261878288016131e0565b9598909750949560400135949350505050565b5f5f60408385031215613285575f5ffd5b50508035926020909101359150565b6001600160a01b0381168114611a67575f5ffd5b5f5f604083850312156132b9575f5ffd5b8235915060208301356132cb81613294565b809150509250929050565b634e487b7160e01b5f52604160045260245ffd5b604051610100810167ffffffffffffffff8111828210171561330e5761330e6132d6565b60405290565b6040516080810167ffffffffffffffff8111828210171561330e5761330e6132d6565b604051601f8201601f1916810167ffffffffffffffff81118282101715613360576133606132d6565b604052919050565b5f5f67ffffffffffffffff841115613382576133826132d6565b50601f8301601f191660200161339781613337565b9150508281528383830111156133ab575f5ffd5b828260208301375f602084830101529392505050565b5f82601f8301126133d0575f5ffd5b612f2783833560208501613368565b5f5f5f5f5f608086880312156133f3575f5ffd5b6133fc866130b6565b9450602086013567ffffffffffffffff811115613417575f5ffd5b613423888289016131e0565b90955093505060408601359150606086013567ffffffffffffffff811115613449575f5ffd5b613455888289016133c1565b9150509295509295909350565b8015158114611a67575f5ffd5b5f5f60408385031215613480575f5ffd5b823561348b81613294565b915060208301356132cb81613462565b803560ff81168114611e6b575f5ffd5b5f5f604083850312156134bc575f5ffd5b823591506134cc6020840161349b565b90509250929050565b60208101600883106134f557634e487b7160e01b5f52602160045260245ffd5b91905290565b5f6020828403121561350b575f5ffd5b8135612f2781613294565b5f5f5f60608486031215613528575f5ffd5b83359250602084013567ffffffffffffffff811115613545575f5ffd5b613551868287016133c1565b925050604084013567ffffffffffffffff81111561356d575f5ffd5b613579868287016133c1565b9150509250925092565b5f5f5f5f60608587031215613596575f5ffd5b843593506135a66020860161349b565b9250604085013567ffffffffffffffff8111156135c1575f5ffd5b6135cd878288016131e0565b95989497509550505050565b5f610100820190508251825263ffffffff602084015116602083015263ffffffff604084015116604083015263ffffffff6060840151166060830152608083015161362a608084018261ffff169052565b5060a083015161364060a084018261ffff169052565b5060c083015161365560c084018260ff169052565b5060e083015161366a60e084018260ff169052565b5092915050565b60ff60f81b8816815260e060208201525f61368f60e0830189613076565b82810360408401526136a18189613076565b606084018890526001600160a01b038716608085015260a0840186905283810360c0850152845180825260208087019350909101905f5b818110156136f65783518352602093840193909201916001016136d8565b50909b9a5050505050505050505050565b5f5f60408385031215613718575f5ffd5b613721836130b6565b946020939093013593505050565b5f5f60408385031215613740575f5ffd5b823561374b81613294565b91506134cc602084016130b6565b5f60208284031215613769575f5ffd5b813567ffffffffffffffff81111561377f575f5ffd5b61378b848285016133c1565b949350505050565b803563ffffffff81168114611e6b575f5ffd5b5f61010082840312156137b7575f5ffd5b6137bf6132ea565b8235815290506137d160208301613793565b60208201526137e260408301613793565b60408201526137f360608301613793565b6060820152613804608083016130b6565b608082015261381560a083016130b6565b60a082015261382660c0830161349b565b60c082015261383760e0830161349b565b60e082015292915050565b5f6101608284031215613853575f5ffd5b61385b613314565b9050813567ffffffffffffffff811115613873575f5ffd5b61387f848285016133c1565b825250602082013561389081613294565b6020820152604082013567ffffffffffffffff8111156138ae575f5ffd5b8201601f810184136138be575f5ffd5b6138cd84823560208401613368565b6040830152506138e083606084016137a6565b606082015292915050565b5f602082840312156138fb575f5ffd5b813567ffffffffffffffff811115613911575f5ffd5b61378b84828501613842565b5f5f6040838503121561392e575f5ffd5b823561372181613294565b5f60208284031215613949575f5ffd5b813567ffffffffffffffff81111561395f575f5ffd5b8201601f8101841361396f575f5ffd5b803567ffffffffffffffff811115613989576139896132d6565b8060051b61399960208201613337565b918252602081840181019290810190878411156139b4575f5ffd5b6020850192505b8383101561302d57823567ffffffffffffffff8111156139d9575f5ffd5b6139e889602083890101613842565b835250602092830192909101906139bb565b600181811c90821680613a0e57607f821691505b602082108103613a2c57634e487b7160e01b5f52602260045260245ffd5b50919050565b634e487b7160e01b5f52603260045260245ffd5b5f5f8335601e19843603018112613a5b575f5ffd5b83018035915067ffffffffffffffff821115613a75575f5ffd5b602001915036819003821315613121575f5ffd5b818382375f9101908152919050565b601f821115613adf57805f5260205f20601f840160051c81016020851015613abd5750805b601f840160051c820191505b81811015613adc575f8155600101613ac9565b50505b505050565b815167ffffffffffffffff811115613afe57613afe6132d6565b613b1281613b0c84546139fa565b84613a98565b6020601f821160018114613b44575f8315613b2d5750848201515b5f19600385901b1c1916600184901b178455613adc565b5f84815260208120601f198516915b82811015613b735787850151825560209485019460019092019101613b53565b5084821015613b9057868401515f19600387901b60f8161c191681555b50505050600190811b01905550565b81835281816020850137505f828201602090810191909152601f909101601f19169091010190565b61ffff85168152606060208201525f613be4606083018587613b9f565b905082604083015295945050505050565b5f60208284031215613c05575f5ffd5b5051919050565b634e487b7160e01b5f52601160045260245ffd5b65ffffffffffff818116838216019081111561139857611398613c0c565b67ffffffffffffffff831115613c5657613c566132d6565b613c6a83613c6483546139fa565b83613a98565b5f601f841160018114613c9b575f8515613c845750838201355b5f19600387901b1c1916600186901b178355613adc565b5f83815260208120601f198716915b82811015613cca5786850135825560209485019460019092019101613caa565b5086821015613ce6575f1960f88860031b161c19848701351681555b505060018560011b0183555050505050565b8082018082111561139857611398613c0c565b60c081525f60c082015260e060208201525f613d2b60e08301888a613b9f565b86604084015285606084015284608084015282810360a0840152613d4f8185613076565b9998505050505050505050565b61ffff828116828216039081111561139857611398613c0c565b8181038181111561139857611398613c0c565b61ffff8716815260a060208201525f613da660a083018789613b9f565b6001600160a01b0395909516604083015250606081019290925265ffffffffffff166080909101529392505050565b6001600160a01b038616815261ffff85166020820152608060408201525f613e01608083018587613b9f565b90508260608301529695505050505050565b5f60208284031215613e23575f5ffd5b8151612f2781613462565b606081525f613e41606083018688613b9f565b846020840152828103604084015261302d8185613076565b634e487b7160e01b5f52603160045260245ffd5b63ffffffff818116838216019081111561139857611398613c0c565b808202811582820484141761139857611398613c0c565b61ffff84168152608060208201525f613ebc6080830185613076565b8281038060408501525f825260208101606085015250613edf6020820185613076565b9695505050505050565b5f63ffffffff821663ffffffff8103613f0457613f04613c0c565b6001019291505056fea26469706673582212205be68d202437696b028ce50b56ad95b52b0b74361d74bdcd48f8731e77f994c964736f6c634300081e0033","linkReferences":{}},"methodIdentifiers":{"ADMIN_ROLE()":"75b238fc","DENOMINATOR()":"918f8674","FOUNDED_AT()":"5532f99b","MAX_CALLDATA_LENGTH()":"edf2a596","MAX_EXECUTIONS_LENGTH()":"f6226e7c","MAX_RETURN_DATA_LENGTH()":"7c1b5539","PUBLIC_ROLE()":"3ca7c02a","adoptMandate((string,address,bytes,(uint256,uint32,uint32,uint32,uint16,uint16,uint8,uint8)))":"b4497115","assignRole(uint256,address)":"685b824a","blacklistAddress(address,bool)":"455a4396","canCallMandate(address,uint16)":"93d7dae5","cancel(uint16,bytes,uint256)":"12561b1a","castVote(uint256,uint8)":"56781388","castVoteWithReason(uint256,uint8,string)":"7b3c71d3","closeConstitute()":"0d7abeaa","closeConstitute(address)":"7258883f","constitute((string,address,bytes,(uint256,uint32,uint32,uint32,uint16,uint16,uint8,uint8))[])":"fc2d96d0","eip712Domain()":"84b0196e","fulfill(uint16,uint256,address[],uint256[],bytes[])":"0de6a601","getActionCalldata(uint256)":"d902bf3a","getActionData(uint256)":"4583476b","getActionReturnData(uint256,uint256)":"41bd157d","getActionState(uint256)":"666ca2d6","getActionUri(uint256)":"f2a0bb75","getActionVoteData(uint256)":"2179e04e","getAdoptedMandate(uint16)":"1031bdb0","getAmountRoleHolders(uint256)":"b4324dd3","getConditions(uint16)":"831af379","getLatestFulfillment(uint16)":"040b8c24","getMandateActionAtIndex(uint16,uint256)":"8a4359e0","getMandateCounter()":"055dbe10","getQuantityMandateActions(uint16)":"edfd2e87","getRoleHolderAtIndex(uint256,uint256)":"199093bb","getRoleLabel(uint256)":"0398f05f","getRoleMetadata(uint256)":"2d90fe5f","getTreasury()":"3b19e84a","hasRoleSince(address,uint256)":"cc5812cf","hasVoted(uint256,address)":"43859632","isBlacklisted(address)":"fe575a87","labelRole(uint256,string,string)":"76ff7577","mandateCounter()":"e88efe35","name()":"06fdde03","propose(uint16,bytes,uint256,string)":"2e2d8253","request(uint16,bytes,uint256,string)":"ebef6d97","revokeMandate(uint16)":"b367cac0","revokeRole(uint256,address)":"1d0b19e7","setTreasury(address)":"f0f44260","setUri(string)":"9b642de1","uri()":"eac989f8","version()":"54fd4d50"},"id":128}