{"abi":[{"type":"constructor","inputs":[{"name":"name_","type":"string","internalType":"string"},{"name":"uri_","type":"string","internalType":"string"},{"name":"maxCallDataLength_","type":"uint256","internalType":"uint256"},{"name":"maxReturnDataLength_","type":"uint256","internalType":"uint256"},{"name":"maxExecutionsLength_","type":"uint256","internalType":"uint256"}],"stateMutability":"payable"},{"type":"function","name":"ADMIN_ROLE","inputs":[],"outputs":[{"name":"","type":"uint256","internalType":"uint256"}],"stateMutability":"view"},{"type":"function","name":"DENOMINATOR","inputs":[],"outputs":[{"name":"","type":"uint256","internalType":"uint256"}],"stateMutability":"view"},{"type":"function","name":"MAX_CALLDATA_LENGTH","inputs":[],"outputs":[{"name":"","type":"uint256","internalType":"uint256"}],"stateMutability":"view"},{"type":"function","name":"MAX_EXECUTIONS_LENGTH","inputs":[],"outputs":[{"name":"","type":"uint256","internalType":"uint256"}],"stateMutability":"view"},{"type":"function","name":"MAX_RETURN_DATA_LENGTH","inputs":[],"outputs":[{"name":"","type":"uint256","internalType":"uint256"}],"stateMutability":"view"},{"type":"function","name":"PUBLIC_ROLE","inputs":[],"outputs":[{"name":"","type":"uint256","internalType":"uint256"}],"stateMutability":"view"},{"type":"function","name":"adoptMandate","inputs":[{"name":"mandateInitData","type":"tuple","internalType":"struct PowersTypes.MandateInitData","components":[{"name":"nameDescription","type":"string","internalType":"string"},{"name":"targetMandate","type":"address","internalType":"address"},{"name":"config","type":"bytes","internalType":"bytes"},{"name":"conditions","type":"tuple","internalType":"struct PowersTypes.Conditions","components":[{"name":"allowedRole","type":"uint256","internalType":"uint256"},{"name":"votingPeriod","type":"uint32","internalType":"uint32"},{"name":"timelock","type":"uint32","internalType":"uint32"},{"name":"throttleExecution","type":"uint32","internalType":"uint32"},{"name":"needFulfilled","type":"uint16","internalType":"uint16"},{"name":"needNotFulfilled","type":"uint16","internalType":"uint16"},{"name":"quorum","type":"uint8","internalType":"uint8"},{"name":"succeedAt","type":"uint8","internalType":"uint8"}]}]}],"outputs":[{"name":"mandateId","type":"uint16","internalType":"uint16"}],"stateMutability":"nonpayable"},{"type":"function","name":"assignRole","inputs":[{"name":"roleId","type":"uint256","internalType":"uint256"},{"name":"account","type":"address","internalType":"address"}],"outputs":[],"stateMutability":"nonpayable"},{"type":"function","name":"blacklistAddress","inputs":[{"name":"account","type":"address","internalType":"address"},{"name":"blacklisted","type":"bool","internalType":"bool"}],"outputs":[],"stateMutability":"nonpayable"},{"type":"function","name":"canCallMandate","inputs":[{"name":"caller","type":"address","internalType":"address"},{"name":"mandateId","type":"uint16","internalType":"uint16"}],"outputs":[{"name":"","type":"bool","internalType":"bool"}],"stateMutability":"view"},{"type":"function","name":"cancel","inputs":[{"name":"mandateId","type":"uint16","internalType":"uint16"},{"name":"mandateCalldata","type":"bytes","internalType":"bytes"},{"name":"nonce","type":"uint256","internalType":"uint256"}],"outputs":[{"name":"","type":"uint256","internalType":"uint256"}],"stateMutability":"nonpayable"},{"type":"function","name":"castVote","inputs":[{"name":"actionId","type":"uint256","internalType":"uint256"},{"name":"support","type":"uint8","internalType":"uint8"}],"outputs":[],"stateMutability":"nonpayable"},{"type":"function","name":"castVoteWithReason","inputs":[{"name":"actionId","type":"uint256","internalType":"uint256"},{"name":"support","type":"uint8","internalType":"uint8"},{"name":"reason","type":"string","internalType":"string"}],"outputs":[],"stateMutability":"nonpayable"},{"type":"function","name":"closeConstitute","inputs":[],"outputs":[],"stateMutability":"nonpayable"},{"type":"function","name":"closeConstitute","inputs":[{"name":"newAdmin","type":"address","internalType":"address"}],"outputs":[],"stateMutability":"nonpayable"},{"type":"function","name":"constitute","inputs":[{"name":"constituentMandates","type":"tuple[]","internalType":"struct PowersTypes.MandateInitData[]","components":[{"name":"nameDescription","type":"string","internalType":"string"},{"name":"targetMandate","type":"address","internalType":"address"},{"name":"config","type":"bytes","internalType":"bytes"},{"name":"conditions","type":"tuple","internalType":"struct PowersTypes.Conditions","components":[{"name":"allowedRole","type":"uint256","internalType":"uint256"},{"name":"votingPeriod","type":"uint32","internalType":"uint32"},{"name":"timelock","type":"uint32","internalType":"uint32"},{"name":"throttleExecution","type":"uint32","internalType":"uint32"},{"name":"needFulfilled","type":"uint16","internalType":"uint16"},{"name":"needNotFulfilled","type":"uint16","internalType":"uint16"},{"name":"quorum","type":"uint8","internalType":"uint8"},{"name":"succeedAt","type":"uint8","internalType":"uint8"}]}]}],"outputs":[],"stateMutability":"nonpayable"},{"type":"function","name":"eip712Domain","inputs":[],"outputs":[{"name":"fields","type":"bytes1","internalType":"bytes1"},{"name":"name","type":"string","internalType":"string"},{"name":"version","type":"string","internalType":"string"},{"name":"chainId","type":"uint256","internalType":"uint256"},{"name":"verifyingContract","type":"address","internalType":"address"},{"name":"salt","type":"bytes32","internalType":"bytes32"},{"name":"extensions","type":"uint256[]","internalType":"uint256[]"}],"stateMutability":"view"},{"type":"function","name":"fulfill","inputs":[{"name":"mandateId","type":"uint16","internalType":"uint16"},{"name":"actionId","type":"uint256","internalType":"uint256"},{"name":"targets","type":"address[]","internalType":"address[]"},{"name":"values","type":"uint256[]","internalType":"uint256[]"},{"name":"calldatas","type":"bytes[]","internalType":"bytes[]"}],"outputs":[],"stateMutability":"nonpayable"},{"type":"function","name":"getActionCalldata","inputs":[{"name":"actionId","type":"uint256","internalType":"uint256"}],"outputs":[{"name":"callData","type":"bytes","internalType":"bytes"}],"stateMutability":"view"},{"type":"function","name":"getActionData","inputs":[{"name":"actionId","type":"uint256","internalType":"uint256"}],"outputs":[{"name":"mandateId","type":"uint16","internalType":"uint16"},{"name":"proposedAt","type":"uint48","internalType":"uint48"},{"name":"requestedAt","type":"uint48","internalType":"uint48"},{"name":"fulfilledAt","type":"uint48","internalType":"uint48"},{"name":"cancelledAt","type":"uint48","internalType":"uint48"},{"name":"caller","type":"address","internalType":"address"},{"name":"nonce","type":"uint256","internalType":"uint256"}],"stateMutability":"view"},{"type":"function","name":"getActionReturnData","inputs":[{"name":"actionId","type":"uint256","internalType":"uint256"},{"name":"index","type":"uint256","internalType":"uint256"}],"outputs":[{"name":"returnData","type":"bytes","internalType":"bytes"}],"stateMutability":"view"},{"type":"function","name":"getActionState","inputs":[{"name":"actionId","type":"uint256","internalType":"uint256"}],"outputs":[{"name":"","type":"uint8","internalType":"enum PowersTypes.ActionState"}],"stateMutability":"view"},{"type":"function","name":"getActionUri","inputs":[{"name":"actionId","type":"uint256","internalType":"uint256"}],"outputs":[{"name":"_uri","type":"string","internalType":"string"}],"stateMutability":"view"},{"type":"function","name":"getActionVoteData","inputs":[{"name":"actionId","type":"uint256","internalType":"uint256"}],"outputs":[{"name":"voteStart","type":"uint48","internalType":"uint48"},{"name":"voteDuration","type":"uint32","internalType":"uint32"},{"name":"voteEnd","type":"uint256","internalType":"uint256"},{"name":"againstVotes","type":"uint32","internalType":"uint32"},{"name":"forVotes","type":"uint32","internalType":"uint32"},{"name":"abstainVotes","type":"uint32","internalType":"uint32"}],"stateMutability":"view"},{"type":"function","name":"getAdoptedMandate","inputs":[{"name":"mandateId","type":"uint16","internalType":"uint16"}],"outputs":[{"name":"mandate","type":"address","internalType":"address"},{"name":"mandateHash","type":"bytes32","internalType":"bytes32"},{"name":"active","type":"bool","internalType":"bool"}],"stateMutability":"view"},{"type":"function","name":"getAmountRoleHolders","inputs":[{"name":"roleId","type":"uint256","internalType":"uint256"}],"outputs":[{"name":"amountMembers","type":"uint256","internalType":"uint256"}],"stateMutability":"view"},{"type":"function","name":"getConditions","inputs":[{"name":"mandateId","type":"uint16","internalType":"uint16"}],"outputs":[{"name":"conditions","type":"tuple","internalType":"struct PowersTypes.Conditions","components":[{"name":"allowedRole","type":"uint256","internalType":"uint256"},{"name":"votingPeriod","type":"uint32","internalType":"uint32"},{"name":"timelock","type":"uint32","internalType":"uint32"},{"name":"throttleExecution","type":"uint32","internalType":"uint32"},{"name":"needFulfilled","type":"uint16","internalType":"uint16"},{"name":"needNotFulfilled","type":"uint16","internalType":"uint16"},{"name":"quorum","type":"uint8","internalType":"uint8"},{"name":"succeedAt","type":"uint8","internalType":"uint8"}]}],"stateMutability":"view"},{"type":"function","name":"getLatestFulfillment","inputs":[{"name":"mandateId","type":"uint16","internalType":"uint16"}],"outputs":[{"name":"latestFulfillment","type":"uint48","internalType":"uint48"}],"stateMutability":"view"},{"type":"function","name":"getMandateActionAtIndex","inputs":[{"name":"mandateId","type":"uint16","internalType":"uint16"},{"name":"index","type":"uint256","internalType":"uint256"}],"outputs":[{"name":"actionId","type":"uint256","internalType":"uint256"}],"stateMutability":"view"},{"type":"function","name":"getMandateCounter","inputs":[],"outputs":[{"name":"","type":"uint16","internalType":"uint16"}],"stateMutability":"view"},{"type":"function","name":"getQuantityMandateActions","inputs":[{"name":"mandateId","type":"uint16","internalType":"uint16"}],"outputs":[{"name":"quantityMandateActions","type":"uint256","internalType":"uint256"}],"stateMutability":"view"},{"type":"function","name":"getRoleHolderAtIndex","inputs":[{"name":"roleId","type":"uint256","internalType":"uint256"},{"name":"index","type":"uint256","internalType":"uint256"}],"outputs":[{"name":"account","type":"address","internalType":"address"}],"stateMutability":"view"},{"type":"function","name":"getRoleLabel","inputs":[{"name":"roleId","type":"uint256","internalType":"uint256"}],"outputs":[{"name":"label","type":"string","internalType":"string"}],"stateMutability":"view"},{"type":"function","name":"getTreasury","inputs":[],"outputs":[{"name":"","type":"address","internalType":"address payable"}],"stateMutability":"view"},{"type":"function","name":"hasRoleSince","inputs":[{"name":"account","type":"address","internalType":"address"},{"name":"roleId","type":"uint256","internalType":"uint256"}],"outputs":[{"name":"since","type":"uint48","internalType":"uint48"}],"stateMutability":"view"},{"type":"function","name":"hasVoted","inputs":[{"name":"actionId","type":"uint256","internalType":"uint256"},{"name":"account","type":"address","internalType":"address"}],"outputs":[{"name":"","type":"bool","internalType":"bool"}],"stateMutability":"view"},{"type":"function","name":"isBlacklisted","inputs":[{"name":"account","type":"address","internalType":"address"}],"outputs":[{"name":"","type":"bool","internalType":"bool"}],"stateMutability":"view"},{"type":"function","name":"labelRole","inputs":[{"name":"roleId","type":"uint256","internalType":"uint256"},{"name":"label","type":"string","internalType":"string"}],"outputs":[],"stateMutability":"nonpayable"},{"type":"function","name":"mandateCounter","inputs":[],"outputs":[{"name":"","type":"uint16","internalType":"uint16"}],"stateMutability":"view"},{"type":"function","name":"name","inputs":[],"outputs":[{"name":"","type":"string","internalType":"string"}],"stateMutability":"view"},{"type":"function","name":"propose","inputs":[{"name":"mandateId","type":"uint16","internalType":"uint16"},{"name":"mandateCalldata","type":"bytes","internalType":"bytes"},{"name":"nonce","type":"uint256","internalType":"uint256"},{"name":"uriAction","type":"string","internalType":"string"}],"outputs":[{"name":"actionId","type":"uint256","internalType":"uint256"}],"stateMutability":"nonpayable"},{"type":"function","name":"request","inputs":[{"name":"mandateId","type":"uint16","internalType":"uint16"},{"name":"mandateCalldata","type":"bytes","internalType":"bytes"},{"name":"nonce","type":"uint256","internalType":"uint256"},{"name":"uriAction","type":"string","internalType":"string"}],"outputs":[{"name":"actionId","type":"uint256","internalType":"uint256"}],"stateMutability":"nonpayable"},{"type":"function","name":"revokeMandate","inputs":[{"name":"mandateId","type":"uint16","internalType":"uint16"}],"outputs":[],"stateMutability":"nonpayable"},{"type":"function","name":"revokeRole","inputs":[{"name":"roleId","type":"uint256","internalType":"uint256"},{"name":"account","type":"address","internalType":"address"}],"outputs":[],"stateMutability":"nonpayable"},{"type":"function","name":"setTreasury","inputs":[{"name":"newTreasury","type":"address","internalType":"address payable"}],"outputs":[],"stateMutability":"nonpayable"},{"type":"function","name":"setUri","inputs":[{"name":"newUri","type":"string","internalType":"string"}],"outputs":[],"stateMutability":"nonpayable"},{"type":"function","name":"uri","inputs":[],"outputs":[{"name":"","type":"string","internalType":"string"}],"stateMutability":"view"},{"type":"function","name":"version","inputs":[],"outputs":[{"name":"","type":"string","internalType":"string"}],"stateMutability":"pure"},{"type":"event","name":"ActionFulfilled","inputs":[{"name":"mandateId","type":"uint16","indexed":true,"internalType":"uint16"},{"name":"actionId","type":"uint256","indexed":true,"internalType":"uint256"},{"name":"targets","type":"address[]","indexed":false,"internalType":"address[]"},{"name":"values","type":"uint256[]","indexed":false,"internalType":"uint256[]"},{"name":"calldatas","type":"bytes[]","indexed":false,"internalType":"bytes[]"}],"anonymous":false},{"type":"event","name":"ActionRequested","inputs":[{"name":"caller","type":"address","indexed":true,"internalType":"address"},{"name":"mandateId","type":"uint16","indexed":true,"internalType":"uint16"},{"name":"mandateCalldata","type":"bytes","indexed":false,"internalType":"bytes"},{"name":"nonce","type":"uint256","indexed":false,"internalType":"uint256"},{"name":"description","type":"string","indexed":false,"internalType":"string"}],"anonymous":false},{"type":"event","name":"BlacklistSet","inputs":[{"name":"account","type":"address","indexed":true,"internalType":"address"},{"name":"blacklisted","type":"bool","indexed":true,"internalType":"bool"}],"anonymous":false},{"type":"event","name":"EIP712DomainChanged","inputs":[],"anonymous":false},{"type":"event","name":"FundsReceived","inputs":[{"name":"value","type":"uint256","indexed":false,"internalType":"uint256"},{"name":"sender","type":"address","indexed":false,"internalType":"address"}],"anonymous":false},{"type":"event","name":"MandateAdopted","inputs":[{"name":"mandateId","type":"uint16","indexed":true,"internalType":"uint16"}],"anonymous":false},{"type":"event","name":"MandateRevoked","inputs":[{"name":"mandateId","type":"uint16","indexed":true,"internalType":"uint16"}],"anonymous":false},{"type":"event","name":"Powers__Initialized","inputs":[{"name":"contractAddress","type":"address","indexed":false,"internalType":"address"},{"name":"name","type":"string","indexed":false,"internalType":"string"},{"name":"uri","type":"string","indexed":false,"internalType":"string"}],"anonymous":false},{"type":"event","name":"ProposedActionCancelled","inputs":[{"name":"actionId","type":"uint256","indexed":true,"internalType":"uint256"}],"anonymous":false},{"type":"event","name":"ProposedActionCreated","inputs":[{"name":"actionId","type":"uint256","indexed":true,"internalType":"uint256"},{"name":"caller","type":"address","indexed":true,"internalType":"address"},{"name":"mandateId","type":"uint16","indexed":true,"internalType":"uint16"},{"name":"signature","type":"string","indexed":false,"internalType":"string"},{"name":"executeCalldata","type":"bytes","indexed":false,"internalType":"bytes"},{"name":"voteStart","type":"uint256","indexed":false,"internalType":"uint256"},{"name":"voteEnd","type":"uint256","indexed":false,"internalType":"uint256"},{"name":"nonce","type":"uint256","indexed":false,"internalType":"uint256"},{"name":"description","type":"string","indexed":false,"internalType":"string"}],"anonymous":false},{"type":"event","name":"RoleLabel","inputs":[{"name":"roleId","type":"uint256","indexed":true,"internalType":"uint256"},{"name":"label","type":"string","indexed":false,"internalType":"string"}],"anonymous":false},{"type":"event","name":"RoleSet","inputs":[{"name":"roleId","type":"uint256","indexed":true,"internalType":"uint256"},{"name":"account","type":"address","indexed":true,"internalType":"address"},{"name":"access","type":"bool","indexed":true,"internalType":"bool"}],"anonymous":false},{"type":"event","name":"VoteCast","inputs":[{"name":"account","type":"address","indexed":true,"internalType":"address"},{"name":"actionId","type":"uint256","indexed":true,"internalType":"uint256"},{"name":"support","type":"uint8","indexed":true,"internalType":"uint8"},{"name":"reason","type":"string","indexed":false,"internalType":"string"}],"anonymous":false},{"type":"error","name":"InvalidShortString","inputs":[]},{"type":"error","name":"Powers__ActionAlreadyFulfilled","inputs":[]},{"type":"error","name":"Powers__ActionAlreadyInitiated","inputs":[]},{"type":"error","name":"Powers__ActionCancelled","inputs":[]},{"type":"error","name":"Powers__ActionNotProposed","inputs":[]},{"type":"error","name":"Powers__ActionNotRequested","inputs":[]},{"type":"error","name":"Powers__AddressBlacklisted","inputs":[]},{"type":"error","name":"Powers__AlreadyCastVote","inputs":[]},{"type":"error","name":"Powers__CalldataTooLong","inputs":[]},{"type":"error","name":"Powers__CallerNotTargetMandate","inputs":[]},{"type":"error","name":"Powers__CannotAddZeroAddress","inputs":[]},{"type":"error","name":"Powers__CannotCallMandate","inputs":[]},{"type":"error","name":"Powers__CannotSetPublicRole","inputs":[]},{"type":"error","name":"Powers__CannotSetZeroAddress","inputs":[]},{"type":"error","name":"Powers__ConstituteClosed","inputs":[]},{"type":"error","name":"Powers__ConstituteOpen","inputs":[]},{"type":"error","name":"Powers__ConstitutionAlreadyExecuted","inputs":[]},{"type":"error","name":"Powers__ExecutionArrayTooLong","inputs":[]},{"type":"error","name":"Powers__ExternalContractBlacklisted","inputs":[]},{"type":"error","name":"Powers__IncorrectInterface","inputs":[{"name":"targetMandate","type":"address","internalType":"address"}]},{"type":"error","name":"Powers__InvalidAddress","inputs":[]},{"type":"error","name":"Powers__InvalidCallData","inputs":[]},{"type":"error","name":"Powers__InvalidIndex","inputs":[]},{"type":"error","name":"Powers__InvalidLabel","inputs":[]},{"type":"error","name":"Powers__InvalidMaxCallDataLength","inputs":[]},{"type":"error","name":"Powers__InvalidMaxExecutionsLength","inputs":[]},{"type":"error","name":"Powers__InvalidName","inputs":[]},{"type":"error","name":"Powers__InvalidReturnCallDataLength","inputs":[]},{"type":"error","name":"Powers__InvalidVoteType","inputs":[]},{"type":"error","name":"Powers__LabelTooLong","inputs":[]},{"type":"error","name":"Powers__LockedRole","inputs":[]},{"type":"error","name":"Powers__MandateFulfillCallFailed","inputs":[]},{"type":"error","name":"Powers__MandateNotActive","inputs":[]},{"type":"error","name":"Powers__MandateRequestFailed","inputs":[]},{"type":"error","name":"Powers__NoMembersInRole","inputs":[]},{"type":"error","name":"Powers__NoVoteNeeded","inputs":[]},{"type":"error","name":"Powers__NotAContract","inputs":[]},{"type":"error","name":"Powers__NotProposerAction","inputs":[]},{"type":"error","name":"Powers__OnlyAdmin","inputs":[]},{"type":"error","name":"Powers__OnlyPowers","inputs":[]},{"type":"error","name":"Powers__PayableNotEnabled","inputs":[]},{"type":"error","name":"Powers__ProposedActionNotActive","inputs":[]},{"type":"error","name":"Powers__UnexpectedActionState","inputs":[]},{"type":"error","name":"Powers__VoteWithPublicRoleDisallowed","inputs":[]},{"type":"error","name":"StringTooLong","inputs":[{"name":"str","type":"string","internalType":"string"}]}],"bytecode":{"object":"0x6101c060408190526008805461ffff60a01b1916600160a01b179055614509388190039081908339810160408190526100379161058c565b84610058604080518082019091526003815262302e3560e81b602082015290565b610062825f610207565b61012052610071816001610207565b61014052815160208084019190912060e052815190820120610100524660a0526100fd60e05161010051604080517f8b73c3c69bb8fe3d512ecc4cf759cc79239f7b179b0ffacaa9a75d522b39400f60208201529081019290925260608201524660808201523060a08201525f9060c00160405160208183030381529060405280519060200120905090565b60805250503060c05284515f0361012757604051634acb0e6d60e01b815260040160405180910390fd5b825f0361014757604051631c58c0e160e01b815260040160405180910390fd5b815f036101675760405163a19bdd3b60e01b815260040160405180910390fd5b805f0361018757604051638a2b742f60e01b815260040160405180910390fd5b6101935f336001610239565b600661019f868261068e565b5060076101ac858261068e565b506101608390526101808290526101a08190526040517f8e09415123fab1f9e22246686c8d24ad9f84c70288cd5fa338213bccd3c5fb76906101f59030906006906007906107c7565b60405180910390a150505050506108a5565b5f6020835110156102225761021b836104a9565b9050610233565b8161022d848261068e565b5060ff90505b92915050565b5f19830361025a5760405163a1dd2b9360e01b815260040160405180910390fd5b6001600160a01b038216610281576040516329f62b5d60e11b815260040160405180910390fd5b5f8381526004602090815260408083206001600160a01b038616845291829052909120548015158380156102b3575080155b15610334576040805180820182526001600160a01b0380881680835265ffffffffffff43811660208086019182526001808b01805491820181555f81815283812098519890920180549451909516600160a01b026001600160d01b031990941697909616969096179190911790915591549083529086905291902055610467565b8315801561033f5750805b15610467576001838101545f9161035591610806565b90505f84600101828154811061036d5761036d610825565b5f918252602091829020604080518082019091529101546001600160a01b0381168252600160a01b900465ffffffffffff16918101919091529050806001868101906103b99087610806565b815481106103c9576103c9610825565b5f918252602091829020835191018054939092015165ffffffffffff16600160a01b026001600160d01b03199093166001600160a01b03909116179190911790556001850180548061041d5761041d610839565b5f828152602080822083015f1990810180546001600160d01b031916905590920190925591516001600160a01b039081168252918690526040808220869055918816815290812055505b831515856001600160a01b0316877f294507a8f5830b538faef39fbdd28f1164f27c8338a32fc7b47ddf82e4c8d9e460405160405180910390a4505050505050565b5f80829050601f815111156104dc578260405163305a27a960e01b81526004016104d3919061084d565b60405180910390fd5b80516104e782610882565b179392505050565b634e487b7160e01b5f52604160045260245ffd5b5f82601f830112610512575f80fd5b81516001600160401b0381111561052b5761052b6104ef565b604051601f8201601f19908116603f011681016001600160401b0381118282101715610559576105596104ef565b604052818152838201602001851015610570575f80fd5b8160208501602083015e5f918101602001919091529392505050565b5f805f805f60a086880312156105a0575f80fd5b85516001600160401b038111156105b5575f80fd5b6105c188828901610503565b602088015190965090506001600160401b038111156105de575f80fd5b6105ea88828901610503565b60408801516060890151608090990151979a919950979695509350505050565b600181811c9082168061061e57607f821691505b60208210810361063c57634e487b7160e01b5f52602260045260245ffd5b50919050565b601f82111561068957805f5260205f20601f840160051c810160208510156106675750805b601f840160051c820191505b81811015610686575f8155600101610673565b50505b505050565b81516001600160401b038111156106a7576106a76104ef565b6106bb816106b5845461060a565b84610642565b6020601f8211600181146106ed575f83156106d65750848201515b5f19600385901b1c1916600184901b178455610686565b5f84815260208120601f198516915b8281101561071c57878501518255602094850194600190920191016106fc565b508482101561073957868401515f19600387901b60f8161c191681555b50505050600190811b01905550565b5f81546107548161060a565b80855260018216801561076e576001811461078a576107be565b60ff1983166020870152602082151560051b87010193506107be565b845f5260205f205f5b838110156107b55781546020828a010152600182019150602081019050610793565b87016020019450505b50505092915050565b6001600160a01b03841681526060602082018190525f906107ea90830185610748565b82810360408401526107fc8185610748565b9695505050505050565b8181038181111561023357634e487b7160e01b5f52601160045260245ffd5b634e487b7160e01b5f52603260045260245ffd5b634e487b7160e01b5f52603160045260245ffd5b602081525f82518060208401528060208501604085015e5f604082850101526040601f19601f83011684010191505092915050565b8051602080830151919081101561063c575f1960209190910360031b1b16919050565b60805160a05160c05160e05161010051610120516101405161016051610180516101a051613be16109285f395f81816108c90152610b8501525f81816107010152610d8601525f818161085501528181610bf9015281816111fa0152611cd501525f61275301525f61272201525f50505f50505f50505f50505f5050613be15ff3fe608060405234801561000f575f80fd5b506004361061030f575f3560e01c80637b3c71d31161019d578063cc5812cf116100e8578063edfd2e8711610093578063f6226e7c1161006e578063f6226e7c146108c4578063fc2d96d0146108eb578063fe575a87146108fe575f80fd5b8063edfd2e8714610877578063f0f442601461089e578063f2a0bb75146108b1575f80fd5b8063eac989f8116100c3578063eac989f814610835578063ebef6d971461083d578063edf2a59614610850575f80fd5b8063cc5812cf146107fa578063d902bf3a1461080d578063e88efe3514610820575f80fd5b806393d7dae511610148578063b367cac011610123578063b367cac0146107b2578063b4324dd3146107c5578063b4497115146107e7575f80fd5b806393d7dae5146107795780639b642de11461078c578063ab776bf21461079f575f80fd5b806384b0196e1161017857806384b0196e146107435780638a4359e01461075e578063918f867414610771575f80fd5b80637b3c71d3146106e95780637c1b5539146106fc578063831af37914610723575f80fd5b80633b19e84a1161025d57806354fd4d5011610208578063685b824a116101e3578063685b824a146106bc5780637258883f146106cf57806375b238fc146106e2575f80fd5b806354fd4d501461066a5780635678138814610689578063666ca2d61461069c575f80fd5b806343859632116102385780634385963214610549578063455a4396146105955780634583476b146105a8575f80fd5b80633b19e84a1461051d5780633ca7c02a1461052e57806341bd157d14610536575f80fd5b80631031bdb0116102bd5780631d0b19e7116102985780631d0b19e7146104a45780632179e04e146104b75780632e2d82531461050a575f80fd5b80631031bdb0146103cc57806312561b1a14610458578063199093bb14610479575f80fd5b806306fdde03116102ed57806306fdde03146103a75780630d7abeaa146103af5780630de6a601146103b9575f80fd5b80630398f05f14610313578063040b8c241461033c578063055dbe1014610385575b5f80fd5b610326610321366004612d26565b610929565b6040516103339190612d6b565b60405180910390f35b61036e61034a366004612d8e565b61ffff165f90815260036020526040902054600160a01b900465ffffffffffff1690565b60405165ffffffffffff9091168152602001610333565b600854600160a01b900461ffff165b60405161ffff9091168152602001610333565b6103266109cb565b6103b7610a57565b005b6103b76103c7366004612def565b610a6a565b6104316103da366004612d8e565b61ffff165f81815260036020908152604091829020548251308184015280840194909452825180850384018152606090940190925282519201919091206001600160a01b038216929091600160d01b900460ff1690565b604080516001600160a01b0390941684526020840192909252151590820152606001610333565b61046b610466366004612ee5565b610e61565b604051908152602001610333565b61048c610487366004612f3b565b611042565b6040516001600160a01b039091168152602001610333565b6103b76104b2366004612f6f565b6110a6565b6104ca6104c5366004612d26565b6110bd565b6040805165ffffffffffff909716875263ffffffff95861660208801528601939093529083166060850152821660808401521660a082015260c001610333565b61046b6105183660046130a6565b611142565b6008546001600160a01b031661048c565b61046b5f1981565b610326610544366004612f3b565b61147a565b610585610557366004612f6f565b5f8281526002602090815260408083206001600160a01b038516845260070190915290205460ff1692915050565b6040519015158152602001610333565b6103b76105a3366004613136565b611537565b6106176105b6366004612d26565b5f908152600260208190526040909120805491810154600390910154600160f01b830461ffff169365ffffffffffff80851694600160301b8104821694600160601b8204831694600160901b909204909216926001600160a01b0390921691565b6040805161ffff909816885265ffffffffffff96871660208901529486169487019490945291841660608601529290921660808401526001600160a01b0390911660a083015260c082015260e001610333565b604080518082019091526003815262302e3560e81b6020820152610326565b6103b7610697366004613172565b611592565b6106af6106aa366004612d26565b6115ac565b604051610333919061319c565b6103b76106ca366004612f6f565b6116f5565b6103b76106dd3660046131c2565b611742565b61046b5f81565b6103b76106f73660046131dd565b611756565b61046b7f000000000000000000000000000000000000000000000000000000000000000081565b610736610731366004612d8e565b61179d565b6040516103339190613233565b61074b611878565b60405161033397969594939291906132cb565b61046b61076c366004613361565b6118ba565b61046b606481565b610585610787366004613389565b611918565b6103b761079a3660046133b3565b61195a565b6103b76107ad3660046133ed565b61196e565b6103b76107c0366004612d8e565b611a3c565b61046b6107d3366004612d26565b5f9081526004602052604090206001015490565b6103946107f5366004613589565b611ae3565b61036e6108083660046135bb565b611b48565b61032661081b366004612d26565b611bc0565b60085461039490600160a01b900461ffff1681565b610326611bdf565b61046b61084b3660046130a6565b611bec565b61046b7f000000000000000000000000000000000000000000000000000000000000000081565b61046b610885366004612d8e565b61ffff165f908152600360208190526040909120015490565b6103b76108ac3660046131c2565b61200f565b6103266108bf366004612d26565b612060565b61046b7f000000000000000000000000000000000000000000000000000000000000000081565b6103b76108f93660046135d7565b61207f565b61058561090c3660046131c2565b6001600160a01b03165f9081526005602052604090205460ff1690565b5f81815260046020526040902060020180546060919061094890613698565b80601f016020809104026020016040519081016040528092919081815260200182805461097490613698565b80156109bf5780601f10610996576101008083540402835291602001916109bf565b820191905f5260205f20905b8154815290600101906020018083116109a257829003601f168201915b50505050509050919050565b600680546109d890613698565b80601f0160208091040260200160405190810160405280929190818152602001828054610a0490613698565b8015610a4f5780601f10610a2657610100808354040283529160200191610a4f565b820191905f5260205f20905b815481529060010190602001808311610a3257829003601f168201915b505050505081565b610a5f612157565b610a6833612192565b565b61ffff88165f9081526003602052604090208054600160d01b900460ff16610aa557604051632e53afcd60e01b815260040160405180910390fd5b80546001600160a01b03163314610acf57604051635574892960e11b815260040160405180910390fd5b5f8881526002602052604090208054600160301b900465ffffffffffff161580610b0857508054600160901b900465ffffffffffff1615155b15610b26576040516301dd1d1560e71b815260040160405180910390fd5b8054600160601b900465ffffffffffff1615610b555760405163a517239560e01b815260040160405180910390fd5b868581141580610b655750808414155b15610b835760405163dbf15fa560e01b815260040160405180910390fd5b7f0000000000000000000000000000000000000000000000000000000000000000811115610bc45760405163d0b6a17960e01b815260040160405180910390fd5b815471ffffffffffff0000000000000000000000001916600160601b4365ffffffffffff16021782555f5b81811015610e1d577f0000000000000000000000000000000000000000000000000000000000000000868683818110610c2a57610c2a6136d0565b9050602002810190610c3c91906136e4565b90501115610c5d57604051631c3bc5e360e31b815260040160405180910390fd5b610c878a8a83818110610c7257610c726136d0565b905060200201602081019061090c91906131c2565b15610ca5576040516334d52f6b60e01b815260040160405180910390fd5b5f808b8b84818110610cb957610cb96136d0565b9050602002016020810190610cce91906131c2565b6001600160a01b03168a8a85818110610ce957610ce96136d0565b90506020020135898986818110610d0257610d026136d0565b9050602002810190610d1491906136e4565b604051610d22929190613727565b5f6040518083038185875af1925050503d805f8114610d5c576040519150601f19603f3d011682016040523d82523d5f602084013e610d61565b606091505b509150915081610d8457604051631d8fb90d60e21b815260040160405180910390fd5b7f0000000000000000000000000000000000000000000000000000000000000000815111610dd2576005850180546001810182555f918252602090912001610dcc8282613782565b50610e13565b604080515f602082015260058701910160408051601f1981840301815291905281546001810183555f928352602090922090910190610e119082613782565b505b5050600101610bef565b505081547fffffffffffff000000000000ffffffffffffffffffffffffffffffffffffffff16600160a01b4365ffffffffffff160217909155505050505050505050565b61ffff84165f9081526003602052604081208054600160d01b900460ff16610e9c57604051632e53afcd60e01b815260040160405180910390fd5b604051630b704dbd60e11b81525f9073__$b8401669eb6e3c34470049924d5a7c9ef9$__906316e09b7a90610edb908a908a908a908a90600401613865565b602060405180830381865af4158015610ef6573d5f803e3d5ffd5b505050506040513d601f19601f82011682018060405250810190610f1a9190613893565b5f81815260026020819052604090912090810154919250906001600160a01b0316336001600160a01b031614610f6357604051637365858560e01b815260040160405180910390fd5b805465ffffffffffff165f03610f8c5760405163f661f4bf60e01b815260040160405180910390fd5b8054600160601b900465ffffffffffff16151580610fb957508054600160901b900465ffffffffffff1615155b15610fd75760405163b831530960e01b815260040160405180910390fd5b80547fffffffffffffffff000000000000ffffffffffffffffffffffffffffffffffff16600160901b4365ffffffffffff160217815560405182907f8eb4cfeba12ece86fc1590773502e55423b37db556543430337376b30d27c42b905f90a2509695505050505050565b5f828152600460205260408120600181015483106110735760405163472e61bd60e01b815260040160405180910390fd5b806001018381548110611088576110886136d0565b5f918252602090912001546001600160a01b03169150505b92915050565b6110ae6121ea565b6110b982825f61220a565b5050565b5f81815260026020526040812080546001820154839283928392839283929091600160c01b90910465ffffffffffff169063ffffffff166110fe81836138be565b60019390930154919a90995065ffffffffffff909216975063ffffffff640100000000820481169750600160401b820481169650600160601b909104169350915050565b6008545f90600160b01b900460ff1661116e57604051630889b5b960e31b815260040160405180910390fd5b61ffff86165f9081526003602052604090208054600160d01b900460ff166111a957604051632e53afcd60e01b815260040160405180910390fd5b6111b4335b88611918565b6111d157604051637079d1b960e11b815260040160405180910390fd5b6111da3361090c565b156111f8576040516334d52f6b60e01b815260040160405180910390fd5b7f000000000000000000000000000000000000000000000000000000000000000085111561123957604051631c3bc5e360e31b815260040160405180910390fd5b6002810154604051630b704dbd60e11b815263ffffffff821691600160801b900460ff169073__$b8401669eb6e3c34470049924d5a7c9ef9$__906316e09b7a9061128e908c908c908c908c90600401613865565b602060405180830381865af41580156112a9573d5f803e3d5ffd5b505050506040513d601f19601f820116820180604052508101906112cd9190613893565b93508060ff165f036112f257604051632dd4cc8d60e01b815260040160405180910390fd5b5f8481526002602052604090208054600160c01b900465ffffffffffff161561132e5760405163b831530960e01b815260040160405180910390fd5b8054600160f01b900461ffff165f0361135b576003840180546001810182555f9182526020909120018590555b6004810161136a898b836138dc565b5080547dffffffffffffffffffffffffffffffffffffffffffffffff000000000000164365ffffffffffff16908117600160f01b61ffff8d1602177fffff000000000000ffffffffffffffffffffffffffffffffffffffffffffffff16600160c01b9190910217815560018101805463ffffffff191663ffffffff8516179055600281018054336001600160a01b03199091161790556006810161140e8782613782565b506003810187905561ffff8a1633867fb5856a9700a7e851456d3a16348b4ae0fbb11b06ac0af8dbe8e8652c57cc4cbd8c8c4361145163ffffffff8b1682613996565b8e8e604051611465969594939291906139a9565b60405180910390a45050505095945050505050565b5f828152600260205260409020600501805460609190839081106114a0576114a06136d0565b905f5260205f200180546114b390613698565b80601f01602080910402602001604051908101604052809291908181526020018280546114df90613698565b801561152a5780601f106115015761010080835404028352916020019161152a565b820191905f5260205f20905b81548152906001019060200180831161150d57829003601f168201915b5050505050905092915050565b61153f6121ea565b6001600160a01b0382165f81815260056020526040808220805460ff191685151590811790915590519092917f921341769c2075d1ae425396063d5ab65ff5006c4bc0bd0821e50ce51fb6012391a35050565b6110b982338360405180602001604052805f81525061247a565b5f818152600260205260408120805465ffffffffffff161580156115de57508054600160301b900465ffffffffffff16155b80156115f857508054600160601b900465ffffffffffff16155b801561161257508054600160901b900465ffffffffffff16155b1561161f57505f92915050565b8054600160601b900465ffffffffffff161561163e5750600792915050565b8054600160901b900465ffffffffffff161561165d5750600292915050565b8054600160301b900465ffffffffffff161561167c5750600692915050565b600181015481545f916116a69163ffffffff90911690600160c01b900465ffffffffffff166138be565b65ffffffffffff1690504381106116c1575060039392505050565b6116ca84612600565b15806116dc57506116da846126a0565b155b156116eb575060049392505050565b5060059392505050565b6116fd6121ea565b6001600160a01b0381165f9081526005602052604090205460ff1615611736576040516334d52f6b60e01b815260040160405180910390fd5b6110b98282600161220a565b61174a612157565b61175381612192565b50565b61179784338585858080601f0160208091040260200160405190810160405280939291908181526020018383808284375f9201919091525061247a92505050565b50505050565b60408051610100810182525f80825260208201819052918101829052606081018290526080810182905260a0810182905260c0810182905260e08101919091525061ffff9081165f908152600360209081526040918290208251610100810184526001820154815260029091015463ffffffff808216938301939093526401000000008104831693820193909352600160401b83049091166060820152600160601b820483166080820152600160701b820490921660a083015260ff600160801b8204811660c0840152600160881b9091041660e082015290565b5f6060805f805f606061188961271b565b61189161274c565b604080515f80825260208201909252600f60f81b9b939a50919850469750309650945092509050565b61ffff82165f90815260036020819052604082209081015483106118f15760405163472e61bd60e01b815260040160405180910390fd5b806003018381548110611906576119066136d0565b905f5260205f20015491505092915050565b61ffff81165f90815260036020526040812060010154816119398583611b48565b905065ffffffffffff811615158061195157505f1982145b95945050505050565b6119626121ea565b60076110b98282613782565b6119766121ea565b81158061198357505f1982145b156119a1576040516329939fd360e21b815260040160405180910390fd5b80515f036119c2576040516333a0807f60e21b815260040160405180910390fd5b60ff815111156119e5576040516350cc0e8d60e01b815260040160405180910390fd5b5f8281526004602052604090206002016119ff8282613782565b50817f4c6d3d4a776b1458bbd518e75903a3f27a0c6f4597b10882784aa64769d56c7182604051611a309190612d6b565b60405180910390a25050565b611a446121ea565b61ffff81165f90815260036020526040812054600160d01b900460ff1615159003611a8257604051632e53afcd60e01b815260040160405180910390fd5b61ffff81165f8181526003602052604080822080547fffffffffff00ffffffffffffffffffffffffffffffffffffffffffffffffffff169055517ffb1d94dcf467f70febf412166aaa551737afd946ba6a4b4eac970aaf28a7e74f9190a250565b5f611aec6121ea565b611af582612779565b600854909150611b1290600190600160a01b900461ffff166139fa565b61ffff167f284812f41d73696d76ff026c35ebc1a8e8bf24544551c55dd0877334dca88a5660405160405180910390a25b919050565b5f8181526004602090815260408083206001600160a01b038616845291829052822054808303611b7c575f925050506110a0565b81600101600182611b8d9190613a14565b81548110611b9d57611b9d6136d0565b5f91825260209091200154600160a01b900465ffffffffffff1695945050505050565b5f81815260026020526040902060040180546060919061094890613698565b600780546109d890613698565b6008545f90600160b01b900460ff16611c1857604051630889b5b960e31b815260040160405180910390fd5b604051630b704dbd60e11b815273__$b8401669eb6e3c34470049924d5a7c9ef9$__906316e09b7a90611c55908990899089908990600401613865565b602060405180830381865af4158015611c70573d5f803e3d5ffd5b505050506040513d601f19601f82011682018060405250810190611c949190613893565b61ffff87165f908152600360205260409020805491925090600160d01b900460ff16611cd357604051632e53afcd60e01b815260040160405180910390fd5b7f0000000000000000000000000000000000000000000000000000000000000000851115611d1457604051631c3bc5e360e31b815260040160405180910390fd5b611d1d3361090c565b15611d3b576040516334d52f6b60e01b815260040160405180910390fd5b611d44336111ae565b611d6157604051637079d1b960e11b815260040160405180910390fd5b5f8281526002602052604090208054600160301b900465ffffffffffff16151580611d9b57508054600160601b900465ffffffffffff1615155b15611db95760405163fc0e49ff60e01b815260040160405180910390fd5b8054600160901b900465ffffffffffff1615611de857604051632ec3fe1560e11b815260040160405180910390fd5b8154604051633881b32960e01b815273__$b8401669eb6e3c34470049924d5a7c9ef9$__91633881b32991611e3a918c918c918c9130918d91600160a01b90910465ffffffffffff1690600401613a27565b5f6040518083038186803b158015611e50575f80fd5b505af4158015611e62573d5f803e3d5ffd5b50508254600160f01b900461ffff165f039150611e959050576003820180546001810182555f9182526020909120018390555b600281018054336001600160a01b031990911617905580547dffffffffffffffffffffffffffffffffffff000000000000ffffffffffff16600160f01b61ffff8a16026bffffffffffff000000000000191617600160301b4365ffffffffffff160217815560048101611f098789836138dc565b5060068101611f188582613782565b506003810185905581546040516326a8b78760e11b81525f916001600160a01b031690634d516f0e90611f579033908d908d908d908d90600401613a73565b6020604051808303815f875af1158015611f73573d5f803e3d5ffd5b505050506040513d601f19601f82011682018060405250810190611f979190613ab1565b905080611fb75760405163382654b960e21b815260040160405180910390fd5b61ffff8916336001600160a01b03167f98e1e52af9c2155b4c2b4844cdccf64c85cb13dd804231d177ef6fea4325d4058a8a8a8a604051611ffb9493929190613acc565b60405180910390a350505095945050505050565b6120176121ea565b6001600160a01b03811661203e57604051636e7e8feb60e11b815260040160405180910390fd5b600880546001600160a01b0319166001600160a01b0392909216919091179055565b5f81815260026020526040902060060180546060919061094890613698565b612087612157565b600854600160b01b900460ff16156120b2576040516315ea064b60e31b815260040160405180910390fd5b600854600160a01b900461ffff165f5b8251811015612133575f6001600160a01b03168382815181106120e7576120e76136d0565b6020026020010151602001516001600160a01b03161461212b5761212482848381518110612117576121176136d0565b60200260200101516127bc565b8160010191505b6001016120c2565b506008805461ffff909216600160a01b0261ffff60a01b1990921691909117905550565b6121615f80611042565b6001600160a01b0316336001600160a01b031614610a6857604051630eaa87a560e21b815260040160405180910390fd5b336001600160a01b038216146121b9576121ad5f335f61220a565b6121b95f82600161220a565b50600880547fffffffffffffffffff00ffffffffffffffffffffffffffffffffffffffffffff16600160b01b179055565b333014610a685760405163e890ccbf60e01b815260040160405180910390fd5b5f19830361222b5760405163a1dd2b9360e01b815260040160405180910390fd5b6001600160a01b038216612252576040516329f62b5d60e11b815260040160405180910390fd5b5f8381526004602090815260408083206001600160a01b03861684529182905290912054801515838015612284575080155b15612305576040805180820182526001600160a01b0380881680835265ffffffffffff43811660208086019182526001808b01805491820181555f81815283812098519890920180549451909516600160a01b026001600160d01b031990941697909616969096179190911790915591549083529086905291902055612438565b831580156123105750805b15612438576001838101545f9161232691613a14565b90505f84600101828154811061233e5761233e6136d0565b5f918252602091829020604080518082019091529101546001600160a01b0381168252600160a01b900465ffffffffffff169181019190915290508060018681019061238a9087613a14565b8154811061239a5761239a6136d0565b5f918252602091829020835191018054939092015165ffffffffffff16600160a01b026001600160d01b03199093166001600160a01b0390911617919091179055600185018054806123ee576123ee613af7565b5f828152602080822083015f1990810180546001600160d01b031916905590920190925591516001600160a01b039081168252918690526040808220869055918816815290812055505b831515856001600160a01b0316877f294507a8f5830b538faef39fbdd28f1164f27c8338a32fc7b47ddf82e4c8d9e460405160405180910390a4505050505050565b5f848152600260205260409020805465ffffffffffff1615806124ac57508054600160601b900465ffffffffffff1615155b806124c657508054600160901b900465ffffffffffff1615155b806124e057508054600160301b900465ffffffffffff1615155b8061251a57506001810154815443916125109163ffffffff90911690600160c01b900465ffffffffffff166138be565b65ffffffffffff16105b15612538576040516322024acd60e21b815260040160405180910390fd5b8054600160f01b900461ffff1661254f8582611918565b61256c57604051637079d1b960e11b815260040160405180910390fd5b6001600160a01b0385165f90815260078301602052604090205460ff16156125a75760405163c9e3c8d960e01b815260040160405180910390fd5b6125b2868686612a3f565b8360ff1686866001600160a01b03167f5be2678cab71c7d94235767eb1df3c57673f19e805cdc0edbd2e74854ae9f0f9866040516125f09190612d6b565b60405180910390a4505050505050565b5f8181526002602052604081208054829061262590600160f01b900461ffff1661179d565b80515f9081526004602052604090206001015460c08201519192509060ff161580611951575060018301546064906126739063ffffffff600160601b8204811691600160401b900416613b0b565b63ffffffff166126839190613b27565b60c08301516126959060ff1683613b27565b111595945050505050565b5f818152600260205260408120805482906126c590600160f01b900461ffff1661179d565b80515f9081526004602052604090206001015460c08201519192509060ff1615806119515750600183015461270990606490600160401b900463ffffffff16613b27565b60e08301516126959060ff1683613b27565b60606127477f00000000000000000000000000000000000000000000000000000000000000005f612b2a565b905090565b60606127477f00000000000000000000000000000000000000000000000000000000000000006001612b2a565b600854600160a01b900461ffff1661279181836127bc565b60088054600161ffff600160a01b808404821692909201160261ffff60a01b19909116179055919050565b6127d1816020015163a988d3f560e01b612bd3565b612803576020810151604051631f09f19160e21b81526001600160a01b03909116600482015260240160405180910390fd5b61282881602001516001600160a01b03165f9081526005602052604090205460ff1690565b15612846576040516334d52f6b60e01b815260040160405180910390fd5b6060810151515f1914801561286557505f816060015160c0015160ff16115b1561288357604051632e562fc560e01b815260040160405180910390fd5b61ffff8083165f908152600360209081526040918290208054858301516001600160a01b03167fffffffffff00ffffffffffff00000000000000000000000000000000000000009091168117600160d01b17825560608087015180516001850155938401516002840180548688015193870151608088015160a089015160c08a015160e0909a015160ff908116600160881b0271ff0000000000000000000000000000000000199b909116600160801b0270ff0000000000000000000000000000000019928e16600160701b029290921670ffffff00000000000000000000000000001993909d16600160601b026dffff0000000000000000000000001963ffffffff958616600160401b02166dffffffffffff0000000000000000199986166401000000000267ffffffffffffffff199097169590981694909417949094179690961694909417179290921697909717919091179390931692909217909355835184830151925163b1f50f8960e01b8152919263b1f50f8992612a0d9288929091600401613b3e565b5f604051808303815f87803b158015612a24575f80fd5b505af1158015612a36573d5f803e3d5ffd5b50505050505050565b5f8381526002602090815260408083206001600160a01b038616845260078101909252909120805460ff1916600117905560ff8216612abc57600181018054640100000000900463ffffffff16906004612a9883613b87565b91906101000a81548163ffffffff021916908363ffffffff16021790555050611797565b5f1960ff831601612ae657600181018054600160401b900463ffffffff16906008612a9883613b87565b60011960ff831601612b1157600181018054600160601b900463ffffffff1690600c612a9883613b87565b6040516333397b4360e11b815260040160405180910390fd5b606060ff8314612b4457612b3d83612bf5565b90506110a0565b818054612b5090613698565b80601f0160208091040260200160405190810160405280929190818152602001828054612b7c90613698565b8015612bc75780601f10612b9e57610100808354040283529160200191612bc7565b820191905f5260205f20905b815481529060010190602001808311612baa57829003601f168201915b505050505090506110a0565b5f612bdd83612c32565b8015612bee5750612bee8383612c64565b9392505050565b60605f612c0183612cff565b6040805160208082528183019092529192505f91906020820181803683375050509182525060208101929092525090565b5f612c44826301ffc9a760e01b612c64565b80156110a05750612c5d826001600160e01b0319612c64565b1592915050565b6040516001600160e01b0319821660248201525f90819060440160408051601f19818403018152919052602080820180517bffffffffffffffffffffffffffffffffffffffffffffffffffffffff166301ffc9a760e01b17815282519293505f9283928392909183918a617530fa92503d91505f519050828015612ce9575060208210155b8015612cf457505f81115b979650505050505050565b5f60ff8216601f8111156110a057604051632cd44ac360e21b815260040160405180910390fd5b5f60208284031215612d36575f80fd5b5035919050565b5f81518084528060208401602086015e5f602082860101526020601f19601f83011685010191505092915050565b602081525f612bee6020830184612d3d565b803561ffff81168114611b43575f80fd5b5f60208284031215612d9e575f80fd5b612bee82612d7d565b5f8083601f840112612db7575f80fd5b50813567ffffffffffffffff811115612dce575f80fd5b6020830191508360208260051b8501011115612de8575f80fd5b9250929050565b5f805f805f805f8060a0898b031215612e06575f80fd5b612e0f89612d7d565b975060208901359650604089013567ffffffffffffffff811115612e31575f80fd5b612e3d8b828c01612da7565b909750955050606089013567ffffffffffffffff811115612e5c575f80fd5b612e688b828c01612da7565b909550935050608089013567ffffffffffffffff811115612e87575f80fd5b612e938b828c01612da7565b999c989b5096995094979396929594505050565b5f8083601f840112612eb7575f80fd5b50813567ffffffffffffffff811115612ece575f80fd5b602083019150836020828501011115612de8575f80fd5b5f805f8060608587031215612ef8575f80fd5b612f0185612d7d565b9350602085013567ffffffffffffffff811115612f1c575f80fd5b612f2887828801612ea7565b9598909750949560400135949350505050565b5f8060408385031215612f4c575f80fd5b50508035926020909101359150565b6001600160a01b0381168114611753575f80fd5b5f8060408385031215612f80575f80fd5b823591506020830135612f9281612f5b565b809150509250929050565b634e487b7160e01b5f52604160045260245ffd5b604051610100810167ffffffffffffffff81118282101715612fd557612fd5612f9d565b60405290565b6040516080810167ffffffffffffffff81118282101715612fd557612fd5612f9d565b604051601f8201601f1916810167ffffffffffffffff8111828210171561302757613027612f9d565b604052919050565b5f8067ffffffffffffffff84111561304957613049612f9d565b50601f8301601f191660200161305e81612ffe565b915050828152838383011115613072575f80fd5b828260208301375f602084830101529392505050565b5f82601f830112613097575f80fd5b612bee8383356020850161302f565b5f805f805f608086880312156130ba575f80fd5b6130c386612d7d565b9450602086013567ffffffffffffffff8111156130de575f80fd5b6130ea88828901612ea7565b90955093505060408601359150606086013567ffffffffffffffff811115613110575f80fd5b61311c88828901613088565b9150509295509295909350565b8015158114611753575f80fd5b5f8060408385031215613147575f80fd5b823561315281612f5b565b91506020830135612f9281613129565b803560ff81168114611b43575f80fd5b5f8060408385031215613183575f80fd5b8235915061319360208401613162565b90509250929050565b60208101600883106131bc57634e487b7160e01b5f52602160045260245ffd5b91905290565b5f602082840312156131d2575f80fd5b8135612bee81612f5b565b5f805f80606085870312156131f0575f80fd5b8435935061320060208601613162565b9250604085013567ffffffffffffffff81111561321b575f80fd5b61322787828801612ea7565b95989497509550505050565b5f610100820190508251825263ffffffff602084015116602083015263ffffffff604084015116604083015263ffffffff60608401511660608301526080830151613284608084018261ffff169052565b5060a083015161329a60a084018261ffff169052565b5060c08301516132af60c084018260ff169052565b5060e08301516132c460e084018260ff169052565b5092915050565b60ff60f81b8816815260e060208201525f6132e960e0830189612d3d565b82810360408401526132fb8189612d3d565b606084018890526001600160a01b038716608085015260a0840186905283810360c0850152845180825260208087019350909101905f5b81811015613350578351835260209384019390920191600101613332565b50909b9a5050505050505050505050565b5f8060408385031215613372575f80fd5b61337b83612d7d565b946020939093013593505050565b5f806040838503121561339a575f80fd5b82356133a581612f5b565b915061319360208401612d7d565b5f602082840312156133c3575f80fd5b813567ffffffffffffffff8111156133d9575f80fd5b6133e584828501613088565b949350505050565b5f80604083850312156133fe575f80fd5b82359150602083013567ffffffffffffffff81111561341b575f80fd5b61342785828601613088565b9150509250929050565b803563ffffffff81168114611b43575f80fd5b5f6101008284031215613455575f80fd5b61345d612fb1565b82358152905061346f60208301613431565b602082015261348060408301613431565b604082015261349160608301613431565b60608201526134a260808301612d7d565b60808201526134b360a08301612d7d565b60a08201526134c460c08301613162565b60c08201526134d560e08301613162565b60e082015292915050565b5f61016082840312156134f1575f80fd5b6134f9612fdb565b9050813567ffffffffffffffff811115613511575f80fd5b61351d84828501613088565b825250602082013561352e81612f5b565b6020820152604082013567ffffffffffffffff81111561354c575f80fd5b8201601f8101841361355c575f80fd5b61356b8482356020840161302f565b60408301525061357e8360608401613444565b606082015292915050565b5f60208284031215613599575f80fd5b813567ffffffffffffffff8111156135af575f80fd5b6133e5848285016134e0565b5f80604083850312156135cc575f80fd5b823561337b81612f5b565b5f602082840312156135e7575f80fd5b813567ffffffffffffffff8111156135fd575f80fd5b8201601f8101841361360d575f80fd5b803567ffffffffffffffff81111561362757613627612f9d565b8060051b61363760208201612ffe565b91825260208184018101929081019087841115613652575f80fd5b6020850192505b83831015612cf457823567ffffffffffffffff811115613677575f80fd5b613686896020838901016134e0565b83525060209283019290910190613659565b600181811c908216806136ac57607f821691505b6020821081036136ca57634e487b7160e01b5f52602260045260245ffd5b50919050565b634e487b7160e01b5f52603260045260245ffd5b5f808335601e198436030181126136f9575f80fd5b83018035915067ffffffffffffffff821115613713575f80fd5b602001915036819003821315612de8575f80fd5b818382375f9101908152919050565b601f82111561377d57805f5260205f20601f840160051c8101602085101561375b5750805b601f840160051c820191505b8181101561377a575f8155600101613767565b50505b505050565b815167ffffffffffffffff81111561379c5761379c612f9d565b6137b0816137aa8454613698565b84613736565b6020601f8211600181146137e2575f83156137cb5750848201515b5f19600385901b1c1916600184901b17845561377a565b5f84815260208120601f198516915b8281101561381157878501518255602094850194600190920191016137f1565b508482101561382e57868401515f19600387901b60f8161c191681555b50505050600190811b01905550565b81835281816020850137505f828201602090810191909152601f909101601f19169091010190565b61ffff85168152606060208201525f61388260608301858761383d565b905082604083015295945050505050565b5f602082840312156138a3575f80fd5b5051919050565b634e487b7160e01b5f52601160045260245ffd5b65ffffffffffff81811683821601908111156110a0576110a06138aa565b67ffffffffffffffff8311156138f4576138f4612f9d565b613908836139028354613698565b83613736565b5f601f841160018114613939575f85156139225750838201355b5f19600387901b1c1916600186901b17835561377a565b5f83815260208120601f198716915b828110156139685786850135825560209485019460019092019101613948565b5086821015613984575f1960f88860031b161c19848701351681555b505060018560011b0183555050505050565b808201808211156110a0576110a06138aa565b60c081525f60c082015260e060208201525f6139c960e08301888a61383d565b86604084015285606084015284608084015282810360a08401526139ed8185612d3d565b9998505050505050505050565b61ffff82811682821603908111156110a0576110a06138aa565b818103818111156110a0576110a06138aa565b61ffff8716815260a060208201525f613a4460a08301878961383d565b6001600160a01b0395909516604083015250606081019290925265ffffffffffff166080909101529392505050565b6001600160a01b038616815261ffff85166020820152608060408201525f613a9f60808301858761383d565b90508260608301529695505050505050565b5f60208284031215613ac1575f80fd5b8151612bee81613129565b606081525f613adf60608301868861383d565b8460208401528281036040840152612cf48185612d3d565b634e487b7160e01b5f52603160045260245ffd5b63ffffffff81811683821601908111156110a0576110a06138aa565b80820281158282048414176110a0576110a06138aa565b61ffff84168152608060208201525f613b5a6080830185612d3d565b8281038060408501525f825260208101606085015250613b7d6020820185612d3d565b9695505050505050565b5f63ffffffff821663ffffffff8103613ba257613ba26138aa565b6001019291505056fea2646970667358221220a308ecf447789a5d2ed266dee31c8ee98e03c143b65ba41715829fc8c4abf35264736f6c634300081a0033","linkReferences":{"src/libraries/Checks.sol":{"Checks":[{"start":6101,"length":20},{"start":7048,"length":20},{"start":9551,"length":20},{"start":10017,"length":20}]}}},"methodIdentifiers":{"ADMIN_ROLE()":"75b238fc","DENOMINATOR()":"918f8674","MAX_CALLDATA_LENGTH()":"edf2a596","MAX_EXECUTIONS_LENGTH()":"f6226e7c","MAX_RETURN_DATA_LENGTH()":"7c1b5539","PUBLIC_ROLE()":"3ca7c02a","adoptMandate((string,address,bytes,(uint256,uint32,uint32,uint32,uint16,uint16,uint8,uint8)))":"b4497115","assignRole(uint256,address)":"685b824a","blacklistAddress(address,bool)":"455a4396","canCallMandate(address,uint16)":"93d7dae5","cancel(uint16,bytes,uint256)":"12561b1a","castVote(uint256,uint8)":"56781388","castVoteWithReason(uint256,uint8,string)":"7b3c71d3","closeConstitute()":"0d7abeaa","closeConstitute(address)":"7258883f","constitute((string,address,bytes,(uint256,uint32,uint32,uint32,uint16,uint16,uint8,uint8))[])":"fc2d96d0","eip712Domain()":"84b0196e","fulfill(uint16,uint256,address[],uint256[],bytes[])":"0de6a601","getActionCalldata(uint256)":"d902bf3a","getActionData(uint256)":"4583476b","getActionReturnData(uint256,uint256)":"41bd157d","getActionState(uint256)":"666ca2d6","getActionUri(uint256)":"f2a0bb75","getActionVoteData(uint256)":"2179e04e","getAdoptedMandate(uint16)":"1031bdb0","getAmountRoleHolders(uint256)":"b4324dd3","getConditions(uint16)":"831af379","getLatestFulfillment(uint16)":"040b8c24","getMandateActionAtIndex(uint16,uint256)":"8a4359e0","getMandateCounter()":"055dbe10","getQuantityMandateActions(uint16)":"edfd2e87","getRoleHolderAtIndex(uint256,uint256)":"199093bb","getRoleLabel(uint256)":"0398f05f","getTreasury()":"3b19e84a","hasRoleSince(address,uint256)":"cc5812cf","hasVoted(uint256,address)":"43859632","isBlacklisted(address)":"fe575a87","labelRole(uint256,string)":"ab776bf2","mandateCounter()":"e88efe35","name()":"06fdde03","propose(uint16,bytes,uint256,string)":"2e2d8253","request(uint16,bytes,uint256,string)":"ebef6d97","revokeMandate(uint16)":"b367cac0","revokeRole(uint256,address)":"1d0b19e7","setTreasury(address)":"f0f44260","setUri(string)":"9b642de1","uri()":"eac989f8","version()":"54fd4d50"},"id":118}