{"abi":[{"type":"constructor","inputs":[{"name":"name_","type":"string","internalType":"string"},{"name":"uri_","type":"string","internalType":"string"},{"name":"maxCallDataLength_","type":"uint256","internalType":"uint256"},{"name":"maxReturnDataLength_","type":"uint256","internalType":"uint256"},{"name":"maxExecutionsLength_","type":"uint256","internalType":"uint256"}],"stateMutability":"payable"},{"type":"receive","stateMutability":"payable"},{"type":"function","name":"ADMIN_ROLE","inputs":[],"outputs":[{"name":"","type":"uint256","internalType":"uint256"}],"stateMutability":"view"},{"type":"function","name":"DENOMINATOR","inputs":[],"outputs":[{"name":"","type":"uint256","internalType":"uint256"}],"stateMutability":"view"},{"type":"function","name":"FOUNDED_AT","inputs":[],"outputs":[{"name":"","type":"uint256","internalType":"uint256"}],"stateMutability":"view"},{"type":"function","name":"MAX_CALLDATA_LENGTH","inputs":[],"outputs":[{"name":"","type":"uint256","internalType":"uint256"}],"stateMutability":"view"},{"type":"function","name":"MAX_EXECUTIONS_LENGTH","inputs":[],"outputs":[{"name":"","type":"uint256","internalType":"uint256"}],"stateMutability":"view"},{"type":"function","name":"MAX_RETURN_DATA_LENGTH","inputs":[],"outputs":[{"name":"","type":"uint256","internalType":"uint256"}],"stateMutability":"view"},{"type":"function","name":"PUBLIC_ROLE","inputs":[],"outputs":[{"name":"","type":"uint256","internalType":"uint256"}],"stateMutability":"view"},{"type":"function","name":"addFlow","inputs":[{"name":"flow","type":"tuple","internalType":"struct PowersTypes.Flow","components":[{"name":"mandateIds","type":"uint16[]","internalType":"uint16[]"},{"name":"nameDescription","type":"string","internalType":"string"}]}],"outputs":[],"stateMutability":"nonpayable"},{"type":"function","name":"adoptMandate","inputs":[{"name":"mandateInitData","type":"tuple","internalType":"struct PowersTypes.MandateInitData","components":[{"name":"nameDescription","type":"string","internalType":"string"},{"name":"targetMandate","type":"address","internalType":"address"},{"name":"config","type":"bytes","internalType":"bytes"},{"name":"conditions","type":"tuple","internalType":"struct PowersTypes.Conditions","components":[{"name":"allowedRole","type":"uint256","internalType":"uint256"},{"name":"votingPeriod","type":"uint32","internalType":"uint32"},{"name":"timelock","type":"uint32","internalType":"uint32"},{"name":"throttleExecution","type":"uint32","internalType":"uint32"},{"name":"needFulfilled","type":"uint16","internalType":"uint16"},{"name":"needNotFulfilled","type":"uint16","internalType":"uint16"},{"name":"quorum","type":"uint8","internalType":"uint8"},{"name":"succeedAt","type":"uint8","internalType":"uint8"}]}]}],"outputs":[{"name":"mandateId","type":"uint16","internalType":"uint16"}],"stateMutability":"nonpayable"},{"type":"function","name":"assignRole","inputs":[{"name":"roleId","type":"uint256","internalType":"uint256"},{"name":"account","type":"address","internalType":"address"}],"outputs":[],"stateMutability":"nonpayable"},{"type":"function","name":"blacklistAddress","inputs":[{"name":"account","type":"address","internalType":"address"},{"name":"blacklisted","type":"bool","internalType":"bool"}],"outputs":[],"stateMutability":"nonpayable"},{"type":"function","name":"canCallMandate","inputs":[{"name":"caller","type":"address","internalType":"address"},{"name":"mandateId","type":"uint16","internalType":"uint16"}],"outputs":[{"name":"","type":"bool","internalType":"bool"}],"stateMutability":"view"},{"type":"function","name":"cancel","inputs":[{"name":"mandateId","type":"uint16","internalType":"uint16"},{"name":"mandateCalldata","type":"bytes","internalType":"bytes"},{"name":"nonce","type":"uint256","internalType":"uint256"}],"outputs":[{"name":"","type":"uint256","internalType":"uint256"}],"stateMutability":"nonpayable"},{"type":"function","name":"castVote","inputs":[{"name":"actionId","type":"uint256","internalType":"uint256"},{"name":"support","type":"uint8","internalType":"uint8"}],"outputs":[],"stateMutability":"nonpayable"},{"type":"function","name":"castVoteWithReason","inputs":[{"name":"actionId","type":"uint256","internalType":"uint256"},{"name":"support","type":"uint8","internalType":"uint8"},{"name":"reason","type":"string","internalType":"string"}],"outputs":[],"stateMutability":"nonpayable"},{"type":"function","name":"closeConstitute","inputs":[],"outputs":[],"stateMutability":"nonpayable"},{"type":"function","name":"closeConstitute","inputs":[{"name":"newAdmin","type":"address","internalType":"address"}],"outputs":[],"stateMutability":"nonpayable"},{"type":"function","name":"closeConstitute","inputs":[{"name":"newAdmin","type":"address","internalType":"address"},{"name":"_flows","type":"tuple[]","internalType":"struct PowersTypes.Flow[]","components":[{"name":"mandateIds","type":"uint16[]","internalType":"uint16[]"},{"name":"nameDescription","type":"string","internalType":"string"}]}],"outputs":[],"stateMutability":"nonpayable"},{"type":"function","name":"constitute","inputs":[{"name":"constituentMandates","type":"tuple[]","internalType":"struct PowersTypes.MandateInitData[]","components":[{"name":"nameDescription","type":"string","internalType":"string"},{"name":"targetMandate","type":"address","internalType":"address"},{"name":"config","type":"bytes","internalType":"bytes"},{"name":"conditions","type":"tuple","internalType":"struct PowersTypes.Conditions","components":[{"name":"allowedRole","type":"uint256","internalType":"uint256"},{"name":"votingPeriod","type":"uint32","internalType":"uint32"},{"name":"timelock","type":"uint32","internalType":"uint32"},{"name":"throttleExecution","type":"uint32","internalType":"uint32"},{"name":"needFulfilled","type":"uint16","internalType":"uint16"},{"name":"needNotFulfilled","type":"uint16","internalType":"uint16"},{"name":"quorum","type":"uint8","internalType":"uint8"},{"name":"succeedAt","type":"uint8","internalType":"uint8"}]}]}],"outputs":[],"stateMutability":"nonpayable"},{"type":"function","name":"editFlowByIndex","inputs":[{"name":"index1","type":"uint8","internalType":"uint8"},{"name":"index2","type":"uint8","internalType":"uint8"},{"name":"mandateId","type":"uint16","internalType":"uint16"}],"outputs":[],"stateMutability":"nonpayable"},{"type":"function","name":"eip712Domain","inputs":[],"outputs":[{"name":"fields","type":"bytes1","internalType":"bytes1"},{"name":"name","type":"string","internalType":"string"},{"name":"version","type":"string","internalType":"string"},{"name":"chainId","type":"uint256","internalType":"uint256"},{"name":"verifyingContract","type":"address","internalType":"address"},{"name":"salt","type":"bytes32","internalType":"bytes32"},{"name":"extensions","type":"uint256[]","internalType":"uint256[]"}],"stateMutability":"view"},{"type":"function","name":"flows","inputs":[{"name":"","type":"uint256","internalType":"uint256"}],"outputs":[{"name":"nameDescription","type":"string","internalType":"string"}],"stateMutability":"view"},{"type":"function","name":"fulfill","inputs":[{"name":"mandateId","type":"uint16","internalType":"uint16"},{"name":"actionId","type":"uint256","internalType":"uint256"},{"name":"targets","type":"address[]","internalType":"address[]"},{"name":"values","type":"uint256[]","internalType":"uint256[]"},{"name":"calldatas","type":"bytes[]","internalType":"bytes[]"}],"outputs":[],"stateMutability":"nonpayable"},{"type":"function","name":"getActionCalldata","inputs":[{"name":"actionId","type":"uint256","internalType":"uint256"}],"outputs":[{"name":"callData","type":"bytes","internalType":"bytes"}],"stateMutability":"view"},{"type":"function","name":"getActionData","inputs":[{"name":"actionId","type":"uint256","internalType":"uint256"}],"outputs":[{"name":"mandateId","type":"uint16","internalType":"uint16"},{"name":"proposedAt","type":"uint48","internalType":"uint48"},{"name":"requestedAt","type":"uint48","internalType":"uint48"},{"name":"fulfilledAt","type":"uint48","internalType":"uint48"},{"name":"cancelledAt","type":"uint48","internalType":"uint48"},{"name":"caller","type":"address","internalType":"address"},{"name":"nonce","type":"uint256","internalType":"uint256"}],"stateMutability":"view"},{"type":"function","name":"getActionReturnData","inputs":[{"name":"actionId","type":"uint256","internalType":"uint256"},{"name":"index","type":"uint256","internalType":"uint256"}],"outputs":[{"name":"returnData","type":"bytes","internalType":"bytes"}],"stateMutability":"view"},{"type":"function","name":"getActionState","inputs":[{"name":"actionId","type":"uint256","internalType":"uint256"}],"outputs":[{"name":"","type":"uint8","internalType":"enum PowersTypes.ActionState"}],"stateMutability":"view"},{"type":"function","name":"getActionUri","inputs":[{"name":"actionId","type":"uint256","internalType":"uint256"}],"outputs":[{"name":"_uri","type":"string","internalType":"string"}],"stateMutability":"view"},{"type":"function","name":"getActionVoteData","inputs":[{"name":"actionId","type":"uint256","internalType":"uint256"}],"outputs":[{"name":"voteStart","type":"uint48","internalType":"uint48"},{"name":"voteDuration","type":"uint32","internalType":"uint32"},{"name":"voteEnd","type":"uint256","internalType":"uint256"},{"name":"againstVotes","type":"uint32","internalType":"uint32"},{"name":"forVotes","type":"uint32","internalType":"uint32"},{"name":"abstainVotes","type":"uint32","internalType":"uint32"}],"stateMutability":"view"},{"type":"function","name":"getAdoptedMandate","inputs":[{"name":"mandateId","type":"uint16","internalType":"uint16"}],"outputs":[{"name":"mandate","type":"address","internalType":"address"},{"name":"mandateHash","type":"bytes32","internalType":"bytes32"},{"name":"active","type":"bool","internalType":"bool"}],"stateMutability":"view"},{"type":"function","name":"getAmountFlows","inputs":[],"outputs":[{"name":"","type":"uint256","internalType":"uint256"}],"stateMutability":"view"},{"type":"function","name":"getAmountRoleHolders","inputs":[{"name":"roleId","type":"uint256","internalType":"uint256"}],"outputs":[{"name":"amountMembers","type":"uint256","internalType":"uint256"}],"stateMutability":"view"},{"type":"function","name":"getConditions","inputs":[{"name":"mandateId","type":"uint16","internalType":"uint16"}],"outputs":[{"name":"conditions","type":"tuple","internalType":"struct PowersTypes.Conditions","components":[{"name":"allowedRole","type":"uint256","internalType":"uint256"},{"name":"votingPeriod","type":"uint32","internalType":"uint32"},{"name":"timelock","type":"uint32","internalType":"uint32"},{"name":"throttleExecution","type":"uint32","internalType":"uint32"},{"name":"needFulfilled","type":"uint16","internalType":"uint16"},{"name":"needNotFulfilled","type":"uint16","internalType":"uint16"},{"name":"quorum","type":"uint8","internalType":"uint8"},{"name":"succeedAt","type":"uint8","internalType":"uint8"}]}],"stateMutability":"view"},{"type":"function","name":"getFlowDescriptionAtIndex","inputs":[{"name":"index","type":"uint8","internalType":"uint8"}],"outputs":[{"name":"","type":"string","internalType":"string"}],"stateMutability":"view"},{"type":"function","name":"getFlowMandatesAtIndex","inputs":[{"name":"index","type":"uint8","internalType":"uint8"}],"outputs":[{"name":"","type":"uint16[]","internalType":"uint16[]"}],"stateMutability":"view"},{"type":"function","name":"getLatestFulfillment","inputs":[{"name":"mandateId","type":"uint16","internalType":"uint16"}],"outputs":[{"name":"latestFulfillment","type":"uint48","internalType":"uint48"}],"stateMutability":"view"},{"type":"function","name":"getMandateActionAtIndex","inputs":[{"name":"mandateId","type":"uint16","internalType":"uint16"},{"name":"index","type":"uint256","internalType":"uint256"}],"outputs":[{"name":"actionId","type":"uint256","internalType":"uint256"}],"stateMutability":"view"},{"type":"function","name":"getMandateCounter","inputs":[],"outputs":[{"name":"","type":"uint16","internalType":"uint16"}],"stateMutability":"view"},{"type":"function","name":"getQuantityMandateActions","inputs":[{"name":"mandateId","type":"uint16","internalType":"uint16"}],"outputs":[{"name":"quantityMandateActions","type":"uint256","internalType":"uint256"}],"stateMutability":"view"},{"type":"function","name":"getRoleHolderAtIndex","inputs":[{"name":"roleId","type":"uint256","internalType":"uint256"},{"name":"index","type":"uint256","internalType":"uint256"}],"outputs":[{"name":"account","type":"address","internalType":"address"}],"stateMutability":"view"},{"type":"function","name":"getRoleLabel","inputs":[{"name":"roleId","type":"uint256","internalType":"uint256"}],"outputs":[{"name":"label","type":"string","internalType":"string"}],"stateMutability":"view"},{"type":"function","name":"getRoleMetadata","inputs":[{"name":"roleId","type":"uint256","internalType":"uint256"}],"outputs":[{"name":"metadata","type":"string","internalType":"string"}],"stateMutability":"view"},{"type":"function","name":"getTreasury","inputs":[],"outputs":[{"name":"","type":"address","internalType":"address payable"}],"stateMutability":"view"},{"type":"function","name":"hasRoleSince","inputs":[{"name":"account","type":"address","internalType":"address"},{"name":"roleId","type":"uint256","internalType":"uint256"}],"outputs":[{"name":"since","type":"uint48","internalType":"uint48"}],"stateMutability":"view"},{"type":"function","name":"hasVoted","inputs":[{"name":"actionId","type":"uint256","internalType":"uint256"},{"name":"account","type":"address","internalType":"address"}],"outputs":[{"name":"","type":"bool","internalType":"bool"}],"stateMutability":"view"},{"type":"function","name":"isBlacklisted","inputs":[{"name":"account","type":"address","internalType":"address"}],"outputs":[{"name":"","type":"bool","internalType":"bool"}],"stateMutability":"view"},{"type":"function","name":"labelRole","inputs":[{"name":"roleId","type":"uint256","internalType":"uint256"},{"name":"label","type":"string","internalType":"string"},{"name":"metadata","type":"string","internalType":"string"}],"outputs":[],"stateMutability":"nonpayable"},{"type":"function","name":"mandateCounter","inputs":[],"outputs":[{"name":"","type":"uint16","internalType":"uint16"}],"stateMutability":"view"},{"type":"function","name":"name","inputs":[],"outputs":[{"name":"","type":"string","internalType":"string"}],"stateMutability":"view"},{"type":"function","name":"paymaster","inputs":[],"outputs":[{"name":"","type":"address","internalType":"address"}],"stateMutability":"view"},{"type":"function","name":"propose","inputs":[{"name":"mandateId","type":"uint16","internalType":"uint16"},{"name":"mandateCalldata","type":"bytes","internalType":"bytes"},{"name":"nonce","type":"uint256","internalType":"uint256"},{"name":"uriAction","type":"string","internalType":"string"}],"outputs":[{"name":"actionId","type":"uint256","internalType":"uint256"}],"stateMutability":"nonpayable"},{"type":"function","name":"removeFlow","inputs":[{"name":"index","type":"uint8","internalType":"uint8"}],"outputs":[],"stateMutability":"nonpayable"},{"type":"function","name":"request","inputs":[{"name":"mandateId","type":"uint16","internalType":"uint16"},{"name":"mandateCalldata","type":"bytes","internalType":"bytes"},{"name":"nonce","type":"uint256","internalType":"uint256"},{"name":"uriAction","type":"string","internalType":"string"}],"outputs":[{"name":"actionId","type":"uint256","internalType":"uint256"}],"stateMutability":"nonpayable"},{"type":"function","name":"revokeMandate","inputs":[{"name":"mandateId","type":"uint16","internalType":"uint16"}],"outputs":[],"stateMutability":"nonpayable"},{"type":"function","name":"revokeRole","inputs":[{"name":"roleId","type":"uint256","internalType":"uint256"},{"name":"account","type":"address","internalType":"address"}],"outputs":[],"stateMutability":"nonpayable"},{"type":"function","name":"setPaymaster","inputs":[{"name":"newPaymaster","type":"address","internalType":"address"}],"outputs":[],"stateMutability":"nonpayable"},{"type":"function","name":"setTreasury","inputs":[{"name":"newTreasury","type":"address","internalType":"address payable"}],"outputs":[],"stateMutability":"nonpayable"},{"type":"function","name":"setUri","inputs":[{"name":"newUri","type":"string","internalType":"string"}],"outputs":[],"stateMutability":"nonpayable"},{"type":"function","name":"uri","inputs":[],"outputs":[{"name":"","type":"string","internalType":"string"}],"stateMutability":"view"},{"type":"function","name":"version","inputs":[],"outputs":[{"name":"","type":"string","internalType":"string"}],"stateMutability":"pure"},{"type":"event","name":"ActionFulfilled","inputs":[{"name":"mandateId","type":"uint16","indexed":true,"internalType":"uint16"},{"name":"actionId","type":"uint256","indexed":true,"internalType":"uint256"},{"name":"targets","type":"address[]","indexed":false,"internalType":"address[]"},{"name":"values","type":"uint256[]","indexed":false,"internalType":"uint256[]"},{"name":"calldatas","type":"bytes[]","indexed":false,"internalType":"bytes[]"}],"anonymous":false},{"type":"event","name":"ActionRequested","inputs":[{"name":"caller","type":"address","indexed":true,"internalType":"address"},{"name":"mandateId","type":"uint16","indexed":true,"internalType":"uint16"},{"name":"mandateCalldata","type":"bytes","indexed":false,"internalType":"bytes"},{"name":"nonce","type":"uint256","indexed":false,"internalType":"uint256"},{"name":"description","type":"string","indexed":false,"internalType":"string"}],"anonymous":false},{"type":"event","name":"BlacklistSet","inputs":[{"name":"account","type":"address","indexed":true,"internalType":"address"},{"name":"blacklisted","type":"bool","indexed":true,"internalType":"bool"}],"anonymous":false},{"type":"event","name":"EIP712DomainChanged","inputs":[],"anonymous":false},{"type":"event","name":"FlowAdapted","inputs":[{"name":"index1","type":"uint8","indexed":false,"internalType":"uint8"},{"name":"index2","type":"uint8","indexed":false,"internalType":"uint8"},{"name":"mandateId","type":"uint16","indexed":false,"internalType":"uint16"}],"anonymous":false},{"type":"event","name":"FlowAdded","inputs":[{"name":"mandateIds","type":"uint16[]","indexed":false,"internalType":"uint16[]"},{"name":"nameDescription","type":"string","indexed":false,"internalType":"string"}],"anonymous":false},{"type":"event","name":"FlowDeleted","inputs":[{"name":"index","type":"uint8","indexed":true,"internalType":"uint8"}],"anonymous":false},{"type":"event","name":"FundsReceived","inputs":[{"name":"sender","type":"address","indexed":false,"internalType":"address"},{"name":"value","type":"uint256","indexed":false,"internalType":"uint256"}],"anonymous":false},{"type":"event","name":"MandateAdopted","inputs":[{"name":"mandateId","type":"uint16","indexed":true,"internalType":"uint16"}],"anonymous":false},{"type":"event","name":"MandateRevoked","inputs":[{"name":"mandateId","type":"uint16","indexed":true,"internalType":"uint16"}],"anonymous":false},{"type":"event","name":"PaymasterSet","inputs":[{"name":"newPaymaster","type":"address","indexed":true,"internalType":"address"}],"anonymous":false},{"type":"event","name":"Powers__Initialized","inputs":[{"name":"contractAddress","type":"address","indexed":false,"internalType":"address"},{"name":"name","type":"string","indexed":false,"internalType":"string"},{"name":"uri","type":"string","indexed":false,"internalType":"string"}],"anonymous":false},{"type":"event","name":"ProposedActionCancelled","inputs":[{"name":"actionId","type":"uint256","indexed":true,"internalType":"uint256"}],"anonymous":false},{"type":"event","name":"ProposedActionCreated","inputs":[{"name":"actionId","type":"uint256","indexed":true,"internalType":"uint256"},{"name":"caller","type":"address","indexed":true,"internalType":"address"},{"name":"mandateId","type":"uint16","indexed":true,"internalType":"uint16"},{"name":"signature","type":"string","indexed":false,"internalType":"string"},{"name":"executeCalldata","type":"bytes","indexed":false,"internalType":"bytes"},{"name":"voteStart","type":"uint256","indexed":false,"internalType":"uint256"},{"name":"voteEnd","type":"uint256","indexed":false,"internalType":"uint256"},{"name":"nonce","type":"uint256","indexed":false,"internalType":"uint256"},{"name":"description","type":"string","indexed":false,"internalType":"string"}],"anonymous":false},{"type":"event","name":"RoleLabel","inputs":[{"name":"roleId","type":"uint256","indexed":true,"internalType":"uint256"},{"name":"label","type":"string","indexed":false,"internalType":"string"}],"anonymous":false},{"type":"event","name":"RoleSet","inputs":[{"name":"roleId","type":"uint256","indexed":true,"internalType":"uint256"},{"name":"account","type":"address","indexed":true,"internalType":"address"},{"name":"access","type":"bool","indexed":true,"internalType":"bool"}],"anonymous":false},{"type":"event","name":"VoteCast","inputs":[{"name":"account","type":"address","indexed":true,"internalType":"address"},{"name":"actionId","type":"uint256","indexed":true,"internalType":"uint256"},{"name":"support","type":"uint8","indexed":true,"internalType":"uint8"},{"name":"reason","type":"string","indexed":false,"internalType":"string"}],"anonymous":false},{"type":"error","name":"InvalidShortString","inputs":[]},{"type":"error","name":"Powers__ActionAlreadyFulfilled","inputs":[]},{"type":"error","name":"Powers__ActionAlreadyInitiated","inputs":[]},{"type":"error","name":"Powers__ActionCancelled","inputs":[]},{"type":"error","name":"Powers__ActionNotProposed","inputs":[]},{"type":"error","name":"Powers__ActionNotRequested","inputs":[]},{"type":"error","name":"Powers__AddressBlacklisted","inputs":[]},{"type":"error","name":"Powers__AlreadyCastVote","inputs":[]},{"type":"error","name":"Powers__CalldataTooLong","inputs":[]},{"type":"error","name":"Powers__CallerNotTargetMandate","inputs":[]},{"type":"error","name":"Powers__CannotAddPowersAddressAsMember","inputs":[]},{"type":"error","name":"Powers__CannotAddZeroAddress","inputs":[]},{"type":"error","name":"Powers__CannotCallMandate","inputs":[]},{"type":"error","name":"Powers__CannotSetPublicRole","inputs":[]},{"type":"error","name":"Powers__CannotSetZeroAddress","inputs":[]},{"type":"error","name":"Powers__ConstituteClosed","inputs":[]},{"type":"error","name":"Powers__ConstituteOpen","inputs":[]},{"type":"error","name":"Powers__ConstitutionAlreadyExecuted","inputs":[]},{"type":"error","name":"Powers__ExecutionArrayTooLong","inputs":[]},{"type":"error","name":"Powers__ExternalContractBlacklisted","inputs":[]},{"type":"error","name":"Powers__IncorrectInterface","inputs":[{"name":"targetMandate","type":"address","internalType":"address"}]},{"type":"error","name":"Powers__InvalidAddress","inputs":[]},{"type":"error","name":"Powers__InvalidCallData","inputs":[]},{"type":"error","name":"Powers__InvalidFlowIndex","inputs":[]},{"type":"error","name":"Powers__InvalidIndex","inputs":[]},{"type":"error","name":"Powers__InvalidLabel","inputs":[]},{"type":"error","name":"Powers__InvalidMandateId","inputs":[]},{"type":"error","name":"Powers__InvalidMandateIndex","inputs":[]},{"type":"error","name":"Powers__InvalidMaxCallDataLength","inputs":[]},{"type":"error","name":"Powers__InvalidMaxExecutionsLength","inputs":[]},{"type":"error","name":"Powers__InvalidName","inputs":[]},{"type":"error","name":"Powers__InvalidReturnCallDataLength","inputs":[]},{"type":"error","name":"Powers__InvalidVoteType","inputs":[]},{"type":"error","name":"Powers__LabelTooLong","inputs":[]},{"type":"error","name":"Powers__LockedRole","inputs":[]},{"type":"error","name":"Powers__MandateFulfillCallFailed","inputs":[]},{"type":"error","name":"Powers__MandateNotActive","inputs":[]},{"type":"error","name":"Powers__MandateRequestFailed","inputs":[]},{"type":"error","name":"Powers__NoMembersInRole","inputs":[]},{"type":"error","name":"Powers__NoVoteNeeded","inputs":[]},{"type":"error","name":"Powers__NotAContract","inputs":[]},{"type":"error","name":"Powers__NotProposerAction","inputs":[]},{"type":"error","name":"Powers__OnlyAdmin","inputs":[]},{"type":"error","name":"Powers__OnlyPowers","inputs":[]},{"type":"error","name":"Powers__PayableNotEnabled","inputs":[]},{"type":"error","name":"Powers__ProposedActionNotActive","inputs":[]},{"type":"error","name":"Powers__UnexpectedActionState","inputs":[]},{"type":"error","name":"Powers__UriTooLong","inputs":[]},{"type":"error","name":"Powers__VoteWithPublicRoleDisallowed","inputs":[]},{"type":"error","name":"StringTooLong","inputs":[{"name":"str","type":"string","internalType":"string"}]}],"bytecode":{"object":"0x6101e060408190526009805461ffff60a01b1916600160a01b17905561550b38819003908190833981016040819052610037916105bd565b8461005b60408051808201909152600681526576302e362e3160d01b602082015290565b610065825f61020f565b6101205261007481600161020f565b61014052815160208084019190912060e052815190820120610100524660a05261010060e05161010051604080517f8b73c3c69bb8fe3d512ecc4cf759cc79239f7b179b0ffacaa9a75d522b39400f60208201529081019290925260608201524660808201523060a08201525f9060c00160405160208183030381529060405280519060200120905090565b60805250503060c05284515f0361012a57604051634acb0e6d60e01b815260040160405180910390fd5b825f0361014a57604051631c58c0e160e01b815260040160405180910390fd5b815f0361016a5760405163a19bdd3b60e01b815260040160405180910390fd5b805f0361018a57604051638a2b742f60e01b815260040160405180910390fd5b6101965f336001610241565b60066101a286826106bf565b5060076101af85826106bf565b506101608390526101808290526101a0819052436101c0526040517f8e09415123fab1f9e22246686c8d24ad9f84c70288cd5fa338213bccd3c5fb76906101fd9030906006906007906107f8565b60405180910390a150505050506108d6565b5f60208351101561022a57610223836104da565b905061023b565b8161023584826106bf565b5060ff90505b92915050565b5f1983036102625760405163a1dd2b9360e01b815260040160405180910390fd5b6001600160a01b038216610289576040516329f62b5d60e11b815260040160405180910390fd5b306001600160a01b038316036102b25760405163ca208ab960e01b815260040160405180910390fd5b5f8381526004602090815260408083206001600160a01b038616845291829052909120548015158380156102e4575080155b15610365576040805180820182526001600160a01b0380881680835265ffffffffffff43811660208086019182526001808b01805491820181555f81815283812098519890920180549451909516600160a01b026001600160d01b031990941697909616969096179190911790915591549083529086905291902055610498565b831580156103705750805b15610498576001838101545f9161038691610837565b90505f84600101828154811061039e5761039e610856565b5f918252602091829020604080518082019091529101546001600160a01b0381168252600160a01b900465ffffffffffff16918101919091529050806001868101906103ea9087610837565b815481106103fa576103fa610856565b5f918252602091829020835191018054939092015165ffffffffffff16600160a01b026001600160d01b03199093166001600160a01b03909116179190911790556001850180548061044e5761044e61086a565b5f828152602080822083015f1990810180546001600160d01b031916905590920190925591516001600160a01b039081168252918690526040808220869055918816815290812055505b831515856001600160a01b0316877f294507a8f5830b538faef39fbdd28f1164f27c8338a32fc7b47ddf82e4c8d9e460405160405180910390a4505050505050565b5f5f829050601f8151111561050d578260405163305a27a960e01b8152600401610504919061087e565b60405180910390fd5b8051610518826108b3565b179392505050565b634e487b7160e01b5f52604160045260245ffd5b5f82601f830112610543575f5ffd5b81516001600160401b0381111561055c5761055c610520565b604051601f8201601f19908116603f011681016001600160401b038111828210171561058a5761058a610520565b6040528181528382016020018510156105a1575f5ffd5b8160208501602083015e5f918101602001919091529392505050565b5f5f5f5f5f60a086880312156105d1575f5ffd5b85516001600160401b038111156105e6575f5ffd5b6105f288828901610534565b602088015190965090506001600160401b0381111561060f575f5ffd5b61061b88828901610534565b60408801516060890151608090990151979a919950979695509350505050565b600181811c9082168061064f57607f821691505b60208210810361066d57634e487b7160e01b5f52602260045260245ffd5b50919050565b601f8211156106ba57805f5260205f20601f840160051c810160208510156106985750805b601f840160051c820191505b818110156106b7575f81556001016106a4565b50505b505050565b81516001600160401b038111156106d8576106d8610520565b6106ec816106e6845461063b565b84610673565b6020601f82116001811461071e575f83156107075750848201515b5f19600385901b1c1916600184901b1784556106b7565b5f84815260208120601f198516915b8281101561074d578785015182556020948501946001909201910161072d565b508482101561076a57868401515f19600387901b60f8161c191681555b50505050600190811b01905550565b5f81546107858161063b565b80855260018216801561079f57600181146107bb576107ef565b60ff1983166020870152602082151560051b87010193506107ef565b845f5260205f205f5b838110156107e65781546020828a0101526001820191506020810190506107c4565b87016020019450505b50505092915050565b6001600160a01b03841681526060602082018190525f9061081b90830185610779565b828103604084015261082d8185610779565b9695505050505050565b8181038181111561023b57634e487b7160e01b5f52601160045260245ffd5b634e487b7160e01b5f52603260045260245ffd5b634e487b7160e01b5f52603160045260245ffd5b602081525f82518060208401528060208501604085015e5f604082850101526040601f19601f83011684010191505092915050565b8051602080830151919081101561066d575f1960209190910360031b1b16919050565b60805160a05160c05160e05161010051610120516101405161016051610180516101a0516101c051614ba86109635f395f61091501525f8181610d44015261105501525f8181610a22015261129c01525f8181610ca0015281816110c9015281816117e2015261271601525f61320901525f6131d801525f50505f50505f50505f50505f5050614ba85ff3fe60806040526004361061038a575f3560e01c80637258883f116101d3578063b367cac0116100fd578063ebef6d971161009d578063f2a0bb751161006d578063f2a0bb7514610d14578063f6226e7c14610d33578063fc2d96d014610d66578063fe575a8714610d85575f5ffd5b8063ebef6d9714610c70578063edf2a59614610c8f578063edfd2e8714610cc2578063f0f4426014610cf5575f5ffd5b8063cc5812cf116100d8578063cc5812cf14610bfd578063d902bf3a14610c1c578063e88efe3514610c3b578063eac989f814610c5c575f5ffd5b8063b367cac014610b91578063b4324dd314610bb0578063b449711514610bde575f5ffd5b806384b0196e1161017357806393d7dae51161014357806393d7dae514610b085780639a0435d414610b275780639b642de114610b53578063a375109814610b72575f5ffd5b806384b0196e14610a8f5780638973be0414610ab65780638a4359e014610ad5578063918f867414610af4575f5ffd5b80637b3c71d3116101ae5780637b3c71d3146109f25780637c1b553914610a115780638180d29e14610a44578063831af37914610a63575f5ffd5b80637258883f146109a157806375b238fc146109c057806376ff7577146109d3575f5ffd5b80632e2d8253116102b4578063455a4396116102545780635532f99b116102245780635532f99b146109045780635678138814610937578063666ca2d614610956578063685b824a14610982575f5ffd5b8063455a4396146107c85780634583476b146107e7578063519fcfb0146108b757806354fd4d50146108d6575f5ffd5b80633ca7c02a1161028f5780633ca7c02a1461071e5780633fc42d2e1461073257806341bd157d146107515780634385963214610770575f5ffd5b80632e2d8253146106c357806336126216146106e25780633b19e84a14610701575f5ffd5b806312561b1a1161032a5780632179e04e116102fa5780632179e04e1461061257806323b1971b146106715780632a97fa77146106855780632d90fe5f146106a4575f5ffd5b806312561b1a1461057057806316e4cbf91461059d578063199093bb146105d45780631d0b19e7146105f3575f5ffd5b806306fdde031161036557806306fdde031461048f5780630d7abeaa146104a35780630de6a601146104b95780631031bdb0146104d8575f5ffd5b80630398f05f146103d7578063040b8c241461040c578063055dbe1014610461575f5ffd5b366103d3577f8e47b87b0ef542cdfa1659c551d88bad38aa7f452d2bbb349ab7530dfec8be8f33604080516001600160a01b0390921682523460208301520160405180910390a1005b5f5ffd5b3480156103e2575f5ffd5b506103f66103f13660046138d9565b610dbc565b604051610403919061391e565b60405180910390f35b348015610417575f5ffd5b5061044a610426366004613941565b61ffff165f90815260036020526040902054600160a01b900465ffffffffffff1690565b60405165ffffffffffff9091168152602001610403565b34801561046c575f5ffd5b50600954600160a01b900461ffff165b60405161ffff9091168152602001610403565b34801561049a575f5ffd5b506103f6610e5e565b3480156104ae575f5ffd5b506104b7610eea565b005b3480156104c4575f5ffd5b506104b76104d33660046139a2565b610f3a565b3480156104e3575f5ffd5b506105496104f2366004613941565b61ffff165f81815260036020908152604091829020548251308184015280840194909452825180850384018152606090940190925282519201919091206001600160a01b038216929091600160d01b900460ff1690565b604080516001600160a01b0390941684526020840192909252151590820152606001610403565b34801561057b575f5ffd5b5061058f61058a366004613a98565b6113bd565b604051908152602001610403565b3480156105a8575f5ffd5b506009546105bc906001600160a01b031681565b6040516001600160a01b039091168152602001610403565b3480156105df575f5ffd5b506105bc6105ee366004613aee565b61159e565b3480156105fe575f5ffd5b506104b761060d366004613b22565b611602565b34801561061d575f5ffd5b5061063161062c3660046138d9565b611619565b6040805165ffffffffffff909716875263ffffffff95861660208801528601939093529083166060850152821660808401521660a082015260c001610403565b34801561067c575f5ffd5b50600a5461058f565b348015610690575f5ffd5b506104b761069f366004613b50565b61169a565b3480156106af575f5ffd5b506103f66106be3660046138d9565b611712565b3480156106ce575f5ffd5b5061058f6106dd366004613c97565b611731565b3480156106ed575f5ffd5b506103f66106fc366004613d2a565b611a29565b34801561070c575f5ffd5b506008546001600160a01b03166105bc565b348015610729575f5ffd5b5061058f5f1981565b34801561073d575f5ffd5b506104b761074c366004613d43565b611a81565b34801561075c575f5ffd5b506103f661076b366004613aee565b611bcf565b34801561077b575f5ffd5b506107b861078a366004613b22565b5f8281526002602090815260408083206001600160a01b038516845260070190915290205460ff1692915050565b6040519015158152602001610403565b3480156107d3575f5ffd5b506104b76107e2366004613d90565b611c8c565b3480156107f2575f5ffd5b506108646108013660046138d9565b5f9081526002602081905260409091206001810154815492820154600390920154600160301b9182900461ffff169465ffffffffffff80861695938404811694600160601b8504821694600160901b9004909116926001600160a01b0390911691565b6040805161ffff909816885265ffffffffffff96871660208901529486169487019490945291841660608601529290921660808401526001600160a01b0390911660a083015260c082015260e001610403565b3480156108c2575f5ffd5b506104b76108d1366004613d2a565b611ce7565b3480156108e1575f5ffd5b5060408051808201909152600681526576302e362e3160d01b60208201526103f6565b34801561090f575f5ffd5b5061058f7f000000000000000000000000000000000000000000000000000000000000000081565b348015610942575f5ffd5b506104b7610951366004613dbc565b611d82565b348015610961575f5ffd5b506109756109703660046138d9565b611d9c565b6040516104039190613de6565b34801561098d575f5ffd5b506104b761099c366004613b22565b611f00565b3480156109ac575f5ffd5b506104b76109bb366004613b50565b611f4d565b3480156109cb575f5ffd5b5061058f5f81565b3480156109de575f5ffd5b506104b76109ed366004613e0c565b611f73565b3480156109fd575f5ffd5b506104b7610a0c366004613e79565b612055565b348015610a1c575f5ffd5b5061058f7f000000000000000000000000000000000000000000000000000000000000000081565b348015610a4f575f5ffd5b506103f6610a5e3660046138d9565b61209c565b348015610a6e575f5ffd5b50610a82610a7d366004613941565b61214c565b6040516104039190613ecf565b348015610a9a575f5ffd5b50610aa3612227565b6040516104039796959493929190613f67565b348015610ac1575f5ffd5b506104b7610ad03660046140f3565b612269565b348015610ae0575f5ffd5b5061058f610aef3660046141b9565b61227b565b348015610aff575f5ffd5b5061058f606481565b348015610b13575f5ffd5b506107b8610b223660046141e1565b6122d9565b348015610b32575f5ffd5b50610b46610b41366004613d2a565b61231b565b6040516104039190614249565b348015610b5e575f5ffd5b506104b7610b6d36600461425b565b6123db565b348015610b7d575f5ffd5b506104b7610b8c366004614295565b6123ef565b348015610b9c575f5ffd5b506104b7610bab366004613941565b61249b565b348015610bbb575f5ffd5b5061058f610bca3660046138d9565b5f9081526004602052604090206001015490565b348015610be9575f5ffd5b5061047c610bf836600461441f565b612542565b348015610c08575f5ffd5b5061044a610c17366004614451565b612590565b348015610c27575f5ffd5b506103f6610c363660046138d9565b612608565b348015610c46575f5ffd5b5060095461047c90600160a01b900461ffff1681565b348015610c67575f5ffd5b506103f6612627565b348015610c7b575f5ffd5b5061058f610c8a366004613c97565b612634565b348015610c9a575f5ffd5b5061058f7f000000000000000000000000000000000000000000000000000000000000000081565b348015610ccd575f5ffd5b5061058f610cdc366004613941565b61ffff165f908152600360208190526040909120015490565b348015610d00575f5ffd5b506104b7610d0f366004613b50565b612a48565b348015610d1f575f5ffd5b506103f6610d2e3660046138d9565b612a99565b348015610d3e575f5ffd5b5061058f7f000000000000000000000000000000000000000000000000000000000000000081565b348015610d71575f5ffd5b506104b7610d8036600461446d565b612ab8565b348015610d90575f5ffd5b506107b8610d9f366004613b50565b6001600160a01b03165f9081526005602052604090205460ff1690565b5f818152600460205260409020600201805460609190610ddb9061451e565b80601f0160208091040260200160405190810160405280929190818152602001828054610e079061451e565b8015610e525780601f10610e2957610100808354040283529160200191610e52565b820191905f5260205f20905b815481529060010190602001808311610e3557829003601f168201915b50505050509050919050565b60068054610e6b9061451e565b80601f0160208091040260200160405190810160405280929190818152602001828054610e979061451e565b8015610ee25780601f10610eb957610100808354040283529160200191610ee2565b820191905f5260205f20905b815481529060010190602001808311610ec557829003601f168201915b505050505081565b610ef2612b89565b610f3833604080515f8082526020820190925290610f32565b6040805180820190915260608082526020820152815260200190600190039081610f0b5790505b50612bba565b565b61ffff88165f9081526003602052604090208054600160d01b900460ff16610f7557604051632e53afcd60e01b815260040160405180910390fd5b80546001600160a01b03163314610f9f57604051635574892960e11b815260040160405180910390fd5b5f8881526002602052604090208054600160301b900465ffffffffffff161580610fd857508054600160901b900465ffffffffffff1615155b15610ff6576040516301dd1d1560e71b815260040160405180910390fd5b8054600160601b900465ffffffffffff16156110255760405163a517239560e01b815260040160405180910390fd5b8685811415806110355750808414155b156110535760405163dbf15fa560e01b815260040160405180910390fd5b7f00000000000000000000000000000000000000000000000000000000000000008111156110945760405163d0b6a17960e01b815260040160405180910390fd5b815471ffffffffffff0000000000000000000000001916600160601b4365ffffffffffff16021782555f5b81811015611333577f00000000000000000000000000000000000000000000000000000000000000008686838181106110fa576110fa614556565b905060200281019061110c919061456a565b9050111561112d57604051631c3bc5e360e31b815260040160405180910390fd5b6111578a8a8381811061114257611142614556565b9050602002016020810190610d9f9190613b50565b15611175576040516334d52f6b60e01b815260040160405180910390fd5b5f5f8b8b8481811061118957611189614556565b905060200201602081019061119e9190613b50565b6001600160a01b03168a8a858181106111b9576111b9614556565b905060200201358989868181106111d2576111d2614556565b90506020028101906111e4919061456a565b6040516111f29291906145ad565b5f6040518083038185875af1925050503d805f811461122c576040519150601f19603f3d011682016040523d82523d5f602084013e611231565b606091505b50915091508161129a5784547fffff000000000000ffffffffffffffffffffffffffffffffffffffffffffffff16600160c01b4365ffffffffffff16021785558051156112815780518082602001fd5b604051631d8fb90d60e21b815260040160405180910390fd5b7f00000000000000000000000000000000000000000000000000000000000000008151116112e8576005850180546001810182555f9182526020909120016112e28282614608565b50611329565b604080515f602082015260058701910160408051601f1981840301815291905281546001810183555f9283526020909220909101906113279082614608565b505b50506001016110bf565b50898b61ffff167f6f483abfdcf4f122955fd235993c09897d9190ed80964fe5cb76daac8a7a8b878b8b8b8b8b8b60405161137396959493929190614780565b60405180910390a3505080547fffffffffffff000000000000ffffffffffffffffffffffffffffffffffffffff16600160a01b4365ffffffffffff16021790555050505050505050565b61ffff84165f9081526003602052604081208054600160d01b900460ff166113f857604051632e53afcd60e01b815260040160405180910390fd5b604051630b704dbd60e11b81525f9073__$b8401669eb6e3c34470049924d5a7c9ef9$__906316e09b7a90611437908a908a908a908a9060040161482f565b602060405180830381865af4158015611452573d5f5f3e3d5ffd5b505050506040513d601f19601f82011682018060405250810190611476919061485d565b5f81815260026020819052604090912090810154919250906001600160a01b0316336001600160a01b0316146114bf57604051637365858560e01b815260040160405180910390fd5b805465ffffffffffff165f036114e85760405163f661f4bf60e01b815260040160405180910390fd5b8054600160601b900465ffffffffffff1615158061151557508054600160901b900465ffffffffffff1615155b156115335760405163b831530960e01b815260040160405180910390fd5b80547fffffffffffffffff000000000000ffffffffffffffffffffffffffffffffffff16600160901b4365ffffffffffff160217815560405182907f8eb4cfeba12ece86fc1590773502e55423b37db556543430337376b30d27c42b905f90a2509695505050505050565b5f828152600460205260408120600181015483106115cf5760405163472e61bd60e01b815260040160405180910390fd5b8060010183815481106115e4576115e4614556565b5f918252602090912001546001600160a01b03169150505b92915050565b61160a612c72565b61161582825f612c92565b5050565b5f8181526002602052604081206001810154829182918291829182919065ffffffffffff811690600160401b900463ffffffff166116578183614888565b60019390930154919a90995065ffffffffffff909216975063ffffffff600160601b820481169750600160801b820481169650600160a01b909104169350915050565b6116a2612c72565b6001600160a01b0381166116c957604051636e7e8feb60e11b815260040160405180910390fd5b600980546001600160a01b0319166001600160a01b0383169081179091556040517f8be32e66bcd4d1783b05affa4e89ba5fc5e37bea009c896d862c795acf9e842b905f90a250565b5f818152600460205260409020600301805460609190610ddb9061451e565b600b545f9060ff1661175657604051630889b5b960e31b815260040160405180910390fd5b61ffff86165f9081526003602052604090208054600160d01b900460ff1661179157604051632e53afcd60e01b815260040160405180910390fd5b61179c335b886122d9565b6117b957604051637079d1b960e11b815260040160405180910390fd5b6117c233610d9f565b156117e0576040516334d52f6b60e01b815260040160405180910390fd5b7f000000000000000000000000000000000000000000000000000000000000000085111561182157604051631c3bc5e360e31b815260040160405180910390fd5b6002810154604051630b704dbd60e11b815263ffffffff821691600160801b900460ff169073__$b8401669eb6e3c34470049924d5a7c9ef9$__906316e09b7a90611876908c908c908c908c9060040161482f565b602060405180830381865af4158015611891573d5f5f3e3d5ffd5b505050506040513d601f19601f820116820180604052508101906118b5919061485d565b5f818152600260205260409020600181015491955090600160301b900461ffff16156118f45760405163fc0e49ff60e01b815260040160405180910390fd5b6003840180546001810182555f9182526020909120018590556004810161191c898b836148a6565b50805465ffffffffffff19164365ffffffffffff1617815560018101805467ffff0000000000001916600160301b61ffff8d160217905560ff8216611961575f611963565b435b60018201805465ffffffffffff929092166bffffffff0000ffffffffffff1990921691909117600160401b63ffffffff861602179055600281018054336001600160a01b0319909116179055600681016119bd8782614608565b506003810187905561ffff8a1633867fb5856a9700a7e851456d3a16348b4ae0fbb11b06ac0af8dbe8e8652c57cc4cbd8c8c43611a0063ffffffff8b1682614960565b8e8e604051611a1496959493929190614973565b60405180910390a45050505095945050505050565b600a5460609060ff831610611a515760405163472e61bd60e01b815260040160405180910390fd5b600a8260ff1681548110611a6757611a67614556565b905f5260205f2090600202016001018054610ddb9061451e565b611a89612c72565b60095461ffff600160a01b909104811690821610611aba57604051633a8de3a560e11b815260040160405180910390fd5b600a5460ff841610611adf5760405163e2190a4d60e01b815260040160405180910390fd5b5f600a8460ff1681548110611af657611af6614556565b5f9182526020909120600290910201805490915060ff841610611b2c5760405163321decd960e21b815260040160405180910390fd5b81815f018460ff1681548110611b4457611b44614556565b905f5260205f2090601091828204019190066002026101000a81548161ffff021916908361ffff1602179055507fbab75fb33733fb786b1bd731a4e31deb8b360f52fdc6e437843f5803cd84141d848484604051611bc19392919060ff938416815291909216602082015261ffff91909116604082015260600190565b60405180910390a150505050565b5f82815260026020526040902060050180546060919083908110611bf557611bf5614556565b905f5260205f20018054611c089061451e565b80601f0160208091040260200160405190810160405280929190818152602001828054611c349061451e565b8015611c7f5780601f10611c5657610100808354040283529160200191611c7f565b820191905f5260205f20905b815481529060010190602001808311611c6257829003601f168201915b5050505050905092915050565b611c94612c72565b6001600160a01b0382165f81815260056020526040808220805460ff191685151590811790915590519092917f921341769c2075d1ae425396063d5ab65ff5006c4bc0bd0821e50ce51fb6012391a35050565b611cef612c72565b600a5460ff821610611d145760405163e2190a4d60e01b815260040160405180910390fd5b600a8160ff1681548110611d2a57611d2a614556565b5f9182526020822060029091020190611d4382826137c6565b611d50600183015f6137e8565b505060405160ff8216907fdb9bcd47830726db0b83034aa4bc1b92414a20b1790a2f63434fe60bd243d9e0905f90a250565b61161582338360405180602001604052805f815250612f2b565b5f818152600260205260408120805465ffffffffffff16158015611dce57508054600160301b900465ffffffffffff16155b8015611de857508054600160601b900465ffffffffffff16155b8015611e0257508054600160901b900465ffffffffffff16155b15611e0f57505f92915050565b8054600160c01b900465ffffffffffff1615611e2e5750600892915050565b8054600160601b900465ffffffffffff1615611e4d5750600792915050565b8054600160901b900465ffffffffffff1615611e6c5750600292915050565b8054600160301b900465ffffffffffff1615611e8b5750600692915050565b60018101545f90611eb19063ffffffff600160401b8204169065ffffffffffff16614888565b65ffffffffffff169050438110611ecc575060039392505050565b611ed5846130b0565b1580611ee75750611ee584613153565b155b15611ef6575060049392505050565b5060059392505050565b611f08612c72565b6001600160a01b0381165f9081526005602052604090205460ff1615611f41576040516334d52f6b60e01b815260040160405180910390fd5b61161582826001612c92565b611f55612b89565b604080515f80825260208201909252611f7091839190610f32565b50565b611f7b612c72565b81515f03611f9c576040516333a0807f60e21b815260040160405180910390fd5b60ff82511115611fbf576040516350cc0e8d60e01b815260040160405180910390fd5b60ff81511115611fe25760405163d315c6bd60e01b815260040160405180910390fd5b5f838152600460205260409020600201611ffc8382614608565b505f8381526004602052604090206003016120178282614608565b50827f4c6d3d4a776b1458bbd518e75903a3f27a0c6f4597b10882784aa64769d56c7183604051612048919061391e565b60405180910390a2505050565b61209684338585858080601f0160208091040260200160405190810160405280939291908181526020018383808284375f92019190915250612f2b92505050565b50505050565b600a81815481106120ab575f80fd5b905f5260205f2090600202015f915090508060010180546120cb9061451e565b80601f01602080910402602001604051908101604052809291908181526020018280546120f79061451e565b80156121425780601f1061211957610100808354040283529160200191612142565b820191905f5260205f20905b81548152906001019060200180831161212557829003601f168201915b5050505050905081565b60408051610100810182525f80825260208201819052918101829052606081018290526080810182905260a0810182905260c0810182905260e08101919091525061ffff9081165f908152600360209081526040918290208251610100810184526001820154815260029091015463ffffffff808216938301939093526401000000008104831693820193909352600160401b83049091166060820152600160601b820483166080820152600160701b820490921660a083015260ff600160801b8204811660c0840152600160881b9091041660e082015290565b5f6060805f5f5f60606122386131d1565b612240613202565b604080515f80825260208201909252600f60f81b9b939a50919850469750309650945092509050565b612271612b89565b6116158282612bba565b61ffff82165f90815260036020819052604082209081015483106122b25760405163472e61bd60e01b815260040160405180910390fd5b8060030183815481106122c7576122c7614556565b905f5260205f20015491505092915050565b61ffff81165f90815260036020526040812060010154816122fa8583612590565b905065ffffffffffff811615158061231257505f1982145b95945050505050565b600a5460609060ff8316106123435760405163472e61bd60e01b815260040160405180910390fd5b600a8260ff168154811061235957612359614556565b5f9182526020918290206002909102018054604080518285028101850190915281815292830182828015610e5257602002820191905f5260205f20905f905b82829054906101000a900461ffff1661ffff1681526020019060020190602082600101049283019260010382029150808411612398575094979650505050505050565b6123e3612c72565b60076116158282614608565b6123f7612c72565b600a80546001810182555f919091528151805183926002027fc65a7bb8d6351c1cf70c95a316cc6a92839c986682d98bc35f958f4883f9d2a801916124419183916020019061381f565b50602082015160018201906124569082614608565b5050815160208301516040517fb56a1edd5f36655e5ec0dfaaee335db8dce67084b7e03de2f6771824f68d356593506124909291906149b7565b60405180910390a150565b6124a3612c72565b61ffff81165f90815260036020526040812054600160d01b900460ff16151590036124e157604051632e53afcd60e01b815260040160405180910390fd5b61ffff81165f8181526003602052604080822080547fffffffffff00ffffffffffffffffffffffffffffffffffffffffffffffffffff169055517ffb1d94dcf467f70febf412166aaa551737afd946ba6a4b4eac970aaf28a7e74f9190a250565b5f61254b612c72565b50600954600160a01b900461ffff16612564818361322f565b60098054600161ffff600160a01b808404821692909201160261ffff60a01b199091161790555b919050565b5f8181526004602090815260408083206001600160a01b0386168452918290528220548083036125c4575f925050506115fc565b816001016001826125d591906149db565b815481106125e5576125e5614556565b5f91825260209091200154600160a01b900465ffffffffffff1695945050505050565b5f818152600260205260409020600401805460609190610ddb9061451e565b60078054610e6b9061451e565b600b545f9060ff1661265957604051630889b5b960e31b815260040160405180910390fd5b604051630b704dbd60e11b815273__$b8401669eb6e3c34470049924d5a7c9ef9$__906316e09b7a9061269690899089908990899060040161482f565b602060405180830381865af41580156126b1573d5f5f3e3d5ffd5b505050506040513d601f19601f820116820180604052508101906126d5919061485d565b61ffff87165f908152600360205260409020805491925090600160d01b900460ff1661271457604051632e53afcd60e01b815260040160405180910390fd5b7f000000000000000000000000000000000000000000000000000000000000000085111561275557604051631c3bc5e360e31b815260040160405180910390fd5b61275e33610d9f565b1561277c576040516334d52f6b60e01b815260040160405180910390fd5b61278533611796565b6127a257604051637079d1b960e11b815260040160405180910390fd5b5f8281526002602052604090208054600160301b900465ffffffffffff161515806127dc57508054600160601b900465ffffffffffff1615155b156127fa5760405163fc0e49ff60e01b815260040160405180910390fd5b8054600160901b900465ffffffffffff161561282957604051632ec3fe1560e11b815260040160405180910390fd5b8154604051633881b32960e01b815273__$b8401669eb6e3c34470049924d5a7c9ef9$__91633881b3299161287b918c918c918c9130918d91600160a01b90910465ffffffffffff16906004016149ee565b5f6040518083038186803b158015612891575f5ffd5b505af41580156128a3573d5f5f3e3d5ffd5b505050506001810154600160301b900461ffff165f036128d7576003820180546001810182555f9182526020909120018390555b600281018054336001600160a01b031990911617905580546bffffffffffff0000000000001916600160301b4365ffffffffffff16810291909117825560018201805467ffff000000000000191661ffff8b16909202919091179055600481016129428789836148a6565b50600681016129518582614608565b506003810185905581546040516326a8b78760e11b81525f916001600160a01b031690634d516f0e906129909033908d908d908d908d90600401614a3a565b6020604051808303815f875af11580156129ac573d5f5f3e3d5ffd5b505050506040513d601f19601f820116820180604052508101906129d09190614a78565b9050806129f05760405163382654b960e21b815260040160405180910390fd5b61ffff8916336001600160a01b03167f98e1e52af9c2155b4c2b4844cdccf64c85cb13dd804231d177ef6fea4325d4058a8a8a8a604051612a349493929190614a93565b60405180910390a350505095945050505050565b612a50612c72565b6001600160a01b038116612a7757604051636e7e8feb60e11b815260040160405180910390fd5b600880546001600160a01b0319166001600160a01b0392909216919091179055565b5f818152600260205260409020600601805460609190610ddb9061451e565b612ac0612b89565b600b5460ff1615612ae4576040516315ea064b60e31b815260040160405180910390fd5b600954600160a01b900461ffff165f5b8251811015612b65575f6001600160a01b0316838281518110612b1957612b19614556565b6020026020010151602001516001600160a01b031614612b5d57612b5682848381518110612b4957612b49614556565b602002602001015161322f565b8160010191505b600101612af4565b506009805461ffff909216600160a01b0261ffff60a01b1990921691909117905550565b612b93335f612590565b65ffffffffffff165f03610f3857604051630eaa87a560e21b815260040160405180910390fd5b336001600160a01b03831614612be157612bd55f335f612c92565b612be15f836001612c92565b805115612c61575f5b8151811015612c5f57600a828281518110612c0757612c07614556565b60209081029190910181015182546001810184555f9384529282902081518051929460020290910192612c3f9284929091019061381f565b5060208201516001820190612c549082614608565b505050600101612bea565b505b5050600b805460ff19166001179055565b333014610f385760405163e890ccbf60e01b815260040160405180910390fd5b5f198303612cb35760405163a1dd2b9360e01b815260040160405180910390fd5b6001600160a01b038216612cda576040516329f62b5d60e11b815260040160405180910390fd5b306001600160a01b03831603612d035760405163ca208ab960e01b815260040160405180910390fd5b5f8381526004602090815260408083206001600160a01b03861684529182905290912054801515838015612d35575080155b15612db6576040805180820182526001600160a01b0380881680835265ffffffffffff43811660208086019182526001808b01805491820181555f81815283812098519890920180549451909516600160a01b026001600160d01b031990941697909616969096179190911790915591549083529086905291902055612ee9565b83158015612dc15750805b15612ee9576001838101545f91612dd7916149db565b90505f846001018281548110612def57612def614556565b5f918252602091829020604080518082019091529101546001600160a01b0381168252600160a01b900465ffffffffffff1691810191909152905080600186810190612e3b90876149db565b81548110612e4b57612e4b614556565b5f918252602091829020835191018054939092015165ffffffffffff16600160a01b026001600160d01b03199093166001600160a01b039091161791909117905560018501805480612e9f57612e9f614abe565b5f828152602080822083015f1990810180546001600160d01b031916905590920190925591516001600160a01b039081168252918690526040808220869055918816815290812055505b831515856001600160a01b0316877f294507a8f5830b538faef39fbdd28f1164f27c8338a32fc7b47ddf82e4c8d9e460405160405180910390a4505050505050565b5f848152600260205260409020805465ffffffffffff161580612f5d57508054600160601b900465ffffffffffff1615155b80612f7757508054600160901b900465ffffffffffff1615155b80612f9157508054600160301b900465ffffffffffff1615155b80612fc7575060018101544390612fbd9063ffffffff600160401b8204169065ffffffffffff16614888565b65ffffffffffff16105b15612fe5576040516322024acd60e21b815260040160405180910390fd5b6001810154600160301b900461ffff16612fff85826122d9565b61301c57604051637079d1b960e11b815260040160405180910390fd5b6001600160a01b0385165f90815260078301602052604090205460ff16156130575760405163c9e3c8d960e01b815260040160405180910390fd5b6130628686866134e0565b8360ff1686866001600160a01b03167f5be2678cab71c7d94235767eb1df3c57673f19e805cdc0edbd2e74854ae9f0f9866040516130a0919061391e565b60405180910390a4505050505050565b5f818152600260205260408120600181015482906130d890600160301b900461ffff1661214c565b80515f9081526004602052604090206001015460c08201519192509060ff161580612312575060018301546064906131269063ffffffff600160a01b8204811691600160801b900416614ad2565b63ffffffff166131369190614aee565b60c08301516131489060ff1683614aee565b111595945050505050565b5f8181526002602052604081206001810154829061317b90600160301b900461ffff1661214c565b80515f9081526004602052604090206001015460c08201519192509060ff161580612312575060018301546131bf90606490600160801b900463ffffffff16614aee565b60e08301516131489060ff1683614aee565b60606131fd7f00000000000000000000000000000000000000000000000000000000000000005f6135ca565b905090565b60606131fd7f000000000000000000000000000000000000000000000000000000000000000060016135ca565b613244816020015163e81bd2dd60e01b613673565b613276576020810151604051631f09f19160e21b81526001600160a01b03909116600482015260240160405180910390fd5b61329b81602001516001600160a01b03165f9081526005602052604090205460ff1690565b156132b9576040516334d52f6b60e01b815260040160405180910390fd5b6060810151515f191480156132d857505f816060015160c0015160ff16115b156132f657604051632e562fc560e01b815260040160405180910390fd5b61ffff8083165f908152600360209081526040918290208054858301516001600160a01b03167fffffffffff00ffffffffffff00000000000000000000000000000000000000009091168117600160d01b17825560608087015180516001850155938401516002840180548688015193870151608088015160a089015160c08a015160e0909a015160ff908116600160881b0271ff0000000000000000000000000000000000199b909116600160801b0270ff0000000000000000000000000000000019928e16600160701b029290921670ffffff00000000000000000000000000001993909d16600160601b026dffff0000000000000000000000001963ffffffff958616600160401b02166dffffffffffff0000000000000000199986166401000000000267ffffffffffffffff199097169590981694909417949094179690961694909417179290921697909717919091179390931692909217909355835184830151925163b1f50f8960e01b8152919263b1f50f89926134809288929091600401614b05565b5f604051808303815f87803b158015613497575f5ffd5b505af11580156134a9573d5f5f3e3d5ffd5b505060405161ffff861692507f284812f41d73696d76ff026c35ebc1a8e8bf24544551c55dd0877334dca88a5691505f90a2505050565b5f8381526002602090815260408083206001600160a01b038616845260078101909252909120805460ff1916600117905560ff821661355c57600181018054600160601b900463ffffffff1690600c61353883614b4e565b91906101000a81548163ffffffff021916908363ffffffff16021790555050612096565b5f1960ff83160161358657600181018054600160801b900463ffffffff1690601061353883614b4e565b60011960ff8316016135b157600181018054600160a01b900463ffffffff1690601461353883614b4e565b6040516333397b4360e11b815260040160405180910390fd5b606060ff83146135e4576135dd83613695565b90506115fc565b8180546135f09061451e565b80601f016020809104026020016040519081016040528092919081815260200182805461361c9061451e565b80156136675780601f1061363e57610100808354040283529160200191613667565b820191905f5260205f20905b81548152906001019060200180831161364a57829003601f168201915b505050505090506115fc565b5f61367d836136d2565b801561368e575061368e8383613704565b9392505050565b60605f6136a18361379f565b6040805160208082528183019092529192505f91906020820181803683375050509182525060208101929092525090565b5f6136e4826301ffc9a760e01b613704565b80156115fc57506136fd826001600160e01b0319613704565b1592915050565b6040516001600160e01b0319821660248201525f90819060440160408051601f19818403018152919052602080820180517bffffffffffffffffffffffffffffffffffffffffffffffffffffffff166301ffc9a760e01b17815282519293505f9283928392909183918a617530fa92503d91505f519050828015613789575060208210155b801561379457505f81115b979650505050505050565b5f60ff8216601f8111156115fc57604051632cd44ac360e21b815260040160405180910390fd5b5080545f8255600f0160109004905f5260205f2090810190611f7091906138c5565b5080546137f49061451e565b5f825580601f10613803575050565b601f0160209004905f5260205f2090810190611f7091906138c5565b828054828255905f5260205f2090600f016010900481019282156138b5579160200282015f5b8382111561388557835183826101000a81548161ffff021916908361ffff1602179055509260200192600201602081600101049283019260010302613845565b80156138b35782816101000a81549061ffff0219169055600201602081600101049283019260010302613885565b505b506138c19291506138c5565b5090565b5b808211156138c1575f81556001016138c6565b5f602082840312156138e9575f5ffd5b5035919050565b5f81518084528060208401602086015e5f602082860101526020601f19601f83011685010191505092915050565b602081525f61368e60208301846138f0565b803561ffff8116811461258b575f5ffd5b5f60208284031215613951575f5ffd5b61368e82613930565b5f5f83601f84011261396a575f5ffd5b50813567ffffffffffffffff811115613981575f5ffd5b6020830191508360208260051b850101111561399b575f5ffd5b9250929050565b5f5f5f5f5f5f5f5f60a0898b0312156139b9575f5ffd5b6139c289613930565b975060208901359650604089013567ffffffffffffffff8111156139e4575f5ffd5b6139f08b828c0161395a565b909750955050606089013567ffffffffffffffff811115613a0f575f5ffd5b613a1b8b828c0161395a565b909550935050608089013567ffffffffffffffff811115613a3a575f5ffd5b613a468b828c0161395a565b999c989b5096995094979396929594505050565b5f5f83601f840112613a6a575f5ffd5b50813567ffffffffffffffff811115613a81575f5ffd5b60208301915083602082850101111561399b575f5ffd5b5f5f5f5f60608587031215613aab575f5ffd5b613ab485613930565b9350602085013567ffffffffffffffff811115613acf575f5ffd5b613adb87828801613a5a565b9598909750949560400135949350505050565b5f5f60408385031215613aff575f5ffd5b50508035926020909101359150565b6001600160a01b0381168114611f70575f5ffd5b5f5f60408385031215613b33575f5ffd5b823591506020830135613b4581613b0e565b809150509250929050565b5f60208284031215613b60575f5ffd5b813561368e81613b0e565b634e487b7160e01b5f52604160045260245ffd5b6040805190810167ffffffffffffffff81118282101715613ba257613ba2613b6b565b60405290565b604051610100810167ffffffffffffffff81118282101715613ba257613ba2613b6b565b6040516080810167ffffffffffffffff81118282101715613ba257613ba2613b6b565b604051601f8201601f1916810167ffffffffffffffff81118282101715613c1857613c18613b6b565b604052919050565b5f5f67ffffffffffffffff841115613c3a57613c3a613b6b565b50601f8301601f1916602001613c4f81613bef565b915050828152838383011115613c63575f5ffd5b828260208301375f602084830101529392505050565b5f82601f830112613c88575f5ffd5b61368e83833560208501613c20565b5f5f5f5f5f60808688031215613cab575f5ffd5b613cb486613930565b9450602086013567ffffffffffffffff811115613ccf575f5ffd5b613cdb88828901613a5a565b90955093505060408601359150606086013567ffffffffffffffff811115613d01575f5ffd5b613d0d88828901613c79565b9150509295509295909350565b803560ff8116811461258b575f5ffd5b5f60208284031215613d3a575f5ffd5b61368e82613d1a565b5f5f5f60608486031215613d55575f5ffd5b613d5e84613d1a565b9250613d6c60208501613d1a565b9150613d7a60408501613930565b90509250925092565b8015158114611f70575f5ffd5b5f5f60408385031215613da1575f5ffd5b8235613dac81613b0e565b91506020830135613b4581613d83565b5f5f60408385031215613dcd575f5ffd5b82359150613ddd60208401613d1a565b90509250929050565b6020810160098310613e0657634e487b7160e01b5f52602160045260245ffd5b91905290565b5f5f5f60608486031215613e1e575f5ffd5b83359250602084013567ffffffffffffffff811115613e3b575f5ffd5b613e4786828701613c79565b925050604084013567ffffffffffffffff811115613e63575f5ffd5b613e6f86828701613c79565b9150509250925092565b5f5f5f5f60608587031215613e8c575f5ffd5b84359350613e9c60208601613d1a565b9250604085013567ffffffffffffffff811115613eb7575f5ffd5b613ec387828801613a5a565b95989497509550505050565b5f610100820190508251825263ffffffff602084015116602083015263ffffffff604084015116604083015263ffffffff60608401511660608301526080830151613f20608084018261ffff169052565b5060a0830151613f3660a084018261ffff169052565b5060c0830151613f4b60c084018260ff169052565b5060e0830151613f6060e084018260ff169052565b5092915050565b60ff60f81b8816815260e060208201525f613f8560e08301896138f0565b8281036040840152613f9781896138f0565b606084018890526001600160a01b038716608085015260a0840186905283810360c0850152845180825260208087019350909101905f5b81811015613fec578351835260209384019390920191600101613fce565b50909b9a5050505050505050505050565b5f67ffffffffffffffff82111561401657614016613b6b565b5060051b60200190565b5f60408284031215614030575f5ffd5b614038613b7f565b9050813567ffffffffffffffff811115614050575f5ffd5b8201601f81018413614060575f5ffd5b803561407361406e82613ffd565b613bef565b8082825260208201915060208360051b850101925086831115614094575f5ffd5b6020840193505b828410156140bd576140ac84613930565b82526020938401939091019061409b565b8452505050602082013567ffffffffffffffff8111156140db575f5ffd5b6140e784828501613c79565b60208301525092915050565b5f5f60408385031215614104575f5ffd5b823561410f81613b0e565b9150602083013567ffffffffffffffff81111561412a575f5ffd5b8301601f8101851361413a575f5ffd5b803561414861406e82613ffd565b8082825260208201915060208360051b850101925087831115614169575f5ffd5b602084015b838110156141aa57803567ffffffffffffffff81111561418c575f5ffd5b61419b8a602083890101614020565b8452506020928301920161416e565b50809450505050509250929050565b5f5f604083850312156141ca575f5ffd5b6141d383613930565b946020939093013593505050565b5f5f604083850312156141f2575f5ffd5b82356141fd81613b0e565b9150613ddd60208401613930565b5f8151808452602084019350602083015f5b8281101561423f57815161ffff1686526020958601959091019060010161421d565b5093949350505050565b602081525f61368e602083018461420b565b5f6020828403121561426b575f5ffd5b813567ffffffffffffffff811115614281575f5ffd5b61428d84828501613c79565b949350505050565b5f602082840312156142a5575f5ffd5b813567ffffffffffffffff8111156142bb575f5ffd5b61428d84828501614020565b803563ffffffff8116811461258b575f5ffd5b5f61010082840312156142eb575f5ffd5b6142f3613ba8565b823581529050614305602083016142c7565b6020820152614316604083016142c7565b6040820152614327606083016142c7565b606082015261433860808301613930565b608082015261434960a08301613930565b60a082015261435a60c08301613d1a565b60c082015261436b60e08301613d1a565b60e082015292915050565b5f6101608284031215614387575f5ffd5b61438f613bcc565b9050813567ffffffffffffffff8111156143a7575f5ffd5b6143b384828501613c79565b82525060208201356143c481613b0e565b6020820152604082013567ffffffffffffffff8111156143e2575f5ffd5b8201601f810184136143f2575f5ffd5b61440184823560208401613c20565b60408301525061441483606084016142da565b606082015292915050565b5f6020828403121561442f575f5ffd5b813567ffffffffffffffff811115614445575f5ffd5b61428d84828501614376565b5f5f60408385031215614462575f5ffd5b82356141d381613b0e565b5f6020828403121561447d575f5ffd5b813567ffffffffffffffff811115614493575f5ffd5b8201601f810184136144a3575f5ffd5b80356144b161406e82613ffd565b8082825260208201915060208360051b8501019250868311156144d2575f5ffd5b602084015b8381101561451357803567ffffffffffffffff8111156144f5575f5ffd5b61450489602083890101614376565b845250602092830192016144d7565b509695505050505050565b600181811c9082168061453257607f821691505b60208210810361455057634e487b7160e01b5f52602260045260245ffd5b50919050565b634e487b7160e01b5f52603260045260245ffd5b5f5f8335601e1984360301811261457f575f5ffd5b83018035915067ffffffffffffffff821115614599575f5ffd5b60200191503681900382131561399b575f5ffd5b818382375f9101908152919050565b601f82111561460357805f5260205f20601f840160051c810160208510156145e15750805b601f840160051c820191505b81811015614600575f81556001016145ed565b50505b505050565b815167ffffffffffffffff81111561462257614622613b6b565b61463681614630845461451e565b846145bc565b6020601f821160018114614668575f83156146515750848201515b5f19600385901b1c1916600184901b178455614600565b5f84815260208120601f198516915b828110156146975787850151825560209485019460019092019101614677565b50848210156146b457868401515f19600387901b60f8161c191681555b50505050600190811b01905550565b81835281816020850137505f828201602090810191909152601f909101601f19169091010190565b5f8383855260208501945060208460051b820101835f5b8681101561477457838303601f19018852813536879003601e19018112614727575f5ffd5b860160208101903567ffffffffffffffff811115614743575f5ffd5b803603821315614751575f5ffd5b61475c8582846146c3565b60209a8b019a90955093909301925050600101614702565b50909695505050505050565b606080825281018690525f8760808301825b898110156147c25782356147a581613b0e565b6001600160a01b0316825260209283019290910190600101614792565b5083810360208501528681527f07ffffffffffffffffffffffffffffffffffffffffffffffffffffffffffffff8711156147fa575f5ffd5b8660051b915081886020830137018281036020908101604085015261482290820185876146eb565b9998505050505050505050565b61ffff85168152606060208201525f61484c6060830185876146c3565b905082604083015295945050505050565b5f6020828403121561486d575f5ffd5b5051919050565b634e487b7160e01b5f52601160045260245ffd5b65ffffffffffff81811683821601908111156115fc576115fc614874565b67ffffffffffffffff8311156148be576148be613b6b565b6148d2836148cc835461451e565b836145bc565b5f601f841160018114614903575f85156148ec5750838201355b5f19600387901b1c1916600186901b178355614600565b5f83815260208120601f198716915b828110156149325786850135825560209485019460019092019101614912565b508682101561494e575f1960f88860031b161c19848701351681555b505060018560011b0183555050505050565b808201808211156115fc576115fc614874565b60c081525f60c082015260e060208201525f61499360e08301888a6146c3565b86604084015285606084015284608084015282810360a084015261482281856138f0565b604081525f6149c9604083018561420b565b828103602084015261231281856138f0565b818103818111156115fc576115fc614874565b61ffff8716815260a060208201525f614a0b60a0830187896146c3565b6001600160a01b0395909516604083015250606081019290925265ffffffffffff166080909101529392505050565b6001600160a01b038616815261ffff85166020820152608060408201525f614a666080830185876146c3565b90508260608301529695505050505050565b5f60208284031215614a88575f5ffd5b815161368e81613d83565b606081525f614aa66060830186886146c3565b846020840152828103604084015261379481856138f0565b634e487b7160e01b5f52603160045260245ffd5b63ffffffff81811683821601908111156115fc576115fc614874565b80820281158282048414176115fc576115fc614874565b61ffff84168152608060208201525f614b2160808301856138f0565b8281038060408501525f825260208101606085015250614b4460208201856138f0565b9695505050505050565b5f63ffffffff821663ffffffff8103614b6957614b69614874565b6001019291505056fea264697066735822122039add42fa575da8e5ae7c9a49ee45c7a2e0498981b1cd201433600b0b1edf68f64736f6c634300081e0033","linkReferences":{"src/libraries/Checks.sol":{"Checks":[{"start":7532,"length":20},{"start":8619,"length":20},{"start":12235,"length":20},{"start":12701,"length":20}]}}},"methodIdentifiers":{"ADMIN_ROLE()":"75b238fc","DENOMINATOR()":"918f8674","FOUNDED_AT()":"5532f99b","MAX_CALLDATA_LENGTH()":"edf2a596","MAX_EXECUTIONS_LENGTH()":"f6226e7c","MAX_RETURN_DATA_LENGTH()":"7c1b5539","PUBLIC_ROLE()":"3ca7c02a","addFlow((uint16[],string))":"a3751098","adoptMandate((string,address,bytes,(uint256,uint32,uint32,uint32,uint16,uint16,uint8,uint8)))":"b4497115","assignRole(uint256,address)":"685b824a","blacklistAddress(address,bool)":"455a4396","canCallMandate(address,uint16)":"93d7dae5","cancel(uint16,bytes,uint256)":"12561b1a","castVote(uint256,uint8)":"56781388","castVoteWithReason(uint256,uint8,string)":"7b3c71d3","closeConstitute()":"0d7abeaa","closeConstitute(address)":"7258883f","closeConstitute(address,(uint16[],string)[])":"8973be04","constitute((string,address,bytes,(uint256,uint32,uint32,uint32,uint16,uint16,uint8,uint8))[])":"fc2d96d0","editFlowByIndex(uint8,uint8,uint16)":"3fc42d2e","eip712Domain()":"84b0196e","flows(uint256)":"8180d29e","fulfill(uint16,uint256,address[],uint256[],bytes[])":"0de6a601","getActionCalldata(uint256)":"d902bf3a","getActionData(uint256)":"4583476b","getActionReturnData(uint256,uint256)":"41bd157d","getActionState(uint256)":"666ca2d6","getActionUri(uint256)":"f2a0bb75","getActionVoteData(uint256)":"2179e04e","getAdoptedMandate(uint16)":"1031bdb0","getAmountFlows()":"23b1971b","getAmountRoleHolders(uint256)":"b4324dd3","getConditions(uint16)":"831af379","getFlowDescriptionAtIndex(uint8)":"36126216","getFlowMandatesAtIndex(uint8)":"9a0435d4","getLatestFulfillment(uint16)":"040b8c24","getMandateActionAtIndex(uint16,uint256)":"8a4359e0","getMandateCounter()":"055dbe10","getQuantityMandateActions(uint16)":"edfd2e87","getRoleHolderAtIndex(uint256,uint256)":"199093bb","getRoleLabel(uint256)":"0398f05f","getRoleMetadata(uint256)":"2d90fe5f","getTreasury()":"3b19e84a","hasRoleSince(address,uint256)":"cc5812cf","hasVoted(uint256,address)":"43859632","isBlacklisted(address)":"fe575a87","labelRole(uint256,string,string)":"76ff7577","mandateCounter()":"e88efe35","name()":"06fdde03","paymaster()":"16e4cbf9","propose(uint16,bytes,uint256,string)":"2e2d8253","removeFlow(uint8)":"519fcfb0","request(uint16,bytes,uint256,string)":"ebef6d97","revokeMandate(uint16)":"b367cac0","revokeRole(uint256,address)":"1d0b19e7","setPaymaster(address)":"2a97fa77","setTreasury(address)":"f0f44260","setUri(string)":"9b642de1","uri()":"eac989f8","version()":"54fd4d50"},"id":100}