{"abi":[{"type":"constructor","inputs":[{"name":"name_","type":"string","internalType":"string"},{"name":"uri_","type":"string","internalType":"string"},{"name":"maxCallDataLength_","type":"uint256","internalType":"uint256"},{"name":"maxReturnDataLength_","type":"uint256","internalType":"uint256"},{"name":"maxExecutionsLength_","type":"uint256","internalType":"uint256"}],"stateMutability":"payable"},{"type":"receive","stateMutability":"payable"},{"type":"function","name":"ADMIN_ROLE","inputs":[],"outputs":[{"name":"","type":"uint256","internalType":"uint256"}],"stateMutability":"view"},{"type":"function","name":"DENOMINATOR","inputs":[],"outputs":[{"name":"","type":"uint256","internalType":"uint256"}],"stateMutability":"view"},{"type":"function","name":"MAX_CALLDATA_LENGTH","inputs":[],"outputs":[{"name":"","type":"uint256","internalType":"uint256"}],"stateMutability":"view"},{"type":"function","name":"MAX_EXECUTIONS_LENGTH","inputs":[],"outputs":[{"name":"","type":"uint256","internalType":"uint256"}],"stateMutability":"view"},{"type":"function","name":"MAX_RETURN_DATA_LENGTH","inputs":[],"outputs":[{"name":"","type":"uint256","internalType":"uint256"}],"stateMutability":"view"},{"type":"function","name":"PUBLIC_ROLE","inputs":[],"outputs":[{"name":"","type":"uint256","internalType":"uint256"}],"stateMutability":"view"},{"type":"function","name":"adoptMandate","inputs":[{"name":"mandateInitData","type":"tuple","internalType":"struct PowersTypes.MandateInitData","components":[{"name":"nameDescription","type":"string","internalType":"string"},{"name":"targetMandate","type":"address","internalType":"address"},{"name":"config","type":"bytes","internalType":"bytes"},{"name":"conditions","type":"tuple","internalType":"struct PowersTypes.Conditions","components":[{"name":"allowedRole","type":"uint256","internalType":"uint256"},{"name":"votingPeriod","type":"uint32","internalType":"uint32"},{"name":"timelock","type":"uint32","internalType":"uint32"},{"name":"throttleExecution","type":"uint32","internalType":"uint32"},{"name":"needFulfilled","type":"uint16","internalType":"uint16"},{"name":"needNotFulfilled","type":"uint16","internalType":"uint16"},{"name":"quorum","type":"uint8","internalType":"uint8"},{"name":"succeedAt","type":"uint8","internalType":"uint8"}]}]}],"outputs":[{"name":"mandateId","type":"uint16","internalType":"uint16"}],"stateMutability":"nonpayable"},{"type":"function","name":"assignRole","inputs":[{"name":"roleId","type":"uint256","internalType":"uint256"},{"name":"account","type":"address","internalType":"address"}],"outputs":[],"stateMutability":"nonpayable"},{"type":"function","name":"blacklistAddress","inputs":[{"name":"account","type":"address","internalType":"address"},{"name":"blacklisted","type":"bool","internalType":"bool"}],"outputs":[],"stateMutability":"nonpayable"},{"type":"function","name":"canCallMandate","inputs":[{"name":"caller","type":"address","internalType":"address"},{"name":"mandateId","type":"uint16","internalType":"uint16"}],"outputs":[{"name":"","type":"bool","internalType":"bool"}],"stateMutability":"view"},{"type":"function","name":"cancel","inputs":[{"name":"mandateId","type":"uint16","internalType":"uint16"},{"name":"mandateCalldata","type":"bytes","internalType":"bytes"},{"name":"nonce","type":"uint256","internalType":"uint256"}],"outputs":[{"name":"","type":"uint256","internalType":"uint256"}],"stateMutability":"nonpayable"},{"type":"function","name":"castVote","inputs":[{"name":"actionId","type":"uint256","internalType":"uint256"},{"name":"support","type":"uint8","internalType":"uint8"}],"outputs":[],"stateMutability":"nonpayable"},{"type":"function","name":"castVoteWithReason","inputs":[{"name":"actionId","type":"uint256","internalType":"uint256"},{"name":"support","type":"uint8","internalType":"uint8"},{"name":"reason","type":"string","internalType":"string"}],"outputs":[],"stateMutability":"nonpayable"},{"type":"function","name":"closeConstitute","inputs":[],"outputs":[],"stateMutability":"nonpayable"},{"type":"function","name":"closeConstitute","inputs":[{"name":"newAdmin","type":"address","internalType":"address"}],"outputs":[],"stateMutability":"nonpayable"},{"type":"function","name":"constitute","inputs":[{"name":"constituentMandates","type":"tuple[]","internalType":"struct PowersTypes.MandateInitData[]","components":[{"name":"nameDescription","type":"string","internalType":"string"},{"name":"targetMandate","type":"address","internalType":"address"},{"name":"config","type":"bytes","internalType":"bytes"},{"name":"conditions","type":"tuple","internalType":"struct PowersTypes.Conditions","components":[{"name":"allowedRole","type":"uint256","internalType":"uint256"},{"name":"votingPeriod","type":"uint32","internalType":"uint32"},{"name":"timelock","type":"uint32","internalType":"uint32"},{"name":"throttleExecution","type":"uint32","internalType":"uint32"},{"name":"needFulfilled","type":"uint16","internalType":"uint16"},{"name":"needNotFulfilled","type":"uint16","internalType":"uint16"},{"name":"quorum","type":"uint8","internalType":"uint8"},{"name":"succeedAt","type":"uint8","internalType":"uint8"}]}]}],"outputs":[],"stateMutability":"nonpayable"},{"type":"function","name":"eip712Domain","inputs":[],"outputs":[{"name":"fields","type":"bytes1","internalType":"bytes1"},{"name":"name","type":"string","internalType":"string"},{"name":"version","type":"string","internalType":"string"},{"name":"chainId","type":"uint256","internalType":"uint256"},{"name":"verifyingContract","type":"address","internalType":"address"},{"name":"salt","type":"bytes32","internalType":"bytes32"},{"name":"extensions","type":"uint256[]","internalType":"uint256[]"}],"stateMutability":"view"},{"type":"function","name":"fulfill","inputs":[{"name":"mandateId","type":"uint16","internalType":"uint16"},{"name":"actionId","type":"uint256","internalType":"uint256"},{"name":"targets","type":"address[]","internalType":"address[]"},{"name":"values","type":"uint256[]","internalType":"uint256[]"},{"name":"calldatas","type":"bytes[]","internalType":"bytes[]"}],"outputs":[],"stateMutability":"nonpayable"},{"type":"function","name":"getActionCalldata","inputs":[{"name":"actionId","type":"uint256","internalType":"uint256"}],"outputs":[{"name":"callData","type":"bytes","internalType":"bytes"}],"stateMutability":"view"},{"type":"function","name":"getActionData","inputs":[{"name":"actionId","type":"uint256","internalType":"uint256"}],"outputs":[{"name":"mandateId","type":"uint16","internalType":"uint16"},{"name":"proposedAt","type":"uint48","internalType":"uint48"},{"name":"requestedAt","type":"uint48","internalType":"uint48"},{"name":"fulfilledAt","type":"uint48","internalType":"uint48"},{"name":"cancelledAt","type":"uint48","internalType":"uint48"},{"name":"caller","type":"address","internalType":"address"},{"name":"nonce","type":"uint256","internalType":"uint256"}],"stateMutability":"view"},{"type":"function","name":"getActionReturnData","inputs":[{"name":"actionId","type":"uint256","internalType":"uint256"},{"name":"index","type":"uint256","internalType":"uint256"}],"outputs":[{"name":"returnData","type":"bytes","internalType":"bytes"}],"stateMutability":"view"},{"type":"function","name":"getActionState","inputs":[{"name":"actionId","type":"uint256","internalType":"uint256"}],"outputs":[{"name":"","type":"uint8","internalType":"enum PowersTypes.ActionState"}],"stateMutability":"view"},{"type":"function","name":"getActionUri","inputs":[{"name":"actionId","type":"uint256","internalType":"uint256"}],"outputs":[{"name":"_uri","type":"string","internalType":"string"}],"stateMutability":"view"},{"type":"function","name":"getActionVoteData","inputs":[{"name":"actionId","type":"uint256","internalType":"uint256"}],"outputs":[{"name":"voteStart","type":"uint48","internalType":"uint48"},{"name":"voteDuration","type":"uint32","internalType":"uint32"},{"name":"voteEnd","type":"uint256","internalType":"uint256"},{"name":"againstVotes","type":"uint32","internalType":"uint32"},{"name":"forVotes","type":"uint32","internalType":"uint32"},{"name":"abstainVotes","type":"uint32","internalType":"uint32"}],"stateMutability":"view"},{"type":"function","name":"getAdoptedMandate","inputs":[{"name":"mandateId","type":"uint16","internalType":"uint16"}],"outputs":[{"name":"mandate","type":"address","internalType":"address"},{"name":"mandateHash","type":"bytes32","internalType":"bytes32"},{"name":"active","type":"bool","internalType":"bool"}],"stateMutability":"view"},{"type":"function","name":"getAmountRoleHolders","inputs":[{"name":"roleId","type":"uint256","internalType":"uint256"}],"outputs":[{"name":"amountMembers","type":"uint256","internalType":"uint256"}],"stateMutability":"view"},{"type":"function","name":"getConditions","inputs":[{"name":"mandateId","type":"uint16","internalType":"uint16"}],"outputs":[{"name":"conditions","type":"tuple","internalType":"struct PowersTypes.Conditions","components":[{"name":"allowedRole","type":"uint256","internalType":"uint256"},{"name":"votingPeriod","type":"uint32","internalType":"uint32"},{"name":"timelock","type":"uint32","internalType":"uint32"},{"name":"throttleExecution","type":"uint32","internalType":"uint32"},{"name":"needFulfilled","type":"uint16","internalType":"uint16"},{"name":"needNotFulfilled","type":"uint16","internalType":"uint16"},{"name":"quorum","type":"uint8","internalType":"uint8"},{"name":"succeedAt","type":"uint8","internalType":"uint8"}]}],"stateMutability":"view"},{"type":"function","name":"getLatestFulfillment","inputs":[{"name":"mandateId","type":"uint16","internalType":"uint16"}],"outputs":[{"name":"latestFulfillment","type":"uint48","internalType":"uint48"}],"stateMutability":"view"},{"type":"function","name":"getMandateActionAtIndex","inputs":[{"name":"mandateId","type":"uint16","internalType":"uint16"},{"name":"index","type":"uint256","internalType":"uint256"}],"outputs":[{"name":"actionId","type":"uint256","internalType":"uint256"}],"stateMutability":"view"},{"type":"function","name":"getMandateCounter","inputs":[],"outputs":[{"name":"","type":"uint16","internalType":"uint16"}],"stateMutability":"view"},{"type":"function","name":"getQuantityMandateActions","inputs":[{"name":"mandateId","type":"uint16","internalType":"uint16"}],"outputs":[{"name":"quantityMandateActions","type":"uint256","internalType":"uint256"}],"stateMutability":"view"},{"type":"function","name":"getRoleHolderAtIndex","inputs":[{"name":"roleId","type":"uint256","internalType":"uint256"},{"name":"index","type":"uint256","internalType":"uint256"}],"outputs":[{"name":"account","type":"address","internalType":"address"}],"stateMutability":"view"},{"type":"function","name":"getRoleLabel","inputs":[{"name":"roleId","type":"uint256","internalType":"uint256"}],"outputs":[{"name":"label","type":"string","internalType":"string"}],"stateMutability":"view"},{"type":"function","name":"getRoleMetadata","inputs":[{"name":"roleId","type":"uint256","internalType":"uint256"}],"outputs":[{"name":"metadata","type":"string","internalType":"string"}],"stateMutability":"view"},{"type":"function","name":"getTreasury","inputs":[],"outputs":[{"name":"","type":"address","internalType":"address payable"}],"stateMutability":"view"},{"type":"function","name":"hasRoleSince","inputs":[{"name":"account","type":"address","internalType":"address"},{"name":"roleId","type":"uint256","internalType":"uint256"}],"outputs":[{"name":"since","type":"uint48","internalType":"uint48"}],"stateMutability":"view"},{"type":"function","name":"hasVoted","inputs":[{"name":"actionId","type":"uint256","internalType":"uint256"},{"name":"account","type":"address","internalType":"address"}],"outputs":[{"name":"","type":"bool","internalType":"bool"}],"stateMutability":"view"},{"type":"function","name":"isBlacklisted","inputs":[{"name":"account","type":"address","internalType":"address"}],"outputs":[{"name":"","type":"bool","internalType":"bool"}],"stateMutability":"view"},{"type":"function","name":"labelRole","inputs":[{"name":"roleId","type":"uint256","internalType":"uint256"},{"name":"label","type":"string","internalType":"string"},{"name":"metadata","type":"string","internalType":"string"}],"outputs":[],"stateMutability":"nonpayable"},{"type":"function","name":"mandateCounter","inputs":[],"outputs":[{"name":"","type":"uint16","internalType":"uint16"}],"stateMutability":"view"},{"type":"function","name":"name","inputs":[],"outputs":[{"name":"","type":"string","internalType":"string"}],"stateMutability":"view"},{"type":"function","name":"propose","inputs":[{"name":"mandateId","type":"uint16","internalType":"uint16"},{"name":"mandateCalldata","type":"bytes","internalType":"bytes"},{"name":"nonce","type":"uint256","internalType":"uint256"},{"name":"uriAction","type":"string","internalType":"string"}],"outputs":[{"name":"actionId","type":"uint256","internalType":"uint256"}],"stateMutability":"nonpayable"},{"type":"function","name":"request","inputs":[{"name":"mandateId","type":"uint16","internalType":"uint16"},{"name":"mandateCalldata","type":"bytes","internalType":"bytes"},{"name":"nonce","type":"uint256","internalType":"uint256"},{"name":"uriAction","type":"string","internalType":"string"}],"outputs":[{"name":"actionId","type":"uint256","internalType":"uint256"}],"stateMutability":"nonpayable"},{"type":"function","name":"revokeMandate","inputs":[{"name":"mandateId","type":"uint16","internalType":"uint16"}],"outputs":[],"stateMutability":"nonpayable"},{"type":"function","name":"revokeRole","inputs":[{"name":"roleId","type":"uint256","internalType":"uint256"},{"name":"account","type":"address","internalType":"address"}],"outputs":[],"stateMutability":"nonpayable"},{"type":"function","name":"setTreasury","inputs":[{"name":"newTreasury","type":"address","internalType":"address payable"}],"outputs":[],"stateMutability":"nonpayable"},{"type":"function","name":"setUri","inputs":[{"name":"newUri","type":"string","internalType":"string"}],"outputs":[],"stateMutability":"nonpayable"},{"type":"function","name":"uri","inputs":[],"outputs":[{"name":"","type":"string","internalType":"string"}],"stateMutability":"view"},{"type":"function","name":"version","inputs":[],"outputs":[{"name":"","type":"string","internalType":"string"}],"stateMutability":"pure"},{"type":"event","name":"ActionFulfilled","inputs":[{"name":"mandateId","type":"uint16","indexed":true,"internalType":"uint16"},{"name":"actionId","type":"uint256","indexed":true,"internalType":"uint256"},{"name":"targets","type":"address[]","indexed":false,"internalType":"address[]"},{"name":"values","type":"uint256[]","indexed":false,"internalType":"uint256[]"},{"name":"calldatas","type":"bytes[]","indexed":false,"internalType":"bytes[]"}],"anonymous":false},{"type":"event","name":"ActionRequested","inputs":[{"name":"caller","type":"address","indexed":true,"internalType":"address"},{"name":"mandateId","type":"uint16","indexed":true,"internalType":"uint16"},{"name":"mandateCalldata","type":"bytes","indexed":false,"internalType":"bytes"},{"name":"nonce","type":"uint256","indexed":false,"internalType":"uint256"},{"name":"description","type":"string","indexed":false,"internalType":"string"}],"anonymous":false},{"type":"event","name":"BlacklistSet","inputs":[{"name":"account","type":"address","indexed":true,"internalType":"address"},{"name":"blacklisted","type":"bool","indexed":true,"internalType":"bool"}],"anonymous":false},{"type":"event","name":"EIP712DomainChanged","inputs":[],"anonymous":false},{"type":"event","name":"FundsReceived","inputs":[{"name":"sender","type":"address","indexed":false,"internalType":"address"},{"name":"value","type":"uint256","indexed":false,"internalType":"uint256"}],"anonymous":false},{"type":"event","name":"MandateAdopted","inputs":[{"name":"mandateId","type":"uint16","indexed":true,"internalType":"uint16"}],"anonymous":false},{"type":"event","name":"MandateRevoked","inputs":[{"name":"mandateId","type":"uint16","indexed":true,"internalType":"uint16"}],"anonymous":false},{"type":"event","name":"Powers__Initialized","inputs":[{"name":"contractAddress","type":"address","indexed":false,"internalType":"address"},{"name":"name","type":"string","indexed":false,"internalType":"string"},{"name":"uri","type":"string","indexed":false,"internalType":"string"}],"anonymous":false},{"type":"event","name":"ProposedActionCancelled","inputs":[{"name":"actionId","type":"uint256","indexed":true,"internalType":"uint256"}],"anonymous":false},{"type":"event","name":"ProposedActionCreated","inputs":[{"name":"actionId","type":"uint256","indexed":true,"internalType":"uint256"},{"name":"caller","type":"address","indexed":true,"internalType":"address"},{"name":"mandateId","type":"uint16","indexed":true,"internalType":"uint16"},{"name":"signature","type":"string","indexed":false,"internalType":"string"},{"name":"executeCalldata","type":"bytes","indexed":false,"internalType":"bytes"},{"name":"voteStart","type":"uint256","indexed":false,"internalType":"uint256"},{"name":"voteEnd","type":"uint256","indexed":false,"internalType":"uint256"},{"name":"nonce","type":"uint256","indexed":false,"internalType":"uint256"},{"name":"description","type":"string","indexed":false,"internalType":"string"}],"anonymous":false},{"type":"event","name":"RoleLabel","inputs":[{"name":"roleId","type":"uint256","indexed":true,"internalType":"uint256"},{"name":"label","type":"string","indexed":false,"internalType":"string"}],"anonymous":false},{"type":"event","name":"RoleSet","inputs":[{"name":"roleId","type":"uint256","indexed":true,"internalType":"uint256"},{"name":"account","type":"address","indexed":true,"internalType":"address"},{"name":"access","type":"bool","indexed":true,"internalType":"bool"}],"anonymous":false},{"type":"event","name":"VoteCast","inputs":[{"name":"account","type":"address","indexed":true,"internalType":"address"},{"name":"actionId","type":"uint256","indexed":true,"internalType":"uint256"},{"name":"support","type":"uint8","indexed":true,"internalType":"uint8"},{"name":"reason","type":"string","indexed":false,"internalType":"string"}],"anonymous":false},{"type":"error","name":"InvalidShortString","inputs":[]},{"type":"error","name":"Powers__ActionAlreadyFulfilled","inputs":[]},{"type":"error","name":"Powers__ActionAlreadyInitiated","inputs":[]},{"type":"error","name":"Powers__ActionCancelled","inputs":[]},{"type":"error","name":"Powers__ActionNotProposed","inputs":[]},{"type":"error","name":"Powers__ActionNotRequested","inputs":[]},{"type":"error","name":"Powers__AddressBlacklisted","inputs":[]},{"type":"error","name":"Powers__AlreadyCastVote","inputs":[]},{"type":"error","name":"Powers__CalldataTooLong","inputs":[]},{"type":"error","name":"Powers__CallerNotTargetMandate","inputs":[]},{"type":"error","name":"Powers__CannotAddZeroAddress","inputs":[]},{"type":"error","name":"Powers__CannotCallMandate","inputs":[]},{"type":"error","name":"Powers__CannotSetPublicRole","inputs":[]},{"type":"error","name":"Powers__CannotSetZeroAddress","inputs":[]},{"type":"error","name":"Powers__ConstituteClosed","inputs":[]},{"type":"error","name":"Powers__ConstituteOpen","inputs":[]},{"type":"error","name":"Powers__ConstitutionAlreadyExecuted","inputs":[]},{"type":"error","name":"Powers__ExecutionArrayTooLong","inputs":[]},{"type":"error","name":"Powers__ExternalContractBlacklisted","inputs":[]},{"type":"error","name":"Powers__IncorrectInterface","inputs":[{"name":"targetMandate","type":"address","internalType":"address"}]},{"type":"error","name":"Powers__InvalidAddress","inputs":[]},{"type":"error","name":"Powers__InvalidCallData","inputs":[]},{"type":"error","name":"Powers__InvalidIndex","inputs":[]},{"type":"error","name":"Powers__InvalidLabel","inputs":[]},{"type":"error","name":"Powers__InvalidMaxCallDataLength","inputs":[]},{"type":"error","name":"Powers__InvalidMaxExecutionsLength","inputs":[]},{"type":"error","name":"Powers__InvalidName","inputs":[]},{"type":"error","name":"Powers__InvalidReturnCallDataLength","inputs":[]},{"type":"error","name":"Powers__InvalidVoteType","inputs":[]},{"type":"error","name":"Powers__LabelTooLong","inputs":[]},{"type":"error","name":"Powers__LockedRole","inputs":[]},{"type":"error","name":"Powers__MandateFulfillCallFailed","inputs":[]},{"type":"error","name":"Powers__MandateNotActive","inputs":[]},{"type":"error","name":"Powers__MandateRequestFailed","inputs":[]},{"type":"error","name":"Powers__NoMembersInRole","inputs":[]},{"type":"error","name":"Powers__NoVoteNeeded","inputs":[]},{"type":"error","name":"Powers__NotAContract","inputs":[]},{"type":"error","name":"Powers__NotProposerAction","inputs":[]},{"type":"error","name":"Powers__OnlyAdmin","inputs":[]},{"type":"error","name":"Powers__OnlyPowers","inputs":[]},{"type":"error","name":"Powers__PayableNotEnabled","inputs":[]},{"type":"error","name":"Powers__ProposedActionNotActive","inputs":[]},{"type":"error","name":"Powers__UnexpectedActionState","inputs":[]},{"type":"error","name":"Powers__UriTooLong","inputs":[]},{"type":"error","name":"Powers__VoteWithPublicRoleDisallowed","inputs":[]},{"type":"error","name":"StringTooLong","inputs":[{"name":"str","type":"string","internalType":"string"}]}],"bytecode":{"object":"0x6101c060408190526008805461ffff60a01b1916600160a01b17905561482d388190039081908339810160408190526100379161058c565b84610058604080518082019091526003815262302e3560e81b602082015290565b610062825f610207565b61012052610071816001610207565b61014052815160208084019190912060e052815190820120610100524660a0526100fd60e05161010051604080517f8b73c3c69bb8fe3d512ecc4cf759cc79239f7b179b0ffacaa9a75d522b39400f60208201529081019290925260608201524660808201523060a08201525f9060c00160405160208183030381529060405280519060200120905090565b60805250503060c05284515f0361012757604051634acb0e6d60e01b815260040160405180910390fd5b825f0361014757604051631c58c0e160e01b815260040160405180910390fd5b815f036101675760405163a19bdd3b60e01b815260040160405180910390fd5b805f0361018757604051638a2b742f60e01b815260040160405180910390fd5b6101935f336001610239565b600661019f868261068e565b5060076101ac858261068e565b506101608390526101808290526101a08190526040517f8e09415123fab1f9e22246686c8d24ad9f84c70288cd5fa338213bccd3c5fb76906101f59030906006906007906107c7565b60405180910390a150505050506108a5565b5f6020835110156102225761021b836104a9565b9050610233565b8161022d848261068e565b5060ff90505b92915050565b5f19830361025a5760405163a1dd2b9360e01b815260040160405180910390fd5b6001600160a01b038216610281576040516329f62b5d60e11b815260040160405180910390fd5b5f8381526004602090815260408083206001600160a01b038616845291829052909120548015158380156102b3575080155b15610334576040805180820182526001600160a01b0380881680835265ffffffffffff43811660208086019182526001808b01805491820181555f81815283812098519890920180549451909516600160a01b026001600160d01b031990941697909616969096179190911790915591549083529086905291902055610467565b8315801561033f5750805b15610467576001838101545f9161035591610806565b90505f84600101828154811061036d5761036d610825565b5f918252602091829020604080518082019091529101546001600160a01b0381168252600160a01b900465ffffffffffff16918101919091529050806001868101906103b99087610806565b815481106103c9576103c9610825565b5f918252602091829020835191018054939092015165ffffffffffff16600160a01b026001600160d01b03199093166001600160a01b03909116179190911790556001850180548061041d5761041d610839565b5f828152602080822083015f1990810180546001600160d01b031916905590920190925591516001600160a01b039081168252918690526040808220869055918816815290812055505b831515856001600160a01b0316877f294507a8f5830b538faef39fbdd28f1164f27c8338a32fc7b47ddf82e4c8d9e460405160405180910390a4505050505050565b5f5f829050601f815111156104dc578260405163305a27a960e01b81526004016104d3919061084d565b60405180910390fd5b80516104e782610882565b179392505050565b634e487b7160e01b5f52604160045260245ffd5b5f82601f830112610512575f5ffd5b81516001600160401b0381111561052b5761052b6104ef565b604051601f8201601f19908116603f011681016001600160401b0381118282101715610559576105596104ef565b604052818152838201602001851015610570575f5ffd5b8160208501602083015e5f918101602001919091529392505050565b5f5f5f5f5f60a086880312156105a0575f5ffd5b85516001600160401b038111156105b5575f5ffd5b6105c188828901610503565b602088015190965090506001600160401b038111156105de575f5ffd5b6105ea88828901610503565b60408801516060890151608090990151979a919950979695509350505050565b600181811c9082168061061e57607f821691505b60208210810361063c57634e487b7160e01b5f52602260045260245ffd5b50919050565b601f82111561068957805f5260205f20601f840160051c810160208510156106675750805b601f840160051c820191505b81811015610686575f8155600101610673565b50505b505050565b81516001600160401b038111156106a7576106a76104ef565b6106bb816106b5845461060a565b84610642565b6020601f8211600181146106ed575f83156106d65750848201515b5f19600385901b1c1916600184901b178455610686565b5f84815260208120601f198516915b8281101561071c57878501518255602094850194600190920191016106fc565b508482101561073957868401515f19600387901b60f8161c191681555b50505050600190811b01905550565b5f81546107548161060a565b80855260018216801561076e576001811461078a576107be565b60ff1983166020870152602082151560051b87010193506107be565b845f5260205f205f5b838110156107b55781546020828a010152600182019150602081019050610793565b87016020019450505b50505092915050565b6001600160a01b03841681526060602082018190525f906107ea90830185610748565b82810360408401526107fc8185610748565b9695505050505050565b8181038181111561023357634e487b7160e01b5f52601160045260245ffd5b634e487b7160e01b5f52603260045260245ffd5b634e487b7160e01b5f52603160045260245ffd5b602081525f82518060208401528060208501604085015e5f604082850101526040601f19601f83011684010191505092915050565b8051602080830151919081101561063c575f1960209190910360031b1b16919050565b60805160a05160c05160e05161010051610120516101405161016051610180516101a051613f056109285f395f8181610b5b0152610e2f01525f81816108c2015261104001525f8181610ab701528181610ea3015281816114d30152611fbf01525f612a4e01525f612a1d01525f50505f50505f50505f50505f5050613f055ff3fe608060405260043610610311575f3560e01c806375b238fc1161019c578063b4497115116100e7578063edf2a59611610092578063f2a0bb751161006d578063f2a0bb7514610b2b578063f6226e7c14610b4a578063fc2d96d014610b7d578063fe575a8714610b9c575f5ffd5b8063edf2a59614610aa6578063edfd2e8714610ad9578063f0f4426014610b0c575f5ffd5b8063e88efe35116100c2578063e88efe3514610a52578063eac989f814610a73578063ebef6d9714610a87575f5ffd5b8063b4497115146109f5578063cc5812cf14610a14578063d902bf3a14610a33575f5ffd5b80638a4359e0116101475780639b642de1116101225780639b642de114610989578063b367cac0146109a8578063b4324dd3146109c7575f5ffd5b80638a4359e014610937578063918f86741461095657806393d7dae51461096a575f5ffd5b80637c1b5539116101775780637c1b5539146108b1578063831af379146108e457806384b0196e14610910575f5ffd5b806375b238fc1461086057806376ff7577146108735780637b3c71d314610892575f5ffd5b80632e2d82531161025c5780634583476b11610207578063666ca2d6116101e2578063666ca2d6146107f6578063685b824a146108225780637258883f14610841575f5ffd5b80634583476b146106de57806354fd4d50146107ac57806356781388146107d7575f5ffd5b806341bd157d1161023757806341bd157d146106485780634385963214610667578063455a4396146106bf575f5ffd5b80632e2d8253146105f85780633b19e84a146106175780633ca7c02a14610634575f5ffd5b80631031bdb0116102bc5780631d0b19e7116102975780631d0b19e71461055b5780632179e04e1461057a5780632d90fe5f146105d9575f5ffd5b80631031bdb01461045f57806312561b1a146104f7578063199093bb14610524575f5ffd5b806306fdde03116102ec57806306fdde03146104165780630d7abeaa1461042a5780630de6a60114610440575f5ffd5b80630398f05f1461035e578063040b8c2414610393578063055dbe10146103e8575f5ffd5b3661035a577f8e47b87b0ef542cdfa1659c551d88bad38aa7f452d2bbb349ab7530dfec8be8f33604080516001600160a01b0390921682523460208301520160405180910390a1005b5f5ffd5b348015610369575f5ffd5b5061037d610378366004613021565b610bd3565b60405161038a9190613066565b60405180910390f35b34801561039e575f5ffd5b506103d16103ad366004613089565b61ffff165f90815260036020526040902054600160a01b900465ffffffffffff1690565b60405165ffffffffffff909116815260200161038a565b3480156103f3575f5ffd5b50600854600160a01b900461ffff165b60405161ffff909116815260200161038a565b348015610421575f5ffd5b5061037d610c75565b348015610435575f5ffd5b5061043e610d01565b005b34801561044b575f5ffd5b5061043e61045a3660046130ea565b610d14565b34801561046a575f5ffd5b506104d0610479366004613089565b61ffff165f81815260036020908152604091829020548251308184015280840194909452825180850384018152606090940190925282519201919091206001600160a01b038216929091600160d01b900460ff1690565b604080516001600160a01b039094168452602084019290925215159082015260600161038a565b348015610502575f5ffd5b506105166105113660046131e0565b61111b565b60405190815260200161038a565b34801561052f575f5ffd5b5061054361053e366004613236565b6112fc565b6040516001600160a01b03909116815260200161038a565b348015610566575f5ffd5b5061043e61057536600461326a565b611360565b348015610585575f5ffd5b50610599610594366004613021565b611377565b6040805165ffffffffffff909716875263ffffffff95861660208801528601939093529083166060850152821660808401521660a082015260c00161038a565b3480156105e4575f5ffd5b5061037d6105f3366004613021565b6113fc565b348015610603575f5ffd5b506105166106123660046133a1565b61141b565b348015610622575f5ffd5b506008546001600160a01b0316610543565b34801561063f575f5ffd5b506105165f1981565b348015610653575f5ffd5b5061037d610662366004613236565b611750565b348015610672575f5ffd5b506106af61068136600461326a565b5f8281526002602090815260408083206001600160a01b038516845260070190915290205460ff1692915050565b604051901515815260200161038a565b3480156106ca575f5ffd5b5061043e6106d9366004613431565b61180d565b3480156106e9575f5ffd5b506107596106f8366004613021565b5f908152600260208190526040909120805491810154600390910154600160f01b830461ffff169365ffffffffffff80851694600160301b8104821694600160601b8204831694600160901b909204909216926001600160a01b0390921691565b6040805161ffff909816885265ffffffffffff96871660208901529486169487019490945291841660608601529290921660808401526001600160a01b0390911660a083015260c082015260e00161038a565b3480156107b7575f5ffd5b50604080518082019091526003815262302e3560e81b602082015261037d565b3480156107e2575f5ffd5b5061043e6107f136600461346d565b611868565b348015610801575f5ffd5b50610815610810366004613021565b611882565b60405161038a9190613497565b34801561082d575f5ffd5b5061043e61083c36600461326a565b6119cb565b34801561084c575f5ffd5b5061043e61085b3660046134bd565b611a18565b34801561086b575f5ffd5b506105165f81565b34801561087e575f5ffd5b5061043e61088d3660046134d8565b611a2c565b34801561089d575f5ffd5b5061043e6108ac366004613545565b611b0e565b3480156108bc575f5ffd5b506105167f000000000000000000000000000000000000000000000000000000000000000081565b3480156108ef575f5ffd5b506109036108fe366004613089565b611b55565b60405161038a919061359b565b34801561091b575f5ffd5b50610924611c30565b60405161038a9796959493929190613633565b348015610942575f5ffd5b506105166109513660046136c9565b611c72565b348015610961575f5ffd5b50610516606481565b348015610975575f5ffd5b506106af6109843660046136f1565b611cd0565b348015610994575f5ffd5b5061043e6109a336600461371b565b611d12565b3480156109b3575f5ffd5b5061043e6109c2366004613089565b611d26565b3480156109d2575f5ffd5b506105166109e1366004613021565b5f9081526004602052604090206001015490565b348015610a00575f5ffd5b50610403610a0f3660046138ad565b611dcd565b348015610a1f575f5ffd5b506103d1610a2e3660046138df565b611e32565b348015610a3e575f5ffd5b5061037d610a4d366004613021565b611eaa565b348015610a5d575f5ffd5b5060085461040390600160a01b900461ffff1681565b348015610a7e575f5ffd5b5061037d611ec9565b348015610a92575f5ffd5b50610516610aa13660046133a1565b611ed6565b348015610ab1575f5ffd5b506105167f000000000000000000000000000000000000000000000000000000000000000081565b348015610ae4575f5ffd5b50610516610af3366004613089565b61ffff165f908152600360208190526040909120015490565b348015610b17575f5ffd5b5061043e610b263660046134bd565b61230a565b348015610b36575f5ffd5b5061037d610b45366004613021565b61235b565b348015610b55575f5ffd5b506105167f000000000000000000000000000000000000000000000000000000000000000081565b348015610b88575f5ffd5b5061043e610b973660046138fb565b61237a565b348015610ba7575f5ffd5b506106af610bb63660046134bd565b6001600160a01b03165f9081526005602052604090205460ff1690565b5f818152600460205260409020600201805460609190610bf2906139bc565b80601f0160208091040260200160405190810160405280929190818152602001828054610c1e906139bc565b8015610c695780601f10610c4057610100808354040283529160200191610c69565b820191905f5260205f20905b815481529060010190602001808311610c4c57829003601f168201915b50505050509050919050565b60068054610c82906139bc565b80601f0160208091040260200160405190810160405280929190818152602001828054610cae906139bc565b8015610cf95780601f10610cd057610100808354040283529160200191610cf9565b820191905f5260205f20905b815481529060010190602001808311610cdc57829003601f168201915b505050505081565b610d09612452565b610d123361248d565b565b61ffff88165f9081526003602052604090208054600160d01b900460ff16610d4f57604051632e53afcd60e01b815260040160405180910390fd5b80546001600160a01b03163314610d7957604051635574892960e11b815260040160405180910390fd5b5f8881526002602052604090208054600160301b900465ffffffffffff161580610db257508054600160901b900465ffffffffffff1615155b15610dd0576040516301dd1d1560e71b815260040160405180910390fd5b8054600160601b900465ffffffffffff1615610dff5760405163a517239560e01b815260040160405180910390fd5b868581141580610e0f5750808414155b15610e2d5760405163dbf15fa560e01b815260040160405180910390fd5b7f0000000000000000000000000000000000000000000000000000000000000000811115610e6e5760405163d0b6a17960e01b815260040160405180910390fd5b815471ffffffffffff0000000000000000000000001916600160601b4365ffffffffffff16021782555f5b818110156110d7577f0000000000000000000000000000000000000000000000000000000000000000868683818110610ed457610ed46139f4565b9050602002810190610ee69190613a08565b90501115610f0757604051631c3bc5e360e31b815260040160405180910390fd5b610f318a8a83818110610f1c57610f1c6139f4565b9050602002016020810190610bb691906134bd565b15610f4f576040516334d52f6b60e01b815260040160405180910390fd5b5f5f8b8b84818110610f6357610f636139f4565b9050602002016020810190610f7891906134bd565b6001600160a01b03168a8a85818110610f9357610f936139f4565b90506020020135898986818110610fac57610fac6139f4565b9050602002810190610fbe9190613a08565b604051610fcc929190613a4b565b5f6040518083038185875af1925050503d805f8114611006576040519150601f19603f3d011682016040523d82523d5f602084013e61100b565b606091505b50915091508161103e578051156110255780518082602001fd5b604051631d8fb90d60e21b815260040160405180910390fd5b7f000000000000000000000000000000000000000000000000000000000000000081511161108c576005850180546001810182555f9182526020909120016110868282613aa6565b506110cd565b604080515f602082015260058701910160408051601f1981840301815291905281546001810183555f9283526020909220909101906110cb9082613aa6565b505b5050600101610e99565b505081547fffffffffffff000000000000ffffffffffffffffffffffffffffffffffffffff16600160a01b4365ffffffffffff160217909155505050505050505050565b61ffff84165f9081526003602052604081208054600160d01b900460ff1661115657604051632e53afcd60e01b815260040160405180910390fd5b604051630b704dbd60e11b81525f9073__$b8401669eb6e3c34470049924d5a7c9ef9$__906316e09b7a90611195908a908a908a908a90600401613b89565b602060405180830381865af41580156111b0573d5f5f3e3d5ffd5b505050506040513d601f19601f820116820180604052508101906111d49190613bb7565b5f81815260026020819052604090912090810154919250906001600160a01b0316336001600160a01b03161461121d57604051637365858560e01b815260040160405180910390fd5b805465ffffffffffff165f036112465760405163f661f4bf60e01b815260040160405180910390fd5b8054600160601b900465ffffffffffff1615158061127357508054600160901b900465ffffffffffff1615155b156112915760405163b831530960e01b815260040160405180910390fd5b80547fffffffffffffffff000000000000ffffffffffffffffffffffffffffffffffff16600160901b4365ffffffffffff160217815560405182907f8eb4cfeba12ece86fc1590773502e55423b37db556543430337376b30d27c42b905f90a2509695505050505050565b5f8281526004602052604081206001810154831061132d5760405163472e61bd60e01b815260040160405180910390fd5b806001018381548110611342576113426139f4565b5f918252602090912001546001600160a01b03169150505b92915050565b6113686124e5565b61137382825f612505565b5050565b5f81815260026020526040812080546001820154839283928392839283929091600160c01b90910465ffffffffffff169063ffffffff166113b88183613be2565b60019390930154919a90995065ffffffffffff909216975063ffffffff640100000000820481169750600160401b820481169650600160601b909104169350915050565b5f818152600460205260409020600301805460609190610bf2906139bc565b6008545f90600160b01b900460ff1661144757604051630889b5b960e31b815260040160405180910390fd5b61ffff86165f9081526003602052604090208054600160d01b900460ff1661148257604051632e53afcd60e01b815260040160405180910390fd5b61148d335b88611cd0565b6114aa57604051637079d1b960e11b815260040160405180910390fd5b6114b333610bb6565b156114d1576040516334d52f6b60e01b815260040160405180910390fd5b7f000000000000000000000000000000000000000000000000000000000000000085111561151257604051631c3bc5e360e31b815260040160405180910390fd5b6002810154604051630b704dbd60e11b815263ffffffff821691600160801b900460ff169073__$b8401669eb6e3c34470049924d5a7c9ef9$__906316e09b7a90611567908c908c908c908c90600401613b89565b602060405180830381865af4158015611582573d5f5f3e3d5ffd5b505050506040513d601f19601f820116820180604052508101906115a69190613bb7565b5f818152600260205260409020805491955090600160c01b900465ffffffffffff16156115e65760405163b831530960e01b815260040160405180910390fd5b8054600160f01b900461ffff165f03611613576003840180546001810182555f9182526020909120018590555b60048101611622898b83613c00565b50805461ffff8b16600160f01b027dffffffffffffffffffffffffffffffffffffffffffffffff00000000000090911665ffffffffffff43161717815560ff821661166d575f61166f565b435b815465ffffffffffff91909116600160c01b027fffff000000000000ffffffffffffffffffffffffffffffffffffffffffffffff90911617815560018101805463ffffffff851663ffffffff199091161790556002810180546001600160a01b03191633179055600681016116e48782613aa6565b506003810187905561ffff8a1633867fb5856a9700a7e851456d3a16348b4ae0fbb11b06ac0af8dbe8e8652c57cc4cbd8c8c4361172763ffffffff8b1682613cba565b8e8e60405161173b96959493929190613ccd565b60405180910390a45050505095945050505050565b5f82815260026020526040902060050180546060919083908110611776576117766139f4565b905f5260205f20018054611789906139bc565b80601f01602080910402602001604051908101604052809291908181526020018280546117b5906139bc565b80156118005780601f106117d757610100808354040283529160200191611800565b820191905f5260205f20905b8154815290600101906020018083116117e357829003601f168201915b5050505050905092915050565b6118156124e5565b6001600160a01b0382165f81815260056020526040808220805460ff191685151590811790915590519092917f921341769c2075d1ae425396063d5ab65ff5006c4bc0bd0821e50ce51fb6012391a35050565b61137382338360405180602001604052805f815250612775565b5f818152600260205260408120805465ffffffffffff161580156118b457508054600160301b900465ffffffffffff16155b80156118ce57508054600160601b900465ffffffffffff16155b80156118e857508054600160901b900465ffffffffffff16155b156118f557505f92915050565b8054600160601b900465ffffffffffff16156119145750600792915050565b8054600160901b900465ffffffffffff16156119335750600292915050565b8054600160301b900465ffffffffffff16156119525750600692915050565b600181015481545f9161197c9163ffffffff90911690600160c01b900465ffffffffffff16613be2565b65ffffffffffff169050438110611997575060039392505050565b6119a0846128fb565b15806119b257506119b08461299b565b155b156119c1575060049392505050565b5060059392505050565b6119d36124e5565b6001600160a01b0381165f9081526005602052604090205460ff1615611a0c576040516334d52f6b60e01b815260040160405180910390fd5b61137382826001612505565b611a20612452565b611a298161248d565b50565b611a346124e5565b81515f03611a55576040516333a0807f60e21b815260040160405180910390fd5b60ff82511115611a78576040516350cc0e8d60e01b815260040160405180910390fd5b60ff81511115611a9b5760405163d315c6bd60e01b815260040160405180910390fd5b5f838152600460205260409020600201611ab58382613aa6565b505f838152600460205260409020600301611ad08282613aa6565b50827f4c6d3d4a776b1458bbd518e75903a3f27a0c6f4597b10882784aa64769d56c7183604051611b019190613066565b60405180910390a2505050565b611b4f84338585858080601f0160208091040260200160405190810160405280939291908181526020018383808284375f9201919091525061277592505050565b50505050565b60408051610100810182525f80825260208201819052918101829052606081018290526080810182905260a0810182905260c0810182905260e08101919091525061ffff9081165f908152600360209081526040918290208251610100810184526001820154815260029091015463ffffffff808216938301939093526401000000008104831693820193909352600160401b83049091166060820152600160601b820483166080820152600160701b820490921660a083015260ff600160801b8204811660c0840152600160881b9091041660e082015290565b5f6060805f5f5f6060611c41612a16565b611c49612a47565b604080515f80825260208201909252600f60f81b9b939a50919850469750309650945092509050565b61ffff82165f9081526003602081905260408220908101548310611ca95760405163472e61bd60e01b815260040160405180910390fd5b806003018381548110611cbe57611cbe6139f4565b905f5260205f20015491505092915050565b61ffff81165f9081526003602052604081206001015481611cf18583611e32565b905065ffffffffffff8116151580611d0957505f1982145b95945050505050565b611d1a6124e5565b60076113738282613aa6565b611d2e6124e5565b61ffff81165f90815260036020526040812054600160d01b900460ff1615159003611d6c57604051632e53afcd60e01b815260040160405180910390fd5b61ffff81165f8181526003602052604080822080547fffffffffff00ffffffffffffffffffffffffffffffffffffffffffffffffffff169055517ffb1d94dcf467f70febf412166aaa551737afd946ba6a4b4eac970aaf28a7e74f9190a250565b5f611dd66124e5565b611ddf82612a74565b600854909150611dfc90600190600160a01b900461ffff16613d1e565b61ffff167f284812f41d73696d76ff026c35ebc1a8e8bf24544551c55dd0877334dca88a5660405160405180910390a25b919050565b5f8181526004602090815260408083206001600160a01b038616845291829052822054808303611e66575f9250505061135a565b81600101600182611e779190613d38565b81548110611e8757611e876139f4565b5f91825260209091200154600160a01b900465ffffffffffff1695945050505050565b5f818152600260205260409020600401805460609190610bf2906139bc565b60078054610c82906139bc565b6008545f90600160b01b900460ff16611f0257604051630889b5b960e31b815260040160405180910390fd5b604051630b704dbd60e11b815273__$b8401669eb6e3c34470049924d5a7c9ef9$__906316e09b7a90611f3f908990899089908990600401613b89565b602060405180830381865af4158015611f5a573d5f5f3e3d5ffd5b505050506040513d601f19601f82011682018060405250810190611f7e9190613bb7565b61ffff87165f908152600360205260409020805491925090600160d01b900460ff16611fbd57604051632e53afcd60e01b815260040160405180910390fd5b7f0000000000000000000000000000000000000000000000000000000000000000851115611ffe57604051631c3bc5e360e31b815260040160405180910390fd5b61200733610bb6565b15612025576040516334d52f6b60e01b815260040160405180910390fd5b61202e33611487565b61204b57604051637079d1b960e11b815260040160405180910390fd5b5f8281526002602052604090208054600160301b900465ffffffffffff1615158061208557508054600160601b900465ffffffffffff1615155b156120a35760405163fc0e49ff60e01b815260040160405180910390fd5b8054600160901b900465ffffffffffff16156120d257604051632ec3fe1560e11b815260040160405180910390fd5b8154604051633881b32960e01b815273__$b8401669eb6e3c34470049924d5a7c9ef9$__91633881b32991612124918c918c918c9130918d91600160a01b90910465ffffffffffff1690600401613d4b565b5f6040518083038186803b15801561213a575f5ffd5b505af415801561214c573d5f5f3e3d5ffd5b50508254600160f01b900461ffff165f03915061217f9050576003820180546001810182555f9182526020909120018390555b600281018054336001600160a01b031990911617905580547dffffffffffffffffffffffffffffffffffff000000000000ffffffffffff16600160301b4365ffffffffffff16027dffffffffffffffffffffffffffffffffffffffffffffffffffffffffffff1617600160f01b61ffff8a160217815560048101612204878983613c00565b50600681016122138582613aa6565b506003810185905581546040516326a8b78760e11b81525f916001600160a01b031690634d516f0e906122529033908d908d908d908d90600401613d97565b6020604051808303815f875af115801561226e573d5f5f3e3d5ffd5b505050506040513d601f19601f820116820180604052508101906122929190613dd5565b9050806122b25760405163382654b960e21b815260040160405180910390fd5b61ffff8916336001600160a01b03167f98e1e52af9c2155b4c2b4844cdccf64c85cb13dd804231d177ef6fea4325d4058a8a8a8a6040516122f69493929190613df0565b60405180910390a350505095945050505050565b6123126124e5565b6001600160a01b03811661233957604051636e7e8feb60e11b815260040160405180910390fd5b600880546001600160a01b0319166001600160a01b0392909216919091179055565b5f818152600260205260409020600601805460609190610bf2906139bc565b612382612452565b600854600160b01b900460ff16156123ad576040516315ea064b60e31b815260040160405180910390fd5b600854600160a01b900461ffff165f5b825181101561242e575f6001600160a01b03168382815181106123e2576123e26139f4565b6020026020010151602001516001600160a01b0316146124265761241f82848381518110612412576124126139f4565b6020026020010151612ab7565b8160010191505b6001016123bd565b506008805461ffff909216600160a01b0261ffff60a01b1990921691909117905550565b61245c5f5f6112fc565b6001600160a01b0316336001600160a01b031614610d1257604051630eaa87a560e21b815260040160405180910390fd5b336001600160a01b038216146124b4576124a85f335f612505565b6124b45f826001612505565b50600880547fffffffffffffffffff00ffffffffffffffffffffffffffffffffffffffffffff16600160b01b179055565b333014610d125760405163e890ccbf60e01b815260040160405180910390fd5b5f1983036125265760405163a1dd2b9360e01b815260040160405180910390fd5b6001600160a01b03821661254d576040516329f62b5d60e11b815260040160405180910390fd5b5f8381526004602090815260408083206001600160a01b0386168452918290529091205480151583801561257f575080155b15612600576040805180820182526001600160a01b0380881680835265ffffffffffff43811660208086019182526001808b01805491820181555f81815283812098519890920180549451909516600160a01b026001600160d01b031990941697909616969096179190911790915591549083529086905291902055612733565b8315801561260b5750805b15612733576001838101545f9161262191613d38565b90505f846001018281548110612639576126396139f4565b5f918252602091829020604080518082019091529101546001600160a01b0381168252600160a01b900465ffffffffffff16918101919091529050806001868101906126859087613d38565b81548110612695576126956139f4565b5f918252602091829020835191018054939092015165ffffffffffff16600160a01b026001600160d01b03199093166001600160a01b0390911617919091179055600185018054806126e9576126e9613e1b565b5f828152602080822083015f1990810180546001600160d01b031916905590920190925591516001600160a01b039081168252918690526040808220869055918816815290812055505b831515856001600160a01b0316877f294507a8f5830b538faef39fbdd28f1164f27c8338a32fc7b47ddf82e4c8d9e460405160405180910390a4505050505050565b5f848152600260205260409020805465ffffffffffff1615806127a757508054600160601b900465ffffffffffff1615155b806127c157508054600160901b900465ffffffffffff1615155b806127db57508054600160301b900465ffffffffffff1615155b80612815575060018101548154439161280b9163ffffffff90911690600160c01b900465ffffffffffff16613be2565b65ffffffffffff16105b15612833576040516322024acd60e21b815260040160405180910390fd5b8054600160f01b900461ffff1661284a8582611cd0565b61286757604051637079d1b960e11b815260040160405180910390fd5b6001600160a01b0385165f90815260078301602052604090205460ff16156128a25760405163c9e3c8d960e01b815260040160405180910390fd5b6128ad868686612d3a565b8360ff1686866001600160a01b03167f5be2678cab71c7d94235767eb1df3c57673f19e805cdc0edbd2e74854ae9f0f9866040516128eb9190613066565b60405180910390a4505050505050565b5f8181526002602052604081208054829061292090600160f01b900461ffff16611b55565b80515f9081526004602052604090206001015460c08201519192509060ff161580611d095750600183015460649061296e9063ffffffff600160601b8204811691600160401b900416613e2f565b63ffffffff1661297e9190613e4b565b60c08301516129909060ff1683613e4b565b111595945050505050565b5f818152600260205260408120805482906129c090600160f01b900461ffff16611b55565b80515f9081526004602052604090206001015460c08201519192509060ff161580611d0957506001830154612a0490606490600160401b900463ffffffff16613e4b565b60e08301516129909060ff1683613e4b565b6060612a427f00000000000000000000000000000000000000000000000000000000000000005f612e25565b905090565b6060612a427f00000000000000000000000000000000000000000000000000000000000000006001612e25565b600854600160a01b900461ffff16612a8c8183612ab7565b60088054600161ffff600160a01b808404821692909201160261ffff60a01b19909116179055919050565b612acc816020015163a988d3f560e01b612ece565b612afe576020810151604051631f09f19160e21b81526001600160a01b03909116600482015260240160405180910390fd5b612b2381602001516001600160a01b03165f9081526005602052604090205460ff1690565b15612b41576040516334d52f6b60e01b815260040160405180910390fd5b6060810151515f19148015612b6057505f816060015160c0015160ff16115b15612b7e57604051632e562fc560e01b815260040160405180910390fd5b61ffff8083165f908152600360209081526040918290208054858301516001600160a01b03167fffffffffff00ffffffffffff00000000000000000000000000000000000000009091168117600160d01b17825560608087015180516001850155938401516002840180548688015193870151608088015160a089015160c08a015160e0909a015160ff908116600160881b0271ff0000000000000000000000000000000000199b909116600160801b0270ff0000000000000000000000000000000019928e16600160701b029290921670ffffff00000000000000000000000000001993909d16600160601b026dffff0000000000000000000000001963ffffffff958616600160401b02166dffffffffffff0000000000000000199986166401000000000267ffffffffffffffff199097169590981694909417949094179690961694909417179290921697909717919091179390931692909217909355835184830151925163b1f50f8960e01b8152919263b1f50f8992612d089288929091600401613e62565b5f604051808303815f87803b158015612d1f575f5ffd5b505af1158015612d31573d5f5f3e3d5ffd5b50505050505050565b5f8381526002602090815260408083206001600160a01b038616845260078101909252909120805460ff1916600117905560ff8216612db757600181018054640100000000900463ffffffff16906004612d9383613eab565b91906101000a81548163ffffffff021916908363ffffffff16021790555050611b4f565b5f1960ff831601612de157600181018054600160401b900463ffffffff16906008612d9383613eab565b60011960ff831601612e0c57600181018054600160601b900463ffffffff1690600c612d9383613eab565b6040516333397b4360e11b815260040160405180910390fd5b606060ff8314612e3f57612e3883612ef0565b905061135a565b818054612e4b906139bc565b80601f0160208091040260200160405190810160405280929190818152602001828054612e77906139bc565b8015612ec25780601f10612e9957610100808354040283529160200191612ec2565b820191905f5260205f20905b815481529060010190602001808311612ea557829003601f168201915b5050505050905061135a565b5f612ed883612f2d565b8015612ee95750612ee98383612f5f565b9392505050565b60605f612efc83612ffa565b6040805160208082528183019092529192505f91906020820181803683375050509182525060208101929092525090565b5f612f3f826301ffc9a760e01b612f5f565b801561135a5750612f58826001600160e01b0319612f5f565b1592915050565b6040516001600160e01b0319821660248201525f90819060440160408051601f19818403018152919052602080820180517bffffffffffffffffffffffffffffffffffffffffffffffffffffffff166301ffc9a760e01b17815282519293505f9283928392909183918a617530fa92503d91505f519050828015612fe4575060208210155b8015612fef57505f81115b979650505050505050565b5f60ff8216601f81111561135a57604051632cd44ac360e21b815260040160405180910390fd5b5f60208284031215613031575f5ffd5b5035919050565b5f81518084528060208401602086015e5f602082860101526020601f19601f83011685010191505092915050565b602081525f612ee96020830184613038565b803561ffff81168114611e2d575f5ffd5b5f60208284031215613099575f5ffd5b612ee982613078565b5f5f83601f8401126130b2575f5ffd5b50813567ffffffffffffffff8111156130c9575f5ffd5b6020830191508360208260051b85010111156130e3575f5ffd5b9250929050565b5f5f5f5f5f5f5f5f60a0898b031215613101575f5ffd5b61310a89613078565b975060208901359650604089013567ffffffffffffffff81111561312c575f5ffd5b6131388b828c016130a2565b909750955050606089013567ffffffffffffffff811115613157575f5ffd5b6131638b828c016130a2565b909550935050608089013567ffffffffffffffff811115613182575f5ffd5b61318e8b828c016130a2565b999c989b5096995094979396929594505050565b5f5f83601f8401126131b2575f5ffd5b50813567ffffffffffffffff8111156131c9575f5ffd5b6020830191508360208285010111156130e3575f5ffd5b5f5f5f5f606085870312156131f3575f5ffd5b6131fc85613078565b9350602085013567ffffffffffffffff811115613217575f5ffd5b613223878288016131a2565b9598909750949560400135949350505050565b5f5f60408385031215613247575f5ffd5b50508035926020909101359150565b6001600160a01b0381168114611a29575f5ffd5b5f5f6040838503121561327b575f5ffd5b82359150602083013561328d81613256565b809150509250929050565b634e487b7160e01b5f52604160045260245ffd5b604051610100810167ffffffffffffffff811182821017156132d0576132d0613298565b60405290565b6040516080810167ffffffffffffffff811182821017156132d0576132d0613298565b604051601f8201601f1916810167ffffffffffffffff8111828210171561332257613322613298565b604052919050565b5f5f67ffffffffffffffff84111561334457613344613298565b50601f8301601f1916602001613359816132f9565b91505082815283838301111561336d575f5ffd5b828260208301375f602084830101529392505050565b5f82601f830112613392575f5ffd5b612ee98383356020850161332a565b5f5f5f5f5f608086880312156133b5575f5ffd5b6133be86613078565b9450602086013567ffffffffffffffff8111156133d9575f5ffd5b6133e5888289016131a2565b90955093505060408601359150606086013567ffffffffffffffff81111561340b575f5ffd5b61341788828901613383565b9150509295509295909350565b8015158114611a29575f5ffd5b5f5f60408385031215613442575f5ffd5b823561344d81613256565b9150602083013561328d81613424565b803560ff81168114611e2d575f5ffd5b5f5f6040838503121561347e575f5ffd5b8235915061348e6020840161345d565b90509250929050565b60208101600883106134b757634e487b7160e01b5f52602160045260245ffd5b91905290565b5f602082840312156134cd575f5ffd5b8135612ee981613256565b5f5f5f606084860312156134ea575f5ffd5b83359250602084013567ffffffffffffffff811115613507575f5ffd5b61351386828701613383565b925050604084013567ffffffffffffffff81111561352f575f5ffd5b61353b86828701613383565b9150509250925092565b5f5f5f5f60608587031215613558575f5ffd5b843593506135686020860161345d565b9250604085013567ffffffffffffffff811115613583575f5ffd5b61358f878288016131a2565b95989497509550505050565b5f610100820190508251825263ffffffff602084015116602083015263ffffffff604084015116604083015263ffffffff606084015116606083015260808301516135ec608084018261ffff169052565b5060a083015161360260a084018261ffff169052565b5060c083015161361760c084018260ff169052565b5060e083015161362c60e084018260ff169052565b5092915050565b60ff60f81b8816815260e060208201525f61365160e0830189613038565b82810360408401526136638189613038565b606084018890526001600160a01b038716608085015260a0840186905283810360c0850152845180825260208087019350909101905f5b818110156136b857835183526020938401939092019160010161369a565b50909b9a5050505050505050505050565b5f5f604083850312156136da575f5ffd5b6136e383613078565b946020939093013593505050565b5f5f60408385031215613702575f5ffd5b823561370d81613256565b915061348e60208401613078565b5f6020828403121561372b575f5ffd5b813567ffffffffffffffff811115613741575f5ffd5b61374d84828501613383565b949350505050565b803563ffffffff81168114611e2d575f5ffd5b5f6101008284031215613779575f5ffd5b6137816132ac565b82358152905061379360208301613755565b60208201526137a460408301613755565b60408201526137b560608301613755565b60608201526137c660808301613078565b60808201526137d760a08301613078565b60a08201526137e860c0830161345d565b60c08201526137f960e0830161345d565b60e082015292915050565b5f6101608284031215613815575f5ffd5b61381d6132d6565b9050813567ffffffffffffffff811115613835575f5ffd5b61384184828501613383565b825250602082013561385281613256565b6020820152604082013567ffffffffffffffff811115613870575f5ffd5b8201601f81018413613880575f5ffd5b61388f8482356020840161332a565b6040830152506138a28360608401613768565b606082015292915050565b5f602082840312156138bd575f5ffd5b813567ffffffffffffffff8111156138d3575f5ffd5b61374d84828501613804565b5f5f604083850312156138f0575f5ffd5b82356136e381613256565b5f6020828403121561390b575f5ffd5b813567ffffffffffffffff811115613921575f5ffd5b8201601f81018413613931575f5ffd5b803567ffffffffffffffff81111561394b5761394b613298565b8060051b61395b602082016132f9565b91825260208184018101929081019087841115613976575f5ffd5b6020850192505b83831015612fef57823567ffffffffffffffff81111561399b575f5ffd5b6139aa89602083890101613804565b8352506020928301929091019061397d565b600181811c908216806139d057607f821691505b6020821081036139ee57634e487b7160e01b5f52602260045260245ffd5b50919050565b634e487b7160e01b5f52603260045260245ffd5b5f5f8335601e19843603018112613a1d575f5ffd5b83018035915067ffffffffffffffff821115613a37575f5ffd5b6020019150368190038213156130e3575f5ffd5b818382375f9101908152919050565b601f821115613aa157805f5260205f20601f840160051c81016020851015613a7f5750805b601f840160051c820191505b81811015613a9e575f8155600101613a8b565b50505b505050565b815167ffffffffffffffff811115613ac057613ac0613298565b613ad481613ace84546139bc565b84613a5a565b6020601f821160018114613b06575f8315613aef5750848201515b5f19600385901b1c1916600184901b178455613a9e565b5f84815260208120601f198516915b82811015613b355787850151825560209485019460019092019101613b15565b5084821015613b5257868401515f19600387901b60f8161c191681555b50505050600190811b01905550565b81835281816020850137505f828201602090810191909152601f909101601f19169091010190565b61ffff85168152606060208201525f613ba6606083018587613b61565b905082604083015295945050505050565b5f60208284031215613bc7575f5ffd5b5051919050565b634e487b7160e01b5f52601160045260245ffd5b65ffffffffffff818116838216019081111561135a5761135a613bce565b67ffffffffffffffff831115613c1857613c18613298565b613c2c83613c2683546139bc565b83613a5a565b5f601f841160018114613c5d575f8515613c465750838201355b5f19600387901b1c1916600186901b178355613a9e565b5f83815260208120601f198716915b82811015613c8c5786850135825560209485019460019092019101613c6c565b5086821015613ca8575f1960f88860031b161c19848701351681555b505060018560011b0183555050505050565b8082018082111561135a5761135a613bce565b60c081525f60c082015260e060208201525f613ced60e08301888a613b61565b86604084015285606084015284608084015282810360a0840152613d118185613038565b9998505050505050505050565b61ffff828116828216039081111561135a5761135a613bce565b8181038181111561135a5761135a613bce565b61ffff8716815260a060208201525f613d6860a083018789613b61565b6001600160a01b0395909516604083015250606081019290925265ffffffffffff166080909101529392505050565b6001600160a01b038616815261ffff85166020820152608060408201525f613dc3608083018587613b61565b90508260608301529695505050505050565b5f60208284031215613de5575f5ffd5b8151612ee981613424565b606081525f613e03606083018688613b61565b8460208401528281036040840152612fef8185613038565b634e487b7160e01b5f52603160045260245ffd5b63ffffffff818116838216019081111561135a5761135a613bce565b808202811582820484141761135a5761135a613bce565b61ffff84168152608060208201525f613e7e6080830185613038565b8281038060408501525f825260208101606085015250613ea16020820185613038565b9695505050505050565b5f63ffffffff821663ffffffff8103613ec657613ec6613bce565b6001019291505056fea2646970667358221220ce2ee14d995272e39ad3b8b1698a452d3f5ea95addd33433a2199b56435b78bc64736f6c634300081e0033","linkReferences":{"src/libraries/Checks.sol":{"Checks":[{"start":6799,"length":20},{"start":7777,"length":20},{"start":10297,"length":20},{"start":10763,"length":20}]}}},"methodIdentifiers":{"ADMIN_ROLE()":"75b238fc","DENOMINATOR()":"918f8674","MAX_CALLDATA_LENGTH()":"edf2a596","MAX_EXECUTIONS_LENGTH()":"f6226e7c","MAX_RETURN_DATA_LENGTH()":"7c1b5539","PUBLIC_ROLE()":"3ca7c02a","adoptMandate((string,address,bytes,(uint256,uint32,uint32,uint32,uint16,uint16,uint8,uint8)))":"b4497115","assignRole(uint256,address)":"685b824a","blacklistAddress(address,bool)":"455a4396","canCallMandate(address,uint16)":"93d7dae5","cancel(uint16,bytes,uint256)":"12561b1a","castVote(uint256,uint8)":"56781388","castVoteWithReason(uint256,uint8,string)":"7b3c71d3","closeConstitute()":"0d7abeaa","closeConstitute(address)":"7258883f","constitute((string,address,bytes,(uint256,uint32,uint32,uint32,uint16,uint16,uint8,uint8))[])":"fc2d96d0","eip712Domain()":"84b0196e","fulfill(uint16,uint256,address[],uint256[],bytes[])":"0de6a601","getActionCalldata(uint256)":"d902bf3a","getActionData(uint256)":"4583476b","getActionReturnData(uint256,uint256)":"41bd157d","getActionState(uint256)":"666ca2d6","getActionUri(uint256)":"f2a0bb75","getActionVoteData(uint256)":"2179e04e","getAdoptedMandate(uint16)":"1031bdb0","getAmountRoleHolders(uint256)":"b4324dd3","getConditions(uint16)":"831af379","getLatestFulfillment(uint16)":"040b8c24","getMandateActionAtIndex(uint16,uint256)":"8a4359e0","getMandateCounter()":"055dbe10","getQuantityMandateActions(uint16)":"edfd2e87","getRoleHolderAtIndex(uint256,uint256)":"199093bb","getRoleLabel(uint256)":"0398f05f","getRoleMetadata(uint256)":"2d90fe5f","getTreasury()":"3b19e84a","hasRoleSince(address,uint256)":"cc5812cf","hasVoted(uint256,address)":"43859632","isBlacklisted(address)":"fe575a87","labelRole(uint256,string,string)":"76ff7577","mandateCounter()":"e88efe35","name()":"06fdde03","propose(uint16,bytes,uint256,string)":"2e2d8253","request(uint16,bytes,uint256,string)":"ebef6d97","revokeMandate(uint16)":"b367cac0","revokeRole(uint256,address)":"1d0b19e7","setTreasury(address)":"f0f44260","setUri(string)":"9b642de1","uri()":"eac989f8","version()":"54fd4d50"},"id":113}