{"abi":[{"type":"function","name":"executeMandate","inputs":[{"name":"caller","type":"address","internalType":"address"},{"name":"mandateId","type":"uint16","internalType":"uint16"},{"name":"mandateCalldata","type":"bytes","internalType":"bytes"},{"name":"nonce","type":"uint256","internalType":"uint256"}],"outputs":[{"name":"success","type":"bool","internalType":"bool"}],"stateMutability":"nonpayable"},{"type":"function","name":"getConfig","inputs":[{"name":"powers","type":"address","internalType":"address"},{"name":"mandateId","type":"uint16","internalType":"uint16"}],"outputs":[{"name":"config","type":"bytes","internalType":"bytes"}],"stateMutability":"view"},{"type":"function","name":"getInputParams","inputs":[{"name":"powers","type":"address","internalType":"address"},{"name":"mandateId","type":"uint16","internalType":"uint16"}],"outputs":[{"name":"inputParams","type":"bytes","internalType":"bytes"}],"stateMutability":"view"},{"type":"function","name":"getNameDescription","inputs":[{"name":"powers","type":"address","internalType":"address"},{"name":"mandateId","type":"uint16","internalType":"uint16"}],"outputs":[{"name":"nameDescription","type":"string","internalType":"string"}],"stateMutability":"view"},{"type":"function","name":"handleRequest","inputs":[{"name":"caller","type":"address","internalType":"address"},{"name":"powers","type":"address","internalType":"address"},{"name":"mandateId","type":"uint16","internalType":"uint16"},{"name":"","type":"bytes","internalType":"bytes"},{"name":"","type":"uint256","internalType":"uint256"}],"outputs":[{"name":"actionId","type":"uint256","internalType":"uint256"},{"name":"targets","type":"address[]","internalType":"address[]"},{"name":"values","type":"uint256[]","internalType":"uint256[]"},{"name":"calldatas","type":"bytes[]","internalType":"bytes[]"}],"stateMutability":"view"},{"type":"function","name":"initializeMandate","inputs":[{"name":"index","type":"uint16","internalType":"uint16"},{"name":"nameDescription","type":"string","internalType":"string"},{"name":"inputParams","type":"bytes","internalType":"bytes"},{"name":"config","type":"bytes","internalType":"bytes"}],"outputs":[],"stateMutability":"nonpayable"},{"type":"function","name":"mandates","inputs":[{"name":"mandateHash","type":"bytes32","internalType":"bytes32"}],"outputs":[{"name":"nameDescription","type":"string","internalType":"string"},{"name":"inputParams","type":"bytes","internalType":"bytes"},{"name":"config","type":"bytes","internalType":"bytes"},{"name":"powers","type":"address","internalType":"address"}],"stateMutability":"view"},{"type":"function","name":"supportsInterface","inputs":[{"name":"interfaceId","type":"bytes4","internalType":"bytes4"}],"outputs":[{"name":"","type":"bool","internalType":"bool"}],"stateMutability":"view"},{"type":"event","name":"Mandate__Deployed","inputs":[{"name":"configParams","type":"bytes","indexed":false,"internalType":"bytes"}],"anonymous":false},{"type":"event","name":"Mandate__Initialized","inputs":[{"name":"powers","type":"address","indexed":true,"internalType":"address"},{"name":"index","type":"uint16","indexed":true,"internalType":"uint16"},{"name":"nameDescription","type":"string","indexed":false,"internalType":"string"},{"name":"inputParams","type":"bytes","indexed":false,"internalType":"bytes"},{"name":"config","type":"bytes","indexed":false,"internalType":"bytes"}],"anonymous":false},{"type":"error","name":"OnlyPowers","inputs":[]}],"bytecode":{"object":"0x6080604052348015600e575f5ffd5b506113a88061001c5f395ff3fe608060405234801561000f575f5ffd5b5060043610610085575f3560e01c8063552cb37211610058578063552cb3721461010b578063b1f50f891461012e578063c0d27aad14610143578063d8a941f414610156575f5ffd5b806301e079721461008957806301ffc9a7146100b55780630d157721146100d85780634d516f0e146100f8575b5f5ffd5b61009c6100973660046109fb565b610169565b6040516100ac9493929190610a40565b60405180910390f35b6100c86100c3366004610aab565b61032b565b60405190151581526020016100ac565b6100eb6100e6366004610af7565b610361565b6040516100ac9190610b2a565b6100c8610106366004610b81565b610432565b61011e610119366004610be7565b6104d2565b6040516100ac9493929190610d31565b61014161013c366004610e68565b6106b1565b005b6100eb610151366004610af7565b6107d2565b6100eb610164366004610af7565b610822565b5f6020819052908152604090208054819061018390610f1a565b80601f01602080910402602001604051908101604052809291908181526020018280546101af90610f1a565b80156101fa5780601f106101d1576101008083540402835291602001916101fa565b820191905f5260205f20905b8154815290600101906020018083116101dd57829003601f168201915b50505050509080600101805461020f90610f1a565b80601f016020809104026020016040519081016040528092919081815260200182805461023b90610f1a565b80156102865780601f1061025d57610100808354040283529160200191610286565b820191905f5260205f20905b81548152906001019060200180831161026957829003601f168201915b50505050509080600201805461029b90610f1a565b80601f01602080910402602001604051908101604052809291908181526020018280546102c790610f1a565b80156103125780601f106102e957610100808354040283529160200191610312565b820191905f5260205f20905b8154815290600101906020018083116102f557829003601f168201915b505050600390930154919250506001600160a01b031684565b5f6001600160e01b0319821663a988d3f560e01b148061035b57506301ffc9a760e01b6001600160e01b03198316145b92915050565b604080516001600160a01b03841660208083019190915261ffff841682840152825180830384018152606092830184528051908201205f908152908190529190912080546103ae90610f1a565b80601f01602080910402602001604051908101604052809291908181526020018280546103da90610f1a565b80156104255780601f106103fc57610100808354040283529160200191610425565b820191905f5260205f20905b81548152906001019060200180831161040857829003601f168201915b5050505050905092915050565b6040805133602080830182905261ffff881683850152835180840385018152606090930184528251928101929092205f81815292839052928220600301549192916001600160a01b03161461049a5760405163e317a3d160e01b815260040160405180910390fd5b5f5f5f5f6104ac8b338c8c8c8c6104d2565b93509350935093506104c18a8585858561087f565b5060019a9950505050505050505050565b5f60608060606104e061098c565b6104ea8a8a6107d2565b8060200190518101906104fd9190610fbc565b602080830182905201516001600160a01b031661056d5760405162461bcd60e51b8152602060048201526024808201527f5a4b50617373706f72743a20496e76616c6964207265676973747279206164646044820152637265737360e01b60648201526084015b60405180910390fd5b5f8160200151602001519050806001600160a01b031663531a9e5b8d8460200151604001518560200151606001518660200151608001516040518563ffffffff1660e01b81526004016105c39493929190611125565b602060405180830381865afa1580156105de573d5f5f3e3d5ffd5b505050506040513d601f19601f820116820180604052508101906106029190611165565b15158083526106615760405162461bcd60e51b815260206004820152602560248201527f5a4b50617373706f72743a2050726f6f6620766572696669636174696f6e2066604482015264185a5b195960da1b6064820152608401610564565b604080515f808252602082018181528284018281526060840190945290928361069a565b60608152602001906001900390816106855790505b50929f919e509c50909a5098505050505050505050565b604080513360208083019190915261ffff871682840152825180830384018152606090920190925280519101206106eb84600160ff6108e5565b6040805160808101825285815260208082018690528183018590523360608301525f84815290819052919091208151819061072690826111c8565b506020820151600182019061073b90826111c8565b506040820151600282019061075090826111c8565b50606091909101516003909101805473ffffffffffffffffffffffffffffffffffffffff19166001600160a01b0390921691909117905560405161ffff86169033907ff02558935ef4a7a4dd0455b94fd00eb1bcd7d048c0ab648841d3985a31a135c2906107c390889088908890611283565b60405180910390a35050505050565b604080516001600160a01b03841660208083019190915261ffff841682840152825180830384018152606092830184528051908201205f908152908190529190912060020180546103ae90610f1a565b606061082c61098c565b61083684846107d2565b8060200190518101906108499190610fbc565b6020808301829052905160405161086092016112bb565b60405160208183030381529060405291505092915050565b5050505050565b82511561087857604051630de6a60160e01b81523390630de6a601906108b1908890889088908890889060040161131e565b5f604051808303815f87803b1580156108c8575f5ffd5b505af11580156108da573d5f5f3e3d5ffd5b505050505050505050565b81835110156109365760405162461bcd60e51b815260206004820152601060248201527f537472696e6720746f6f2073686f7274000000000000000000000000000000006044820152606401610564565b80835111156109875760405162461bcd60e51b815260206004820152600f60248201527f537472696e6720746f6f206c6f6e6700000000000000000000000000000000006044820152606401610564565b505050565b60405180604001604052805f151581526020016109f66040518060a00160405280606081526020015f6001600160a01b031681526020015f81526020015f7bffffffffffffffffffffffffffffffffffffffffffffffffffffffff19168152602001606081525090565b905290565b5f60208284031215610a0b575f5ffd5b5035919050565b5f81518084528060208401602086015e5f602082860101526020601f19601f83011685010191505092915050565b608081525f610a526080830187610a12565b8281036020840152610a648187610a12565b90508281036040840152610a788186610a12565b9150506001600160a01b038316606083015295945050505050565b6001600160e01b031981168114610aa8575f5ffd5b50565b5f60208284031215610abb575f5ffd5b8135610ac681610a93565b9392505050565b6001600160a01b0381168114610aa8575f5ffd5b803561ffff81168114610af2575f5ffd5b919050565b5f5f60408385031215610b08575f5ffd5b8235610b1381610acd565b9150610b2160208401610ae1565b90509250929050565b602081525f610ac66020830184610a12565b5f5f83601f840112610b4c575f5ffd5b50813567ffffffffffffffff811115610b63575f5ffd5b602083019150836020828501011115610b7a575f5ffd5b9250929050565b5f5f5f5f5f60808688031215610b95575f5ffd5b8535610ba081610acd565b9450610bae60208701610ae1565b9350604086013567ffffffffffffffff811115610bc9575f5ffd5b610bd588828901610b3c565b96999598509660600135949350505050565b5f5f5f5f5f5f60a08789031215610bfc575f5ffd5b8635610c0781610acd565b95506020870135610c1781610acd565b9450610c2560408801610ae1565b9350606087013567ffffffffffffffff811115610c40575f5ffd5b610c4c89828a01610b3c565b979a9699509497949695608090950135949350505050565b5f8151808452602084019350602083015f5b82811015610c9d5781516001600160a01b0316865260209586019590910190600101610c76565b5093949350505050565b5f8151808452602084019350602083015f5b82811015610c9d578151865260209586019590910190600101610cb9565b5f82825180855260208501945060208160051b830101602085015f5b83811015610d2557601f19858403018852610d0f838351610a12565b6020988901989093509190910190600101610cf3565b50909695505050505050565b848152608060208201525f610d496080830186610c64565b8281036040840152610d5b8186610ca7565b90508281036060840152610d6f8185610cd7565b979650505050505050565b634e487b7160e01b5f52604160045260245ffd5b60405160a0810167ffffffffffffffff81118282101715610db157610db1610d7a565b60405290565b604051601f8201601f1916810167ffffffffffffffff81118282101715610de057610de0610d7a565b604052919050565b5f67ffffffffffffffff821115610e0157610e01610d7a565b50601f01601f191660200190565b5f610e21610e1c84610de8565b610db7565b9050828152838383011115610e34575f5ffd5b828260208301375f602084830101529392505050565b5f82601f830112610e59575f5ffd5b610ac683833560208501610e0f565b5f5f5f5f60808587031215610e7b575f5ffd5b610e8485610ae1565b9350602085013567ffffffffffffffff811115610e9f575f5ffd5b8501601f81018713610eaf575f5ffd5b610ebe87823560208401610e0f565b935050604085013567ffffffffffffffff811115610eda575f5ffd5b610ee687828801610e4a565b925050606085013567ffffffffffffffff811115610f02575f5ffd5b610f0e87828801610e4a565b91505092959194509250565b600181811c90821680610f2e57607f821691505b602082108103610f4c57634e487b7160e01b5f52602260045260245ffd5b50919050565b5f610f5f610e1c84610de8565b9050828152838383011115610f72575f5ffd5b8282602083015e5f602084830101529392505050565b8051610af281610acd565b8051610af281610a93565b5f82601f830112610fad575f5ffd5b610ac683835160208501610f52565b5f60208284031215610fcc575f5ffd5b815167ffffffffffffffff811115610fe2575f5ffd5b820160a08185031215610ff3575f5ffd5b610ffb610d8e565b815167ffffffffffffffff811115611011575f5ffd5b8201601f81018613611021575f5ffd5b805167ffffffffffffffff81111561103b5761103b610d7a565b8060051b61104b60208201610db7565b91825260208184018101929081019089841115611066575f5ffd5b6020850192505b838310156110bf57825167ffffffffffffffff81111561108b575f5ffd5b8501603f81018b1361109b575f5ffd5b6110ad8b602083015160408401610f52565b8352506020928301929091019061106d565b8552506110d29250505060208301610f88565b6020820152604082810151908201526110ed60608301610f93565b6060820152608082015167ffffffffffffffff81111561110b575f5ffd5b61111786828501610f9e565b608083015250949350505050565b6001600160a01b038516815283602082015263ffffffff60e01b83166040820152608060608201525f61115b6080830184610a12565b9695505050505050565b5f60208284031215611175575f5ffd5b81518015158114610ac6575f5ffd5b601f82111561098757805f5260205f20601f840160051c810160208510156111a95750805b601f840160051c820191505b81811015610878575f81556001016111b5565b815167ffffffffffffffff8111156111e2576111e2610d7a565b6111f6816111f08454610f1a565b84611184565b6020601f821160018114611228575f83156112115750848201515b5f19600385901b1c1916600184901b178455610878565b5f84815260208120601f198516915b828110156112575787850151825560209485019460019092019101611237565b508482101561127457868401515f19600387901b60f8161c191681555b50505050600190811b01905550565b606081525f6112956060830186610a12565b82810360208401526112a78186610a12565b9050828103604084015261115b8185610a12565b5f602082016020835280845180835260408501915060408160051b8601019250602086015f5b8281101561131257603f198786030184526112fd858351610a12565b945060209384019391909101906001016112e1565b50929695505050505050565b61ffff8616815284602082015260a060408201525f61134060a0830186610c64565b82810360608401526113528186610ca7565b905082810360808401526113668185610cd7565b9897505050505050505056fea2646970667358221220a984b8b4e0ce8c611332f2e319e527bf29bef8f55af98ae3bb0497288571975d64736f6c634300081e0033","linkReferences":{}},"methodIdentifiers":{"executeMandate(address,uint16,bytes,uint256)":"4d516f0e","getConfig(address,uint16)":"c0d27aad","getInputParams(address,uint16)":"d8a941f4","getNameDescription(address,uint16)":"0d157721","handleRequest(address,address,uint16,bytes,uint256)":"552cb372","initializeMandate(uint16,string,bytes,bytes)":"b1f50f89","mandates(bytes32)":"01e07972","supportsInterface(bytes4)":"01ffc9a7"},"id":145}