{"abi":[{"type":"constructor","inputs":[],"stateMutability":"nonpayable"},{"type":"function","name":"executeMandate","inputs":[{"name":"caller","type":"address","internalType":"address"},{"name":"mandateId","type":"uint16","internalType":"uint16"},{"name":"mandateCalldata","type":"bytes","internalType":"bytes"},{"name":"nonce","type":"uint256","internalType":"uint256"}],"outputs":[{"name":"success","type":"bool","internalType":"bool"}],"stateMutability":"nonpayable"},{"type":"function","name":"getConfig","inputs":[{"name":"powers","type":"address","internalType":"address"},{"name":"mandateId","type":"uint16","internalType":"uint16"}],"outputs":[{"name":"config","type":"bytes","internalType":"bytes"}],"stateMutability":"view"},{"type":"function","name":"getInputParams","inputs":[{"name":"powers","type":"address","internalType":"address"},{"name":"mandateId","type":"uint16","internalType":"uint16"}],"outputs":[{"name":"inputParams","type":"bytes","internalType":"bytes"}],"stateMutability":"view"},{"type":"function","name":"getNameDescription","inputs":[{"name":"powers","type":"address","internalType":"address"},{"name":"mandateId","type":"uint16","internalType":"uint16"}],"outputs":[{"name":"nameDescription","type":"string","internalType":"string"}],"stateMutability":"view"},{"type":"function","name":"handleRequest","inputs":[{"name":"caller","type":"address","internalType":"address"},{"name":"powers","type":"address","internalType":"address"},{"name":"mandateId","type":"uint16","internalType":"uint16"},{"name":"mandateCalldata","type":"bytes","internalType":"bytes"},{"name":"nonce","type":"uint256","internalType":"uint256"}],"outputs":[{"name":"actionId","type":"uint256","internalType":"uint256"},{"name":"targets","type":"address[]","internalType":"address[]"},{"name":"values","type":"uint256[]","internalType":"uint256[]"},{"name":"calldatas","type":"bytes[]","internalType":"bytes[]"}],"stateMutability":"view"},{"type":"function","name":"initializeMandate","inputs":[{"name":"index","type":"uint16","internalType":"uint16"},{"name":"nameDescription","type":"string","internalType":"string"},{"name":"inputParams","type":"bytes","internalType":"bytes"},{"name":"config","type":"bytes","internalType":"bytes"}],"outputs":[],"stateMutability":"nonpayable"},{"type":"function","name":"mandates","inputs":[{"name":"mandateHash","type":"bytes32","internalType":"bytes32"}],"outputs":[{"name":"nameDescription","type":"string","internalType":"string"},{"name":"inputParams","type":"bytes","internalType":"bytes"},{"name":"config","type":"bytes","internalType":"bytes"},{"name":"powers","type":"address","internalType":"address"}],"stateMutability":"view"},{"type":"function","name":"supportsInterface","inputs":[{"name":"interfaceId","type":"bytes4","internalType":"bytes4"}],"outputs":[{"name":"","type":"bool","internalType":"bool"}],"stateMutability":"view"},{"type":"event","name":"Mandate__Deployed","inputs":[{"name":"configParams","type":"bytes","indexed":false,"internalType":"bytes"}],"anonymous":false},{"type":"event","name":"Mandate__Initialized","inputs":[{"name":"powers","type":"address","indexed":true,"internalType":"address"},{"name":"index","type":"uint16","indexed":true,"internalType":"uint16"},{"name":"nameDescription","type":"string","indexed":false,"internalType":"string"},{"name":"inputParams","type":"bytes","indexed":false,"internalType":"bytes"},{"name":"config","type":"bytes","indexed":false,"internalType":"bytes"}],"anonymous":false},{"type":"error","name":"OnlyPowers","inputs":[]}],"bytecode":{"object":"0x608060405234801561000f575f5ffd5b505f6040516020016100209061006e565b60405160208183030381529060405290507f71bb7b033e40374cfbc64859f679a737bcbfca31158d6a4783c01ee8d445cc5e8160405161006091906101aa565b60405180910390a1506101df565b60c08152601460c08201527f737472696e675b5d20696e707574506172616d7300000000000000000000000060e0820152610100602082015260106101008201526f6164647265737320726567697374727960801b61012082015261014060408201525f61014082015f601982527f75696e74323536207374616c6541667465725365636f6e6473000000000000006020830152604082019050838103606085015261014481601681527f626f6f6c20666163656d61746368526571756972656400000000000000000000602082015260400190565b8481036080860152601781527f6279746573342066756e6374696f6e53656c6563746f7200000000000000000060208201529150506040810183810360a0850152600b81526a189e5d195cc81a5b9c1d5d60aa1b60208201529050604081019392505050565b602081525f82518060208401528060208501604085015e5f604082850101526040601f19601f83011684010191505092915050565b612aa7806101ec5f395ff3fe608060405234801561000f575f5ffd5b5060043610610085575f3560e01c8063552cb37211610058578063552cb3721461010b578063b1f50f891461012e578063c0d27aad14610143578063d8a941f414610156575f5ffd5b806301e079721461008957806301ffc9a7146100b55780630d157721146100d85780634d516f0e146100f8575b5f5ffd5b61009c610097366004611e0a565b610169565b6040516100ac9493929190611e4f565b60405180910390f35b6100c86100c3366004611eba565b61032b565b60405190151581526020016100ac565b6100eb6100e6366004611f06565b610361565b6040516100ac9190611f39565b6100c8610106366004611f90565b610432565b61011e610119366004611ff6565b6104d2565b6040516100ac9493929190612140565b61014161013c366004612278565b610ded565b005b6100eb610151366004611f06565b610f38565b6100eb610164366004611f06565b610f88565b5f602081905290815260409020805481906101839061232a565b80601f01602080910402602001604051908101604052809291908181526020018280546101af9061232a565b80156101fa5780601f106101d1576101008083540402835291602001916101fa565b820191905f5260205f20905b8154815290600101906020018083116101dd57829003601f168201915b50505050509080600101805461020f9061232a565b80601f016020809104026020016040519081016040528092919081815260200182805461023b9061232a565b80156102865780601f1061025d57610100808354040283529160200191610286565b820191905f5260205f20905b81548152906001019060200180831161026957829003601f168201915b50505050509080600201805461029b9061232a565b80601f01602080910402602001604051908101604052809291908181526020018280546102c79061232a565b80156103125780601f106102e957610100808354040283529160200191610312565b820191905f5260205f20905b8154815290600101906020018083116102f557829003601f168201915b505050600390930154919250506001600160a01b031684565b5f6001600160e01b0319821663a988d3f560e01b148061035b57506301ffc9a760e01b6001600160e01b03198316145b92915050565b604080516001600160a01b03841660208083019190915261ffff841682840152825180830384018152606092830184528051908201205f908152908190529190912080546103ae9061232a565b80601f01602080910402602001604051908101604052809291908181526020018280546103da9061232a565b80156104255780601f106103fc57610100808354040283529160200191610425565b820191905f5260205f20905b81548152906001019060200180831161040857829003601f168201915b5050505050905092915050565b6040805133602080830182905261ffff881683850152835180840385018152606090930184528251928101929092205f81815292839052928220600301549192916001600160a01b03161461049a5760405163e317a3d160e01b815260040160405180910390fd5b5f5f5f5f6104ac8b338c8c8c8c6104d2565b93509350935093506104c18a85858585610fdf565b5060019a9950505050505050505050565b5f60608060606104e0611d3c565b6104ea8a8a610f38565b8060200190518101906104fd919061245f565b60c08701526001600160e01b03191660a08601521515608085015260608401526001600160a01b031660408301525061053887890189612515565b6001600160a01b0390811660e08301526040820151166105ab5760405162461bcd60e51b8152602060048201526024808201527f5a4b50617373706f72743a20496e76616c6964207265676973747279206164646044820152637265737360e01b60648201526084015b60405180910390fd5b60e08101516001600160a01b031661062b5760405162461bcd60e51b815260206004820152603560248201527f5a4b50617373706f72743a20496e76616c6964207a65726f206164647265737360448201527f20666f72206163636f756e7420746f20636865636b000000000000000000000060648201526084016105a2565b8a6001600160a01b03168160e001516001600160a01b0316146106b65760405162461bcd60e51b815260206004820152602e60248201527f5a4b50617373706f72743a2043616c6c6572206973206e6f742074686520616360448201527f636f756e7420746f20636865636b00000000000000000000000000000000000060648201526084016105a2565b5f816040015190506106ff8a8a8a8080601f0160208091040260200160405190810160405280939291908181526020018383808284375f920191909152508c9250611045915050565b60e0830151604051635941514d60e11b81526001600160a01b03918216600482015291975082169063b282a29a90602401602060405180830381865afa15801561074b573d5f5f3e3d5ffd5b505050506040513d601f19601f8201168201806040525081019061076f9190612530565b6101008301819052606083015190610787904261255b565b106107d45760405162461bcd60e51b815260206004820152600e60248201527f50726f6f66206973207374616c6500000000000000000000000000000000000060448201526064016105a2565b8160800151156108985760e082015160405163306b618f60e21b81526001600160a01b0391821660048201529082169063c1ad863c90602401602060405180830381865afa158015610828573d5f5f3e3d5ffd5b505050506040513d601f19601f8201168201806040525081019061084c919061256e565b6108985760405162461bcd60e51b815260206004820152601d60248201527f466163654d6174636820726571756972656d656e74206e6f74206d657400000060448201526064016105a2565b60e0820151604051630665f5b560e11b81526001600160a01b03918216600482015290821690630ccbeb6a906024015f60405180830381865afa1580156108e1573d5f5f3e3d5ffd5b505050506040513d5f823e601f3d908101601f191682016040526109089190810190612587565b61014083015260a08201516001600160e01b03191663d4d6de8760e01b0161094a5761093d8260c0015183610140015161107b565b1515610120830152610d6d565b60a08201516001600160e01b0319166321f06bd160e21b016109795761093d8260c001518361014001516110ad565b60a08201516001600160e01b031916631491889760e31b016109a85761093d8260c001518361014001516110e0565b60a08201516001600160e01b0319166303617ca560e61b016109d75761093d8260c00151836101400151611112565b60a08201516001600160e01b031916630e85aea760e11b01610a065761093d8260c00151836101400151611145565b60a08201516001600160e01b03191663210fe7d760e11b01610a355761093d8260c00151836101400151611190565b60a08201516001600160e01b0319166331582e7d60e11b01610a645761093d8260c001518361014001516111c2565b60a08201516001600160e01b03191663a21e3f7960e01b01610a935761093d8260c001518361014001516111f1565b60a08201516001600160e01b0319166351559d7b60e01b01610ac25761093d8260c00151836101400151611220565b60a08201516001600160e01b0319166312f01d8d60e31b01610af15761093d8260c0015183610140015161124f565b60a08201516001600160e01b03191663df399da760e01b01610b205761093d8260c0015183610140015161127e565b60a08201516001600160e01b031916638bd9b20b60e01b01610b4f5761093d8260c001518361014001516112d1565b60a08201516001600160e01b03191663d2e2745f60e01b01610b7e5761093d8260c00151836101400151611300565b60a08201516001600160e01b031916632523ed0760e11b01610bad5761093d8260c00151836101400151611330565b60a08201516001600160e01b031916630c5e0e2760e01b01610bdc5761093d8260c00151836101400151611360565b60a08201516001600160e01b031916636191efaf60e11b01610c0b5761093d8260c00151836101400151611390565b60a08201516001600160e01b0319166372ab993f60e11b01610c3a5761093d8260c001518361014001516113c0565b60a08201516001600160e01b031916635cbf449760e11b01610c695761093d8260c001518361014001516113eb565b60a08201516001600160e01b031916638519981760e01b01610c985761093d8260c0015183610140015161141b565b60a08201516001600160e01b03191663c91aa4f960e01b01610cc75761093d8260c0015183610140015161148d565b60a08201516001600160e01b03191663d3a2e4bb60e01b01610cf65761093d8260c001518361014001516114ff565b60a08201516001600160e01b031916631b0093df60e01b01610d255761093d8260c00151836101400151611567565b60405162461bcd60e51b815260206004820152601d60248201527f556e737570706f727465642066756e6374696f6e2073656c6563746f7200000060448201526064016105a2565b816101200151610dcd5760405162461bcd60e51b815260206004820152602560248201527f5a4b50617373706f72743a2050726f6f6620766572696669636174696f6e2066604482015264185a5b195960da1b60648201526084016105a2565b610dd760016115ce565b9196509450925050509650965096509692505050565b5f81806020019051810190610e02919061245f565b505050505090505f81516001610e189190612721565b67ffffffffffffffff811115610e3057610e30612189565b604051908082528060200260200182016040528015610e6357816020015b6060815260200190600190039081610e4e5790505b5090505f5b8251811015610eb057828181518110610e8357610e83612734565b6020026020010151828281518110610e9d57610e9d612734565b6020908102919091010152600101610e68565b506040518060400160405280601681526020017f61646472657373204163636f756e74546f436865636b0000000000000000000081525081835181518110610efa57610efa612734565b6020026020010181905250610f30868683604051602001610f1b9190612748565b604051602081830303815290604052866116b2565b505050505050565b604080516001600160a01b03841660208083019190915261ffff841682840152825180830384018152606092830184528051908201205f908152908190529190912060020180546103ae9061232a565b604080516001600160a01b03841660208083019190915261ffff841682840152825180830384018152606092830184528051908201205f908152908190529190912060010180546103ae9061232a565b5050505050565b825115610fd857604051630de6a60160e01b81523390630de6a6019061101190889088908890889088906004016127ab565b5f604051808303815f87803b158015611028575f5ffd5b505af115801561103a573d5f5f3e3d5ffd5b505050505050505050565b5f83838360405160200161105b939291906127ff565b60408051601f198184030181529190528051602090910120949350505050565b5f5f83806020019051810190611091919061283b565b90508060ff166110a484608001516117d3565b11949350505050565b5f5f838060200190518101906110c3919061283b565b90508060ff166110d684608001516117d3565b1015949350505050565b5f5f838060200190518101906110f6919061283b565b90508060ff1661110984608001516117d3565b10949350505050565b5f5f83806020019051810190611128919061283b565b90508060ff1661113b84608001516117d3565b1115949350505050565b5f5f5f8480602001905181019061115c9190612854565b915091505f61116e85608001516117d3565b90508260ff16811015801561118657508160ff168111155b9695505050505050565b5f5f838060200190518101906111a6919061283b565b90508060ff166111b984608001516117d3565b14949350505050565b5f5f838060200190518101906111d89190612530565b90506111e38161181d565b6110a484608001515f611866565b5f5f838060200190518101906112079190612530565b90506112128161181d565b6110d684608001515f611866565b5f5f838060200190518101906112369190612530565b90506112418161181d565b61110984608001515f611866565b5f5f838060200190518101906112659190612530565b90506112708161181d565b61113b84608001515f611866565b5f5f5f84806020019051810190611295919061287c565b915091505f6112a885608001515f611866565b90506112b38361181d565b811015801561118657506112c68261181d565b101595945050505050565b5f5f838060200190518101906112e79190612530565b90506112f28161181d565b6111b984608001515f611866565b5f5f838060200190518101906113169190612530565b90506113218161181d565b6110a48460a001516001611866565b5f5f838060200190518101906113469190612530565b90506113518161181d565b6110d68460a001516001611866565b5f5f838060200190518101906113769190612530565b90506113818161181d565b6111098460a001516001611866565b5f5f838060200190518101906113a69190612530565b90506113b18161181d565b61113b8460a001516001611866565b5f5f5f848060200190518101906113d7919061287c565b915091505f6112a88560a001516001611866565b5f5f838060200190518101906114019190612530565b905061140c8161181d565b6111b98460a001516001611866565b5f5f83806020019051810190611431919061289e565b90505f5b81518110156114835783602001518051906020012082828151811061145c5761145c612734565b6020026020010151805190602001200361147b5760019250505061035b565b600101611435565b505f949350505050565b5f5f838060200190518101906114a3919061289e565b90505f5b81518110156114f4578360200151805190602001208282815181106114ce576114ce612734565b602002602001015180519060200120036114ec575f9250505061035b565b6001016114a7565b506001949350505050565b5f5f83806020019051810190611515919061289e565b90505f5b81518110156114835783604001518051906020012082828151811061154057611540612734565b6020026020010151805190602001200361155f5760019250505061035b565b600101611519565b5f5f8380602001905181019061157d919061289e565b90505f5b81518110156114f4578360400151805190602001208282815181106115a8576115a8612734565b602002602001015180519060200120036115c6575f9250505061035b565b600101611581565b60608060608367ffffffffffffffff8111156115ec576115ec612189565b604051908082528060200260200182016040528015611615578160200160208202803683370190505b5092508367ffffffffffffffff81111561163157611631612189565b60405190808252806020026020018201604052801561165a578160200160208202803683370190505b5091508367ffffffffffffffff81111561167657611676612189565b6040519080825280602002602001820160405280156116a957816020015b60608152602001906001900390816116945790505b50929491935050565b604080513360208083019190915261ffff871682840152825180830384018152606090920190925280519101206116ec84600160ff611a70565b6040805160808101825285815260208082018690528183018590523360608301525f8481529081905291909120815181906117279082612914565b506020820151600182019061173c9082612914565b50604082015160028201906117519082612914565b50606091909101516003909101805473ffffffffffffffffffffffffffffffffffffffff19166001600160a01b0390921691909117905560405161ffff86169033907ff02558935ef4a7a4dd0455b94fd00eb1bcd7d048c0ab648841d3985a31a135c2906117c4908890889088906129cf565b60405180910390a35050505050565b5f5f6117df835f611866565b90505f6117eb4261181d565b9050818110156117fe57505f9392505050565b61271061180b838361255b565b6118159190612a1b565b949350505050565b5f5f5f5f61182a85611b17565b919450925090508061183d836064612a2e565b61184985612710612a2e565b6118539190612721565b61185d9190612721565b95945050505050565b81515f9083906006146118bb5760405162461bcd60e51b815260206004820152601760248201527f496e76616c6964204d525a2064617465206c656e67746800000000000000000060448201526064016105a2565b5f611944825f815181106118d1576118d1612734565b602001015160f81c60f81b836001815181106118ef576118ef612734565b016020908101516040517fff0000000000000000000000000000000000000000000000000000000000000093841692810192909252919091166021820152602201604051602081830303815290604052611cc2565b90505f61197b8360028151811061195d5761195d612734565b602001015160f81c60f81b846003815181106118ef576118ef612734565b90505f6119b28460048151811061199457611994612734565b602001015160f81c60f81b856005815181106118ef576118ef612734565b90505f6119be4261181d565b90505f60646119cf61271084612a1b565b6119d99190612a45565b90505f8815611a13576119ed826032612721565b861015611a0757611a00866107d0612721565b9050611a36565b611a008661076c612721565b81861115611a2757611a008661076c612721565b611a33866107d0612721565b90505b83611a42866064612a2e565b611a4e83612710612a2e565b611a589190612721565b611a629190612721565b9a9950505050505050505050565b8183511015611ac15760405162461bcd60e51b815260206004820152601060248201527f537472696e6720746f6f2073686f72740000000000000000000000000000000060448201526064016105a2565b8083511115611b125760405162461bcd60e51b815260206004820152600f60248201527f537472696e6720746f6f206c6f6e67000000000000000000000000000000000060448201526064016105a2565b505050565b5f808080611b286201518086612a1b565b611b3590620afa6c612721565b90505f611b4562023ab183612a1b565b90505f611b558262023ab1612a2e565b611b5f908461255b565b90505f61016d611b7262023ab084612a1b565b611b7e618eac85612a1b565b611b8a6105b486612a1b565b611b94908661255b565b611b9e9190612721565b611ba8919061255b565b611bb29190612a1b565b90505f611bc184610190612a2e565b611bcb9083612721565b90505f611bd9606484612a1b565b611be4600485612a1b565b611bf08561016d612a2e565b611bfa9190612721565b611c04919061255b565b611c0e908561255b565b90505f6099611c1e836005612a2e565b611c29906002612721565b611c339190612a1b565b90506005611c42826099612a2e565b611c4d906002612721565b611c579190612a1b565b611c61908361255b565b611c6c906001612721565b9750600a8110611c8657611c8160098261255b565b611c91565b611c91816003612721565b98506002891115611ca2575f611ca5565b60015b611cb29060ff1684612721565b9950505050505050509193909250565b5f81815b8151811015611d35575f828281518110611ce257611ce2612734565b016020015160f81c905060308110801590611d01575060398160ff1611155b15611d2c57611d11603082612a58565b60ff16611d1f85600a612a2e565b611d299190612721565b93505b50600101611cc6565b5050919050565b6040518061016001604052805f15158152602001606081526020015f6001600160a01b031681526020015f81526020015f151581526020015f7bffffffffffffffffffffffffffffffffffffffffffffffffffffffff19168152602001606081526020015f6001600160a01b031681526020015f81526020015f15158152602001611e0560405180610100016040528060608152602001606081526020016060815260200160608152602001606081526020016060815260200160608152602001606081525090565b905290565b5f60208284031215611e1a575f5ffd5b5035919050565b5f81518084528060208401602086015e5f602082860101526020601f19601f83011685010191505092915050565b608081525f611e616080830187611e21565b8281036020840152611e738187611e21565b90508281036040840152611e878186611e21565b9150506001600160a01b038316606083015295945050505050565b6001600160e01b031981168114611eb7575f5ffd5b50565b5f60208284031215611eca575f5ffd5b8135611ed581611ea2565b9392505050565b6001600160a01b0381168114611eb7575f5ffd5b803561ffff81168114611f01575f5ffd5b919050565b5f5f60408385031215611f17575f5ffd5b8235611f2281611edc565b9150611f3060208401611ef0565b90509250929050565b602081525f611ed56020830184611e21565b5f5f83601f840112611f5b575f5ffd5b50813567ffffffffffffffff811115611f72575f5ffd5b602083019150836020828501011115611f89575f5ffd5b9250929050565b5f5f5f5f5f60808688031215611fa4575f5ffd5b8535611faf81611edc565b9450611fbd60208701611ef0565b9350604086013567ffffffffffffffff811115611fd8575f5ffd5b611fe488828901611f4b565b96999598509660600135949350505050565b5f5f5f5f5f5f60a0878903121561200b575f5ffd5b863561201681611edc565b9550602087013561202681611edc565b945061203460408801611ef0565b9350606087013567ffffffffffffffff81111561204f575f5ffd5b61205b89828a01611f4b565b979a9699509497949695608090950135949350505050565b5f8151808452602084019350602083015f5b828110156120ac5781516001600160a01b0316865260209586019590910190600101612085565b5093949350505050565b5f8151808452602084019350602083015f5b828110156120ac5781518652602095860195909101906001016120c8565b5f82825180855260208501945060208160051b830101602085015f5b8381101561213457601f1985840301885261211e838351611e21565b6020988901989093509190910190600101612102565b50909695505050505050565b848152608060208201525f6121586080830186612073565b828103604084015261216a81866120b6565b9050828103606084015261217e81856120e6565b979650505050505050565b634e487b7160e01b5f52604160045260245ffd5b604051610100810167ffffffffffffffff811182821017156121c1576121c1612189565b60405290565b604051601f8201601f1916810167ffffffffffffffff811182821017156121f0576121f0612189565b604052919050565b5f67ffffffffffffffff82111561221157612211612189565b50601f01601f191660200190565b5f61223161222c846121f8565b6121c7565b9050828152838383011115612244575f5ffd5b828260208301375f602084830101529392505050565b5f82601f830112612269575f5ffd5b611ed58383356020850161221f565b5f5f5f5f6080858703121561228b575f5ffd5b61229485611ef0565b9350602085013567ffffffffffffffff8111156122af575f5ffd5b8501601f810187136122bf575f5ffd5b6122ce8782356020840161221f565b935050604085013567ffffffffffffffff8111156122ea575f5ffd5b6122f68782880161225a565b925050606085013567ffffffffffffffff811115612312575f5ffd5b61231e8782880161225a565b91505092959194509250565b600181811c9082168061233e57607f821691505b60208210810361235c57634e487b7160e01b5f52602260045260245ffd5b50919050565b5f61236f61222c846121f8565b9050828152838383011115612382575f5ffd5b8282602083015e5f602084830101529392505050565b5f82601f8301126123a7575f5ffd5b611ed583835160208501612362565b5f82601f8301126123c5575f5ffd5b815167ffffffffffffffff8111156123df576123df612189565b8060051b6123ef602082016121c7565b9182526020818501810192908101908684111561240a575f5ffd5b6020860192505b8383101561118657825167ffffffffffffffff81111561242f575f5ffd5b61243e886020838a0101612398565b83525060209283019290910190612411565b80518015158114611f01575f5ffd5b5f5f5f5f5f5f60c08789031215612474575f5ffd5b865167ffffffffffffffff81111561248a575f5ffd5b61249689828a016123b6565b96505060208701516124a781611edc565b604088015190955093506124bd60608801612450565b925060808701516124cd81611ea2565b60a088015190925067ffffffffffffffff8111156124e9575f5ffd5b8701601f810189136124f9575f5ffd5b61250889825160208401612362565b9150509295509295509295565b5f60208284031215612525575f5ffd5b8135611ed581611edc565b5f60208284031215612540575f5ffd5b5051919050565b634e487b7160e01b5f52601160045260245ffd5b8181038181111561035b5761035b612547565b5f6020828403121561257e575f5ffd5b611ed582612450565b5f60208284031215612597575f5ffd5b815167ffffffffffffffff8111156125ad575f5ffd5b820161010081850312156125bf575f5ffd5b6125c761219d565b815167ffffffffffffffff8111156125dd575f5ffd5b6125e986828501612398565b825250602082015167ffffffffffffffff811115612605575f5ffd5b61261186828501612398565b602083015250604082015167ffffffffffffffff811115612630575f5ffd5b61263c86828501612398565b604083015250606082015167ffffffffffffffff81111561265b575f5ffd5b61266786828501612398565b606083015250608082015167ffffffffffffffff811115612686575f5ffd5b61269286828501612398565b60808301525060a082015167ffffffffffffffff8111156126b1575f5ffd5b6126bd86828501612398565b60a08301525060c082015167ffffffffffffffff8111156126dc575f5ffd5b6126e886828501612398565b60c08301525060e082015167ffffffffffffffff811115612707575f5ffd5b61271386828501612398565b60e083015250949350505050565b8082018082111561035b5761035b612547565b634e487b7160e01b5f52603260045260245ffd5b5f602082016020835280845180835260408501915060408160051b8601019250602086015f5b8281101561279f57603f1987860301845261278a858351611e21565b9450602093840193919091019060010161276e565b50929695505050505050565b61ffff8616815284602082015260a060408201525f6127cd60a0830186612073565b82810360608401526127df81866120b6565b905082810360808401526127f381856120e6565b98975050505050505050565b61ffff84168152606060208201525f61281b6060830185611e21565b9050826040830152949350505050565b805160ff81168114611f01575f5ffd5b5f6020828403121561284b575f5ffd5b611ed58261282b565b5f5f60408385031215612865575f5ffd5b61286e8361282b565b9150611f306020840161282b565b5f5f6040838503121561288d575f5ffd5b505080516020909101519092909150565b5f602082840312156128ae575f5ffd5b815167ffffffffffffffff8111156128c4575f5ffd5b611815848285016123b6565b601f821115611b1257805f5260205f20601f840160051c810160208510156128f55750805b601f840160051c820191505b81811015610fd8575f8155600101612901565b815167ffffffffffffffff81111561292e5761292e612189565b6129428161293c845461232a565b846128d0565b6020601f821160018114612974575f831561295d5750848201515b5f19600385901b1c1916600184901b178455610fd8565b5f84815260208120601f198516915b828110156129a35787850151825560209485019460019092019101612983565b50848210156129c057868401515f19600387901b60f8161c191681555b50505050600190811b01905550565b606081525f6129e16060830186611e21565b82810360208401526129f38186611e21565b905082810360408401526111868185611e21565b634e487b7160e01b5f52601260045260245ffd5b5f82612a2957612a29612a07565b500490565b808202811582820484141761035b5761035b612547565b5f82612a5357612a53612a07565b500690565b60ff828116828216039081111561035b5761035b61254756fea2646970667358221220ff751a7e16ad15726098da089ca3c92a06724a94cd971f43d562082ca6e2815764736f6c634300081e0033","linkReferences":{}},"methodIdentifiers":{"executeMandate(address,uint16,bytes,uint256)":"4d516f0e","getConfig(address,uint16)":"c0d27aad","getInputParams(address,uint16)":"d8a941f4","getNameDescription(address,uint16)":"0d157721","handleRequest(address,address,uint16,bytes,uint256)":"552cb372","initializeMandate(uint16,string,bytes,bytes)":"b1f50f89","mandates(bytes32)":"01e07972","supportsInterface(bytes4)":"01ffc9a7"},"id":209}