{"abi":[{"type":"constructor","inputs":[{"name":"_zkPassportVerifier","type":"address","internalType":"address"},{"name":"_zkPassportHelper","type":"address","internalType":"address"},{"name":"_domain","type":"string","internalType":"string"},{"name":"_scope","type":"string","internalType":"string"}],"stateMutability":"nonpayable"},{"type":"function","name":"deleteRegistration","inputs":[],"outputs":[],"stateMutability":"nonpayable"},{"type":"function","name":"register","inputs":[{"name":"params","type":"tuple","internalType":"struct ProofVerificationParams","components":[{"name":"version","type":"bytes32","internalType":"bytes32"},{"name":"proofVerificationData","type":"tuple","internalType":"struct ProofVerificationData","components":[{"name":"vkeyHash","type":"bytes32","internalType":"bytes32"},{"name":"proof","type":"bytes","internalType":"bytes"},{"name":"publicInputs","type":"bytes32[]","internalType":"bytes32[]"}]},{"name":"committedInputs","type":"bytes","internalType":"bytes"},{"name":"serviceConfig","type":"tuple","internalType":"struct ServiceConfig","components":[{"name":"validityPeriodInSeconds","type":"uint256","internalType":"uint256"},{"name":"domain","type":"string","internalType":"string"},{"name":"scope","type":"string","internalType":"string"},{"name":"devMode","type":"bool","internalType":"bool"}]}]}],"outputs":[{"name":"identifier","type":"bytes32","internalType":"bytes32"}],"stateMutability":"nonpayable"},{"type":"function","name":"validDomain","inputs":[],"outputs":[{"name":"","type":"string","internalType":"string"}],"stateMutability":"view"},{"type":"function","name":"validScope","inputs":[],"outputs":[{"name":"","type":"string","internalType":"string"}],"stateMutability":"view"},{"type":"function","name":"verifyProof","inputs":[{"name":"account","type":"address","internalType":"address"},{"name":"staleAfterSeconds","type":"uint256","internalType":"uint256"},{"name":"functionSelector","type":"bytes4","internalType":"bytes4"},{"name":"input","type":"bytes","internalType":"bytes"}],"outputs":[{"name":"","type":"bool","internalType":"bool"}],"stateMutability":"view"},{"type":"function","name":"zkPassportHelper","inputs":[],"outputs":[{"name":"","type":"address","internalType":"contract IZKPassportHelper"}],"stateMutability":"view"},{"type":"function","name":"zkPassportVerifier","inputs":[],"outputs":[{"name":"","type":"address","internalType":"contract IZKPassportVerifier"}],"stateMutability":"view"},{"type":"event","name":"IdentityDeleted","inputs":[{"name":"identifier","type":"bytes32","indexed":true,"internalType":"bytes32"},{"name":"oldAccount","type":"address","indexed":true,"internalType":"address"}],"anonymous":false},{"type":"event","name":"IdentityMoved","inputs":[{"name":"identifier","type":"bytes32","indexed":true,"internalType":"bytes32"},{"name":"oldAccount","type":"address","indexed":true,"internalType":"address"},{"name":"newAccount","type":"address","indexed":true,"internalType":"address"}],"anonymous":false},{"type":"event","name":"IdentityRegistered","inputs":[{"name":"account","type":"address","indexed":true,"internalType":"address"},{"name":"identifier","type":"bytes32","indexed":true,"internalType":"bytes32"}],"anonymous":false}],"bytecode":{"object":"0x60c060405234801561000f575f5ffd5b50604051611f63380380611f6383398101604081905261002e91610176565b6001600160a01b0384166100885760405162461bcd60e51b815260206004820181905260248201527f5a4b50617373706f72743a20496e76616c6964207a65726f2061646472657373604482015260640160405180910390fd5b6001600160a01b03808516608052831660a05260036100a78382610280565b5060046100b48282610280565b505050505061033a565b80516001600160a01b03811681146100d4575f5ffd5b919050565b634e487b7160e01b5f52604160045260245ffd5b5f82601f8301126100fc575f5ffd5b81516001600160401b03811115610115576101156100d9565b604051601f8201601f19908116603f011681016001600160401b0381118282101715610143576101436100d9565b60405281815283820160200185101561015a575f5ffd5b8160208501602083015e5f918101602001919091529392505050565b5f5f5f5f60808587031215610189575f5ffd5b610192856100be565b93506101a0602086016100be565b60408601519093506001600160401b038111156101bb575f5ffd5b6101c7878288016100ed565b606087015190935090506001600160401b038111156101e4575f5ffd5b6101f0878288016100ed565b91505092959194509250565b600181811c9082168061021057607f821691505b60208210810361022e57634e487b7160e01b5f52602260045260245ffd5b50919050565b601f82111561027b57805f5260205f20601f840160051c810160208510156102595750805b601f840160051c820191505b81811015610278575f8155600101610265565b50505b505050565b81516001600160401b03811115610299576102996100d9565b6102ad816102a784546101fc565b84610234565b6020601f8211600181146102df575f83156102c85750848201515b5f19600385901b1c1916600184901b178455610278565b5f84815260208120601f198516915b8281101561030e57878501518255602094850194600190920191016102ee565b508482101561032b57868401515f19600387901b60f8161c191681555b50505050600190811b01905550565b60805160a051611bdf6103845f395f818160ce0152818161072d0152818161080501528181610a2d01528181610bc60152610cce01525f818161010d01526109570152611bdf5ff3fe608060405234801561000f575f5ffd5b506004361061007a575f3560e01c806369744c621161005857806369744c62146100c9578063c4797ec514610108578063c47ca04c1461012f578063dddca9d414610137575f5ffd5b80631f4a2f591461007e578063392b7ae71461009c578063531a9e5b146100a6575b5f5ffd5b610086610158565b6040516100939190610fc8565b60405180910390f35b6100a46101e4565b005b6100b96100b4366004611011565b61038e565b6040519015158152602001610093565b6100f07f000000000000000000000000000000000000000000000000000000000000000081565b6040516001600160a01b039091168152602001610093565b6100f07f000000000000000000000000000000000000000000000000000000000000000081565b61008661092a565b61014a6101453660046110b6565b610937565b604051908152602001610093565b60048054610165906110f4565b80601f0160208091040260200160405190810160405280929190818152602001828054610191906110f4565b80156101dc5780601f106101b3576101008083540402835291602001916101dc565b820191905f5260205f20905b8154815290600101906020018083116101bf57829003601f168201915b505050505081565b335f90815260208190526040902054806102455760405162461bcd60e51b815260206004820152601560248201527f4e6f20726567697374726174696f6e20666f756e64000000000000000000000060448201526064015b60405180910390fd5b5f818152600160205260409020546001600160a01b031633146102b65760405162461bcd60e51b815260206004820152602360248201527f4964656e746966696572206e6f74207265676973746572656420746f2063616c6044820152623632b960e91b606482015260840161023c565b335f908152602081815260408083208390558383526001808352818420805473ffffffffffffffffffffffffffffffffffffffff19169055600292839052908320838155908101838155909291829061031190850182610efe565b61031e600283015f610f38565b5061032e9050600483015f610efe565b5f60058301818155906103446006850182610efe565b610351600283015f610efe565b50600301805460ff191690555050604051339082907ff7fef2e356b5886f568a2120b6c085fa74aa83fbc2b95ee716167c22e9dc3205905f90a350565b5f610397610f53565b6001600160a01b0387165f90815260208190526040902054608082018190526104025760405162461bcd60e51b815260206004820152601560248201527f4e6f20726567697374726174696f6e20666f756e640000000000000000000000604482015260640161023c565b5f60025f836080015181526020019081526020015f206040518060800160405290815f8201548152602001600182016040518060600160405290815f8201548152602001600182018054610455906110f4565b80601f0160208091040260200160405190810160405280929190818152602001828054610481906110f4565b80156104cc5780601f106104a3576101008083540402835291602001916104cc565b820191905f5260205f20905b8154815290600101906020018083116104af57829003601f168201915b505050505081526020016002820180548060200260200160405190810160405280929190818152602001828054801561052257602002820191905f5260205f20905b81548152602001906001019080831161050e575b505050505081525050815260200160048201805461053f906110f4565b80601f016020809104026020016040519081016040528092919081815260200182805461056b906110f4565b80156105b65780601f1061058d576101008083540402835291602001916105b6565b820191905f5260205f20905b81548152906001019060200180831161059957829003601f168201915b50505050508152602001600582016040518060800160405290815f82015481526020016001820180546105e8906110f4565b80601f0160208091040260200160405190810160405280929190818152602001828054610614906110f4565b801561065f5780601f106106365761010080835404028352916020019161065f565b820191905f5260205f20905b81548152906001019060200180831161064257829003601f168201915b50505050508152602001600282018054610678906110f4565b80601f01602080910402602001604051908101604052809291908181526020018280546106a4906110f4565b80156106ef5780601f106106c6576101008083540402835291602001916106ef565b820191905f5260205f20905b8154815290600101906020018083116106d257829003601f168201915b50505091835250506003919091015460ff16151560209182015291528201516040908101519051631a29be5360e31b81529293506001600160a01b037f0000000000000000000000000000000000000000000000000000000000000000169263d14df2989250610762919060040161112c565b602060405180830381865afa15801561077d573d5f5f3e3d5ffd5b505050506040513d601f19601f820116820180604052508101906107a1919061116e565b6040830181905287906107b49042611185565b106108015760405162461bcd60e51b815260206004820152600e60248201527f50726f6f66206973207374616c65000000000000000000000000000000000000604482015260640161023c565b60607f00000000000000000000000000000000000000000000000000000000000000006001600160a01b0316878787856040015160405160200161084894939291906111c1565b60408051601f1981840301815290829052610862916111f4565b5f60405180830381855afa9150503d805f811461089a576040519150601f19603f3d011682016040523d82523d5f602084013e61089f565b606091505b5090151560a08501819052909150610909578051156108c15780518082602001fd5b60405162461bcd60e51b815260206004820152601e60248201527f50726f6f6620766572696669636174696f6e2063616c6c206661696c65640000604482015260640161023c565b8080602001905181019061091d919061120c565b9998505050505050505050565b60038054610165906110f4565b5f610940610f53565b60405163578bd92160e01b81526001600160a01b037f0000000000000000000000000000000000000000000000000000000000000000169063578bd9219061098c90869060040161136d565b6060604051808303815f875af11580156109a8573d5f5f3e3d5ffd5b505050506040513d601f19601f820116820180604052508101906109cc9190611478565b5060208301521515808252610a235760405162461bcd60e51b815260206004820152601060248201527f50726f6f6620697320696e76616c696400000000000000000000000000000000604482015260640161023c565b6001600160a01b037f00000000000000000000000000000000000000000000000000000000000000001663847755e3610a5f60208601866114b8565b610a6d9060408101906114d6565b600360046040518563ffffffff1660e01b8152600401610a90949392919061159b565b602060405180830381865afa158015610aab573d5f5f3e3d5ffd5b505050506040513d601f19601f82011682018060405250810190610acf919061120c565b610b1b5760405162461bcd60e51b815260206004820152600d60248201527f496e76616c69642073636f706500000000000000000000000000000000000000604482015260640161023c565b6020808201515f908152600190915260409020546001600160a01b03161580610b5f57506020808201515f908152600190915260409020546001600160a01b031633145b610bbc5760405162461bcd60e51b815260206004820152602860248201527f494420616c7265616479207265676973746572656420746f20616e6f74686572604482015267081858d8dbdd5b9d60c21b606482015260840161023c565b6001600160a01b037f00000000000000000000000000000000000000000000000000000000000000001663d14df298610bf860208601866114b8565b610c069060408101906114d6565b6040518363ffffffff1660e01b8152600401610c239291906115d4565b602060405180830381865afa158015610c3e573d5f5f3e3d5ffd5b505050506040513d601f19601f82011682018060405250810190610c62919061116e565b60408201819052610e1090610c779042611185565b10610cc45760405162461bcd60e51b815260206004820152601060248201527f50726f6f6620697320746f6f206f6c6400000000000000000000000000000000604482015260640161023c565b6001600160a01b037f000000000000000000000000000000000000000000000000000000000000000016630af18ba6610d0060408601866115ef565b6040518363ffffffff1660e01b8152600401610d1d929190611632565b5f60405180830381865afa158015610d37573d5f5f3e3d5ffd5b505050506040513d5f823e601f3d908101601f19168201604052610d5e91908101906116b3565b60608201819052516001600160a01b03163314610dbd5760405162461bcd60e51b815260206004820152601760248201527f4e6f74207468652065787065637465642073656e646572000000000000000000604482015260640161023c565b4681606001516020015114610e145760405162461bcd60e51b815260206004820152601060248201527f496e76616c696420636861696e20696400000000000000000000000000000000604482015260640161023c565b6060810151604001515115610e6b5760405162461bcd60e51b815260206004820152601b60248201527f437573746f6d20646174612073686f756c6420626520656d7074790000000000604482015260640161023c565b60208082018051335f8181528085526040808220939093558351815260018552828120805473ffffffffffffffffffffffffffffffffffffffff1916909217909155915182526002909252208390610ec38282611a6c565b5050602081015160405133907f209ae2eb4ff1890ce972a80ec3e167b52d41ab089135cc6430447b1430e824be905f90a36020015192915050565b508054610f0a906110f4565b5f825580601f10610f19575050565b601f0160209004905f5260205f2090810190610f359190610fb0565b50565b5080545f8255905f5260205f2090810190610f359190610fb0565b6040518060c001604052805f151581526020015f81526020015f8152602001610f9d60405180606001604052805f6001600160a01b031681526020015f8152602001606081525090565b81525f6020820181905260409091015290565b5b80821115610fc4575f8155600101610fb1565b5090565b602081525f82518060208401528060208501604085015e5f604082850101526040601f19601f83011684010191505092915050565b6001600160a01b0381168114610f35575f5ffd5b5f5f5f5f5f60808688031215611025575f5ffd5b853561103081610ffd565b94506020860135935060408601356001600160e01b031981168114611053575f5ffd5b9250606086013567ffffffffffffffff81111561106e575f5ffd5b8601601f8101881361107e575f5ffd5b803567ffffffffffffffff811115611094575f5ffd5b8860208284010111156110a5575f5ffd5b959894975092955050506020019190565b5f602082840312156110c6575f5ffd5b813567ffffffffffffffff8111156110dc575f5ffd5b8201608081850312156110ed575f5ffd5b9392505050565b600181811c9082168061110857607f821691505b60208210810361112657634e487b7160e01b5f52602260045260245ffd5b50919050565b602080825282518282018190525f918401906040840190835b81811015611163578351835260209384019390920191600101611145565b509095945050505050565b5f6020828403121561117e575f5ffd5b5051919050565b818103818111156111a457634e487b7160e01b5f52601160045260245ffd5b92915050565b5f81518060208401855e5f93019283525090919050565b6001600160e01b031985168152828460048301375f6004848301015f81526111e981856111aa565b979650505050505050565b5f6110ed82846111aa565b8015158114610f35575f5ffd5b5f6020828403121561121c575f5ffd5b81516110ed816111ff565b5f5f8335601e1984360301811261123c575f5ffd5b830160208101925035905067ffffffffffffffff81111561125b575f5ffd5b803603821315611269575f5ffd5b9250929050565b81835281816020850137505f828201602090810191909152601f909101601f19169091010190565b8183525f7f07ffffffffffffffffffffffffffffffffffffffffffffffffffffffffffffff8311156112c8575f5ffd5b8260051b80836020870137939093016020019392505050565b5f8235607e198336030181126112f5575f5ffd5b90910192915050565b803582525f6113106020830183611227565b60806020860152611325608086018284611270565b9150506113356040840184611227565b8583036040870152611348838284611270565b92505050606083013561135a816111ff565b8015156060860152508091505092915050565b60208082528235828201525f9083013536849003605e1901811261138f575f5ffd5b608060408401528301803560a08401526113ac6020820182611227565b606060c08601526113c261010086018284611270565b9150506040820135601e198336030181126113db575f5ffd5b60209201918201913567ffffffffffffffff8111156113f8575f5ffd5b8060051b3603831315611409575f5ffd5b848203609f190160e0860152611420828285611298565b925050506114316040850185611227565b848303601f19016060860152611448838284611270565b9250505061145960608501856112e1565b838203601f1901608085015261146f82826112fe565b95945050505050565b5f5f5f6060848603121561148a575f5ffd5b8351611495816111ff565b6020850151604086015191945092506114ad81610ffd565b809150509250925092565b5f8235605e198336030181126114cc575f5ffd5b9190910192915050565b5f5f8335601e198436030181126114eb575f5ffd5b83018035915067ffffffffffffffff821115611505575f5ffd5b6020019150600581901b3603821315611269575f5ffd5b5f8154611528816110f4565b808552600182168015611542576001811461155e57611592565b60ff1983166020870152602082151560051b8701019350611592565b845f5260205f205f5b838110156115895781546020828a010152600182019150602081019050611567565b87016020019450505b50505092915050565b606081525f6115ae606083018688611298565b82810360208401526115c0818661151c565b905082810360408401526111e9818561151c565b602081525f6115e7602083018486611298565b949350505050565b5f5f8335601e19843603018112611604575f5ffd5b83018035915067ffffffffffffffff82111561161e575f5ffd5b602001915036819003821315611269575f5ffd5b602081525f6115e7602083018486611270565b634e487b7160e01b5f52604160045260245ffd5b6040516060810167ffffffffffffffff8111828210171561167c5761167c611645565b60405290565b604051601f8201601f1916810167ffffffffffffffff811182821017156116ab576116ab611645565b604052919050565b5f602082840312156116c3575f5ffd5b815167ffffffffffffffff8111156116d9575f5ffd5b8201606081850312156116ea575f5ffd5b6116f2611659565b81516116fd81610ffd565b815260208281015190820152604082015167ffffffffffffffff811115611722575f5ffd5b80830192505084601f830112611736575f5ffd5b815167ffffffffffffffff81111561175057611750611645565b611763601f8201601f1916602001611682565b818152866020838601011115611777575f5ffd5b8160208501602083015e5f918101602001919091526040820152949350505050565b601f8211156117e057805f5260205f20601f840160051c810160208510156117be5750805b601f840160051c820191505b818110156117dd575f81556001016117ca565b50505b505050565b67ffffffffffffffff8311156117fd576117fd611645565b6118118361180b83546110f4565b83611799565b5f601f841160018114611842575f851561182b5750838201355b5f19600387901b1c1916600186901b1783556117dd565b5f83815260208120601f198716915b828110156118715786850135825560209485019460019092019101611851565b508682101561188d575f1960f88860031b161c19848701351681555b505060018560011b0183555050505050565b67ffffffffffffffff8311156118b7576118b7611645565b680100000000000000008311156118d0576118d0611645565b805483825580841015611905575f828152602090208481019082015b80821015611902575f82556001909101906118ec565b50505b505f8181526020812083915b8581101561192d57823582820155602090920191600101611911565b505050505050565b5f8235607e198336030181126114cc575f5ffd5b5f81356111a4816111ff565b813581556001810161196a60208401846115ef565b67ffffffffffffffff81111561198257611982611645565b6119968161199085546110f4565b85611799565b5f601f8211600181146119c7575f83156119b05750838201355b5f19600385901b1c1916600184901b178555611a1e565b5f85815260208120601f198516915b828110156119f657868501358255602094850194600190920191016119d6565b5084821015611a12575f1960f88660031b161c19848701351681555b505060018360011b0185555b5050505050611a3060408301836115ef565b611a3e8183600286016117e5565b5050611a68611a4f60608401611949565b6003830160ff1981541660ff8315151681178255505050565b5050565b81358155602082013536839003605e19018112611a87575f5ffd5b82018035600183015560028201611aa160208301836115ef565b67ffffffffffffffff811115611ab957611ab9611645565b611ac78161199085546110f4565b5f601f821160018114611af8575f8315611ae15750838201355b5f19600385901b1c1916600184901b178555611b4f565b5f85815260208120601f198516915b82811015611b275786850135825560209485019460019092019101611b07565b5084821015611b43575f1960f88660031b161c19848701351681555b505060018360011b0185555b5050505050611b6160408201826114d6565b9150611b7182826003860161189f565b5050611b8060408301836115ef565b611b8e8183600486016117e5565b5050611a68611ba06060840184611935565b6005830161195556fea2646970667358221220fc019760ead8e63bcf79b505a0484bfa4a6536631eafd22bccc93efb653db69c64736f6c634300081e0033","linkReferences":{}},"methodIdentifiers":{"deleteRegistration()":"392b7ae7","register((bytes32,(bytes32,bytes,bytes32[]),bytes,(uint256,string,string,bool)))":"dddca9d4","validDomain()":"c47ca04c","validScope()":"1f4a2f59","verifyProof(address,uint256,bytes4,bytes)":"531a9e5b","zkPassportHelper()":"69744c62","zkPassportVerifier()":"c4797ec5"},"id":139}