{"abi":[{"type":"constructor","inputs":[{"name":"_zkPassportVerifier","type":"address","internalType":"address"},{"name":"_zkPassportHelper","type":"address","internalType":"address"},{"name":"_domain","type":"string","internalType":"string"},{"name":"_scope","type":"string","internalType":"string"}],"stateMutability":"nonpayable"},{"type":"function","name":"deleteRegistration","inputs":[],"outputs":[],"stateMutability":"nonpayable"},{"type":"function","name":"register","inputs":[{"name":"params","type":"tuple","internalType":"struct ProofVerificationParams","components":[{"name":"version","type":"bytes32","internalType":"bytes32"},{"name":"proofVerificationData","type":"tuple","internalType":"struct ProofVerificationData","components":[{"name":"vkeyHash","type":"bytes32","internalType":"bytes32"},{"name":"proof","type":"bytes","internalType":"bytes"},{"name":"publicInputs","type":"bytes32[]","internalType":"bytes32[]"}]},{"name":"committedInputs","type":"bytes","internalType":"bytes"},{"name":"serviceConfig","type":"tuple","internalType":"struct ServiceConfig","components":[{"name":"validityPeriodInSeconds","type":"uint256","internalType":"uint256"},{"name":"domain","type":"string","internalType":"string"},{"name":"scope","type":"string","internalType":"string"},{"name":"devMode","type":"bool","internalType":"bool"}]}]},{"name":"isIDCard","type":"bool","internalType":"bool"}],"outputs":[{"name":"identifier","type":"bytes32","internalType":"bytes32"}],"stateMutability":"nonpayable"},{"type":"function","name":"validDomain","inputs":[],"outputs":[{"name":"","type":"string","internalType":"string"}],"stateMutability":"view"},{"type":"function","name":"validScope","inputs":[],"outputs":[{"name":"","type":"string","internalType":"string"}],"stateMutability":"view"},{"type":"function","name":"verifyProof","inputs":[{"name":"account","type":"address","internalType":"address"},{"name":"staleAfterSeconds","type":"uint256","internalType":"uint256"},{"name":"functionSelector","type":"bytes4","internalType":"bytes4"},{"name":"input","type":"bytes","internalType":"bytes"}],"outputs":[{"name":"","type":"bool","internalType":"bool"}],"stateMutability":"view"},{"type":"function","name":"zkPassportHelper","inputs":[],"outputs":[{"name":"","type":"address","internalType":"contract ZKPassportHelper"}],"stateMutability":"view"},{"type":"function","name":"zkPassportVerifier","inputs":[],"outputs":[{"name":"","type":"address","internalType":"contract ZKPassportRootVerifier"}],"stateMutability":"view"},{"type":"event","name":"IdentityDeleted","inputs":[{"name":"identifier","type":"bytes32","indexed":true,"internalType":"bytes32"},{"name":"oldAccount","type":"address","indexed":true,"internalType":"address"}],"anonymous":false},{"type":"event","name":"IdentityMoved","inputs":[{"name":"identifier","type":"bytes32","indexed":true,"internalType":"bytes32"},{"name":"oldAccount","type":"address","indexed":true,"internalType":"address"},{"name":"newAccount","type":"address","indexed":true,"internalType":"address"}],"anonymous":false},{"type":"event","name":"IdentityRegistered","inputs":[{"name":"account","type":"address","indexed":true,"internalType":"address"},{"name":"identifier","type":"bytes32","indexed":true,"internalType":"bytes32"}],"anonymous":false}],"bytecode":{"object":"0x60c060405234801561000f575f5ffd5b50604051611f97380380611f9783398101604081905261002e91610176565b6001600160a01b0384166100885760405162461bcd60e51b815260206004820181905260248201527f5a4b50617373706f72743a20496e76616c6964207a65726f2061646472657373604482015260640160405180910390fd5b6001600160a01b03808516608052831660a05260036100a78382610280565b5060046100b48282610280565b505050505061033a565b80516001600160a01b03811681146100d4575f5ffd5b919050565b634e487b7160e01b5f52604160045260245ffd5b5f82601f8301126100fc575f5ffd5b81516001600160401b03811115610115576101156100d9565b604051601f8201601f19908116603f011681016001600160401b0381118282101715610143576101436100d9565b60405281815283820160200185101561015a575f5ffd5b8160208501602083015e5f918101602001919091529392505050565b5f5f5f5f60808587031215610189575f5ffd5b610192856100be565b93506101a0602086016100be565b60408601519093506001600160401b038111156101bb575f5ffd5b6101c7878288016100ed565b606087015190935090506001600160401b038111156101e4575f5ffd5b6101f0878288016100ed565b91505092959194509250565b600181811c9082168061021057607f821691505b60208210810361022e57634e487b7160e01b5f52602260045260245ffd5b50919050565b601f82111561027b57805f5260205f20601f840160051c810160208510156102595750805b601f840160051c820191505b81811015610278575f8155600101610265565b50505b505050565b81516001600160401b03811115610299576102996100d9565b6102ad816102a784546101fc565b84610234565b6020601f8211600181146102df575f83156102c85750848201515b5f19600385901b1c1916600184901b178455610278565b5f84815260208120601f198516915b8281101561030e57878501518255602094850194600190920191016102ee565b508482101561032b57868401515f19600387901b60f8161c191681555b50505050600190811b01905550565b60805160a051611c2861036f5f395f818160eb01528181610cc40152610d9a01525f818161012a01526101740152611c285ff3fe608060405234801561000f575f5ffd5b506004361061007a575f3560e01c8063531a9e5b11610058578063531a9e5b146100c357806369744c62146100e6578063c4797ec514610125578063c47ca04c1461014c575f5ffd5b8063051d0bbf1461007e5780631f4a2f59146100a4578063392b7ae7146100b9575b5f5ffd5b61009161008c366004611002565b610154565b6040519081526020015b60405180910390f35b6100ac6106f4565b60405161009b9190611083565b6100c1610780565b005b6100d66100d13660046110b0565b610925565b604051901515815260200161009b565b61010d7f000000000000000000000000000000000000000000000000000000000000000081565b6040516001600160a01b03909116815260200161009b565b61010d7f000000000000000000000000000000000000000000000000000000000000000081565b6100ac610f0d565b5f61015d610f1a565b60405163578bd92160e01b81526001600160a01b037f0000000000000000000000000000000000000000000000000000000000000000169063578bd921906101a990879060040161129b565b606060405180830381865afa1580156101c4573d5f5f3e3d5ffd5b505050506040513d601f19601f820116820180604052508101906101e891906113a6565b6001600160a01b0316610100840152602083015215158082526102525760405162461bcd60e51b815260206004820152601060248201527f50726f6f6620697320696e76616c69640000000000000000000000000000000060448201526064015b60405180910390fd5b6101008101516001600160a01b031663847755e361027360208701876113e6565b610281906040810190611404565b600360046040518563ffffffff1660e01b81526004016102a49493929190611501565b602060405180830381865afa1580156102bf573d5f5f3e3d5ffd5b505050506040513d601f19601f820116820180604052508101906102e39190611545565b61032f5760405162461bcd60e51b815260206004820152600d60248201527f496e76616c69642073636f7065000000000000000000000000000000000000006044820152606401610249565b6020808201515f908152600190915260409020546001600160a01b0316158061037357506020808201515f908152600190915260409020546001600160a01b031633145b6103e55760405162461bcd60e51b815260206004820152602e60248201527f50617373706f727420616c7265616479207265676973746572656420746f206160448201527f6e6f74686572206163636f756e740000000000000000000000000000000000006064820152608401610249565b6101008101516001600160a01b031663d14df29861040660208701876113e6565b610414906040810190611404565b6040518363ffffffff1660e01b8152600401610431929190611560565b602060405180830381865afa15801561044c573d5f5f3e3d5ffd5b505050506040513d601f19601f82011682018060405250810190610470919061157b565b60408201819052610e10906104859042611592565b106104d25760405162461bcd60e51b815260206004820152601060248201527f50726f6f6620697320746f6f206f6c64000000000000000000000000000000006044820152606401610249565b6101008101516001600160a01b0316630af18ba66104f360408701876115b1565b6040518363ffffffff1660e01b81526004016105109291906115f4565b5f60405180830381865afa15801561052a573d5f5f3e3d5ffd5b505050506040513d5f823e601f3d908101601f191682016040526105519190810190611675565b60608201819052516001600160a01b031633146105b05760405162461bcd60e51b815260206004820152601760248201527f4e6f74207468652065787065637465642073656e6465720000000000000000006044820152606401610249565b46816060015160200151146106075760405162461bcd60e51b815260206004820152601060248201527f496e76616c696420636861696e206964000000000000000000000000000000006044820152606401610249565b606081015160400151511561065e5760405162461bcd60e51b815260206004820152601b60248201527f437573746f6d20646174612073686f756c6420626520656d70747900000000006044820152606401610249565b60208082018051335f8181528085526040808220939093558351815260018552828120805473ffffffffffffffffffffffffffffffffffffffff19169092179091559151825260029092522084906106b68282611a2e565b5050602081015160405133907f209ae2eb4ff1890ce972a80ec3e167b52d41ab089135cc6430447b1430e824be905f90a36020015190505b92915050565b600480546107019061144a565b80601f016020809104026020016040519081016040528092919081815260200182805461072d9061144a565b80156107785780601f1061074f57610100808354040283529160200191610778565b820191905f5260205f20905b81548152906001019060200180831161075b57829003601f168201915b505050505081565b335f90815260208190526040902054806107dc5760405162461bcd60e51b815260206004820152601560248201527f4e6f20726567697374726174696f6e20666f756e6400000000000000000000006044820152606401610249565b5f818152600160205260409020546001600160a01b0316331461084d5760405162461bcd60e51b815260206004820152602360248201527f4964656e746966696572206e6f74207265676973746572656420746f2063616c6044820152623632b960e91b6064820152608401610249565b335f908152602081815260408083208390558383526001808352818420805473ffffffffffffffffffffffffffffffffffffffff1916905560029283905290832083815590810183815590929182906108a890850182610f8c565b6108b5600283015f610fc6565b506108c59050600483015f610f8c565b5f60058301818155906108db6006850182610f8c565b6108e8600283015f610f8c565b50600301805460ff191690555050604051339082907ff7fef2e356b5886f568a2120b6c085fa74aa83fbc2b95ee716167c22e9dc3205905f90a350565b5f61092e610f1a565b6001600160a01b0387165f90815260208190526040902054608082018190526109995760405162461bcd60e51b815260206004820152601560248201527f4e6f20726567697374726174696f6e20666f756e6400000000000000000000006044820152606401610249565b5f60025f836080015181526020019081526020015f206040518060800160405290815f8201548152602001600182016040518060600160405290815f82015481526020016001820180546109ec9061144a565b80601f0160208091040260200160405190810160405280929190818152602001828054610a189061144a565b8015610a635780601f10610a3a57610100808354040283529160200191610a63565b820191905f5260205f20905b815481529060010190602001808311610a4657829003601f168201915b5050505050815260200160028201805480602002602001604051908101604052809291908181526020018280548015610ab957602002820191905f5260205f20905b815481526020019060010190808311610aa5575b5050505050815250508152602001600482018054610ad69061144a565b80601f0160208091040260200160405190810160405280929190818152602001828054610b029061144a565b8015610b4d5780601f10610b2457610100808354040283529160200191610b4d565b820191905f5260205f20905b815481529060010190602001808311610b3057829003601f168201915b50505050508152602001600582016040518060800160405290815f8201548152602001600182018054610b7f9061144a565b80601f0160208091040260200160405190810160405280929190818152602001828054610bab9061144a565b8015610bf65780601f10610bcd57610100808354040283529160200191610bf6565b820191905f5260205f20905b815481529060010190602001808311610bd957829003601f168201915b50505050508152602001600282018054610c0f9061144a565b80601f0160208091040260200160405190810160405280929190818152602001828054610c3b9061144a565b8015610c865780601f10610c5d57610100808354040283529160200191610c86565b820191905f5260205f20905b815481529060010190602001808311610c6957829003601f168201915b50505091835250506003919091015460ff16151560209182015291528201516040908101519051631a29be5360e31b81529293506001600160a01b037f0000000000000000000000000000000000000000000000000000000000000000169263d14df2989250610cf99190600401611b6b565b602060405180830381865afa158015610d14573d5f5f3e3d5ffd5b505050506040513d601f19601f82011682018060405250810190610d38919061157b565b604083018190528790610d4b9042611592565b10610d985760405162461bcd60e51b815260206004820152600e60248201527f50726f6f66206973207374616c650000000000000000000000000000000000006044820152606401610249565b7f00000000000000000000000000000000000000000000000000000000000000006001600160a01b03168686868460400151604051602001610ddc93929190611bad565b60408051601f1981840301815290829052610df991602401611083565b60408051601f198184030181529181526020820180517bffffffffffffffffffffffffffffffffffffffffffffffffffffffff166001600160e01b0319909416939093179092529051610e4c9190611bdc565b5f60405180830381855afa9150503d805f8114610e84576040519150601f19603f3d011682016040523d82523d5f602084013e610e89565b606091505b5060c0840152151560a08301819052610ee45760405162461bcd60e51b815260206004820152601e60248201527f50726f6f6620766572696669636174696f6e2063616c6c206661696c656400006044820152606401610249565b8160c00151806020019051810190610efc9190611545565b151591829052509695505050505050565b600380546107019061144a565b6040518061012001604052805f151581526020015f81526020015f8152602001610f6560405180606001604052805f6001600160a01b031681526020015f8152602001606081525090565b81525f60208201819052604082018190526060808301526080820181905260a09091015290565b508054610f989061144a565b5f825580601f10610fa7575050565b601f0160209004905f5260205f2090810190610fc39190610fdd565b50565b5080545f8255905f5260205f2090810190610fc391905b5b80821115610ff1575f8155600101610fde565b5090565b8015158114610fc3575f5ffd5b5f5f60408385031215611013575f5ffd5b823567ffffffffffffffff811115611029575f5ffd5b83016080818603121561103a575f5ffd5b9150602083013561104a81610ff5565b809150509250929050565b5f81518084528060208401602086015e5f602082860101526020601f19601f83011685010191505092915050565b602081525f6110956020830184611055565b9392505050565b6001600160a01b0381168114610fc3575f5ffd5b5f5f5f5f5f608086880312156110c4575f5ffd5b85356110cf8161109c565b94506020860135935060408601356001600160e01b0319811681146110f2575f5ffd5b9250606086013567ffffffffffffffff81111561110d575f5ffd5b8601601f8101881361111d575f5ffd5b803567ffffffffffffffff811115611133575f5ffd5b886020828401011115611144575f5ffd5b959894975092955050506020019190565b5f5f8335601e1984360301811261116a575f5ffd5b830160208101925035905067ffffffffffffffff811115611189575f5ffd5b803603821315611197575f5ffd5b9250929050565b81835281816020850137505f828201602090810191909152601f909101601f19169091010190565b8183525f7f07ffffffffffffffffffffffffffffffffffffffffffffffffffffffffffffff8311156111f6575f5ffd5b8260051b80836020870137939093016020019392505050565b5f8235607e19833603018112611223575f5ffd5b90910192915050565b803582525f61123e6020830183611155565b6080602086015261125360808601828461119e565b9150506112636040840184611155565b858303604087015261127683828461119e565b92505050606083013561128881610ff5565b8015156060860152508091505092915050565b60208082528235828201525f9083013536849003605e190181126112bd575f5ffd5b608060408401528301803560a08401526112da6020820182611155565b606060c08601526112f06101008601828461119e565b9150506040820135601e19833603018112611309575f5ffd5b60209201918201913567ffffffffffffffff811115611326575f5ffd5b8060051b3603831315611337575f5ffd5b848203609f190160e086015261134e8282856111c6565b9250505061135f6040850185611155565b848303601f1901606086015261137683828461119e565b92505050611387606085018561120f565b838203601f1901608085015261139d828261122c565b95945050505050565b5f5f5f606084860312156113b8575f5ffd5b83516113c381610ff5565b6020850151604086015191945092506113db8161109c565b809150509250925092565b5f8235605e198336030181126113fa575f5ffd5b9190910192915050565b5f5f8335601e19843603018112611419575f5ffd5b83018035915067ffffffffffffffff821115611433575f5ffd5b6020019150600581901b3603821315611197575f5ffd5b600181811c9082168061145e57607f821691505b60208210810361147c57634e487b7160e01b5f52602260045260245ffd5b50919050565b5f815461148e8161144a565b8085526001821680156114a857600181146114c4576114f8565b60ff1983166020870152602082151560051b87010193506114f8565b845f5260205f205f5b838110156114ef5781546020828a0101526001820191506020810190506114cd565b87016020019450505b50505092915050565b606081525f6115146060830186886111c6565b82810360208401526115268186611482565b9050828103604084015261153a8185611482565b979650505050505050565b5f60208284031215611555575f5ffd5b815161109581610ff5565b602081525f6115736020830184866111c6565b949350505050565b5f6020828403121561158b575f5ffd5b5051919050565b818103818111156106ee57634e487b7160e01b5f52601160045260245ffd5b5f5f8335601e198436030181126115c6575f5ffd5b83018035915067ffffffffffffffff8211156115e0575f5ffd5b602001915036819003821315611197575f5ffd5b602081525f61157360208301848661119e565b634e487b7160e01b5f52604160045260245ffd5b6040516060810167ffffffffffffffff8111828210171561163e5761163e611607565b60405290565b604051601f8201601f1916810167ffffffffffffffff8111828210171561166d5761166d611607565b604052919050565b5f60208284031215611685575f5ffd5b815167ffffffffffffffff81111561169b575f5ffd5b8201606081850312156116ac575f5ffd5b6116b461161b565b81516116bf8161109c565b815260208281015190820152604082015167ffffffffffffffff8111156116e4575f5ffd5b80830192505084601f8301126116f8575f5ffd5b815167ffffffffffffffff81111561171257611712611607565b611725601f8201601f1916602001611644565b818152866020838601011115611739575f5ffd5b8160208501602083015e5f918101602001919091526040820152949350505050565b601f8211156117a257805f5260205f20601f840160051c810160208510156117805750805b601f840160051c820191505b8181101561179f575f815560010161178c565b50505b505050565b67ffffffffffffffff8311156117bf576117bf611607565b6117d3836117cd835461144a565b8361175b565b5f601f841160018114611804575f85156117ed5750838201355b5f19600387901b1c1916600186901b17835561179f565b5f83815260208120601f198716915b828110156118335786850135825560209485019460019092019101611813565b508682101561184f575f1960f88860031b161c19848701351681555b505060018560011b0183555050505050565b67ffffffffffffffff83111561187957611879611607565b6801000000000000000083111561189257611892611607565b8054838255808410156118c7575f828152602090208481019082015b808210156118c4575f82556001909101906118ae565b50505b505f8181526020812083915b858110156118ef578235828201556020909201916001016118d3565b505050505050565b5f8235607e198336030181126113fa575f5ffd5b5f81356106ee81610ff5565b813581556001810161192c60208401846115b1565b67ffffffffffffffff81111561194457611944611607565b61195881611952855461144a565b8561175b565b5f601f821160018114611989575f83156119725750838201355b5f19600385901b1c1916600184901b1785556119e0565b5f85815260208120601f198516915b828110156119b85786850135825560209485019460019092019101611998565b50848210156119d4575f1960f88660031b161c19848701351681555b505060018360011b0185555b50505050506119f260408301836115b1565b611a008183600286016117a7565b5050611a2a611a116060840161190b565b6003830160ff1981541660ff8315151681178255505050565b5050565b81358155602082013536839003605e19018112611a49575f5ffd5b82018035600183015560028201611a6360208301836115b1565b67ffffffffffffffff811115611a7b57611a7b611607565b611a8981611952855461144a565b5f601f821160018114611aba575f8315611aa35750838201355b5f19600385901b1c1916600184901b178555611b11565b5f85815260208120601f198516915b82811015611ae95786850135825560209485019460019092019101611ac9565b5084821015611b05575f1960f88660031b161c19848701351681555b505060018360011b0185555b5050505050611b236040820182611404565b9150611b33828260038601611861565b5050611b4260408301836115b1565b611b508183600486016117a7565b5050611a2a611b6260608401846118f7565b60058301611917565b602080825282518282018190525f918401906040840190835b81811015611ba2578351835260209384019390920191600101611b84565b509095945050505050565b604081525f611bc060408301858761119e565b8281036020840152611bd28185611055565b9695505050505050565b5f82518060208501845e5f92019182525091905056fea2646970667358221220b0f94ec913437793d2973ef152d3e0fbe91327cad371e590df60aa29560b4fa764736f6c634300081e0033","linkReferences":{}},"methodIdentifiers":{"deleteRegistration()":"392b7ae7","register((bytes32,(bytes32,bytes,bytes32[]),bytes,(uint256,string,string,bool)),bool)":"051d0bbf","validDomain()":"c47ca04c","validScope()":"1f4a2f59","verifyProof(address,uint256,bytes4,bytes)":"531a9e5b","zkPassportHelper()":"69744c62","zkPassportVerifier()":"c4797ec5"},"id":140}