{"abi":[{"type":"constructor","inputs":[{"name":"_zkPassportVerifier","type":"address","internalType":"address"},{"name":"_zkPassportHelper","type":"address","internalType":"address"},{"name":"_domain","type":"string","internalType":"string"},{"name":"_scope","type":"string","internalType":"string"}],"stateMutability":"nonpayable"},{"type":"function","name":"deleteProof","inputs":[],"outputs":[],"stateMutability":"nonpayable"},{"type":"function","name":"registerProof","inputs":[{"name":"params","type":"tuple","internalType":"struct ProofVerificationParams","components":[{"name":"version","type":"bytes32","internalType":"bytes32"},{"name":"proofVerificationData","type":"tuple","internalType":"struct ProofVerificationData","components":[{"name":"vkeyHash","type":"bytes32","internalType":"bytes32"},{"name":"proof","type":"bytes","internalType":"bytes"},{"name":"publicInputs","type":"bytes32[]","internalType":"bytes32[]"}]},{"name":"committedInputs","type":"bytes","internalType":"bytes"},{"name":"serviceConfig","type":"tuple","internalType":"struct ServiceConfig","components":[{"name":"validityPeriodInSeconds","type":"uint256","internalType":"uint256"},{"name":"domain","type":"string","internalType":"string"},{"name":"scope","type":"string","internalType":"string"},{"name":"devMode","type":"bool","internalType":"bool"}]}]}],"outputs":[{"name":"identifier","type":"bytes32","internalType":"bytes32"}],"stateMutability":"nonpayable"},{"type":"function","name":"validDomain","inputs":[],"outputs":[{"name":"","type":"string","internalType":"string"}],"stateMutability":"view"},{"type":"function","name":"validScope","inputs":[],"outputs":[{"name":"","type":"string","internalType":"string"}],"stateMutability":"view"},{"type":"function","name":"verifyProof","inputs":[{"name":"account","type":"address","internalType":"address"},{"name":"staleAfterSeconds","type":"uint256","internalType":"uint256"},{"name":"functionSelector","type":"bytes4","internalType":"bytes4"},{"name":"input","type":"bytes","internalType":"bytes"}],"outputs":[{"name":"","type":"bool","internalType":"bool"}],"stateMutability":"view"},{"type":"function","name":"zkPassportHelper","inputs":[],"outputs":[{"name":"","type":"address","internalType":"contract IZKPassportHelper"}],"stateMutability":"view"},{"type":"function","name":"zkPassportVerifier","inputs":[],"outputs":[{"name":"","type":"address","internalType":"contract IZKPassportVerifier"}],"stateMutability":"view"},{"type":"event","name":"IdentityDeleted","inputs":[{"name":"identifier","type":"bytes32","indexed":true,"internalType":"bytes32"},{"name":"oldAccount","type":"address","indexed":true,"internalType":"address"}],"anonymous":false},{"type":"event","name":"IdentityMoved","inputs":[{"name":"identifier","type":"bytes32","indexed":true,"internalType":"bytes32"},{"name":"oldAccount","type":"address","indexed":true,"internalType":"address"},{"name":"newAccount","type":"address","indexed":true,"internalType":"address"}],"anonymous":false},{"type":"event","name":"IdentityRegistered","inputs":[{"name":"account","type":"address","indexed":true,"internalType":"address"},{"name":"identifier","type":"bytes32","indexed":true,"internalType":"bytes32"}],"anonymous":false}],"bytecode":{"object":"0x60c060405234801561000f575f5ffd5b50604051612e99380380612e9983398101604081905261002e91610176565b6001600160a01b0384166100885760405162461bcd60e51b815260206004820181905260248201527f5a4b50617373706f72743a20496e76616c6964207a65726f2061646472657373604482015260640160405180910390fd5b6001600160a01b03808516608052831660a05260036100a78382610280565b5060046100b48282610280565b505050505061033a565b80516001600160a01b03811681146100d4575f5ffd5b919050565b634e487b7160e01b5f52604160045260245ffd5b5f82601f8301126100fc575f5ffd5b81516001600160401b03811115610115576101156100d9565b604051601f8201601f19908116603f011681016001600160401b0381118282101715610143576101436100d9565b60405281815283820160200185101561015a575f5ffd5b8160208501602083015e5f918101602001919091529392505050565b5f5f5f5f60808587031215610189575f5ffd5b610192856100be565b93506101a0602086016100be565b60408601519093506001600160401b038111156101bb575f5ffd5b6101c7878288016100ed565b606087015190935090506001600160401b038111156101e4575f5ffd5b6101f0878288016100ed565b91505092959194509250565b600181811c9082168061021057607f821691505b60208210810361022e57634e487b7160e01b5f52602260045260245ffd5b50919050565b601f82111561027b57805f5260205f20601f840160051c810160208510156102595750805b601f840160051c820191505b81811015610278575f8155600101610265565b50505b505050565b81516001600160401b03811115610299576102996100d9565b6102ad816102a784546101fc565b84610234565b6020601f8211600181146102df575f83156102c85750848201515b5f19600385901b1c1916600184901b178455610278565b5f84815260208120601f198516915b8281101561030e57878501518255602094850194600190920191016102ee565b508482101561032b57868401515f19600387901b60f8161c191681555b50505050600190811b01905550565b60805160a051612a7b61041e5f395f818160ce0152818161072d01528181610c7f01528181610e1801528181610f200152818161116f015281816112190152818161127b015281816112dd01528181611342015281816113ef01528181611451015281816114b30152818161151501528181611577015281816115dc01528181611640015281816116a20152818161170401528181611766015281816117c80152818161182d01528181611891015281816118f60152818161195a015281816119bc01528181611a1e0152611a8001525f818161012e0152610ba90152612a7b5ff3fe608060405234801561000f575f5ffd5b506004361061007a575f3560e01c806369744c621161005857806369744c62146100c95780639ae4355514610108578063c4797ec514610129578063c47ca04c14610150575f5ffd5b80631e084f251461007e5780631f4a2f5914610088578063531a9e5b146100a6575b5f5ffd5b610086610158565b005b610090610302565b60405161009d9190611bc8565b60405180910390f35b6100b96100b4366004611bf5565b61038e565b604051901515815260200161009d565b6100f07f000000000000000000000000000000000000000000000000000000000000000081565b6040516001600160a01b03909116815260200161009d565b61011b610116366004611c9a565b610b89565b60405190815260200161009d565b6100f07f000000000000000000000000000000000000000000000000000000000000000081565b610090611150565b335f90815260208190526040902054806101b95760405162461bcd60e51b815260206004820152601560248201527f4e6f20726567697374726174696f6e20666f756e64000000000000000000000060448201526064015b60405180910390fd5b5f818152600160205260409020546001600160a01b0316331461022a5760405162461bcd60e51b815260206004820152602360248201527f4964656e746966696572206e6f74207265676973746572656420746f2063616c6044820152623632b960e91b60648201526084016101b0565b335f908152602081815260408083208390558383526001808352818420805473ffffffffffffffffffffffffffffffffffffffff19169055600292839052908320838155908101838155909291829061028590850182611ad0565b610292600283015f611b0a565b506102a29050600483015f611ad0565b5f60058301818155906102b86006850182611ad0565b6102c5600283015f611ad0565b50600301805460ff191690555050604051339082907ff7fef2e356b5886f568a2120b6c085fa74aa83fbc2b95ee716167c22e9dc3205905f90a350565b6004805461030f90611cd1565b80601f016020809104026020016040519081016040528092919081815260200182805461033b90611cd1565b80156103865780601f1061035d57610100808354040283529160200191610386565b820191905f5260205f20905b81548152906001019060200180831161036957829003601f168201915b505050505081565b5f610397611b25565b6001600160a01b0387165f90815260208190526040902054608082018190526104025760405162461bcd60e51b815260206004820152601560248201527f4e6f20726567697374726174696f6e20666f756e64000000000000000000000060448201526064016101b0565b5f60025f836080015181526020019081526020015f206040518060800160405290815f8201548152602001600182016040518060600160405290815f820154815260200160018201805461045590611cd1565b80601f016020809104026020016040519081016040528092919081815260200182805461048190611cd1565b80156104cc5780601f106104a3576101008083540402835291602001916104cc565b820191905f5260205f20905b8154815290600101906020018083116104af57829003601f168201915b505050505081526020016002820180548060200260200160405190810160405280929190818152602001828054801561052257602002820191905f5260205f20905b81548152602001906001019080831161050e575b505050505081525050815260200160048201805461053f90611cd1565b80601f016020809104026020016040519081016040528092919081815260200182805461056b90611cd1565b80156105b65780601f1061058d576101008083540402835291602001916105b6565b820191905f5260205f20905b81548152906001019060200180831161059957829003601f168201915b50505050508152602001600582016040518060800160405290815f82015481526020016001820180546105e890611cd1565b80601f016020809104026020016040519081016040528092919081815260200182805461061490611cd1565b801561065f5780601f106106365761010080835404028352916020019161065f565b820191905f5260205f20905b81548152906001019060200180831161064257829003601f168201915b5050505050815260200160028201805461067890611cd1565b80601f01602080910402602001604051908101604052809291908181526020018280546106a490611cd1565b80156106ef5780601f106106c6576101008083540402835291602001916106ef565b820191905f5260205f20905b8154815290600101906020018083116106d257829003601f168201915b50505091835250506003919091015460ff16151560209182015291528201516040908101519051631a29be5360e31b81529293506001600160a01b037f0000000000000000000000000000000000000000000000000000000000000000169263d14df29892506107629190600401611d09565b602060405180830381865afa15801561077d573d5f5f3e3d5ffd5b505050506040513d601f19601f820116820180604052508101906107a19190611d4b565b6040830181905287906107b49042611d62565b106108015760405162461bcd60e51b815260206004820152600e60248201527f50726f6f66206973207374616c6500000000000000000000000000000000000060448201526064016101b0565b63536c982d60e01b6001600160e01b03198716016108305761082485858361115d565b151560a0830152610b7a565b63064d49c160e41b6001600160e01b031987160161085357610824858583611207565b630b7491e160e41b6001600160e01b031987160161087657610824858583611269565b634c7d74ef60e01b6001600160e01b0319871601610899576108248585836112cb565b63059c118f60e11b6001600160e01b03198716016108bc5761082485858361132d565b63163525cd60e01b6001600160e01b03198716016108df576108248585836113dd565b6301be671760e21b6001600160e01b03198716016109025761082485858361143f565b6305b1e2a960e01b6001600160e01b0319871601610925576108248585836114a1565b6326e69a0560e11b6001600160e01b031987160161094857610824858583611503565b63066aec0960e41b6001600160e01b031987160161096b57610824858583611565565b634349977d60e11b6001600160e01b031987160161098e576108248585836115c7565b63244e1e5760e21b6001600160e01b03198716016109b15761082485858361162e565b632efe527960e01b6001600160e01b03198716016109d457610824858583611690565b630511818f60e21b6001600160e01b03198716016109f7576108248585836116f2565b63ec9e481360e01b6001600160e01b0319871601610a1a57610824858583611754565b634b23812960e11b6001600160e01b0319871601610a3d576108248585836117b6565b639a74547160e01b6001600160e01b0319871601610a6057610824858583611818565b633279cc7360e21b6001600160e01b0319871601610a835761082485858361187f565b637169437760e01b6001600160e01b0319871601610aa6576108248585836118e1565b633c15b1c160e11b6001600160e01b0319871601610ac957610824858583611948565b630d3514c760e41b6001600160e01b0319871601610aec576108248585836119aa565b63efc42c0360e01b6001600160e01b0319871601610b0f57610824858583611a0c565b632c049ef160e01b6001600160e01b0319871601610b3257610824858583611a6e565b60405162461bcd60e51b815260206004820152601d60248201527f556e737570706f727465642066756e6374696f6e2073656c6563746f7200000060448201526064016101b0565b5060a001519695505050505050565b5f610b92611b25565b60405163578bd92160e01b81526001600160a01b037f0000000000000000000000000000000000000000000000000000000000000000169063578bd92190610bde908690600401611eda565b6060604051808303815f875af1158015610bfa573d5f5f3e3d5ffd5b505050506040513d601f19601f82011682018060405250810190610c1e9190611fdc565b5060208301521515808252610c755760405162461bcd60e51b815260206004820152601060248201527f50726f6f6620697320696e76616c69640000000000000000000000000000000060448201526064016101b0565b6001600160a01b037f00000000000000000000000000000000000000000000000000000000000000001663847755e3610cb1602086018661201c565b610cbf90604081019061203a565b600360046040518563ffffffff1660e01b8152600401610ce294939291906120ff565b602060405180830381865afa158015610cfd573d5f5f3e3d5ffd5b505050506040513d601f19601f82011682018060405250810190610d219190612143565b610d6d5760405162461bcd60e51b815260206004820152600d60248201527f496e76616c69642073636f70650000000000000000000000000000000000000060448201526064016101b0565b6020808201515f908152600190915260409020546001600160a01b03161580610db157506020808201515f908152600190915260409020546001600160a01b031633145b610e0e5760405162461bcd60e51b815260206004820152602860248201527f494420616c7265616479207265676973746572656420746f20616e6f74686572604482015267081858d8dbdd5b9d60c21b60648201526084016101b0565b6001600160a01b037f00000000000000000000000000000000000000000000000000000000000000001663d14df298610e4a602086018661201c565b610e5890604081019061203a565b6040518363ffffffff1660e01b8152600401610e7592919061215e565b602060405180830381865afa158015610e90573d5f5f3e3d5ffd5b505050506040513d601f19601f82011682018060405250810190610eb49190611d4b565b60408201819052610e1090610ec99042611d62565b10610f165760405162461bcd60e51b815260206004820152601060248201527f50726f6f6620697320746f6f206f6c640000000000000000000000000000000060448201526064016101b0565b6001600160a01b037f000000000000000000000000000000000000000000000000000000000000000016630af18ba6610f526040860186612179565b6040518363ffffffff1660e01b8152600401610f6f9291906121bc565b5f60405180830381865afa158015610f89573d5f5f3e3d5ffd5b505050506040513d5f823e601f3d908101601f19168201604052610fb09190810190612264565b60608201819052516001600160a01b0316331461100f5760405162461bcd60e51b815260206004820152601760248201527f4e6f74207468652065787065637465642073656e64657200000000000000000060448201526064016101b0565b46816060015160200151146110665760405162461bcd60e51b815260206004820152601060248201527f496e76616c696420636861696e2069640000000000000000000000000000000060448201526064016101b0565b60608101516040015151156110bd5760405162461bcd60e51b815260206004820152601b60248201527f437573746f6d20646174612073686f756c6420626520656d707479000000000060448201526064016101b0565b60208082018051335f8181528085526040808220939093558351815260018552828120805473ffffffffffffffffffffffffffffffffffffffff19169092179091559151825260029092522083906111158282612603565b5050602081015160405133907f209ae2eb4ff1890ce972a80ec3e167b52d41ab089135cc6430447b1430e824be905f90a36020015192915050565b6003805461030f90611cd1565b5f8061116b84860186612755565b90507f00000000000000000000000000000000000000000000000000000000000000006001600160a01b031663ac9367d38285604001516040518363ffffffff1660e01b81526004016111bf92919061276e565b602060405180830381865afa1580156111da573d5f5f3e3d5ffd5b505050506040513d601f19601f820116820180604052508101906111fe9190612143565b95945050505050565b5f8061121584860186612755565b90507f00000000000000000000000000000000000000000000000000000000000000006001600160a01b0316639b2b63f08285604001516040518363ffffffff1660e01b81526004016111bf92919061276e565b5f8061127784860186612755565b90507f00000000000000000000000000000000000000000000000000000000000000006001600160a01b03166348b6e1f08285604001516040518363ffffffff1660e01b81526004016111bf92919061276e565b5f806112d984860186612755565b90507f00000000000000000000000000000000000000000000000000000000000000006001600160a01b031663b3828b118285604001516040518363ffffffff1660e01b81526004016111bf92919061276e565b5f808061133c85870187612789565b915091507f00000000000000000000000000000000000000000000000000000000000000006001600160a01b031663f4c7dce2838387604001516040518463ffffffff1660e01b8152600401611394939291906127ba565b602060405180830381865afa1580156113af573d5f5f3e3d5ffd5b505050506040513d601f19601f820116820180604052508101906113d39190612143565b9695505050505050565b5f806113eb84860186612755565b90507f00000000000000000000000000000000000000000000000000000000000000006001600160a01b031663e9cada338285604001516040518363ffffffff1660e01b81526004016111bf92919061276e565b5f8061144d848601866127de565b90507f00000000000000000000000000000000000000000000000000000000000000006001600160a01b031663f90663a48285604001516040518363ffffffff1660e01b81526004016111bf9291906127f5565b5f806114af848601866127de565b90507f00000000000000000000000000000000000000000000000000000000000000006001600160a01b031663fa4e1d578285604001516040518363ffffffff1660e01b81526004016111bf9291906127f5565b5f80611511848601866127de565b90507f00000000000000000000000000000000000000000000000000000000000000006001600160a01b031663b232cbf68285604001516040518363ffffffff1660e01b81526004016111bf9291906127f5565b5f80611573848601866127de565b90507f00000000000000000000000000000000000000000000000000000000000000006001600160a01b03166399513f708285604001516040518363ffffffff1660e01b81526004016111bf9291906127f5565b5f80806115d68587018761280d565b915091507f00000000000000000000000000000000000000000000000000000000000000006001600160a01b031663796cd106838387604001516040518463ffffffff1660e01b81526004016113949392919061282d565b5f8061163c848601866127de565b90507f00000000000000000000000000000000000000000000000000000000000000006001600160a01b0316636ec786a48285604001516040518363ffffffff1660e01b81526004016111bf9291906127f5565b5f8061169e848601866127de565b90507f00000000000000000000000000000000000000000000000000000000000000006001600160a01b031663d101ad878285604001516040518363ffffffff1660e01b81526004016111bf9291906127f5565b5f80611700848601866127de565b90507f00000000000000000000000000000000000000000000000000000000000000006001600160a01b031663ebb9f9c48285604001516040518363ffffffff1660e01b81526004016111bf9291906127f5565b5f80611762848601866127de565b90507f00000000000000000000000000000000000000000000000000000000000000006001600160a01b0316631361b7ed8285604001516040518363ffffffff1660e01b81526004016111bf9291906127f5565b5f806117c4848601866127de565b90507f00000000000000000000000000000000000000000000000000000000000000006001600160a01b03166369b8fdae8285604001516040518363ffffffff1660e01b81526004016111bf9291906127f5565b5f80806118278587018761280d565b915091507f00000000000000000000000000000000000000000000000000000000000000006001600160a01b031663658bab8f838387604001516040518463ffffffff1660e01b81526004016113949392919061282d565b5f8061188d848601866127de565b90507f00000000000000000000000000000000000000000000000000000000000000006001600160a01b0316633618ce348285604001516040518363ffffffff1660e01b81526004016111bf9291906127f5565b5f80806118f085870187612857565b915091507f00000000000000000000000000000000000000000000000000000000000000006001600160a01b0316638e96bc89838387604001516040518463ffffffff1660e01b8152600401611394939291906128aa565b5f80611956848601866128da565b90507f00000000000000000000000000000000000000000000000000000000000000006001600160a01b03166387d49c7e8285604001516040518363ffffffff1660e01b81526004016111bf9291906129d8565b5f806119b8848601866128da565b90507f00000000000000000000000000000000000000000000000000000000000000006001600160a01b0316632caeb3908285604001516040518363ffffffff1660e01b81526004016111bf9291906129d8565b5f80611a1a848601866128da565b90507f00000000000000000000000000000000000000000000000000000000000000006001600160a01b031663103bd3fd8285604001516040518363ffffffff1660e01b81526004016111bf9291906129d8565b5f80611a7c848601866128da565b90507f00000000000000000000000000000000000000000000000000000000000000006001600160a01b031663d3fb610f8285604001516040518363ffffffff1660e01b81526004016111bf9291906129d8565b508054611adc90611cd1565b5f825580601f10611aeb575050565b601f0160209004905f5260205f2090810190611b079190611b82565b50565b5080545f8255905f5260205f2090810190611b079190611b82565b6040518060c001604052805f151581526020015f81526020015f8152602001611b6f60405180606001604052805f6001600160a01b031681526020015f8152602001606081525090565b81525f6020820181905260409091015290565b5b80821115611b96575f8155600101611b83565b5090565b5f81518084528060208401602086015e5f602082860101526020601f19601f83011685010191505092915050565b602081525f611bda6020830184611b9a565b9392505050565b6001600160a01b0381168114611b07575f5ffd5b5f5f5f5f5f60808688031215611c09575f5ffd5b8535611c1481611be1565b94506020860135935060408601356001600160e01b031981168114611c37575f5ffd5b9250606086013567ffffffffffffffff811115611c52575f5ffd5b8601601f81018813611c62575f5ffd5b803567ffffffffffffffff811115611c78575f5ffd5b886020828401011115611c89575f5ffd5b959894975092955050506020019190565b5f60208284031215611caa575f5ffd5b813567ffffffffffffffff811115611cc0575f5ffd5b820160808185031215611bda575f5ffd5b600181811c90821680611ce557607f821691505b602082108103611d0357634e487b7160e01b5f52602260045260245ffd5b50919050565b602080825282518282018190525f918401906040840190835b81811015611d40578351835260209384019390920191600101611d22565b509095945050505050565b5f60208284031215611d5b575f5ffd5b5051919050565b81810381811115611d8157634e487b7160e01b5f52601160045260245ffd5b92915050565b5f5f8335601e19843603018112611d9c575f5ffd5b830160208101925035905067ffffffffffffffff811115611dbb575f5ffd5b803603821315611dc9575f5ffd5b9250929050565b81835281816020850137505f828201602090810191909152601f909101601f19169091010190565b8183525f7f07ffffffffffffffffffffffffffffffffffffffffffffffffffffffffffffff831115611e28575f5ffd5b8260051b80836020870137939093016020019392505050565b5f8235607e19833603018112611e55575f5ffd5b90910192915050565b8015158114611b07575f5ffd5b803582525f611e7d6020830183611d87565b60806020860152611e92608086018284611dd0565b915050611ea26040840184611d87565b8583036040870152611eb5838284611dd0565b925050506060830135611ec781611e5e565b8015156060860152508091505092915050565b60208082528235828201525f9083013536849003605e19018112611efc575f5ffd5b608060408401528301803560a0840152611f196020820182611d87565b606060c0860152611f2f61010086018284611dd0565b9150506040820135601e19833603018112611f48575f5ffd5b60209201918201913567ffffffffffffffff811115611f65575f5ffd5b8060051b3603831315611f76575f5ffd5b848203609f190160e0860152611f8d828285611df8565b92505050611f9e6040850185611d87565b848303601f19016060860152611fb5838284611dd0565b92505050611fc66060850185611e41565b838203601f190160808501526111fe8282611e6b565b5f5f5f60608486031215611fee575f5ffd5b8351611ff981611e5e565b60208501516040860151919450925061201181611be1565b809150509250925092565b5f8235605e19833603018112612030575f5ffd5b9190910192915050565b5f5f8335601e1984360301811261204f575f5ffd5b83018035915067ffffffffffffffff821115612069575f5ffd5b6020019150600581901b3603821315611dc9575f5ffd5b5f815461208c81611cd1565b8085526001821680156120a657600181146120c2576120f6565b60ff1983166020870152602082151560051b87010193506120f6565b845f5260205f205f5b838110156120ed5781546020828a0101526001820191506020810190506120cb565b87016020019450505b50505092915050565b606081525f612112606083018688611df8565b82810360208401526121248186612080565b905082810360408401526121388185612080565b979650505050505050565b5f60208284031215612153575f5ffd5b8151611bda81611e5e565b602081525f612171602083018486611df8565b949350505050565b5f5f8335601e1984360301811261218e575f5ffd5b83018035915067ffffffffffffffff8211156121a8575f5ffd5b602001915036819003821315611dc9575f5ffd5b602081525f612171602083018486611dd0565b634e487b7160e01b5f52604160045260245ffd5b6040516060810167ffffffffffffffff81118282101715612206576122066121cf565b60405290565b604051601f8201601f1916810167ffffffffffffffff81118282101715612235576122356121cf565b604052919050565b5f67ffffffffffffffff821115612256576122566121cf565b50601f01601f191660200190565b5f60208284031215612274575f5ffd5b815167ffffffffffffffff81111561228a575f5ffd5b82016060818503121561229b575f5ffd5b6122a36121e3565b81516122ae81611be1565b815260208281015190820152604082015167ffffffffffffffff8111156122d3575f5ffd5b80830192505084601f8301126122e7575f5ffd5b81516122fa6122f58261223d565b61220c565b81815286602083860101111561230e575f5ffd5b8160208501602083015e5f918101602001919091526040820152949350505050565b601f82111561237757805f5260205f20601f840160051c810160208510156123555750805b601f840160051c820191505b81811015612374575f8155600101612361565b50505b505050565b67ffffffffffffffff831115612394576123946121cf565b6123a8836123a28354611cd1565b83612330565b5f601f8411600181146123d9575f85156123c25750838201355b5f19600387901b1c1916600186901b178355612374565b5f83815260208120601f198716915b8281101561240857868501358255602094850194600190920191016123e8565b5086821015612424575f1960f88860031b161c19848701351681555b505060018560011b0183555050505050565b67ffffffffffffffff83111561244e5761244e6121cf565b68010000000000000000831115612467576124676121cf565b80548382558084101561249c575f828152602090208481019082015b80821015612499575f8255600190910190612483565b50505b505f8181526020812083915b858110156124c4578235828201556020909201916001016124a8565b505050505050565b5f8235607e19833603018112612030575f5ffd5b5f8135611d8181611e5e565b81358155600181016125016020840184612179565b67ffffffffffffffff811115612519576125196121cf565b61252d816125278554611cd1565b85612330565b5f601f82116001811461255e575f83156125475750838201355b5f19600385901b1c1916600184901b1785556125b5565b5f85815260208120601f198516915b8281101561258d578685013582556020948501946001909201910161256d565b50848210156125a9575f1960f88660031b161c19848701351681555b505060018360011b0185555b50505050506125c76040830183612179565b6125d581836002860161237c565b50506125ff6125e6606084016124e0565b6003830160ff1981541660ff8315151681178255505050565b5050565b81358155602082013536839003605e1901811261261e575f5ffd5b820180356001830155600282016126386020830183612179565b67ffffffffffffffff811115612650576126506121cf565b61265e816125278554611cd1565b5f601f82116001811461268f575f83156126785750838201355b5f19600385901b1c1916600184901b1785556126e6565b5f85815260208120601f198516915b828110156126be578685013582556020948501946001909201910161269e565b50848210156126da575f1960f88660031b161c19848701351681555b505060018360011b0185555b50505050506126f8604082018261203a565b9150612708828260038601612436565b50506127176040830183612179565b61272581836004860161237c565b50506125ff61273760608401846124cc565b600583016124ec565b803560ff81168114612750575f5ffd5b919050565b5f60208284031215612765575f5ffd5b611bda82612740565b60ff83168152604060208201525f6121716040830184611b9a565b5f5f6040838503121561279a575f5ffd5b6127a383612740565b91506127b160208401612740565b90509250929050565b60ff8416815260ff83166020820152606060408201525f6111fe6060830184611b9a565b5f602082840312156127ee575f5ffd5b5035919050565b828152604060208201525f6121716040830184611b9a565b5f5f6040838503121561281e575f5ffd5b50508035926020909101359150565b838152826020820152606060408201525f6111fe6060830184611b9a565b60038110611b07575f5ffd5b5f5f60408385031215612868575f5ffd5b82356128738161284b565b915060208301356128838161284b565b809150509250929050565b60038110611b0757634e487b7160e01b5f52602160045260245ffd5b6128b38461288e565b8381526128bf8361288e565b826020820152606060408201525f6111fe6060830184611b9a565b5f602082840312156128ea575f5ffd5b813567ffffffffffffffff811115612900575f5ffd5b8201601f81018413612910575f5ffd5b803567ffffffffffffffff81111561292a5761292a6121cf565b8060051b61293a6020820161220c565b91825260208184018101929081019087841115612955575f5ffd5b6020850192505b8383101561213857823567ffffffffffffffff81111561297a575f5ffd5b8501603f8101891361298a575f5ffd5b602081013561299b6122f58261223d565b8181526040838301018b10156129af575f5ffd5b816040840160208301375f6020838301015280855250505060208201915060208301925061295c565b5f604082016040835280855180835260608501915060608160051b8601019250602087015f5b82811015612a2f57605f19878603018452612a1a858351611b9a565b945060209384019391909101906001016129fe565b5050505082810360208401526111fe8185611b9a56fea2646970667358221220b1491e82fb1738eadd7df65658570bd5a17e0cad9735279b452c1433d0b82e2a64736f6c634300081e0033","linkReferences":{}},"methodIdentifiers":{"deleteProof()":"1e084f25","registerProof((bytes32,(bytes32,bytes,bytes32[]),bytes,(uint256,string,string,bool)))":"9ae43555","validDomain()":"c47ca04c","validScope()":"1f4a2f59","verifyProof(address,uint256,bytes4,bytes)":"531a9e5b","zkPassportHelper()":"69744c62","zkPassportVerifier()":"c4797ec5"},"id":139}