{"abi":[{"type":"constructor","inputs":[{"name":"_zkPassportVerifier","type":"address","internalType":"address"},{"name":"_zkPassportHelper","type":"address","internalType":"address"},{"name":"_domain","type":"string","internalType":"string"},{"name":"_scope","type":"string","internalType":"string"}],"stateMutability":"nonpayable"},{"type":"function","name":"deleteRegistration","inputs":[],"outputs":[],"stateMutability":"nonpayable"},{"type":"function","name":"register","inputs":[{"name":"params","type":"tuple","internalType":"struct ProofVerificationParams","components":[{"name":"version","type":"bytes32","internalType":"bytes32"},{"name":"proofVerificationData","type":"tuple","internalType":"struct ProofVerificationData","components":[{"name":"vkeyHash","type":"bytes32","internalType":"bytes32"},{"name":"proof","type":"bytes","internalType":"bytes"},{"name":"publicInputs","type":"bytes32[]","internalType":"bytes32[]"}]},{"name":"committedInputs","type":"bytes","internalType":"bytes"},{"name":"serviceConfig","type":"tuple","internalType":"struct ServiceConfig","components":[{"name":"validityPeriodInSeconds","type":"uint256","internalType":"uint256"},{"name":"domain","type":"string","internalType":"string"},{"name":"scope","type":"string","internalType":"string"},{"name":"devMode","type":"bool","internalType":"bool"}]}]}],"outputs":[{"name":"identifier","type":"bytes32","internalType":"bytes32"}],"stateMutability":"nonpayable"},{"type":"function","name":"validDomain","inputs":[],"outputs":[{"name":"","type":"string","internalType":"string"}],"stateMutability":"view"},{"type":"function","name":"validScope","inputs":[],"outputs":[{"name":"","type":"string","internalType":"string"}],"stateMutability":"view"},{"type":"function","name":"verifyProof","inputs":[{"name":"account","type":"address","internalType":"address"},{"name":"staleAfterSeconds","type":"uint256","internalType":"uint256"},{"name":"functionSelector","type":"bytes4","internalType":"bytes4"},{"name":"input","type":"bytes","internalType":"bytes"}],"outputs":[{"name":"","type":"bool","internalType":"bool"}],"stateMutability":"view"},{"type":"function","name":"zkPassportHelper","inputs":[],"outputs":[{"name":"","type":"address","internalType":"contract IZKPassportHelper"}],"stateMutability":"view"},{"type":"function","name":"zkPassportVerifier","inputs":[],"outputs":[{"name":"","type":"address","internalType":"contract IZKPassportVerifier"}],"stateMutability":"view"},{"type":"event","name":"IdentityDeleted","inputs":[{"name":"identifier","type":"bytes32","indexed":true,"internalType":"bytes32"},{"name":"oldAccount","type":"address","indexed":true,"internalType":"address"}],"anonymous":false},{"type":"event","name":"IdentityMoved","inputs":[{"name":"identifier","type":"bytes32","indexed":true,"internalType":"bytes32"},{"name":"oldAccount","type":"address","indexed":true,"internalType":"address"},{"name":"newAccount","type":"address","indexed":true,"internalType":"address"}],"anonymous":false},{"type":"event","name":"IdentityRegistered","inputs":[{"name":"account","type":"address","indexed":true,"internalType":"address"},{"name":"identifier","type":"bytes32","indexed":true,"internalType":"bytes32"}],"anonymous":false}],"bytecode":{"object":"0x60c060405234801561000f575f5ffd5b50604051611fba380380611fba83398101604081905261002e91610176565b6001600160a01b0384166100885760405162461bcd60e51b815260206004820181905260248201527f5a4b50617373706f72743a20496e76616c6964207a65726f2061646472657373604482015260640160405180910390fd5b6001600160a01b03808516608052831660a05260036100a78382610280565b5060046100b48282610280565b505050505061033a565b80516001600160a01b03811681146100d4575f5ffd5b919050565b634e487b7160e01b5f52604160045260245ffd5b5f82601f8301126100fc575f5ffd5b81516001600160401b03811115610115576101156100d9565b604051601f8201601f19908116603f011681016001600160401b0381118282101715610143576101436100d9565b60405281815283820160200185101561015a575f5ffd5b8160208501602083015e5f918101602001919091529392505050565b5f5f5f5f60808587031215610189575f5ffd5b610192856100be565b93506101a0602086016100be565b60408601519093506001600160401b038111156101bb575f5ffd5b6101c7878288016100ed565b606087015190935090506001600160401b038111156101e4575f5ffd5b6101f0878288016100ed565b91505092959194509250565b600181811c9082168061021057607f821691505b60208210810361022e57634e487b7160e01b5f52602260045260245ffd5b50919050565b601f82111561027b57805f5260205f20601f840160051c810160208510156102595750805b601f840160051c820191505b81811015610278575f8155600101610265565b50505b505050565b81516001600160401b03811115610299576102996100d9565b6102ad816102a784546101fc565b84610234565b6020601f8211600181146102df575f83156102c85750848201515b5f19600385901b1c1916600184901b178455610278565b5f84815260208120601f198516915b8281101561030e57878501518255602094850194600190920191016102ee565b508482101561032b57868401515f19600387901b60f8161c191681555b50505050600190811b01905550565b60805160a051611c366103845f395f818160ce0152818161072d0152818161080301528181610a7901528181610c120152610d1a01525f818161010d01526109a30152611c365ff3fe608060405234801561000f575f5ffd5b506004361061007a575f3560e01c806369744c621161005857806369744c62146100c9578063c4797ec514610108578063c47ca04c1461012f578063dddca9d414610137575f5ffd5b80631f4a2f591461007e578063392b7ae71461009c578063531a9e5b146100a6575b5f5ffd5b610086610158565b6040516100939190611047565b60405180910390f35b6100a46101e4565b005b6100b96100b4366004611074565b61038e565b6040519015158152602001610093565b6100f07f000000000000000000000000000000000000000000000000000000000000000081565b6040516001600160a01b039091168152602001610093565b6100f07f000000000000000000000000000000000000000000000000000000000000000081565b610086610976565b61014a610145366004611119565b610983565b604051908152602001610093565b6004805461016590611150565b80601f016020809104026020016040519081016040528092919081815260200182805461019190611150565b80156101dc5780601f106101b3576101008083540402835291602001916101dc565b820191905f5260205f20905b8154815290600101906020018083116101bf57829003601f168201915b505050505081565b335f90815260208190526040902054806102455760405162461bcd60e51b815260206004820152601560248201527f4e6f20726567697374726174696f6e20666f756e64000000000000000000000060448201526064015b60405180910390fd5b5f818152600160205260409020546001600160a01b031633146102b65760405162461bcd60e51b815260206004820152602360248201527f4964656e746966696572206e6f74207265676973746572656420746f2063616c6044820152623632b960e91b606482015260840161023c565b335f908152602081815260408083208390558383526001808352818420805473ffffffffffffffffffffffffffffffffffffffff19169055600292839052908320838155908101838155909291829061031190850182610f4a565b61031e600283015f610f84565b5061032e9050600483015f610f4a565b5f60058301818155906103446006850182610f4a565b610351600283015f610f4a565b50600301805460ff191690555050604051339082907ff7fef2e356b5886f568a2120b6c085fa74aa83fbc2b95ee716167c22e9dc3205905f90a350565b5f610397610f9f565b6001600160a01b0387165f90815260208190526040902054608082018190526104025760405162461bcd60e51b815260206004820152601560248201527f4e6f20726567697374726174696f6e20666f756e640000000000000000000000604482015260640161023c565b5f60025f836080015181526020019081526020015f206040518060800160405290815f8201548152602001600182016040518060600160405290815f820154815260200160018201805461045590611150565b80601f016020809104026020016040519081016040528092919081815260200182805461048190611150565b80156104cc5780601f106104a3576101008083540402835291602001916104cc565b820191905f5260205f20905b8154815290600101906020018083116104af57829003601f168201915b505050505081526020016002820180548060200260200160405190810160405280929190818152602001828054801561052257602002820191905f5260205f20905b81548152602001906001019080831161050e575b505050505081525050815260200160048201805461053f90611150565b80601f016020809104026020016040519081016040528092919081815260200182805461056b90611150565b80156105b65780601f1061058d576101008083540402835291602001916105b6565b820191905f5260205f20905b81548152906001019060200180831161059957829003601f168201915b50505050508152602001600582016040518060800160405290815f82015481526020016001820180546105e890611150565b80601f016020809104026020016040519081016040528092919081815260200182805461061490611150565b801561065f5780601f106106365761010080835404028352916020019161065f565b820191905f5260205f20905b81548152906001019060200180831161064257829003601f168201915b5050505050815260200160028201805461067890611150565b80601f01602080910402602001604051908101604052809291908181526020018280546106a490611150565b80156106ef5780601f106106c6576101008083540402835291602001916106ef565b820191905f5260205f20905b8154815290600101906020018083116106d257829003601f168201915b50505091835250506003919091015460ff16151560209182015291528201516040908101519051631a29be5360e31b81529293506001600160a01b037f0000000000000000000000000000000000000000000000000000000000000000169263d14df29892506107629190600401611188565b602060405180830381865afa15801561077d573d5f5f3e3d5ffd5b505050506040513d601f19601f820116820180604052508101906107a191906111ca565b6040830181905287906107b490426111e1565b106108015760405162461bcd60e51b815260206004820152600e60248201527f50726f6f66206973207374616c65000000000000000000000000000000000000604482015260640161023c565b7f00000000000000000000000000000000000000000000000000000000000000006001600160a01b031686868684604001516040516020016108459392919061122e565b60408051601f198184030181529082905261086291602401611047565b60408051601f198184030181529181526020820180517bffffffffffffffffffffffffffffffffffffffffffffffffffffffff166001600160e01b03199094169390931790925290516108b5919061125d565b5f60405180830381855afa9150503d805f81146108ed576040519150601f19603f3d011682016040523d82523d5f602084013e6108f2565b606091505b5060c0840152151560a0830181905261094d5760405162461bcd60e51b815260206004820152601e60248201527f50726f6f6620766572696669636174696f6e2063616c6c206661696c65640000604482015260640161023c565b8160c001518060200190518101906109659190611280565b151591829052509695505050505050565b6003805461016590611150565b5f61098c610f9f565b60405163578bd92160e01b81526001600160a01b037f0000000000000000000000000000000000000000000000000000000000000000169063578bd921906109d89086906004016113b9565b6060604051808303815f875af11580156109f4573d5f5f3e3d5ffd5b505050506040513d601f19601f82011682018060405250810190610a1891906114c4565b5060208301521515808252610a6f5760405162461bcd60e51b815260206004820152601060248201527f50726f6f6620697320696e76616c696400000000000000000000000000000000604482015260640161023c565b6001600160a01b037f00000000000000000000000000000000000000000000000000000000000000001663847755e3610aab6020860186611504565b610ab9906040810190611522565b600360046040518563ffffffff1660e01b8152600401610adc94939291906115e7565b602060405180830381865afa158015610af7573d5f5f3e3d5ffd5b505050506040513d601f19601f82011682018060405250810190610b1b9190611280565b610b675760405162461bcd60e51b815260206004820152600d60248201527f496e76616c69642073636f706500000000000000000000000000000000000000604482015260640161023c565b6020808201515f908152600190915260409020546001600160a01b03161580610bab57506020808201515f908152600190915260409020546001600160a01b031633145b610c085760405162461bcd60e51b815260206004820152602860248201527f494420616c7265616479207265676973746572656420746f20616e6f74686572604482015267081858d8dbdd5b9d60c21b606482015260840161023c565b6001600160a01b037f00000000000000000000000000000000000000000000000000000000000000001663d14df298610c446020860186611504565b610c52906040810190611522565b6040518363ffffffff1660e01b8152600401610c6f92919061162b565b602060405180830381865afa158015610c8a573d5f5f3e3d5ffd5b505050506040513d601f19601f82011682018060405250810190610cae91906111ca565b60408201819052610e1090610cc390426111e1565b10610d105760405162461bcd60e51b815260206004820152601060248201527f50726f6f6620697320746f6f206f6c6400000000000000000000000000000000604482015260640161023c565b6001600160a01b037f000000000000000000000000000000000000000000000000000000000000000016630af18ba6610d4c6040860186611646565b6040518363ffffffff1660e01b8152600401610d69929190611689565b5f60405180830381865afa158015610d83573d5f5f3e3d5ffd5b505050506040513d5f823e601f3d908101601f19168201604052610daa919081019061170a565b60608201819052516001600160a01b03163314610e095760405162461bcd60e51b815260206004820152601760248201527f4e6f74207468652065787065637465642073656e646572000000000000000000604482015260640161023c565b4681606001516020015114610e605760405162461bcd60e51b815260206004820152601060248201527f496e76616c696420636861696e20696400000000000000000000000000000000604482015260640161023c565b6060810151604001515115610eb75760405162461bcd60e51b815260206004820152601b60248201527f437573746f6d20646174612073686f756c6420626520656d7074790000000000604482015260640161023c565b60208082018051335f8181528085526040808220939093558351815260018552828120805473ffffffffffffffffffffffffffffffffffffffff1916909217909155915182526002909252208390610f0f8282611ac3565b5050602081015160405133907f209ae2eb4ff1890ce972a80ec3e167b52d41ab089135cc6430447b1430e824be905f90a36020015192915050565b508054610f5690611150565b5f825580601f10610f65575050565b601f0160209004905f5260205f2090810190610f819190611001565b50565b5080545f8255905f5260205f2090810190610f819190611001565b6040518060e001604052805f151581526020015f81526020015f8152602001610fe960405180606001604052805f6001600160a01b031681526020015f8152602001606081525090565b81525f60208201819052604082015260609081015290565b5b80821115611015575f8155600101611002565b5090565b5f81518084528060208401602086015e5f602082860101526020601f19601f83011685010191505092915050565b602081525f6110596020830184611019565b9392505050565b6001600160a01b0381168114610f81575f5ffd5b5f5f5f5f5f60808688031215611088575f5ffd5b853561109381611060565b94506020860135935060408601356001600160e01b0319811681146110b6575f5ffd5b9250606086013567ffffffffffffffff8111156110d1575f5ffd5b8601601f810188136110e1575f5ffd5b803567ffffffffffffffff8111156110f7575f5ffd5b886020828401011115611108575f5ffd5b959894975092955050506020019190565b5f60208284031215611129575f5ffd5b813567ffffffffffffffff81111561113f575f5ffd5b820160808185031215611059575f5ffd5b600181811c9082168061116457607f821691505b60208210810361118257634e487b7160e01b5f52602260045260245ffd5b50919050565b602080825282518282018190525f918401906040840190835b818110156111bf5783518352602093840193909201916001016111a1565b509095945050505050565b5f602082840312156111da575f5ffd5b5051919050565b8181038181111561120057634e487b7160e01b5f52601160045260245ffd5b92915050565b81835281816020850137505f828201602090810191909152601f909101601f19169091010190565b604081525f611241604083018587611206565b82810360208401526112538185611019565b9695505050505050565b5f82518060208501845e5f920191825250919050565b8015158114610f81575f5ffd5b5f60208284031215611290575f5ffd5b815161105981611273565b5f5f8335601e198436030181126112b0575f5ffd5b830160208101925035905067ffffffffffffffff8111156112cf575f5ffd5b8036038213156112dd575f5ffd5b9250929050565b8183525f7f07ffffffffffffffffffffffffffffffffffffffffffffffffffffffffffffff831115611314575f5ffd5b8260051b80836020870137939093016020019392505050565b5f8235607e19833603018112611341575f5ffd5b90910192915050565b803582525f61135c602083018361129b565b60806020860152611371608086018284611206565b915050611381604084018461129b565b8583036040870152611394838284611206565b9250505060608301356113a681611273565b8015156060860152508091505092915050565b60208082528235828201525f9083013536849003605e190181126113db575f5ffd5b608060408401528301803560a08401526113f8602082018261129b565b606060c086015261140e61010086018284611206565b9150506040820135601e19833603018112611427575f5ffd5b60209201918201913567ffffffffffffffff811115611444575f5ffd5b8060051b3603831315611455575f5ffd5b848203609f190160e086015261146c8282856112e4565b9250505061147d604085018561129b565b848303601f19016060860152611494838284611206565b925050506114a5606085018561132d565b838203601f190160808501526114bb828261134a565b95945050505050565b5f5f5f606084860312156114d6575f5ffd5b83516114e181611273565b6020850151604086015191945092506114f981611060565b809150509250925092565b5f8235605e19833603018112611518575f5ffd5b9190910192915050565b5f5f8335601e19843603018112611537575f5ffd5b83018035915067ffffffffffffffff821115611551575f5ffd5b6020019150600581901b36038213156112dd575f5ffd5b5f815461157481611150565b80855260018216801561158e57600181146115aa576115de565b60ff1983166020870152602082151560051b87010193506115de565b845f5260205f205f5b838110156115d55781546020828a0101526001820191506020810190506115b3565b87016020019450505b50505092915050565b606081525f6115fa6060830186886112e4565b828103602084015261160c8186611568565b905082810360408401526116208185611568565b979650505050505050565b602081525f61163e6020830184866112e4565b949350505050565b5f5f8335601e1984360301811261165b575f5ffd5b83018035915067ffffffffffffffff821115611675575f5ffd5b6020019150368190038213156112dd575f5ffd5b602081525f61163e602083018486611206565b634e487b7160e01b5f52604160045260245ffd5b6040516060810167ffffffffffffffff811182821017156116d3576116d361169c565b60405290565b604051601f8201601f1916810167ffffffffffffffff811182821017156117025761170261169c565b604052919050565b5f6020828403121561171a575f5ffd5b815167ffffffffffffffff811115611730575f5ffd5b820160608185031215611741575f5ffd5b6117496116b0565b815161175481611060565b815260208281015190820152604082015167ffffffffffffffff811115611779575f5ffd5b80830192505084601f83011261178d575f5ffd5b815167ffffffffffffffff8111156117a7576117a761169c565b6117ba601f8201601f19166020016116d9565b8181528660208386010111156117ce575f5ffd5b8160208501602083015e5f918101602001919091526040820152949350505050565b601f82111561183757805f5260205f20601f840160051c810160208510156118155750805b601f840160051c820191505b81811015611834575f8155600101611821565b50505b505050565b67ffffffffffffffff8311156118545761185461169c565b611868836118628354611150565b836117f0565b5f601f841160018114611899575f85156118825750838201355b5f19600387901b1c1916600186901b178355611834565b5f83815260208120601f198716915b828110156118c857868501358255602094850194600190920191016118a8565b50868210156118e4575f1960f88860031b161c19848701351681555b505060018560011b0183555050505050565b67ffffffffffffffff83111561190e5761190e61169c565b680100000000000000008311156119275761192761169c565b80548382558084101561195c575f828152602090208481019082015b80821015611959575f8255600190910190611943565b50505b505f8181526020812083915b8581101561198457823582820155602090920191600101611968565b505050505050565b5f8235607e19833603018112611518575f5ffd5b5f813561120081611273565b81358155600181016119c16020840184611646565b67ffffffffffffffff8111156119d9576119d961169c565b6119ed816119e78554611150565b856117f0565b5f601f821160018114611a1e575f8315611a075750838201355b5f19600385901b1c1916600184901b178555611a75565b5f85815260208120601f198516915b82811015611a4d5786850135825560209485019460019092019101611a2d565b5084821015611a69575f1960f88660031b161c19848701351681555b505060018360011b0185555b5050505050611a876040830183611646565b611a9581836002860161183c565b5050611abf611aa6606084016119a0565b6003830160ff1981541660ff8315151681178255505050565b5050565b81358155602082013536839003605e19018112611ade575f5ffd5b82018035600183015560028201611af86020830183611646565b67ffffffffffffffff811115611b1057611b1061169c565b611b1e816119e78554611150565b5f601f821160018114611b4f575f8315611b385750838201355b5f19600385901b1c1916600184901b178555611ba6565b5f85815260208120601f198516915b82811015611b7e5786850135825560209485019460019092019101611b5e565b5084821015611b9a575f1960f88660031b161c19848701351681555b505060018360011b0185555b5050505050611bb86040820182611522565b9150611bc88282600386016118f6565b5050611bd76040830183611646565b611be581836004860161183c565b5050611abf611bf7606084018461198c565b600583016119ac56fea2646970667358221220a51ca8f1365397d1fc46bbc9bf19e263be567b58fc17ab4247d4e9741452b7e164736f6c634300081e0033","linkReferences":{}},"methodIdentifiers":{"deleteRegistration()":"392b7ae7","register((bytes32,(bytes32,bytes,bytes32[]),bytes,(uint256,string,string,bool)))":"dddca9d4","validDomain()":"c47ca04c","validScope()":"1f4a2f59","verifyProof(address,uint256,bytes4,bytes)":"531a9e5b","zkPassportHelper()":"69744c62","zkPassportVerifier()":"c4797ec5"},"id":132}