{"abi":[{"type":"constructor","inputs":[],"stateMutability":"nonpayable"},{"type":"function","name":"executeMandate","inputs":[{"name":"caller","type":"address","internalType":"address"},{"name":"mandateId","type":"uint16","internalType":"uint16"},{"name":"mandateCalldata","type":"bytes","internalType":"bytes"},{"name":"nonce","type":"uint256","internalType":"uint256"}],"outputs":[{"name":"success","type":"bool","internalType":"bool"}],"stateMutability":"nonpayable"},{"type":"function","name":"getConfig","inputs":[{"name":"powers","type":"address","internalType":"address"},{"name":"mandateId","type":"uint16","internalType":"uint16"}],"outputs":[{"name":"config","type":"bytes","internalType":"bytes"}],"stateMutability":"view"},{"type":"function","name":"getInputParams","inputs":[{"name":"powers","type":"address","internalType":"address"},{"name":"mandateId","type":"uint16","internalType":"uint16"}],"outputs":[{"name":"inputParams","type":"bytes","internalType":"bytes"}],"stateMutability":"view"},{"type":"function","name":"getNameDescription","inputs":[{"name":"powers","type":"address","internalType":"address"},{"name":"mandateId","type":"uint16","internalType":"uint16"}],"outputs":[{"name":"nameDescription","type":"string","internalType":"string"}],"stateMutability":"view"},{"type":"function","name":"handleRequest","inputs":[{"name":"caller","type":"address","internalType":"address"},{"name":"powers","type":"address","internalType":"address"},{"name":"mandateId","type":"uint16","internalType":"uint16"},{"name":"mandateCalldata","type":"bytes","internalType":"bytes"},{"name":"nonce","type":"uint256","internalType":"uint256"}],"outputs":[{"name":"actionId","type":"uint256","internalType":"uint256"},{"name":"targets","type":"address[]","internalType":"address[]"},{"name":"values","type":"uint256[]","internalType":"uint256[]"},{"name":"calldatas","type":"bytes[]","internalType":"bytes[]"}],"stateMutability":"view"},{"type":"function","name":"initializeMandate","inputs":[{"name":"index","type":"uint16","internalType":"uint16"},{"name":"nameDescription","type":"string","internalType":"string"},{"name":"inputParams","type":"bytes","internalType":"bytes"},{"name":"config","type":"bytes","internalType":"bytes"}],"outputs":[],"stateMutability":"nonpayable"},{"type":"function","name":"mandates","inputs":[{"name":"mandateHash","type":"bytes32","internalType":"bytes32"}],"outputs":[{"name":"nameDescription","type":"string","internalType":"string"},{"name":"inputParams","type":"bytes","internalType":"bytes"},{"name":"config","type":"bytes","internalType":"bytes"},{"name":"powers","type":"address","internalType":"address"}],"stateMutability":"view"},{"type":"function","name":"supportsInterface","inputs":[{"name":"interfaceId","type":"bytes4","internalType":"bytes4"}],"outputs":[{"name":"","type":"bool","internalType":"bool"}],"stateMutability":"view"},{"type":"function","name":"version","inputs":[],"outputs":[{"name":"major","type":"uint16","internalType":"uint16"},{"name":"minor","type":"uint16","internalType":"uint16"},{"name":"patch","type":"uint16","internalType":"uint16"}],"stateMutability":"pure"},{"type":"event","name":"AsyncMandate__Initialized","inputs":[{"name":"powers","type":"address","indexed":true,"internalType":"address"},{"name":"index","type":"uint16","indexed":true,"internalType":"uint16"},{"name":"nameDescription","type":"string","indexed":false,"internalType":"string"},{"name":"inputParams","type":"bytes","indexed":false,"internalType":"bytes"},{"name":"config","type":"bytes","indexed":false,"internalType":"bytes"},{"name":"oracle","type":"address","indexed":false,"internalType":"address"}],"anonymous":false},{"type":"event","name":"Mandate__Deployed","inputs":[{"name":"configParams","type":"bytes","indexed":false,"internalType":"bytes"}],"anonymous":false},{"type":"event","name":"Mandate__Initialized","inputs":[{"name":"powers","type":"address","indexed":true,"internalType":"address"},{"name":"index","type":"uint16","indexed":true,"internalType":"uint16"},{"name":"nameDescription","type":"string","indexed":false,"internalType":"string"},{"name":"inputParams","type":"bytes","indexed":false,"internalType":"bytes"},{"name":"config","type":"bytes","indexed":false,"internalType":"bytes"}],"anonymous":false},{"type":"error","name":"OnlyPowers","inputs":[]}],"bytecode":{"object":"0x608060405234801561000f575f5ffd5b505f6040516020016100209061006e565b60405160208183030381529060405290507f71bb7b033e40374cfbc64859f679a737bcbfca31158d6a4783c01ee8d445cc5e8160405161006091906101aa565b60405180910390a1506101df565b60c08152601460c08201527f737472696e675b5d20696e707574506172616d7300000000000000000000000060e0820152610100602082015260106101008201526f6164647265737320726567697374727960801b61012082015261014060408201525f61014082015f601982527f75696e74323536207374616c6541667465725365636f6e6473000000000000006020830152604082019050838103606085015261014481601681527f626f6f6c20666163656d61746368526571756972656400000000000000000000602082015260400190565b8481036080860152601781527f6279746573342066756e6374696f6e53656c6563746f7200000000000000000060208201529150506040810183810360a0850152600b81526a189e5d195cc81a5b9c1d5d60aa1b60208201529050604081019392505050565b602081525f82518060208401528060208501604085015e5f604082850101526040601f19601f83011684010191505092915050565b612ac7806101ec5f395ff3fe608060405234801561000f575f5ffd5b506004361061009f575f3560e01c806354fd4d5011610072578063b1f50f8911610058578063b1f50f8914610167578063c0d27aad1461017c578063d8a941f41461018f575f5ffd5b806354fd4d5014610125578063552cb37214610144575f5ffd5b806301e07972146100a357806301ffc9a7146100cf5780630d157721146100f25780634d516f0e14610112575b5f5ffd5b6100b66100b1366004611e23565b6101a2565b6040516100c69493929190611e68565b60405180910390f35b6100e26100dd366004611ed3565b610364565b60405190151581526020016100c6565b610105610100366004611f1f565b61039a565b6040516100c69190611f52565b6100e2610120366004611fa9565b61046b565b604080515f8152600160208201819052918101919091526060016100c6565b61015761015236600461200f565b610558565b6040516100c69493929190612159565b61017a610175366004612291565b610e73565b005b61010561018a366004611f1f565b610fbe565b61010561019d366004611f1f565b61100e565b5f602081905290815260409020805481906101bc90612343565b80601f01602080910402602001604051908101604052809291908181526020018280546101e890612343565b80156102335780601f1061020a57610100808354040283529160200191610233565b820191905f5260205f20905b81548152906001019060200180831161021657829003601f168201915b50505050509080600101805461024890612343565b80601f016020809104026020016040519081016040528092919081815260200182805461027490612343565b80156102bf5780601f10610296576101008083540402835291602001916102bf565b820191905f5260205f20905b8154815290600101906020018083116102a257829003601f168201915b5050505050908060020180546102d490612343565b80601f016020809104026020016040519081016040528092919081815260200182805461030090612343565b801561034b5780601f106103225761010080835404028352916020019161034b565b820191905f5260205f20905b81548152906001019060200180831161032e57829003601f168201915b505050600390930154919250506001600160a01b031684565b5f6001600160e01b0319821663e81bd2dd60e01b148061039457506301ffc9a760e01b6001600160e01b03198316145b92915050565b604080516001600160a01b03841660208083019190915261ffff841682840152825180830384018152606092830184528051908201205f908152908190529190912080546103e790612343565b80601f016020809104026020016040519081016040528092919081815260200182805461041390612343565b801561045e5780601f106104355761010080835404028352916020019161045e565b820191905f5260205f20905b81548152906001019060200180831161044157829003601f168201915b5050505050905092915050565b6040805133602080830182905261ffff881683850152835180840385018152606090930184528251928101929092205f81815292839052928220600301549192916001600160a01b0316146104d35760405163e317a3d160e01b815260040160405180910390fd5b5f5f5f5f6104e58b338c8c8c8c610558565b604051630de6a60160e01b8152939750919550935091503390630de6a6019061051a908d90889088908890889060040161237b565b5f604051808303815f87803b158015610531575f5ffd5b505af1158015610543573d5f5f3e3d5ffd5b5060019e9d5050505050505050505050505050565b5f6060806060610566611d55565b6105708a8a610fbe565b80602001905181019061058391906124cc565b60c08701526001600160e01b03191660a08601521515608085015260608401526001600160a01b03166040830152506105be87890189612582565b6001600160a01b0390811660e08301526040820151166106315760405162461bcd60e51b8152602060048201526024808201527f5a4b50617373706f72743a20496e76616c6964207265676973747279206164646044820152637265737360e01b60648201526084015b60405180910390fd5b60e08101516001600160a01b03166106b15760405162461bcd60e51b815260206004820152603560248201527f5a4b50617373706f72743a20496e76616c6964207a65726f206164647265737360448201527f20666f72206163636f756e7420746f20636865636b00000000000000000000006064820152608401610628565b8a6001600160a01b03168160e001516001600160a01b03161461073c5760405162461bcd60e51b815260206004820152602e60248201527f5a4b50617373706f72743a2043616c6c6572206973206e6f742074686520616360448201527f636f756e7420746f20636865636b0000000000000000000000000000000000006064820152608401610628565b5f816040015190506107858a8a8a8080601f0160208091040260200160405190810160405280939291908181526020018383808284375f920191909152508c925061105e915050565b60e0830151604051635941514d60e11b81526001600160a01b03918216600482015291975082169063b282a29a90602401602060405180830381865afa1580156107d1573d5f5f3e3d5ffd5b505050506040513d601f19601f820116820180604052508101906107f5919061259d565b610100830181905260608301519061080d90426125c8565b1061085a5760405162461bcd60e51b815260206004820152600e60248201527f50726f6f66206973207374616c650000000000000000000000000000000000006044820152606401610628565b81608001511561091e5760e082015160405163306b618f60e21b81526001600160a01b0391821660048201529082169063c1ad863c90602401602060405180830381865afa1580156108ae573d5f5f3e3d5ffd5b505050506040513d601f19601f820116820180604052508101906108d291906125db565b61091e5760405162461bcd60e51b815260206004820152601d60248201527f466163654d6174636820726571756972656d656e74206e6f74206d65740000006044820152606401610628565b60e0820151604051633eca794d60e01b81526001600160a01b03918216600482015290821690633eca794d906024015f60405180830381865afa158015610967573d5f5f3e3d5ffd5b505050506040513d5f823e601f3d908101601f1916820160405261098e91908101906125f4565b61014083015260a08201516001600160e01b03191663d4d6de8760e01b016109d0576109c38260c00151836101400151611094565b1515610120830152610df3565b60a08201516001600160e01b0319166321f06bd160e21b016109ff576109c38260c001518361014001516110c6565b60a08201516001600160e01b031916631491889760e31b01610a2e576109c38260c001518361014001516110f9565b60a08201516001600160e01b0319166303617ca560e61b01610a5d576109c38260c0015183610140015161112b565b60a08201516001600160e01b031916630e85aea760e11b01610a8c576109c38260c0015183610140015161115e565b60a08201516001600160e01b03191663210fe7d760e11b01610abb576109c38260c001518361014001516111a9565b60a08201516001600160e01b0319166331582e7d60e11b01610aea576109c38260c001518361014001516111db565b60a08201516001600160e01b03191663a21e3f7960e01b01610b19576109c38260c0015183610140015161120a565b60a08201516001600160e01b0319166351559d7b60e01b01610b48576109c38260c00151836101400151611239565b60a08201516001600160e01b0319166312f01d8d60e31b01610b77576109c38260c00151836101400151611268565b60a08201516001600160e01b03191663df399da760e01b01610ba6576109c38260c00151836101400151611297565b60a08201516001600160e01b031916638bd9b20b60e01b01610bd5576109c38260c001518361014001516112ea565b60a08201516001600160e01b03191663d2e2745f60e01b01610c04576109c38260c00151836101400151611319565b60a08201516001600160e01b031916632523ed0760e11b01610c33576109c38260c00151836101400151611349565b60a08201516001600160e01b031916630c5e0e2760e01b01610c62576109c38260c00151836101400151611379565b60a08201516001600160e01b031916636191efaf60e11b01610c91576109c38260c001518361014001516113a9565b60a08201516001600160e01b0319166372ab993f60e11b01610cc0576109c38260c001518361014001516113d9565b60a08201516001600160e01b031916635cbf449760e11b01610cef576109c38260c00151836101400151611404565b60a08201516001600160e01b031916638519981760e01b01610d1e576109c38260c00151836101400151611434565b60a08201516001600160e01b03191663c91aa4f960e01b01610d4d576109c38260c001518361014001516114a6565b60a08201516001600160e01b03191663d3a2e4bb60e01b01610d7c576109c38260c00151836101400151611518565b60a08201516001600160e01b031916631b0093df60e01b01610dab576109c38260c00151836101400151611580565b60405162461bcd60e51b815260206004820152601d60248201527f556e737570706f727465642066756e6374696f6e2073656c6563746f720000006044820152606401610628565b816101200151610e535760405162461bcd60e51b815260206004820152602560248201527f5a4b50617373706f72743a2050726f6f6620766572696669636174696f6e2066604482015264185a5b195960da1b6064820152608401610628565b610e5d60016115e7565b9196509450925050509650965096509692505050565b5f81806020019051810190610e8891906124cc565b505050505090505f81516001610e9e919061278e565b67ffffffffffffffff811115610eb657610eb66121a2565b604051908082528060200260200182016040528015610ee957816020015b6060815260200190600190039081610ed45790505b5090505f5b8251811015610f3657828181518110610f0957610f096127a1565b6020026020010151828281518110610f2357610f236127a1565b6020908102919091010152600101610eee565b506040518060400160405280601681526020017f61646472657373204163636f756e74546f436865636b0000000000000000000081525081835181518110610f8057610f806127a1565b6020026020010181905250610fb6868683604051602001610fa191906127b5565b604051602081830303815290604052866116cb565b505050505050565b604080516001600160a01b03841660208083019190915261ffff841682840152825180830384018152606092830184528051908201205f908152908190529190912060020180546103e790612343565b604080516001600160a01b03841660208083019190915261ffff841682840152825180830384018152606092830184528051908201205f908152908190529190912060010180546103e790612343565b5f83838360405160200161107493929190612818565b60408051601f198184030181529190528051602090910120949350505050565b5f5f838060200190518101906110aa9190612854565b90508060ff166110bd84608001516117ec565b11949350505050565b5f5f838060200190518101906110dc9190612854565b90508060ff166110ef84608001516117ec565b1015949350505050565b5f5f8380602001905181019061110f9190612854565b90508060ff1661112284608001516117ec565b10949350505050565b5f5f838060200190518101906111419190612854565b90508060ff1661115484608001516117ec565b1115949350505050565b5f5f5f84806020019051810190611175919061286d565b915091505f61118785608001516117ec565b90508260ff16811015801561119f57508160ff168111155b9695505050505050565b5f5f838060200190518101906111bf9190612854565b90508060ff166111d284608001516117ec565b14949350505050565b5f5f838060200190518101906111f1919061259d565b90506111fc81611836565b6110bd84608001515f61187f565b5f5f83806020019051810190611220919061259d565b905061122b81611836565b6110ef84608001515f61187f565b5f5f8380602001905181019061124f919061259d565b905061125a81611836565b61112284608001515f61187f565b5f5f8380602001905181019061127e919061259d565b905061128981611836565b61115484608001515f61187f565b5f5f5f848060200190518101906112ae9190612895565b915091505f6112c185608001515f61187f565b90506112cc83611836565b811015801561119f57506112df82611836565b101595945050505050565b5f5f83806020019051810190611300919061259d565b905061130b81611836565b6111d284608001515f61187f565b5f5f8380602001905181019061132f919061259d565b905061133a81611836565b6110bd8460a00151600161187f565b5f5f8380602001905181019061135f919061259d565b905061136a81611836565b6110ef8460a00151600161187f565b5f5f8380602001905181019061138f919061259d565b905061139a81611836565b6111228460a00151600161187f565b5f5f838060200190518101906113bf919061259d565b90506113ca81611836565b6111548460a00151600161187f565b5f5f5f848060200190518101906113f09190612895565b915091505f6112c18560a00151600161187f565b5f5f8380602001905181019061141a919061259d565b905061142581611836565b6111d28460a00151600161187f565b5f5f8380602001905181019061144a91906128b7565b90505f5b815181101561149c57836020015180519060200120828281518110611475576114756127a1565b6020026020010151805190602001200361149457600192505050610394565b60010161144e565b505f949350505050565b5f5f838060200190518101906114bc91906128b7565b90505f5b815181101561150d578360200151805190602001208282815181106114e7576114e76127a1565b60200260200101518051906020012003611505575f92505050610394565b6001016114c0565b506001949350505050565b5f5f8380602001905181019061152e91906128b7565b90505f5b815181101561149c57836040015180519060200120828281518110611559576115596127a1565b6020026020010151805190602001200361157857600192505050610394565b600101611532565b5f5f8380602001905181019061159691906128b7565b90505f5b815181101561150d578360400151805190602001208282815181106115c1576115c16127a1565b602002602001015180519060200120036115df575f92505050610394565b60010161159a565b60608060608367ffffffffffffffff811115611605576116056121a2565b60405190808252806020026020018201604052801561162e578160200160208202803683370190505b5092508367ffffffffffffffff81111561164a5761164a6121a2565b604051908082528060200260200182016040528015611673578160200160208202803683370190505b5091508367ffffffffffffffff81111561168f5761168f6121a2565b6040519080825280602002602001820160405280156116c257816020015b60608152602001906001900390816116ad5790505b50929491935050565b604080513360208083019190915261ffff8716828401528251808303840181526060909201909252805191012061170584600160ff611a89565b6040805160808101825285815260208082018690528183018590523360608301525f8481529081905291909120815181906117409082612934565b50602082015160018201906117559082612934565b506040820151600282019061176a9082612934565b50606091909101516003909101805473ffffffffffffffffffffffffffffffffffffffff19166001600160a01b0390921691909117905560405161ffff86169033907ff02558935ef4a7a4dd0455b94fd00eb1bcd7d048c0ab648841d3985a31a135c2906117dd908890889088906129ef565b60405180910390a35050505050565b5f5f6117f8835f61187f565b90505f61180442611836565b90508181101561181757505f9392505050565b61271061182483836125c8565b61182e9190612a3b565b949350505050565b5f5f5f5f61184385611b30565b9194509250905080611856836064612a4e565b61186285612710612a4e565b61186c919061278e565b611876919061278e565b95945050505050565b81515f9083906006146118d45760405162461bcd60e51b815260206004820152601760248201527f496e76616c6964204d525a2064617465206c656e6774680000000000000000006044820152606401610628565b5f61195d825f815181106118ea576118ea6127a1565b602001015160f81c60f81b83600181518110611908576119086127a1565b016020908101516040517fff0000000000000000000000000000000000000000000000000000000000000093841692810192909252919091166021820152602201604051602081830303815290604052611cdb565b90505f61199483600281518110611976576119766127a1565b602001015160f81c60f81b84600381518110611908576119086127a1565b90505f6119cb846004815181106119ad576119ad6127a1565b602001015160f81c60f81b85600581518110611908576119086127a1565b90505f6119d742611836565b90505f60646119e861271084612a3b565b6119f29190612a65565b90505f8815611a2c57611a0682603261278e565b861015611a2057611a19866107d061278e565b9050611a4f565b611a198661076c61278e565b81861115611a4057611a198661076c61278e565b611a4c866107d061278e565b90505b83611a5b866064612a4e565b611a6783612710612a4e565b611a71919061278e565b611a7b919061278e565b9a9950505050505050505050565b8183511015611ada5760405162461bcd60e51b815260206004820152601060248201527f537472696e6720746f6f2073686f7274000000000000000000000000000000006044820152606401610628565b8083511115611b2b5760405162461bcd60e51b815260206004820152600f60248201527f537472696e6720746f6f206c6f6e6700000000000000000000000000000000006044820152606401610628565b505050565b5f808080611b416201518086612a3b565b611b4e90620afa6c61278e565b90505f611b5e62023ab183612a3b565b90505f611b6e8262023ab1612a4e565b611b7890846125c8565b90505f61016d611b8b62023ab084612a3b565b611b97618eac85612a3b565b611ba36105b486612a3b565b611bad90866125c8565b611bb7919061278e565b611bc191906125c8565b611bcb9190612a3b565b90505f611bda84610190612a4e565b611be4908361278e565b90505f611bf2606484612a3b565b611bfd600485612a3b565b611c098561016d612a4e565b611c13919061278e565b611c1d91906125c8565b611c2790856125c8565b90505f6099611c37836005612a4e565b611c4290600261278e565b611c4c9190612a3b565b90506005611c5b826099612a4e565b611c6690600261278e565b611c709190612a3b565b611c7a90836125c8565b611c8590600161278e565b9750600a8110611c9f57611c9a6009826125c8565b611caa565b611caa81600361278e565b98506002891115611cbb575f611cbe565b60015b611ccb9060ff168461278e565b9950505050505050509193909250565b5f81815b8151811015611d4e575f828281518110611cfb57611cfb6127a1565b016020015160f81c905060308110801590611d1a575060398160ff1611155b15611d4557611d2a603082612a78565b60ff16611d3885600a612a4e565b611d42919061278e565b93505b50600101611cdf565b5050919050565b6040518061016001604052805f15158152602001606081526020015f6001600160a01b031681526020015f81526020015f151581526020015f7bffffffffffffffffffffffffffffffffffffffffffffffffffffffff19168152602001606081526020015f6001600160a01b031681526020015f81526020015f15158152602001611e1e60405180610100016040528060608152602001606081526020016060815260200160608152602001606081526020016060815260200160608152602001606081525090565b905290565b5f60208284031215611e33575f5ffd5b5035919050565b5f81518084528060208401602086015e5f602082860101526020601f19601f83011685010191505092915050565b608081525f611e7a6080830187611e3a565b8281036020840152611e8c8187611e3a565b90508281036040840152611ea08186611e3a565b9150506001600160a01b038316606083015295945050505050565b6001600160e01b031981168114611ed0575f5ffd5b50565b5f60208284031215611ee3575f5ffd5b8135611eee81611ebb565b9392505050565b6001600160a01b0381168114611ed0575f5ffd5b803561ffff81168114611f1a575f5ffd5b919050565b5f5f60408385031215611f30575f5ffd5b8235611f3b81611ef5565b9150611f4960208401611f09565b90509250929050565b602081525f611eee6020830184611e3a565b5f5f83601f840112611f74575f5ffd5b50813567ffffffffffffffff811115611f8b575f5ffd5b602083019150836020828501011115611fa2575f5ffd5b9250929050565b5f5f5f5f5f60808688031215611fbd575f5ffd5b8535611fc881611ef5565b9450611fd660208701611f09565b9350604086013567ffffffffffffffff811115611ff1575f5ffd5b611ffd88828901611f64565b96999598509660600135949350505050565b5f5f5f5f5f5f60a08789031215612024575f5ffd5b863561202f81611ef5565b9550602087013561203f81611ef5565b945061204d60408801611f09565b9350606087013567ffffffffffffffff811115612068575f5ffd5b61207489828a01611f64565b979a9699509497949695608090950135949350505050565b5f8151808452602084019350602083015f5b828110156120c55781516001600160a01b031686526020958601959091019060010161209e565b5093949350505050565b5f8151808452602084019350602083015f5b828110156120c55781518652602095860195909101906001016120e1565b5f82825180855260208501945060208160051b830101602085015f5b8381101561214d57601f19858403018852612137838351611e3a565b602098890198909350919091019060010161211b565b50909695505050505050565b848152608060208201525f612171608083018661208c565b828103604084015261218381866120cf565b9050828103606084015261219781856120ff565b979650505050505050565b634e487b7160e01b5f52604160045260245ffd5b604051610100810167ffffffffffffffff811182821017156121da576121da6121a2565b60405290565b604051601f8201601f1916810167ffffffffffffffff81118282101715612209576122096121a2565b604052919050565b5f67ffffffffffffffff82111561222a5761222a6121a2565b50601f01601f191660200190565b5f61224a61224584612211565b6121e0565b905082815283838301111561225d575f5ffd5b828260208301375f602084830101529392505050565b5f82601f830112612282575f5ffd5b611eee83833560208501612238565b5f5f5f5f608085870312156122a4575f5ffd5b6122ad85611f09565b9350602085013567ffffffffffffffff8111156122c8575f5ffd5b8501601f810187136122d8575f5ffd5b6122e787823560208401612238565b935050604085013567ffffffffffffffff811115612303575f5ffd5b61230f87828801612273565b925050606085013567ffffffffffffffff81111561232b575f5ffd5b61233787828801612273565b91505092959194509250565b600181811c9082168061235757607f821691505b60208210810361237557634e487b7160e01b5f52602260045260245ffd5b50919050565b61ffff8616815284602082015260a060408201525f61239d60a083018661208c565b82810360608401526123af81866120cf565b905082810360808401526123c381856120ff565b98975050505050505050565b5f6123dc61224584612211565b90508281528383830111156123ef575f5ffd5b8282602083015e5f602084830101529392505050565b5f82601f830112612414575f5ffd5b611eee838351602085016123cf565b5f82601f830112612432575f5ffd5b815167ffffffffffffffff81111561244c5761244c6121a2565b8060051b61245c602082016121e0565b91825260208185018101929081019086841115612477575f5ffd5b6020860192505b8383101561119f57825167ffffffffffffffff81111561249c575f5ffd5b6124ab886020838a0101612405565b8352506020928301929091019061247e565b80518015158114611f1a575f5ffd5b5f5f5f5f5f5f60c087890312156124e1575f5ffd5b865167ffffffffffffffff8111156124f7575f5ffd5b61250389828a01612423565b965050602087015161251481611ef5565b6040880151909550935061252a606088016124bd565b9250608087015161253a81611ebb565b60a088015190925067ffffffffffffffff811115612556575f5ffd5b8701601f81018913612566575f5ffd5b612575898251602084016123cf565b9150509295509295509295565b5f60208284031215612592575f5ffd5b8135611eee81611ef5565b5f602082840312156125ad575f5ffd5b5051919050565b634e487b7160e01b5f52601160045260245ffd5b81810381811115610394576103946125b4565b5f602082840312156125eb575f5ffd5b611eee826124bd565b5f60208284031215612604575f5ffd5b815167ffffffffffffffff81111561261a575f5ffd5b8201610100818503121561262c575f5ffd5b6126346121b6565b815167ffffffffffffffff81111561264a575f5ffd5b61265686828501612405565b825250602082015167ffffffffffffffff811115612672575f5ffd5b61267e86828501612405565b602083015250604082015167ffffffffffffffff81111561269d575f5ffd5b6126a986828501612405565b604083015250606082015167ffffffffffffffff8111156126c8575f5ffd5b6126d486828501612405565b606083015250608082015167ffffffffffffffff8111156126f3575f5ffd5b6126ff86828501612405565b60808301525060a082015167ffffffffffffffff81111561271e575f5ffd5b61272a86828501612405565b60a08301525060c082015167ffffffffffffffff811115612749575f5ffd5b61275586828501612405565b60c08301525060e082015167ffffffffffffffff811115612774575f5ffd5b61278086828501612405565b60e083015250949350505050565b80820180821115610394576103946125b4565b634e487b7160e01b5f52603260045260245ffd5b5f602082016020835280845180835260408501915060408160051b8601019250602086015f5b8281101561280c57603f198786030184526127f7858351611e3a565b945060209384019391909101906001016127db565b50929695505050505050565b61ffff84168152606060208201525f6128346060830185611e3a565b9050826040830152949350505050565b805160ff81168114611f1a575f5ffd5b5f60208284031215612864575f5ffd5b611eee82612844565b5f5f6040838503121561287e575f5ffd5b61288783612844565b9150611f4960208401612844565b5f5f604083850312156128a6575f5ffd5b505080516020909101519092909150565b5f602082840312156128c7575f5ffd5b815167ffffffffffffffff8111156128dd575f5ffd5b61182e84828501612423565b601f821115611b2b57805f5260205f20601f840160051c8101602085101561290e5750805b601f840160051c820191505b8181101561292d575f815560010161291a565b5050505050565b815167ffffffffffffffff81111561294e5761294e6121a2565b6129628161295c8454612343565b846128e9565b6020601f821160018114612994575f831561297d5750848201515b5f19600385901b1c1916600184901b17845561292d565b5f84815260208120601f198516915b828110156129c357878501518255602094850194600190920191016129a3565b50848210156129e057868401515f19600387901b60f8161c191681555b50505050600190811b01905550565b606081525f612a016060830186611e3a565b8281036020840152612a138186611e3a565b9050828103604084015261119f8185611e3a565b634e487b7160e01b5f52601260045260245ffd5b5f82612a4957612a49612a27565b500490565b8082028115828204841417610394576103946125b4565b5f82612a7357612a73612a27565b500690565b60ff8281168282160390811115610394576103946125b456fea2646970667358221220b036dfbadd3d887945a162c13db82becd9eb899650cd5a94873522a118593ec964736f6c634300081e0033","linkReferences":{}},"methodIdentifiers":{"executeMandate(address,uint16,bytes,uint256)":"4d516f0e","getConfig(address,uint16)":"c0d27aad","getInputParams(address,uint16)":"d8a941f4","getNameDescription(address,uint16)":"0d157721","handleRequest(address,address,uint16,bytes,uint256)":"552cb372","initializeMandate(uint16,string,bytes,bytes)":"b1f50f89","mandates(bytes32)":"01e07972","supportsInterface(bytes4)":"01ffc9a7","version()":"54fd4d50"},"id":158}