{"abi":[{"type":"constructor","inputs":[{"name":"_zkPassportVerifier","type":"address","internalType":"address"},{"name":"_zkPassportHelper","type":"address","internalType":"address"},{"name":"_domain","type":"string","internalType":"string"},{"name":"_scope","type":"string","internalType":"string"}],"stateMutability":"nonpayable"},{"type":"function","name":"deleteProof","inputs":[],"outputs":[],"stateMutability":"nonpayable"},{"type":"function","name":"getDisclosedData","inputs":[{"name":"account","type":"address","internalType":"address"}],"outputs":[{"name":"","type":"tuple","internalType":"struct DisclosedData","components":[{"name":"name","type":"string","internalType":"string"},{"name":"issuingCountry","type":"string","internalType":"string"},{"name":"nationality","type":"string","internalType":"string"},{"name":"gender","type":"string","internalType":"string"},{"name":"birthDate","type":"string","internalType":"string"},{"name":"expiryDate","type":"string","internalType":"string"},{"name":"documentNumber","type":"string","internalType":"string"},{"name":"documentType","type":"string","internalType":"string"}]}],"stateMutability":"view"},{"type":"function","name":"getIsFacematched","inputs":[{"name":"account","type":"address","internalType":"address"}],"outputs":[{"name":"","type":"bool","internalType":"bool"}],"stateMutability":"view"},{"type":"function","name":"getProofTimestamp","inputs":[{"name":"account","type":"address","internalType":"address"}],"outputs":[{"name":"","type":"uint256","internalType":"uint256"}],"stateMutability":"view"},{"type":"function","name":"registerProof","inputs":[{"name":"params","type":"tuple","internalType":"struct ProofVerificationParams","components":[{"name":"version","type":"bytes32","internalType":"bytes32"},{"name":"proofVerificationData","type":"tuple","internalType":"struct ProofVerificationData","components":[{"name":"vkeyHash","type":"bytes32","internalType":"bytes32"},{"name":"proof","type":"bytes","internalType":"bytes"},{"name":"publicInputs","type":"bytes32[]","internalType":"bytes32[]"}]},{"name":"committedInputs","type":"bytes","internalType":"bytes"},{"name":"serviceConfig","type":"tuple","internalType":"struct ServiceConfig","components":[{"name":"validityPeriodInSeconds","type":"uint256","internalType":"uint256"},{"name":"domain","type":"string","internalType":"string"},{"name":"scope","type":"string","internalType":"string"},{"name":"devMode","type":"bool","internalType":"bool"}]}]},{"name":"isIDCard","type":"bool","internalType":"bool"}],"outputs":[{"name":"identifier","type":"bytes32","internalType":"bytes32"}],"stateMutability":"nonpayable"},{"type":"function","name":"validDomain","inputs":[],"outputs":[{"name":"","type":"string","internalType":"string"}],"stateMutability":"view"},{"type":"function","name":"validScope","inputs":[],"outputs":[{"name":"","type":"string","internalType":"string"}],"stateMutability":"view"},{"type":"function","name":"zkPassportHelper","inputs":[],"outputs":[{"name":"","type":"address","internalType":"contract IZKPassportHelper"}],"stateMutability":"view"},{"type":"function","name":"zkPassportVerifier","inputs":[],"outputs":[{"name":"","type":"address","internalType":"contract IZKPassportVerifier"}],"stateMutability":"view"},{"type":"event","name":"IdentityDeleted","inputs":[{"name":"identifier","type":"bytes32","indexed":true,"internalType":"bytes32"},{"name":"oldAccount","type":"address","indexed":true,"internalType":"address"}],"anonymous":false},{"type":"event","name":"IdentityRegistered","inputs":[{"name":"account","type":"address","indexed":true,"internalType":"address"},{"name":"identifier","type":"bytes32","indexed":true,"internalType":"bytes32"}],"anonymous":false}],"bytecode":{"object":"0x60c060405234801561000f575f5ffd5b5060405161218838038061218883398101604081905261002e91610176565b6001600160a01b0384166100885760405162461bcd60e51b815260206004820181905260248201527f5a4b50617373706f72743a20496e76616c6964207a65726f2061646472657373604482015260640160405180910390fd5b6001600160a01b03808516608052831660a05260036100a78382610280565b5060046100b48282610280565b505050505061033a565b80516001600160a01b03811681146100d4575f5ffd5b919050565b634e487b7160e01b5f52604160045260245ffd5b5f82601f8301126100fc575f5ffd5b81516001600160401b03811115610115576101156100d9565b604051601f8201601f19908116603f011681016001600160401b0381118282101715610143576101436100d9565b60405281815283820160200185101561015a575f5ffd5b8160208501602083015e5f918101602001919091529392505050565b5f5f5f5f60808587031215610189575f5ffd5b610192856100be565b93506101a0602086016100be565b60408601519093506001600160401b038111156101bb575f5ffd5b6101c7878288016100ed565b606087015190935090506001600160401b038111156101e4575f5ffd5b6101f0878288016100ed565b91505092959194509250565b600181811c9082168061021057607f821691505b60208210810361022e57634e487b7160e01b5f52602260045260245ffd5b50919050565b601f82111561027b57805f5260205f20601f840160051c810160208510156102595750805b601f840160051c820191505b81811015610278575f8155600101610265565b50505b505050565b81516001600160401b03811115610299576102996100d9565b6102ad816102a784546101fc565b84610234565b6020601f8211600181146102df575f83156102c85750848201515b5f19600385901b1c1916600184901b178455610278565b5f84815260208120601f198516915b8281101561030e57878501518255602094850194600190920191016102ee565b508482101561032b57868401515f19600387901b60f8161c191681555b50505050600190811b01905550565b60805160a051611e046103845f395f818160f001528181610a2d01528181610bc601528181610cce01528181610e760152610f1501525f818161018601526109570152611e045ff3fe608060405234801561000f575f5ffd5b506004361061009f575f3560e01c80637d3788e111610072578063c1ad863c11610058578063c1ad863c1461015e578063c4797ec514610181578063c47ca04c146101a8575f5ffd5b80637d3788e11461012a578063b282a29a1461014b575f5ffd5b80630ccbeb6a146100a35780631e084f25146100cc5780631f4a2f59146100d657806369744c62146100eb575b5f5ffd5b6100b66100b13660046112de565b6101b0565b6040516100c3919061132e565b60405180910390f35b6100d46106fa565b005b6100de6108ab565b6040516100c39190611426565b6101127f000000000000000000000000000000000000000000000000000000000000000081565b6040516001600160a01b0390911681526020016100c3565b61013d610138366004611445565b610937565b6040519081526020016100c3565b61013d6101593660046112de565b611123565b61017161016c3660046112de565b611197565b60405190151581526020016100c3565b6101127f000000000000000000000000000000000000000000000000000000000000000081565b6100de61120e565b6101f860405180610100016040528060608152602001606081526020016060815260200160608152602001606081526020016060815260200160608152602001606081525090565b6001600160a01b0382165f908152602081905260409020548061025a5760405162461bcd60e51b8152602060048201526015602482015274139bc81c9959da5cdd1c985d1a5bdb88199bdd5b99605a1b60448201526064015b60405180910390fd5b5f81815260026020526040908190208151610100810190925280548290829061028290611498565b80601f01602080910402602001604051908101604052809291908181526020018280546102ae90611498565b80156102f95780601f106102d0576101008083540402835291602001916102f9565b820191905f5260205f20905b8154815290600101906020018083116102dc57829003601f168201915b5050505050815260200160018201805461031290611498565b80601f016020809104026020016040519081016040528092919081815260200182805461033e90611498565b80156103895780601f1061036057610100808354040283529160200191610389565b820191905f5260205f20905b81548152906001019060200180831161036c57829003601f168201915b505050505081526020016002820180546103a290611498565b80601f01602080910402602001604051908101604052809291908181526020018280546103ce90611498565b80156104195780601f106103f057610100808354040283529160200191610419565b820191905f5260205f20905b8154815290600101906020018083116103fc57829003601f168201915b5050505050815260200160038201805461043290611498565b80601f016020809104026020016040519081016040528092919081815260200182805461045e90611498565b80156104a95780601f10610480576101008083540402835291602001916104a9565b820191905f5260205f20905b81548152906001019060200180831161048c57829003601f168201915b505050505081526020016004820180546104c290611498565b80601f01602080910402602001604051908101604052809291908181526020018280546104ee90611498565b80156105395780601f1061051057610100808354040283529160200191610539565b820191905f5260205f20905b81548152906001019060200180831161051c57829003601f168201915b5050505050815260200160058201805461055290611498565b80601f016020809104026020016040519081016040528092919081815260200182805461057e90611498565b80156105c95780601f106105a0576101008083540402835291602001916105c9565b820191905f5260205f20905b8154815290600101906020018083116105ac57829003601f168201915b505050505081526020016006820180546105e290611498565b80601f016020809104026020016040519081016040528092919081815260200182805461060e90611498565b80156106595780601f1061063057610100808354040283529160200191610659565b820191905f5260205f20905b81548152906001019060200180831161063c57829003601f168201915b5050505050815260200160078201805461067290611498565b80601f016020809104026020016040519081016040528092919081815260200182805461069e90611498565b80156106e95780601f106106c0576101008083540402835291602001916106e9565b820191905f5260205f20905b8154815290600101906020018083116106cc57829003601f168201915b505050505081525050915050919050565b335f908152602081905260409020548061074e5760405162461bcd60e51b8152602060048201526015602482015274139bc81c9959da5cdd1c985d1a5bdb88199bdd5b99605a1b6044820152606401610251565b5f818152600160205260409020546001600160a01b031633146107bf5760405162461bcd60e51b815260206004820152602360248201527f4964656e746966696572206e6f74207265676973746572656420746f2063616c6044820152623632b960e91b6064820152608401610251565b335f9081526020818152604080832083905583835260018252808320805473ffffffffffffffffffffffffffffffffffffffff191690556002909152812090818161080a828261121b565b610817600183015f61121b565b610824600283015f61121b565b610831600383015f61121b565b61083e600483015f61121b565b61084b600583015f61121b565b610858600683015f61121b565b610865600783015f61121b565b50505060088101805460ff191690555f6009909101819055604051339183917ff7fef2e356b5886f568a2120b6c085fa74aa83fbc2b95ee716167c22e9dc32059190a350565b600480546108b890611498565b80601f01602080910402602001604051908101604052809291908181526020018280546108e490611498565b801561092f5780601f106109065761010080835404028352916020019161092f565b820191905f5260205f20905b81548152906001019060200180831161091257829003601f168201915b505050505081565b5f610940611255565b60405163578bd92160e01b81526001600160a01b037f0000000000000000000000000000000000000000000000000000000000000000169063578bd9219061098c908790600401611616565b6060604051808303815f875af11580156109a8573d5f5f3e3d5ffd5b505050506040513d601f19601f820116820180604052508101906109cc9190611718565b5060208301521515808252610a235760405162461bcd60e51b815260206004820152601060248201527f50726f6f6620697320696e76616c6964000000000000000000000000000000006044820152606401610251565b6001600160a01b037f00000000000000000000000000000000000000000000000000000000000000001663847755e3610a5f6020870187611758565b610a6d906040810190611776565b600360046040518563ffffffff1660e01b8152600401610a90949392919061183b565b602060405180830381865afa158015610aab573d5f5f3e3d5ffd5b505050506040513d601f19601f82011682018060405250810190610acf919061187f565b610b1b5760405162461bcd60e51b815260206004820152600d60248201527f496e76616c69642073636f7065000000000000000000000000000000000000006044820152606401610251565b6020808201515f908152600190915260409020546001600160a01b03161580610b5f57506020808201515f908152600190915260409020546001600160a01b031633145b610bbc5760405162461bcd60e51b815260206004820152602860248201527f494420616c7265616479207265676973746572656420746f20616e6f74686572604482015267081858d8dbdd5b9d60c21b6064820152608401610251565b6001600160a01b037f00000000000000000000000000000000000000000000000000000000000000001663d14df298610bf86020870187611758565b610c06906040810190611776565b6040518363ffffffff1660e01b8152600401610c2392919061189a565b602060405180830381865afa158015610c3e573d5f5f3e3d5ffd5b505050506040513d601f19601f82011682018060405250810190610c6291906118b5565b60408201819052610e1090610c7790426118cc565b10610cc45760405162461bcd60e51b815260206004820152601060248201527f50726f6f6620697320746f6f206f6c64000000000000000000000000000000006044820152606401610251565b6001600160a01b037f000000000000000000000000000000000000000000000000000000000000000016630af18ba6610d0060408701876118eb565b6040518363ffffffff1660e01b8152600401610d1d92919061192e565b5f60405180830381865afa158015610d37573d5f5f3e3d5ffd5b505050506040513d5f823e601f3d908101601f19168201604052610d5e9190810190611a0a565b60608201819052516001600160a01b03163314610dbd5760405162461bcd60e51b815260206004820152601760248201527f4e6f74207468652065787065637465642073656e6465720000000000000000006044820152606401610251565b4681606001516020015114610e145760405162461bcd60e51b815260206004820152601060248201527f496e76616c696420636861696e206964000000000000000000000000000000006044820152606401610251565b6060810151604001515115610e6b5760405162461bcd60e51b815260206004820152601b60248201527f437573746f6d20646174612073686f756c6420626520656d70747900000000006044820152606401610251565b5f6001600160a01b037f0000000000000000000000000000000000000000000000000000000000000000166303d37eae610ea860408801886118eb565b876040518463ffffffff1660e01b8152600401610ec793929190611ab1565b5f60405180830381865afa158015610ee1573d5f5f3e3d5ffd5b505050506040513d5f823e601f3d908101601f19168201604052610f089190810190611ad6565b90505f6001600160a01b037f000000000000000000000000000000000000000000000000000000000000000016638e96bc89600183610f4a60408b018b6118eb565b6040518563ffffffff1660e01b8152600401610f699493929190611c8c565b602060405180830381865afa158015610f84573d5f5f3e3d5ffd5b505050506040513d601f19601f82011682018060405250810190610fa8919061187f565b60208085018051335f8181528085526040808220939093558351815260018552828120805473ffffffffffffffffffffffffffffffffffffffff191690921790915581516060810183528781528515158186015282890151818401529251815260029093529091208151805193945091929091908290819061102a9082611d13565b506020820151600182019061103f9082611d13565b50604082015160028201906110549082611d13565b50606082015160038201906110699082611d13565b506080820151600482019061107e9082611d13565b5060a082015160058201906110939082611d13565b5060c082015160068201906110a89082611d13565b5060e082015160078201906110bd9082611d13565b50505060208281015160088301805460ff1916911515919091179055604092830151600990920191909155840151905133907f209ae2eb4ff1890ce972a80ec3e167b52d41ab089135cc6430447b1430e824be905f90a350506020015190505b92915050565b6001600160a01b0381165f90815260208190526040812054806111805760405162461bcd60e51b8152602060048201526015602482015274139bc81c9959da5cdd1c985d1a5bdb88199bdd5b99605a1b6044820152606401610251565b5f9081526002602052604090206009015492915050565b6001600160a01b0381165f90815260208190526040812054806111f45760405162461bcd60e51b8152602060048201526015602482015274139bc81c9959da5cdd1c985d1a5bdb88199bdd5b99605a1b6044820152606401610251565b5f9081526002602052604090206008015460ff1692915050565b600380546108b890611498565b50805461122790611498565b5f825580601f10611236575050565b601f0160209004905f5260205f209081019061125291906112b2565b50565b6040518060c001604052805f151581526020015f81526020015f815260200161129f60405180606001604052805f6001600160a01b031681526020015f8152602001606081525090565b81525f6020820181905260409091015290565b5b808211156112c6575f81556001016112b3565b5090565b6001600160a01b0381168114611252575f5ffd5b5f602082840312156112ee575f5ffd5b81356112f9816112ca565b9392505050565b5f81518084528060208401602086015e5f602082860101526020601f19601f83011685010191505092915050565b602081525f8251610100602084015261134b610120840182611300565b90506020840151601f198483030160408501526113688282611300565b9150506040840151601f198483030160608501526113868282611300565b9150506060840151601f198483030160808501526113a48282611300565b9150506080840151601f198483030160a08501526113c28282611300565b91505060a0840151601f198483030160c08501526113e08282611300565b91505060c0840151601f198483030160e08501526113fe8282611300565b91505060e0840151601f198483030161010085015261141d8282611300565b95945050505050565b602081525f6112f96020830184611300565b8015158114611252575f5ffd5b5f5f60408385031215611456575f5ffd5b823567ffffffffffffffff81111561146c575f5ffd5b83016080818603121561147d575f5ffd5b9150602083013561148d81611438565b809150509250929050565b600181811c908216806114ac57607f821691505b6020821081036114ca57634e487b7160e01b5f52602260045260245ffd5b50919050565b5f5f8335601e198436030181126114e5575f5ffd5b830160208101925035905067ffffffffffffffff811115611504575f5ffd5b803603821315611512575f5ffd5b9250929050565b81835281816020850137505f828201602090810191909152601f909101601f19169091010190565b8183525f7f07ffffffffffffffffffffffffffffffffffffffffffffffffffffffffffffff831115611571575f5ffd5b8260051b80836020870137939093016020019392505050565b5f8235607e1983360301811261159e575f5ffd5b90910192915050565b803582525f6115b960208301836114d0565b608060208601526115ce608086018284611519565b9150506115de60408401846114d0565b85830360408701526115f1838284611519565b92505050606083013561160381611438565b8015156060860152508091505092915050565b60208082528235828201525f9083013536849003605e19018112611638575f5ffd5b608060408401528301803560a084015261165560208201826114d0565b606060c086015261166b61010086018284611519565b9150506040820135601e19833603018112611684575f5ffd5b60209201918201913567ffffffffffffffff8111156116a1575f5ffd5b8060051b36038313156116b2575f5ffd5b848203609f190160e08601526116c9828285611541565b925050506116da60408501856114d0565b848303601f190160608601526116f1838284611519565b92505050611702606085018561158a565b838203601f1901608085015261141d82826115a7565b5f5f5f6060848603121561172a575f5ffd5b835161173581611438565b60208501516040860151919450925061174d816112ca565b809150509250925092565b5f8235605e1983360301811261176c575f5ffd5b9190910192915050565b5f5f8335601e1984360301811261178b575f5ffd5b83018035915067ffffffffffffffff8211156117a5575f5ffd5b6020019150600581901b3603821315611512575f5ffd5b5f81546117c881611498565b8085526001821680156117e257600181146117fe57611832565b60ff1983166020870152602082151560051b8701019350611832565b845f5260205f205f5b838110156118295781546020828a010152600182019150602081019050611807565b87016020019450505b50505092915050565b606081525f61184e606083018688611541565b828103602084015261186081866117bc565b9050828103604084015261187481856117bc565b979650505050505050565b5f6020828403121561188f575f5ffd5b81516112f981611438565b602081525f6118ad602083018486611541565b949350505050565b5f602082840312156118c5575f5ffd5b5051919050565b8181038181111561111d57634e487b7160e01b5f52601160045260245ffd5b5f5f8335601e19843603018112611900575f5ffd5b83018035915067ffffffffffffffff82111561191a575f5ffd5b602001915036819003821315611512575f5ffd5b602081525f6118ad602083018486611519565b634e487b7160e01b5f52604160045260245ffd5b604051610100810167ffffffffffffffff8111828210171561197957611979611941565b60405290565b5f82601f83011261198e575f5ffd5b815167ffffffffffffffff8111156119a8576119a8611941565b604051601f8201601f19908116603f0116810167ffffffffffffffff811182821017156119d7576119d7611941565b6040528181528382016020018510156119ee575f5ffd5b8160208501602083015e5f918101602001919091529392505050565b5f60208284031215611a1a575f5ffd5b815167ffffffffffffffff811115611a30575f5ffd5b820160608185031215611a41575f5ffd5b6040516060810167ffffffffffffffff81118282101715611a6457611a64611941565b6040528151611a72816112ca565b815260208281015190820152604082015167ffffffffffffffff811115611a97575f5ffd5b611aa38682850161197f565b604083015250949350505050565b604081525f611ac4604083018587611519565b90508215156020830152949350505050565b5f60208284031215611ae6575f5ffd5b815167ffffffffffffffff811115611afc575f5ffd5b82016101008185031215611b0e575f5ffd5b611b16611955565b815167ffffffffffffffff811115611b2c575f5ffd5b611b388682850161197f565b825250602082015167ffffffffffffffff811115611b54575f5ffd5b611b608682850161197f565b602083015250604082015167ffffffffffffffff811115611b7f575f5ffd5b611b8b8682850161197f565b604083015250606082015167ffffffffffffffff811115611baa575f5ffd5b611bb68682850161197f565b606083015250608082015167ffffffffffffffff811115611bd5575f5ffd5b611be18682850161197f565b60808301525060a082015167ffffffffffffffff811115611c00575f5ffd5b611c0c8682850161197f565b60a08301525060c082015167ffffffffffffffff811115611c2b575f5ffd5b611c378682850161197f565b60c08301525060e082015167ffffffffffffffff811115611c56575f5ffd5b611c628682850161197f565b60e083015250949350505050565b6003811061125257634e487b7160e01b5f52602160045260245ffd5b611c9585611c70565b848152611ca184611c70565b836020820152606060408201525f611cbd606083018486611519565b9695505050505050565b601f821115611d0e57805f5260205f20601f840160051c81016020851015611cec5750805b601f840160051c820191505b81811015611d0b575f8155600101611cf8565b50505b505050565b815167ffffffffffffffff811115611d2d57611d2d611941565b611d4181611d3b8454611498565b84611cc7565b6020601f821160018114611d73575f8315611d5c5750848201515b5f19600385901b1c1916600184901b178455611d0b565b5f84815260208120601f198516915b82811015611da25787850151825560209485019460019092019101611d82565b5084821015611dbf57868401515f19600387901b60f8161c191681555b50505050600190811b0190555056fea264697066735822122080b1f8efa6e556efda818a21290bff9f17e901f9e49097c7397a16f8944bd95d64736f6c634300081e0033","linkReferences":{}},"methodIdentifiers":{"deleteProof()":"1e084f25","getDisclosedData(address)":"0ccbeb6a","getIsFacematched(address)":"c1ad863c","getProofTimestamp(address)":"b282a29a","registerProof((bytes32,(bytes32,bytes,bytes32[]),bytes,(uint256,string,string,bool)),bool)":"7d3788e1","validDomain()":"c47ca04c","validScope()":"1f4a2f59","zkPassportHelper()":"69744c62","zkPassportVerifier()":"c4797ec5"},"id":139}