{"abi":[{"type":"constructor","inputs":[{"name":"_zkPassportVerifier","type":"address","internalType":"address"},{"name":"_zkPassportHelper","type":"address","internalType":"address"},{"name":"_domain","type":"string","internalType":"string"},{"name":"_scope","type":"string","internalType":"string"}],"stateMutability":"nonpayable"},{"type":"function","name":"deleteProof","inputs":[],"outputs":[],"stateMutability":"nonpayable"},{"type":"function","name":"getDisclosed","inputs":[{"name":"account","type":"address","internalType":"address"}],"outputs":[{"name":"","type":"tuple","internalType":"struct DisclosedData","components":[{"name":"name","type":"string","internalType":"string"},{"name":"issuingCountry","type":"string","internalType":"string"},{"name":"nationality","type":"string","internalType":"string"},{"name":"gender","type":"string","internalType":"string"},{"name":"birthDate","type":"string","internalType":"string"},{"name":"expiryDate","type":"string","internalType":"string"},{"name":"documentNumber","type":"string","internalType":"string"},{"name":"documentType","type":"string","internalType":"string"}]}],"stateMutability":"view"},{"type":"function","name":"getIsFacematched","inputs":[{"name":"account","type":"address","internalType":"address"}],"outputs":[{"name":"","type":"bool","internalType":"bool"}],"stateMutability":"view"},{"type":"function","name":"getProofTimestamp","inputs":[{"name":"account","type":"address","internalType":"address"}],"outputs":[{"name":"","type":"uint256","internalType":"uint256"}],"stateMutability":"view"},{"type":"function","name":"registerProof","inputs":[{"name":"params","type":"tuple","internalType":"struct ProofVerificationParams","components":[{"name":"version","type":"bytes32","internalType":"bytes32"},{"name":"proofVerificationData","type":"tuple","internalType":"struct ProofVerificationData","components":[{"name":"vkeyHash","type":"bytes32","internalType":"bytes32"},{"name":"proof","type":"bytes","internalType":"bytes"},{"name":"publicInputs","type":"bytes32[]","internalType":"bytes32[]"}]},{"name":"committedInputs","type":"bytes","internalType":"bytes"},{"name":"serviceConfig","type":"tuple","internalType":"struct ServiceConfig","components":[{"name":"validityPeriodInSeconds","type":"uint256","internalType":"uint256"},{"name":"domain","type":"string","internalType":"string"},{"name":"scope","type":"string","internalType":"string"},{"name":"devMode","type":"bool","internalType":"bool"}]}]},{"name":"isIDCard","type":"bool","internalType":"bool"}],"outputs":[{"name":"identifier","type":"bytes32","internalType":"bytes32"}],"stateMutability":"nonpayable"},{"type":"function","name":"validDomain","inputs":[],"outputs":[{"name":"","type":"string","internalType":"string"}],"stateMutability":"view"},{"type":"function","name":"validScope","inputs":[],"outputs":[{"name":"","type":"string","internalType":"string"}],"stateMutability":"view"},{"type":"function","name":"zkPassportHelper","inputs":[],"outputs":[{"name":"","type":"address","internalType":"contract IZKPassportHelper"}],"stateMutability":"view"},{"type":"function","name":"zkPassportVerifier","inputs":[],"outputs":[{"name":"","type":"address","internalType":"contract IZKPassportVerifier"}],"stateMutability":"view"},{"type":"event","name":"IdentityDeleted","inputs":[{"name":"identifier","type":"bytes32","indexed":true,"internalType":"bytes32"},{"name":"oldAccount","type":"address","indexed":true,"internalType":"address"}],"anonymous":false},{"type":"event","name":"IdentityRegistered","inputs":[{"name":"account","type":"address","indexed":true,"internalType":"address"},{"name":"identifier","type":"bytes32","indexed":true,"internalType":"bytes32"}],"anonymous":false}],"bytecode":{"object":"0x60c060405234801561000f575f5ffd5b5060405161212b38038061212b83398101604081905261002e91610176565b6001600160a01b0384166100885760405162461bcd60e51b815260206004820181905260248201527f5a4b50617373706f72743a20496e76616c6964207a65726f2061646472657373604482015260640160405180910390fd5b6001600160a01b03808516608052831660a05260036100a78382610280565b5060046100b48282610280565b505050505061033a565b80516001600160a01b03811681146100d4575f5ffd5b919050565b634e487b7160e01b5f52604160045260245ffd5b5f82601f8301126100fc575f5ffd5b81516001600160401b03811115610115576101156100d9565b604051601f8201601f19908116603f011681016001600160401b0381118282101715610143576101436100d9565b60405281815283820160200185101561015a575f5ffd5b8160208501602083015e5f918101602001919091529392505050565b5f5f5f5f60808587031215610189575f5ffd5b610192856100be565b93506101a0602086016100be565b60408601519093506001600160401b038111156101bb575f5ffd5b6101c7878288016100ed565b606087015190935090506001600160401b038111156101e4575f5ffd5b6101f0878288016100ed565b91505092959194509250565b600181811c9082168061021057607f821691505b60208210810361022e57634e487b7160e01b5f52602260045260245ffd5b50919050565b601f82111561027b57805f5260205f20601f840160051c810160208510156102595750805b601f840160051c820191505b81811015610278575f8155600101610265565b50505b505050565b81516001600160401b03811115610299576102996100d9565b6102ad816102a784546101fc565b84610234565b6020601f8211600181146102df575f83156102c85750848201515b5f19600385901b1c1916600184901b178455610278565b5f84815260208120601f198516915b8281101561030e57878501518255602094850194600190920191016102ee565b508482101561032b57868401515f19600387901b60f8161c191681555b50505050600190811b01905550565b60805160a051611da76103845f395f818160f001528181610a2d01528181610bc601528181610cce01528181610e190152610eb801525f818161018601526109570152611da75ff3fe608060405234801561000f575f5ffd5b506004361061009f575f3560e01c80637d3788e111610072578063c1ad863c11610058578063c1ad863c1461015e578063c4797ec514610181578063c47ca04c146101a8575f5ffd5b80637d3788e11461012a578063b282a29a1461014b575f5ffd5b80631e084f25146100a35780631f4a2f59146100ad5780633eca794d146100cb57806369744c62146100eb575b5f5ffd5b6100ab6101b0565b005b6100b5610366565b6040516100c2919061129b565b60405180910390f35b6100de6100d93660046112c8565b6103f2565b6040516100c291906112e3565b6101127f000000000000000000000000000000000000000000000000000000000000000081565b6040516001600160a01b0390911681526020016100c2565b61013d6101383660046113e8565b610937565b6040519081526020016100c2565b61013d6101593660046112c8565b6110c6565b61017161016c3660046112c8565b61113a565b60405190151581526020016100c2565b6101127f000000000000000000000000000000000000000000000000000000000000000081565b6100b56111b1565b335f90815260208190526040902054806102095760405162461bcd60e51b8152602060048201526015602482015274139bc81c9959da5cdd1c985d1a5bdb88199bdd5b99605a1b60448201526064015b60405180910390fd5b5f818152600160205260409020546001600160a01b0316331461027a5760405162461bcd60e51b815260206004820152602360248201527f4964656e746966696572206e6f74207265676973746572656420746f2063616c6044820152623632b960e91b6064820152608401610200565b335f9081526020818152604080832083905583835260018252808320805473ffffffffffffffffffffffffffffffffffffffff19169055600290915281209081816102c582826111be565b6102d2600183015f6111be565b6102df600283015f6111be565b6102ec600383015f6111be565b6102f9600483015f6111be565b610306600583015f6111be565b610313600683015f6111be565b610320600783015f6111be565b50505060088101805460ff191690555f6009909101819055604051339183917ff7fef2e356b5886f568a2120b6c085fa74aa83fbc2b95ee716167c22e9dc32059190a350565b600480546103739061143b565b80601f016020809104026020016040519081016040528092919081815260200182805461039f9061143b565b80156103ea5780601f106103c1576101008083540402835291602001916103ea565b820191905f5260205f20905b8154815290600101906020018083116103cd57829003601f168201915b505050505081565b61043a60405180610100016040528060608152602001606081526020016060815260200160608152602001606081526020016060815260200160608152602001606081525090565b6001600160a01b0382165f90815260208190526040902054806104975760405162461bcd60e51b8152602060048201526015602482015274139bc81c9959da5cdd1c985d1a5bdb88199bdd5b99605a1b6044820152606401610200565b5f8181526002602052604090819020815161010081019092528054829082906104bf9061143b565b80601f01602080910402602001604051908101604052809291908181526020018280546104eb9061143b565b80156105365780601f1061050d57610100808354040283529160200191610536565b820191905f5260205f20905b81548152906001019060200180831161051957829003601f168201915b5050505050815260200160018201805461054f9061143b565b80601f016020809104026020016040519081016040528092919081815260200182805461057b9061143b565b80156105c65780601f1061059d576101008083540402835291602001916105c6565b820191905f5260205f20905b8154815290600101906020018083116105a957829003601f168201915b505050505081526020016002820180546105df9061143b565b80601f016020809104026020016040519081016040528092919081815260200182805461060b9061143b565b80156106565780601f1061062d57610100808354040283529160200191610656565b820191905f5260205f20905b81548152906001019060200180831161063957829003601f168201915b5050505050815260200160038201805461066f9061143b565b80601f016020809104026020016040519081016040528092919081815260200182805461069b9061143b565b80156106e65780601f106106bd576101008083540402835291602001916106e6565b820191905f5260205f20905b8154815290600101906020018083116106c957829003601f168201915b505050505081526020016004820180546106ff9061143b565b80601f016020809104026020016040519081016040528092919081815260200182805461072b9061143b565b80156107765780601f1061074d57610100808354040283529160200191610776565b820191905f5260205f20905b81548152906001019060200180831161075957829003601f168201915b5050505050815260200160058201805461078f9061143b565b80601f01602080910402602001604051908101604052809291908181526020018280546107bb9061143b565b80156108065780601f106107dd57610100808354040283529160200191610806565b820191905f5260205f20905b8154815290600101906020018083116107e957829003601f168201915b5050505050815260200160068201805461081f9061143b565b80601f016020809104026020016040519081016040528092919081815260200182805461084b9061143b565b80156108965780601f1061086d57610100808354040283529160200191610896565b820191905f5260205f20905b81548152906001019060200180831161087957829003601f168201915b505050505081526020016007820180546108af9061143b565b80601f01602080910402602001604051908101604052809291908181526020018280546108db9061143b565b80156109265780601f106108fd57610100808354040283529160200191610926565b820191905f5260205f20905b81548152906001019060200180831161090957829003601f168201915b505050505081525050915050919050565b5f6109406111f8565b60405163578bd92160e01b81526001600160a01b037f0000000000000000000000000000000000000000000000000000000000000000169063578bd9219061098c9087906004016115b9565b6060604051808303815f875af11580156109a8573d5f5f3e3d5ffd5b505050506040513d601f19601f820116820180604052508101906109cc91906116bb565b5060208301521515808252610a235760405162461bcd60e51b815260206004820152601060248201527f50726f6f6620697320696e76616c6964000000000000000000000000000000006044820152606401610200565b6001600160a01b037f00000000000000000000000000000000000000000000000000000000000000001663847755e3610a5f60208701876116fb565b610a6d906040810190611719565b600360046040518563ffffffff1660e01b8152600401610a9094939291906117de565b602060405180830381865afa158015610aab573d5f5f3e3d5ffd5b505050506040513d601f19601f82011682018060405250810190610acf9190611822565b610b1b5760405162461bcd60e51b815260206004820152600d60248201527f496e76616c69642073636f7065000000000000000000000000000000000000006044820152606401610200565b6020808201515f908152600190915260409020546001600160a01b03161580610b5f57506020808201515f908152600190915260409020546001600160a01b031633145b610bbc5760405162461bcd60e51b815260206004820152602860248201527f494420616c7265616479207265676973746572656420746f20616e6f74686572604482015267081858d8dbdd5b9d60c21b6064820152608401610200565b6001600160a01b037f00000000000000000000000000000000000000000000000000000000000000001663d14df298610bf860208701876116fb565b610c06906040810190611719565b6040518363ffffffff1660e01b8152600401610c2392919061183d565b602060405180830381865afa158015610c3e573d5f5f3e3d5ffd5b505050506040513d601f19601f82011682018060405250810190610c629190611858565b60408201819052610e1090610c77904261186f565b10610cc45760405162461bcd60e51b815260206004820152601060248201527f50726f6f6620697320746f6f206f6c64000000000000000000000000000000006044820152606401610200565b6001600160a01b037f000000000000000000000000000000000000000000000000000000000000000016630af18ba6610d00604087018761188e565b6040518363ffffffff1660e01b8152600401610d1d9291906118d1565b5f60405180830381865afa158015610d37573d5f5f3e3d5ffd5b505050506040513d5f823e601f3d908101601f19168201604052610d5e91908101906119ad565b60608201819052602001514614610db75760405162461bcd60e51b815260206004820152601060248201527f496e76616c696420636861696e206964000000000000000000000000000000006044820152606401610200565b6060810151604001515115610e0e5760405162461bcd60e51b815260206004820152601b60248201527f437573746f6d20646174612073686f756c6420626520656d70747900000000006044820152606401610200565b5f6001600160a01b037f0000000000000000000000000000000000000000000000000000000000000000166303d37eae610e4b604088018861188e565b876040518463ffffffff1660e01b8152600401610e6a93929190611a54565b5f60405180830381865afa158015610e84573d5f5f3e3d5ffd5b505050506040513d5f823e601f3d908101601f19168201604052610eab9190810190611a79565b90505f6001600160a01b037f000000000000000000000000000000000000000000000000000000000000000016638e96bc89600183610eed60408b018b61188e565b6040518563ffffffff1660e01b8152600401610f0c9493929190611c2f565b602060405180830381865afa925050508015610f45575060408051601f3d908101601f19168201909252610f4291810190611822565b60015b610f5057505f610f53565b90505b60208084018051335f8181528085526040808220939093558351815260018552828120805473ffffffffffffffffffffffffffffffffffffffff191690921790915581516060810183528681528515158186015282880151818401529251815260029093529091208151805182908190610fcd9082611cb6565b5060208201516001820190610fe29082611cb6565b5060408201516002820190610ff79082611cb6565b506060820151600382019061100c9082611cb6565b50608082015160048201906110219082611cb6565b5060a082015160058201906110369082611cb6565b5060c0820151600682019061104b9082611cb6565b5060e082015160078201906110609082611cb6565b50505060208281015160088301805460ff1916911515919091179055604092830151600990920191909155840151905133907f209ae2eb4ff1890ce972a80ec3e167b52d41ab089135cc6430447b1430e824be905f90a350506020015190505b92915050565b6001600160a01b0381165f90815260208190526040812054806111235760405162461bcd60e51b8152602060048201526015602482015274139bc81c9959da5cdd1c985d1a5bdb88199bdd5b99605a1b6044820152606401610200565b5f9081526002602052604090206009015492915050565b6001600160a01b0381165f90815260208190526040812054806111975760405162461bcd60e51b8152602060048201526015602482015274139bc81c9959da5cdd1c985d1a5bdb88199bdd5b99605a1b6044820152606401610200565b5f9081526002602052604090206008015460ff1692915050565b600380546103739061143b565b5080546111ca9061143b565b5f825580601f106111d9575050565b601f0160209004905f5260205f20908101906111f59190611255565b50565b6040518060c001604052805f151581526020015f81526020015f815260200161124260405180606001604052805f6001600160a01b031681526020015f8152602001606081525090565b81525f6020820181905260409091015290565b5b80821115611269575f8155600101611256565b5090565b5f81518084528060208401602086015e5f602082860101526020601f19601f83011685010191505092915050565b602081525f6112ad602083018461126d565b9392505050565b6001600160a01b03811681146111f5575f5ffd5b5f602082840312156112d8575f5ffd5b81356112ad816112b4565b602081525f8251610100602084015261130061012084018261126d565b90506020840151601f1984830301604085015261131d828261126d565b9150506040840151601f1984830301606085015261133b828261126d565b9150506060840151601f19848303016080850152611359828261126d565b9150506080840151601f198483030160a0850152611377828261126d565b91505060a0840151601f198483030160c0850152611395828261126d565b91505060c0840151601f198483030160e08501526113b3828261126d565b91505060e0840151601f19848303016101008501526113d2828261126d565b95945050505050565b80151581146111f5575f5ffd5b5f5f604083850312156113f9575f5ffd5b823567ffffffffffffffff81111561140f575f5ffd5b830160808186031215611420575f5ffd5b91506020830135611430816113db565b809150509250929050565b600181811c9082168061144f57607f821691505b60208210810361146d57634e487b7160e01b5f52602260045260245ffd5b50919050565b5f5f8335601e19843603018112611488575f5ffd5b830160208101925035905067ffffffffffffffff8111156114a7575f5ffd5b8036038213156114b5575f5ffd5b9250929050565b81835281816020850137505f828201602090810191909152601f909101601f19169091010190565b8183525f7f07ffffffffffffffffffffffffffffffffffffffffffffffffffffffffffffff831115611514575f5ffd5b8260051b80836020870137939093016020019392505050565b5f8235607e19833603018112611541575f5ffd5b90910192915050565b803582525f61155c6020830183611473565b608060208601526115716080860182846114bc565b9150506115816040840184611473565b85830360408701526115948382846114bc565b9250505060608301356115a6816113db565b8015156060860152508091505092915050565b60208082528235828201525f9083013536849003605e190181126115db575f5ffd5b608060408401528301803560a08401526115f86020820182611473565b606060c086015261160e610100860182846114bc565b9150506040820135601e19833603018112611627575f5ffd5b60209201918201913567ffffffffffffffff811115611644575f5ffd5b8060051b3603831315611655575f5ffd5b848203609f190160e086015261166c8282856114e4565b9250505061167d6040850185611473565b848303601f190160608601526116948382846114bc565b925050506116a5606085018561152d565b838203601f190160808501526113d2828261154a565b5f5f5f606084860312156116cd575f5ffd5b83516116d8816113db565b6020850151604086015191945092506116f0816112b4565b809150509250925092565b5f8235605e1983360301811261170f575f5ffd5b9190910192915050565b5f5f8335601e1984360301811261172e575f5ffd5b83018035915067ffffffffffffffff821115611748575f5ffd5b6020019150600581901b36038213156114b5575f5ffd5b5f815461176b8161143b565b80855260018216801561178557600181146117a1576117d5565b60ff1983166020870152602082151560051b87010193506117d5565b845f5260205f205f5b838110156117cc5781546020828a0101526001820191506020810190506117aa565b87016020019450505b50505092915050565b606081525f6117f16060830186886114e4565b8281036020840152611803818661175f565b90508281036040840152611817818561175f565b979650505050505050565b5f60208284031215611832575f5ffd5b81516112ad816113db565b602081525f6118506020830184866114e4565b949350505050565b5f60208284031215611868575f5ffd5b5051919050565b818103818111156110c057634e487b7160e01b5f52601160045260245ffd5b5f5f8335601e198436030181126118a3575f5ffd5b83018035915067ffffffffffffffff8211156118bd575f5ffd5b6020019150368190038213156114b5575f5ffd5b602081525f6118506020830184866114bc565b634e487b7160e01b5f52604160045260245ffd5b604051610100810167ffffffffffffffff8111828210171561191c5761191c6118e4565b60405290565b5f82601f830112611931575f5ffd5b815167ffffffffffffffff81111561194b5761194b6118e4565b604051601f8201601f19908116603f0116810167ffffffffffffffff8111828210171561197a5761197a6118e4565b604052818152838201602001851015611991575f5ffd5b8160208501602083015e5f918101602001919091529392505050565b5f602082840312156119bd575f5ffd5b815167ffffffffffffffff8111156119d3575f5ffd5b8201606081850312156119e4575f5ffd5b6040516060810167ffffffffffffffff81118282101715611a0757611a076118e4565b6040528151611a15816112b4565b815260208281015190820152604082015167ffffffffffffffff811115611a3a575f5ffd5b611a4686828501611922565b604083015250949350505050565b604081525f611a676040830185876114bc565b90508215156020830152949350505050565b5f60208284031215611a89575f5ffd5b815167ffffffffffffffff811115611a9f575f5ffd5b82016101008185031215611ab1575f5ffd5b611ab96118f8565b815167ffffffffffffffff811115611acf575f5ffd5b611adb86828501611922565b825250602082015167ffffffffffffffff811115611af7575f5ffd5b611b0386828501611922565b602083015250604082015167ffffffffffffffff811115611b22575f5ffd5b611b2e86828501611922565b604083015250606082015167ffffffffffffffff811115611b4d575f5ffd5b611b5986828501611922565b606083015250608082015167ffffffffffffffff811115611b78575f5ffd5b611b8486828501611922565b60808301525060a082015167ffffffffffffffff811115611ba3575f5ffd5b611baf86828501611922565b60a08301525060c082015167ffffffffffffffff811115611bce575f5ffd5b611bda86828501611922565b60c08301525060e082015167ffffffffffffffff811115611bf9575f5ffd5b611c0586828501611922565b60e083015250949350505050565b600381106111f557634e487b7160e01b5f52602160045260245ffd5b611c3885611c13565b848152611c4484611c13565b836020820152606060408201525f611c606060830184866114bc565b9695505050505050565b601f821115611cb157805f5260205f20601f840160051c81016020851015611c8f5750805b601f840160051c820191505b81811015611cae575f8155600101611c9b565b50505b505050565b815167ffffffffffffffff811115611cd057611cd06118e4565b611ce481611cde845461143b565b84611c6a565b6020601f821160018114611d16575f8315611cff5750848201515b5f19600385901b1c1916600184901b178455611cae565b5f84815260208120601f198516915b82811015611d455787850151825560209485019460019092019101611d25565b5084821015611d6257868401515f19600387901b60f8161c191681555b50505050600190811b0190555056fea2646970667358221220e15beedd46f1e2d65f1341cdbef7ee4dd25781ad4ae9a1c2ad22d57587f2df7664736f6c634300081e0033","linkReferences":{}},"methodIdentifiers":{"deleteProof()":"1e084f25","getDisclosed(address)":"3eca794d","getIsFacematched(address)":"c1ad863c","getProofTimestamp(address)":"b282a29a","registerProof((bytes32,(bytes32,bytes,bytes32[]),bytes,(uint256,string,string,bool)),bool)":"7d3788e1","validDomain()":"c47ca04c","validScope()":"1f4a2f59","zkPassportHelper()":"69744c62","zkPassportVerifier()":"c4797ec5"},"id":137}