{"abi":[{"type":"constructor","inputs":[],"stateMutability":"nonpayable"},{"type":"function","name":"executeMandate","inputs":[{"name":"caller","type":"address","internalType":"address"},{"name":"mandateId","type":"uint16","internalType":"uint16"},{"name":"mandateCalldata","type":"bytes","internalType":"bytes"},{"name":"nonce","type":"uint256","internalType":"uint256"}],"outputs":[{"name":"success","type":"bool","internalType":"bool"}],"stateMutability":"nonpayable"},{"type":"function","name":"getConfig","inputs":[{"name":"powers","type":"address","internalType":"address"},{"name":"mandateId","type":"uint16","internalType":"uint16"}],"outputs":[{"name":"config","type":"bytes","internalType":"bytes"}],"stateMutability":"view"},{"type":"function","name":"getInputParams","inputs":[{"name":"powers","type":"address","internalType":"address"},{"name":"mandateId","type":"uint16","internalType":"uint16"}],"outputs":[{"name":"inputParams","type":"bytes","internalType":"bytes"}],"stateMutability":"view"},{"type":"function","name":"getNameDescription","inputs":[{"name":"powers","type":"address","internalType":"address"},{"name":"mandateId","type":"uint16","internalType":"uint16"}],"outputs":[{"name":"nameDescription","type":"string","internalType":"string"}],"stateMutability":"view"},{"type":"function","name":"handleRequest","inputs":[{"name":"caller","type":"address","internalType":"address"},{"name":"powers","type":"address","internalType":"address"},{"name":"mandateId","type":"uint16","internalType":"uint16"},{"name":"mandateCalldata","type":"bytes","internalType":"bytes"},{"name":"nonce","type":"uint256","internalType":"uint256"}],"outputs":[{"name":"actionId","type":"uint256","internalType":"uint256"},{"name":"targets","type":"address[]","internalType":"address[]"},{"name":"values","type":"uint256[]","internalType":"uint256[]"},{"name":"calldatas","type":"bytes[]","internalType":"bytes[]"}],"stateMutability":"view"},{"type":"function","name":"initializeMandate","inputs":[{"name":"index","type":"uint16","internalType":"uint16"},{"name":"nameDescription","type":"string","internalType":"string"},{"name":"inputParams","type":"bytes","internalType":"bytes"},{"name":"config","type":"bytes","internalType":"bytes"}],"outputs":[],"stateMutability":"nonpayable"},{"type":"function","name":"mandates","inputs":[{"name":"mandateHash","type":"bytes32","internalType":"bytes32"}],"outputs":[{"name":"nameDescription","type":"string","internalType":"string"},{"name":"inputParams","type":"bytes","internalType":"bytes"},{"name":"config","type":"bytes","internalType":"bytes"},{"name":"powers","type":"address","internalType":"address"}],"stateMutability":"view"},{"type":"function","name":"supportsInterface","inputs":[{"name":"interfaceId","type":"bytes4","internalType":"bytes4"}],"outputs":[{"name":"","type":"bool","internalType":"bool"}],"stateMutability":"view"},{"type":"function","name":"version","inputs":[],"outputs":[{"name":"","type":"string","internalType":"string"}],"stateMutability":"pure"},{"type":"event","name":"Mandate__Deployed","inputs":[{"name":"configParams","type":"bytes","indexed":false,"internalType":"bytes"}],"anonymous":false},{"type":"event","name":"Mandate__Initialized","inputs":[{"name":"powers","type":"address","indexed":true,"internalType":"address"},{"name":"index","type":"uint16","indexed":true,"internalType":"uint16"},{"name":"nameDescription","type":"string","indexed":false,"internalType":"string"},{"name":"inputParams","type":"bytes","indexed":false,"internalType":"bytes"},{"name":"config","type":"bytes","indexed":false,"internalType":"bytes"}],"anonymous":false},{"type":"error","name":"OnlyPowers","inputs":[]}],"bytecode":{"object":"0x608060405234801561000f575f5ffd5b505f6040516020016100209061006e565b60405160208183030381529060405290507f71bb7b033e40374cfbc64859f679a737bcbfca31158d6a4783c01ee8d445cc5e8160405161006091906101aa565b60405180910390a1506101df565b60c08152601460c08201527f737472696e675b5d20696e707574506172616d7300000000000000000000000060e0820152610100602082015260106101008201526f6164647265737320726567697374727960801b61012082015261014060408201525f61014082015f601982527f75696e74323536207374616c6541667465725365636f6e6473000000000000006020830152604082019050838103606085015261014481601681527f626f6f6c20666163656d61746368526571756972656400000000000000000000602082015260400190565b8481036080860152601781527f6279746573342066756e6374696f6e53656c6563746f7200000000000000000060208201529150506040810183810360a0850152600b81526a189e5d195cc81a5b9c1d5d60aa1b60208201529050604081019392505050565b602081525f82518060208401528060208501604085015e5f604082850101526040601f19601f83011684010191505092915050565b612ae3806101ec5f395ff3fe608060405234801561000f575f5ffd5b506004361061009f575f3560e01c806354fd4d5011610072578063b1f50f8911610058578063b1f50f891461016a578063c0d27aad1461017f578063d8a941f414610192575f5ffd5b806354fd4d5014610125578063552cb37214610147575f5ffd5b806301e07972146100a357806301ffc9a7146100cf5780630d157721146100f25780634d516f0e14610112575b5f5ffd5b6100b66100b1366004611e46565b6101a5565b6040516100c69493929190611e8b565b60405180910390f35b6100e26100dd366004611ef6565b610367565b60405190151581526020016100c6565b610105610100366004611f42565b61039d565b6040516100c69190611f75565b6100e2610120366004611fcc565b61046e565b60408051808201909152600681526576302e352e3160d01b6020820152610105565b61015a610155366004612032565b61050e565b6040516100c6949392919061217c565b61017d6101783660046122b4565b610e29565b005b61010561018d366004611f42565b610f74565b6101056101a0366004611f42565b610fc4565b5f602081905290815260409020805481906101bf90612366565b80601f01602080910402602001604051908101604052809291908181526020018280546101eb90612366565b80156102365780601f1061020d57610100808354040283529160200191610236565b820191905f5260205f20905b81548152906001019060200180831161021957829003601f168201915b50505050509080600101805461024b90612366565b80601f016020809104026020016040519081016040528092919081815260200182805461027790612366565b80156102c25780601f10610299576101008083540402835291602001916102c2565b820191905f5260205f20905b8154815290600101906020018083116102a557829003601f168201915b5050505050908060020180546102d790612366565b80601f016020809104026020016040519081016040528092919081815260200182805461030390612366565b801561034e5780601f106103255761010080835404028352916020019161034e565b820191905f5260205f20905b81548152906001019060200180831161033157829003601f168201915b505050600390930154919250506001600160a01b031684565b5f6001600160e01b0319821663a988d3f560e01b148061039757506301ffc9a760e01b6001600160e01b03198316145b92915050565b604080516001600160a01b03841660208083019190915261ffff841682840152825180830384018152606092830184528051908201205f908152908190529190912080546103ea90612366565b80601f016020809104026020016040519081016040528092919081815260200182805461041690612366565b80156104615780601f1061043857610100808354040283529160200191610461565b820191905f5260205f20905b81548152906001019060200180831161044457829003601f168201915b5050505050905092915050565b6040805133602080830182905261ffff881683850152835180840385018152606090930184528251928101929092205f81815292839052928220600301549192916001600160a01b0316146104d65760405163e317a3d160e01b815260040160405180910390fd5b5f5f5f5f6104e88b338c8c8c8c61050e565b93509350935093506104fd8a8585858561101b565b5060019a9950505050505050505050565b5f606080606061051c611d78565b6105268a8a610f74565b806020019051810190610539919061249b565b60c08701526001600160e01b03191660a08601521515608085015260608401526001600160a01b031660408301525061057487890189612551565b6001600160a01b0390811660e08301526040820151166105e75760405162461bcd60e51b8152602060048201526024808201527f5a4b50617373706f72743a20496e76616c6964207265676973747279206164646044820152637265737360e01b60648201526084015b60405180910390fd5b60e08101516001600160a01b03166106675760405162461bcd60e51b815260206004820152603560248201527f5a4b50617373706f72743a20496e76616c6964207a65726f206164647265737360448201527f20666f72206163636f756e7420746f20636865636b000000000000000000000060648201526084016105de565b8a6001600160a01b03168160e001516001600160a01b0316146106f25760405162461bcd60e51b815260206004820152602e60248201527f5a4b50617373706f72743a2043616c6c6572206973206e6f742074686520616360448201527f636f756e7420746f20636865636b00000000000000000000000000000000000060648201526084016105de565b5f8160400151905061073b8a8a8a8080601f0160208091040260200160405190810160405280939291908181526020018383808284375f920191909152508c9250611081915050565b60e0830151604051635941514d60e11b81526001600160a01b03918216600482015291975082169063b282a29a90602401602060405180830381865afa158015610787573d5f5f3e3d5ffd5b505050506040513d601f19601f820116820180604052508101906107ab919061256c565b61010083018190526060830151906107c39042612597565b106108105760405162461bcd60e51b815260206004820152600e60248201527f50726f6f66206973207374616c6500000000000000000000000000000000000060448201526064016105de565b8160800151156108d45760e082015160405163306b618f60e21b81526001600160a01b0391821660048201529082169063c1ad863c90602401602060405180830381865afa158015610864573d5f5f3e3d5ffd5b505050506040513d601f19601f8201168201806040525081019061088891906125aa565b6108d45760405162461bcd60e51b815260206004820152601d60248201527f466163654d6174636820726571756972656d656e74206e6f74206d657400000060448201526064016105de565b60e0820151604051633eca794d60e01b81526001600160a01b03918216600482015290821690633eca794d906024015f60405180830381865afa15801561091d573d5f5f3e3d5ffd5b505050506040513d5f823e601f3d908101601f1916820160405261094491908101906125c3565b61014083015260a08201516001600160e01b03191663d4d6de8760e01b01610986576109798260c001518361014001516110b7565b1515610120830152610da9565b60a08201516001600160e01b0319166321f06bd160e21b016109b5576109798260c001518361014001516110e9565b60a08201516001600160e01b031916631491889760e31b016109e4576109798260c0015183610140015161111c565b60a08201516001600160e01b0319166303617ca560e61b01610a13576109798260c0015183610140015161114e565b60a08201516001600160e01b031916630e85aea760e11b01610a42576109798260c00151836101400151611181565b60a08201516001600160e01b03191663210fe7d760e11b01610a71576109798260c001518361014001516111cc565b60a08201516001600160e01b0319166331582e7d60e11b01610aa0576109798260c001518361014001516111fe565b60a08201516001600160e01b03191663a21e3f7960e01b01610acf576109798260c0015183610140015161122d565b60a08201516001600160e01b0319166351559d7b60e01b01610afe576109798260c0015183610140015161125c565b60a08201516001600160e01b0319166312f01d8d60e31b01610b2d576109798260c0015183610140015161128b565b60a08201516001600160e01b03191663df399da760e01b01610b5c576109798260c001518361014001516112ba565b60a08201516001600160e01b031916638bd9b20b60e01b01610b8b576109798260c0015183610140015161130d565b60a08201516001600160e01b03191663d2e2745f60e01b01610bba576109798260c0015183610140015161133c565b60a08201516001600160e01b031916632523ed0760e11b01610be9576109798260c0015183610140015161136c565b60a08201516001600160e01b031916630c5e0e2760e01b01610c18576109798260c0015183610140015161139c565b60a08201516001600160e01b031916636191efaf60e11b01610c47576109798260c001518361014001516113cc565b60a08201516001600160e01b0319166372ab993f60e11b01610c76576109798260c001518361014001516113fc565b60a08201516001600160e01b031916635cbf449760e11b01610ca5576109798260c00151836101400151611427565b60a08201516001600160e01b031916638519981760e01b01610cd4576109798260c00151836101400151611457565b60a08201516001600160e01b03191663c91aa4f960e01b01610d03576109798260c001518361014001516114c9565b60a08201516001600160e01b03191663d3a2e4bb60e01b01610d32576109798260c0015183610140015161153b565b60a08201516001600160e01b031916631b0093df60e01b01610d61576109798260c001518361014001516115a3565b60405162461bcd60e51b815260206004820152601d60248201527f556e737570706f727465642066756e6374696f6e2073656c6563746f7200000060448201526064016105de565b816101200151610e095760405162461bcd60e51b815260206004820152602560248201527f5a4b50617373706f72743a2050726f6f6620766572696669636174696f6e2066604482015264185a5b195960da1b60648201526084016105de565b610e13600161160a565b9196509450925050509650965096509692505050565b5f81806020019051810190610e3e919061249b565b505050505090505f81516001610e54919061275d565b67ffffffffffffffff811115610e6c57610e6c6121c5565b604051908082528060200260200182016040528015610e9f57816020015b6060815260200190600190039081610e8a5790505b5090505f5b8251811015610eec57828181518110610ebf57610ebf612770565b6020026020010151828281518110610ed957610ed9612770565b6020908102919091010152600101610ea4565b506040518060400160405280601681526020017f61646472657373204163636f756e74546f436865636b0000000000000000000081525081835181518110610f3657610f36612770565b6020026020010181905250610f6c868683604051602001610f579190612784565b604051602081830303815290604052866116ee565b505050505050565b604080516001600160a01b03841660208083019190915261ffff841682840152825180830384018152606092830184528051908201205f908152908190529190912060020180546103ea90612366565b604080516001600160a01b03841660208083019190915261ffff841682840152825180830384018152606092830184528051908201205f908152908190529190912060010180546103ea90612366565b5050505050565b82511561101457604051630de6a60160e01b81523390630de6a6019061104d90889088908890889088906004016127e7565b5f604051808303815f87803b158015611064575f5ffd5b505af1158015611076573d5f5f3e3d5ffd5b505050505050505050565b5f8383836040516020016110979392919061283b565b60408051601f198184030181529190528051602090910120949350505050565b5f5f838060200190518101906110cd9190612877565b90508060ff166110e0846080015161180f565b11949350505050565b5f5f838060200190518101906110ff9190612877565b90508060ff16611112846080015161180f565b1015949350505050565b5f5f838060200190518101906111329190612877565b90508060ff16611145846080015161180f565b10949350505050565b5f5f838060200190518101906111649190612877565b90508060ff16611177846080015161180f565b1115949350505050565b5f5f5f848060200190518101906111989190612890565b915091505f6111aa856080015161180f565b90508260ff1681101580156111c257508160ff168111155b9695505050505050565b5f5f838060200190518101906111e29190612877565b90508060ff166111f5846080015161180f565b14949350505050565b5f5f83806020019051810190611214919061256c565b905061121f81611859565b6110e084608001515f6118a2565b5f5f83806020019051810190611243919061256c565b905061124e81611859565b61111284608001515f6118a2565b5f5f83806020019051810190611272919061256c565b905061127d81611859565b61114584608001515f6118a2565b5f5f838060200190518101906112a1919061256c565b90506112ac81611859565b61117784608001515f6118a2565b5f5f5f848060200190518101906112d191906128b8565b915091505f6112e485608001515f6118a2565b90506112ef83611859565b81101580156111c2575061130282611859565b101595945050505050565b5f5f83806020019051810190611323919061256c565b905061132e81611859565b6111f584608001515f6118a2565b5f5f83806020019051810190611352919061256c565b905061135d81611859565b6110e08460a0015160016118a2565b5f5f83806020019051810190611382919061256c565b905061138d81611859565b6111128460a0015160016118a2565b5f5f838060200190518101906113b2919061256c565b90506113bd81611859565b6111458460a0015160016118a2565b5f5f838060200190518101906113e2919061256c565b90506113ed81611859565b6111778460a0015160016118a2565b5f5f5f8480602001905181019061141391906128b8565b915091505f6112e48560a0015160016118a2565b5f5f8380602001905181019061143d919061256c565b905061144881611859565b6111f58460a0015160016118a2565b5f5f8380602001905181019061146d91906128da565b90505f5b81518110156114bf5783602001518051906020012082828151811061149857611498612770565b602002602001015180519060200120036114b757600192505050610397565b600101611471565b505f949350505050565b5f5f838060200190518101906114df91906128da565b90505f5b81518110156115305783602001518051906020012082828151811061150a5761150a612770565b60200260200101518051906020012003611528575f92505050610397565b6001016114e3565b506001949350505050565b5f5f8380602001905181019061155191906128da565b90505f5b81518110156114bf5783604001518051906020012082828151811061157c5761157c612770565b6020026020010151805190602001200361159b57600192505050610397565b600101611555565b5f5f838060200190518101906115b991906128da565b90505f5b8151811015611530578360400151805190602001208282815181106115e4576115e4612770565b60200260200101518051906020012003611602575f92505050610397565b6001016115bd565b60608060608367ffffffffffffffff811115611628576116286121c5565b604051908082528060200260200182016040528015611651578160200160208202803683370190505b5092508367ffffffffffffffff81111561166d5761166d6121c5565b604051908082528060200260200182016040528015611696578160200160208202803683370190505b5091508367ffffffffffffffff8111156116b2576116b26121c5565b6040519080825280602002602001820160405280156116e557816020015b60608152602001906001900390816116d05790505b50929491935050565b604080513360208083019190915261ffff8716828401528251808303840181526060909201909252805191012061172884600160ff611aac565b6040805160808101825285815260208082018690528183018590523360608301525f8481529081905291909120815181906117639082612950565b50602082015160018201906117789082612950565b506040820151600282019061178d9082612950565b50606091909101516003909101805473ffffffffffffffffffffffffffffffffffffffff19166001600160a01b0390921691909117905560405161ffff86169033907ff02558935ef4a7a4dd0455b94fd00eb1bcd7d048c0ab648841d3985a31a135c29061180090889088908890612a0b565b60405180910390a35050505050565b5f5f61181b835f6118a2565b90505f61182742611859565b90508181101561183a57505f9392505050565b6127106118478383612597565b6118519190612a57565b949350505050565b5f5f5f5f61186685611b53565b9194509250905080611879836064612a6a565b61188585612710612a6a565b61188f919061275d565b611899919061275d565b95945050505050565b81515f9083906006146118f75760405162461bcd60e51b815260206004820152601760248201527f496e76616c6964204d525a2064617465206c656e67746800000000000000000060448201526064016105de565b5f611980825f8151811061190d5761190d612770565b602001015160f81c60f81b8360018151811061192b5761192b612770565b016020908101516040517fff0000000000000000000000000000000000000000000000000000000000000093841692810192909252919091166021820152602201604051602081830303815290604052611cfe565b90505f6119b78360028151811061199957611999612770565b602001015160f81c60f81b8460038151811061192b5761192b612770565b90505f6119ee846004815181106119d0576119d0612770565b602001015160f81c60f81b8560058151811061192b5761192b612770565b90505f6119fa42611859565b90505f6064611a0b61271084612a57565b611a159190612a81565b90505f8815611a4f57611a2982603261275d565b861015611a4357611a3c866107d061275d565b9050611a72565b611a3c8661076c61275d565b81861115611a6357611a3c8661076c61275d565b611a6f866107d061275d565b90505b83611a7e866064612a6a565b611a8a83612710612a6a565b611a94919061275d565b611a9e919061275d565b9a9950505050505050505050565b8183511015611afd5760405162461bcd60e51b815260206004820152601060248201527f537472696e6720746f6f2073686f72740000000000000000000000000000000060448201526064016105de565b8083511115611b4e5760405162461bcd60e51b815260206004820152600f60248201527f537472696e6720746f6f206c6f6e67000000000000000000000000000000000060448201526064016105de565b505050565b5f808080611b646201518086612a57565b611b7190620afa6c61275d565b90505f611b8162023ab183612a57565b90505f611b918262023ab1612a6a565b611b9b9084612597565b90505f61016d611bae62023ab084612a57565b611bba618eac85612a57565b611bc66105b486612a57565b611bd09086612597565b611bda919061275d565b611be49190612597565b611bee9190612a57565b90505f611bfd84610190612a6a565b611c07908361275d565b90505f611c15606484612a57565b611c20600485612a57565b611c2c8561016d612a6a565b611c36919061275d565b611c409190612597565b611c4a9085612597565b90505f6099611c5a836005612a6a565b611c6590600261275d565b611c6f9190612a57565b90506005611c7e826099612a6a565b611c8990600261275d565b611c939190612a57565b611c9d9083612597565b611ca890600161275d565b9750600a8110611cc257611cbd600982612597565b611ccd565b611ccd81600361275d565b98506002891115611cde575f611ce1565b60015b611cee9060ff168461275d565b9950505050505050509193909250565b5f81815b8151811015611d71575f828281518110611d1e57611d1e612770565b016020015160f81c905060308110801590611d3d575060398160ff1611155b15611d6857611d4d603082612a94565b60ff16611d5b85600a612a6a565b611d65919061275d565b93505b50600101611d02565b5050919050565b6040518061016001604052805f15158152602001606081526020015f6001600160a01b031681526020015f81526020015f151581526020015f7bffffffffffffffffffffffffffffffffffffffffffffffffffffffff19168152602001606081526020015f6001600160a01b031681526020015f81526020015f15158152602001611e4160405180610100016040528060608152602001606081526020016060815260200160608152602001606081526020016060815260200160608152602001606081525090565b905290565b5f60208284031215611e56575f5ffd5b5035919050565b5f81518084528060208401602086015e5f602082860101526020601f19601f83011685010191505092915050565b608081525f611e9d6080830187611e5d565b8281036020840152611eaf8187611e5d565b90508281036040840152611ec38186611e5d565b9150506001600160a01b038316606083015295945050505050565b6001600160e01b031981168114611ef3575f5ffd5b50565b5f60208284031215611f06575f5ffd5b8135611f1181611ede565b9392505050565b6001600160a01b0381168114611ef3575f5ffd5b803561ffff81168114611f3d575f5ffd5b919050565b5f5f60408385031215611f53575f5ffd5b8235611f5e81611f18565b9150611f6c60208401611f2c565b90509250929050565b602081525f611f116020830184611e5d565b5f5f83601f840112611f97575f5ffd5b50813567ffffffffffffffff811115611fae575f5ffd5b602083019150836020828501011115611fc5575f5ffd5b9250929050565b5f5f5f5f5f60808688031215611fe0575f5ffd5b8535611feb81611f18565b9450611ff960208701611f2c565b9350604086013567ffffffffffffffff811115612014575f5ffd5b61202088828901611f87565b96999598509660600135949350505050565b5f5f5f5f5f5f60a08789031215612047575f5ffd5b863561205281611f18565b9550602087013561206281611f18565b945061207060408801611f2c565b9350606087013567ffffffffffffffff81111561208b575f5ffd5b61209789828a01611f87565b979a9699509497949695608090950135949350505050565b5f8151808452602084019350602083015f5b828110156120e85781516001600160a01b03168652602095860195909101906001016120c1565b5093949350505050565b5f8151808452602084019350602083015f5b828110156120e8578151865260209586019590910190600101612104565b5f82825180855260208501945060208160051b830101602085015f5b8381101561217057601f1985840301885261215a838351611e5d565b602098890198909350919091019060010161213e565b50909695505050505050565b848152608060208201525f61219460808301866120af565b82810360408401526121a681866120f2565b905082810360608401526121ba8185612122565b979650505050505050565b634e487b7160e01b5f52604160045260245ffd5b604051610100810167ffffffffffffffff811182821017156121fd576121fd6121c5565b60405290565b604051601f8201601f1916810167ffffffffffffffff8111828210171561222c5761222c6121c5565b604052919050565b5f67ffffffffffffffff82111561224d5761224d6121c5565b50601f01601f191660200190565b5f61226d61226884612234565b612203565b9050828152838383011115612280575f5ffd5b828260208301375f602084830101529392505050565b5f82601f8301126122a5575f5ffd5b611f118383356020850161225b565b5f5f5f5f608085870312156122c7575f5ffd5b6122d085611f2c565b9350602085013567ffffffffffffffff8111156122eb575f5ffd5b8501601f810187136122fb575f5ffd5b61230a8782356020840161225b565b935050604085013567ffffffffffffffff811115612326575f5ffd5b61233287828801612296565b925050606085013567ffffffffffffffff81111561234e575f5ffd5b61235a87828801612296565b91505092959194509250565b600181811c9082168061237a57607f821691505b60208210810361239857634e487b7160e01b5f52602260045260245ffd5b50919050565b5f6123ab61226884612234565b90508281528383830111156123be575f5ffd5b8282602083015e5f602084830101529392505050565b5f82601f8301126123e3575f5ffd5b611f118383516020850161239e565b5f82601f830112612401575f5ffd5b815167ffffffffffffffff81111561241b5761241b6121c5565b8060051b61242b60208201612203565b91825260208185018101929081019086841115612446575f5ffd5b6020860192505b838310156111c257825167ffffffffffffffff81111561246b575f5ffd5b61247a886020838a01016123d4565b8352506020928301929091019061244d565b80518015158114611f3d575f5ffd5b5f5f5f5f5f5f60c087890312156124b0575f5ffd5b865167ffffffffffffffff8111156124c6575f5ffd5b6124d289828a016123f2565b96505060208701516124e381611f18565b604088015190955093506124f96060880161248c565b9250608087015161250981611ede565b60a088015190925067ffffffffffffffff811115612525575f5ffd5b8701601f81018913612535575f5ffd5b6125448982516020840161239e565b9150509295509295509295565b5f60208284031215612561575f5ffd5b8135611f1181611f18565b5f6020828403121561257c575f5ffd5b5051919050565b634e487b7160e01b5f52601160045260245ffd5b8181038181111561039757610397612583565b5f602082840312156125ba575f5ffd5b611f118261248c565b5f602082840312156125d3575f5ffd5b815167ffffffffffffffff8111156125e9575f5ffd5b820161010081850312156125fb575f5ffd5b6126036121d9565b815167ffffffffffffffff811115612619575f5ffd5b612625868285016123d4565b825250602082015167ffffffffffffffff811115612641575f5ffd5b61264d868285016123d4565b602083015250604082015167ffffffffffffffff81111561266c575f5ffd5b612678868285016123d4565b604083015250606082015167ffffffffffffffff811115612697575f5ffd5b6126a3868285016123d4565b606083015250608082015167ffffffffffffffff8111156126c2575f5ffd5b6126ce868285016123d4565b60808301525060a082015167ffffffffffffffff8111156126ed575f5ffd5b6126f9868285016123d4565b60a08301525060c082015167ffffffffffffffff811115612718575f5ffd5b612724868285016123d4565b60c08301525060e082015167ffffffffffffffff811115612743575f5ffd5b61274f868285016123d4565b60e083015250949350505050565b8082018082111561039757610397612583565b634e487b7160e01b5f52603260045260245ffd5b5f602082016020835280845180835260408501915060408160051b8601019250602086015f5b828110156127db57603f198786030184526127c6858351611e5d565b945060209384019391909101906001016127aa565b50929695505050505050565b61ffff8616815284602082015260a060408201525f61280960a08301866120af565b828103606084015261281b81866120f2565b9050828103608084015261282f8185612122565b98975050505050505050565b61ffff84168152606060208201525f6128576060830185611e5d565b9050826040830152949350505050565b805160ff81168114611f3d575f5ffd5b5f60208284031215612887575f5ffd5b611f1182612867565b5f5f604083850312156128a1575f5ffd5b6128aa83612867565b9150611f6c60208401612867565b5f5f604083850312156128c9575f5ffd5b505080516020909101519092909150565b5f602082840312156128ea575f5ffd5b815167ffffffffffffffff811115612900575f5ffd5b611851848285016123f2565b601f821115611b4e57805f5260205f20601f840160051c810160208510156129315750805b601f840160051c820191505b81811015611014575f815560010161293d565b815167ffffffffffffffff81111561296a5761296a6121c5565b61297e816129788454612366565b8461290c565b6020601f8211600181146129b0575f83156129995750848201515b5f19600385901b1c1916600184901b178455611014565b5f84815260208120601f198516915b828110156129df57878501518255602094850194600190920191016129bf565b50848210156129fc57868401515f19600387901b60f8161c191681555b50505050600190811b01905550565b606081525f612a1d6060830186611e5d565b8281036020840152612a2f8186611e5d565b905082810360408401526111c28185611e5d565b634e487b7160e01b5f52601260045260245ffd5b5f82612a6557612a65612a43565b500490565b808202811582820484141761039757610397612583565b5f82612a8f57612a8f612a43565b500690565b60ff82811682821603908111156103975761039761258356fea2646970667358221220e51389f56fd84b4efa2db4f302d519541a13d6a294b538fb8264d1f5d05cd05864736f6c634300081e0033","linkReferences":{}},"methodIdentifiers":{"executeMandate(address,uint16,bytes,uint256)":"4d516f0e","getConfig(address,uint16)":"c0d27aad","getInputParams(address,uint16)":"d8a941f4","getNameDescription(address,uint16)":"0d157721","handleRequest(address,address,uint16,bytes,uint256)":"552cb372","initializeMandate(uint16,string,bytes,bytes)":"b1f50f89","mandates(bytes32)":"01e07972","supportsInterface(bytes4)":"01ffc9a7","version()":"54fd4d50"},"id":204}