{"abi":[{"type":"constructor","inputs":[{"name":"name_","type":"string","internalType":"string"},{"name":"uri_","type":"string","internalType":"string"},{"name":"maxCallDataLength_","type":"uint256","internalType":"uint256"},{"name":"maxReturnDataLength_","type":"uint256","internalType":"uint256"},{"name":"maxExecutionsLength_","type":"uint256","internalType":"uint256"}],"stateMutability":"payable"},{"type":"receive","stateMutability":"payable"},{"type":"function","name":"ADMIN_ROLE","inputs":[],"outputs":[{"name":"","type":"uint256","internalType":"uint256"}],"stateMutability":"view"},{"type":"function","name":"DENOMINATOR","inputs":[],"outputs":[{"name":"","type":"uint256","internalType":"uint256"}],"stateMutability":"view"},{"type":"function","name":"FOUNDED_AT","inputs":[],"outputs":[{"name":"","type":"uint256","internalType":"uint256"}],"stateMutability":"view"},{"type":"function","name":"MAX_CALLDATA_LENGTH","inputs":[],"outputs":[{"name":"","type":"uint256","internalType":"uint256"}],"stateMutability":"view"},{"type":"function","name":"MAX_EXECUTIONS_LENGTH","inputs":[],"outputs":[{"name":"","type":"uint256","internalType":"uint256"}],"stateMutability":"view"},{"type":"function","name":"MAX_RETURN_DATA_LENGTH","inputs":[],"outputs":[{"name":"","type":"uint256","internalType":"uint256"}],"stateMutability":"view"},{"type":"function","name":"PUBLIC_ROLE","inputs":[],"outputs":[{"name":"","type":"uint256","internalType":"uint256"}],"stateMutability":"view"},{"type":"function","name":"addFlow","inputs":[{"name":"flow","type":"tuple","internalType":"struct PowersTypes.Flow","components":[{"name":"mandateIds","type":"uint16[]","internalType":"uint16[]"},{"name":"nameDescription","type":"string","internalType":"string"}]}],"outputs":[],"stateMutability":"nonpayable"},{"type":"function","name":"adoptMandate","inputs":[{"name":"mandateInitData","type":"tuple","internalType":"struct PowersTypes.MandateInitData","components":[{"name":"nameDescription","type":"string","internalType":"string"},{"name":"targetMandate","type":"address","internalType":"address"},{"name":"config","type":"bytes","internalType":"bytes"},{"name":"conditions","type":"tuple","internalType":"struct PowersTypes.Conditions","components":[{"name":"allowedRole","type":"uint256","internalType":"uint256"},{"name":"votingPeriod","type":"uint32","internalType":"uint32"},{"name":"timelock","type":"uint32","internalType":"uint32"},{"name":"throttleExecution","type":"uint32","internalType":"uint32"},{"name":"needFulfilled","type":"uint16","internalType":"uint16"},{"name":"needNotFulfilled","type":"uint16","internalType":"uint16"},{"name":"quorum","type":"uint8","internalType":"uint8"},{"name":"succeedAt","type":"uint8","internalType":"uint8"}]}]}],"outputs":[{"name":"mandateId","type":"uint16","internalType":"uint16"}],"stateMutability":"nonpayable"},{"type":"function","name":"assignRole","inputs":[{"name":"roleId","type":"uint256","internalType":"uint256"},{"name":"account","type":"address","internalType":"address"}],"outputs":[],"stateMutability":"nonpayable"},{"type":"function","name":"blacklistAddress","inputs":[{"name":"account","type":"address","internalType":"address"},{"name":"blacklisted","type":"bool","internalType":"bool"}],"outputs":[],"stateMutability":"nonpayable"},{"type":"function","name":"canCallMandate","inputs":[{"name":"caller","type":"address","internalType":"address"},{"name":"mandateId","type":"uint16","internalType":"uint16"}],"outputs":[{"name":"","type":"bool","internalType":"bool"}],"stateMutability":"view"},{"type":"function","name":"cancel","inputs":[{"name":"mandateId","type":"uint16","internalType":"uint16"},{"name":"mandateCalldata","type":"bytes","internalType":"bytes"},{"name":"nonce","type":"uint256","internalType":"uint256"}],"outputs":[{"name":"","type":"uint256","internalType":"uint256"}],"stateMutability":"nonpayable"},{"type":"function","name":"castVote","inputs":[{"name":"actionId","type":"uint256","internalType":"uint256"},{"name":"support","type":"uint8","internalType":"uint8"}],"outputs":[],"stateMutability":"nonpayable"},{"type":"function","name":"castVoteWithReason","inputs":[{"name":"actionId","type":"uint256","internalType":"uint256"},{"name":"support","type":"uint8","internalType":"uint8"},{"name":"reason","type":"string","internalType":"string"}],"outputs":[],"stateMutability":"nonpayable"},{"type":"function","name":"closeConstitute","inputs":[],"outputs":[],"stateMutability":"nonpayable"},{"type":"function","name":"closeConstitute","inputs":[{"name":"newAdmin","type":"address","internalType":"address"}],"outputs":[],"stateMutability":"nonpayable"},{"type":"function","name":"closeConstitute","inputs":[{"name":"newAdmin","type":"address","internalType":"address"},{"name":"_flows","type":"tuple[]","internalType":"struct PowersTypes.Flow[]","components":[{"name":"mandateIds","type":"uint16[]","internalType":"uint16[]"},{"name":"nameDescription","type":"string","internalType":"string"}]}],"outputs":[],"stateMutability":"nonpayable"},{"type":"function","name":"constitute","inputs":[{"name":"constituentMandates","type":"tuple[]","internalType":"struct PowersTypes.MandateInitData[]","components":[{"name":"nameDescription","type":"string","internalType":"string"},{"name":"targetMandate","type":"address","internalType":"address"},{"name":"config","type":"bytes","internalType":"bytes"},{"name":"conditions","type":"tuple","internalType":"struct PowersTypes.Conditions","components":[{"name":"allowedRole","type":"uint256","internalType":"uint256"},{"name":"votingPeriod","type":"uint32","internalType":"uint32"},{"name":"timelock","type":"uint32","internalType":"uint32"},{"name":"throttleExecution","type":"uint32","internalType":"uint32"},{"name":"needFulfilled","type":"uint16","internalType":"uint16"},{"name":"needNotFulfilled","type":"uint16","internalType":"uint16"},{"name":"quorum","type":"uint8","internalType":"uint8"},{"name":"succeedAt","type":"uint8","internalType":"uint8"}]}]}],"outputs":[],"stateMutability":"nonpayable"},{"type":"function","name":"editFlowByIndex","inputs":[{"name":"index1","type":"uint8","internalType":"uint8"},{"name":"index2","type":"uint8","internalType":"uint8"},{"name":"mandateId","type":"uint16","internalType":"uint16"}],"outputs":[],"stateMutability":"nonpayable"},{"type":"function","name":"eip712Domain","inputs":[],"outputs":[{"name":"fields","type":"bytes1","internalType":"bytes1"},{"name":"name","type":"string","internalType":"string"},{"name":"version","type":"string","internalType":"string"},{"name":"chainId","type":"uint256","internalType":"uint256"},{"name":"verifyingContract","type":"address","internalType":"address"},{"name":"salt","type":"bytes32","internalType":"bytes32"},{"name":"extensions","type":"uint256[]","internalType":"uint256[]"}],"stateMutability":"view"},{"type":"function","name":"flows","inputs":[{"name":"","type":"uint256","internalType":"uint256"}],"outputs":[{"name":"nameDescription","type":"string","internalType":"string"}],"stateMutability":"view"},{"type":"function","name":"fulfill","inputs":[{"name":"mandateId","type":"uint16","internalType":"uint16"},{"name":"actionId","type":"uint256","internalType":"uint256"},{"name":"targets","type":"address[]","internalType":"address[]"},{"name":"values","type":"uint256[]","internalType":"uint256[]"},{"name":"calldatas","type":"bytes[]","internalType":"bytes[]"}],"outputs":[],"stateMutability":"nonpayable"},{"type":"function","name":"getActionCalldata","inputs":[{"name":"actionId","type":"uint256","internalType":"uint256"}],"outputs":[{"name":"callData","type":"bytes","internalType":"bytes"}],"stateMutability":"view"},{"type":"function","name":"getActionData","inputs":[{"name":"actionId","type":"uint256","internalType":"uint256"}],"outputs":[{"name":"mandateId","type":"uint16","internalType":"uint16"},{"name":"proposedAt","type":"uint48","internalType":"uint48"},{"name":"requestedAt","type":"uint48","internalType":"uint48"},{"name":"fulfilledAt","type":"uint48","internalType":"uint48"},{"name":"cancelledAt","type":"uint48","internalType":"uint48"},{"name":"caller","type":"address","internalType":"address"},{"name":"nonce","type":"uint256","internalType":"uint256"}],"stateMutability":"view"},{"type":"function","name":"getActionReturnData","inputs":[{"name":"actionId","type":"uint256","internalType":"uint256"},{"name":"index","type":"uint256","internalType":"uint256"}],"outputs":[{"name":"returnData","type":"bytes","internalType":"bytes"}],"stateMutability":"view"},{"type":"function","name":"getActionState","inputs":[{"name":"actionId","type":"uint256","internalType":"uint256"}],"outputs":[{"name":"","type":"uint8","internalType":"enum PowersTypes.ActionState"}],"stateMutability":"view"},{"type":"function","name":"getActionUri","inputs":[{"name":"actionId","type":"uint256","internalType":"uint256"}],"outputs":[{"name":"_uri","type":"string","internalType":"string"}],"stateMutability":"view"},{"type":"function","name":"getActionVoteData","inputs":[{"name":"actionId","type":"uint256","internalType":"uint256"}],"outputs":[{"name":"voteStart","type":"uint48","internalType":"uint48"},{"name":"voteDuration","type":"uint32","internalType":"uint32"},{"name":"voteEnd","type":"uint256","internalType":"uint256"},{"name":"againstVotes","type":"uint32","internalType":"uint32"},{"name":"forVotes","type":"uint32","internalType":"uint32"},{"name":"abstainVotes","type":"uint32","internalType":"uint32"}],"stateMutability":"view"},{"type":"function","name":"getAdoptedMandate","inputs":[{"name":"mandateId","type":"uint16","internalType":"uint16"}],"outputs":[{"name":"mandate","type":"address","internalType":"address"},{"name":"mandateHash","type":"bytes32","internalType":"bytes32"},{"name":"active","type":"bool","internalType":"bool"}],"stateMutability":"view"},{"type":"function","name":"getAmountFlows","inputs":[],"outputs":[{"name":"","type":"uint256","internalType":"uint256"}],"stateMutability":"view"},{"type":"function","name":"getAmountRoleHolders","inputs":[{"name":"roleId","type":"uint256","internalType":"uint256"}],"outputs":[{"name":"amountMembers","type":"uint256","internalType":"uint256"}],"stateMutability":"view"},{"type":"function","name":"getConditions","inputs":[{"name":"mandateId","type":"uint16","internalType":"uint16"}],"outputs":[{"name":"conditions","type":"tuple","internalType":"struct PowersTypes.Conditions","components":[{"name":"allowedRole","type":"uint256","internalType":"uint256"},{"name":"votingPeriod","type":"uint32","internalType":"uint32"},{"name":"timelock","type":"uint32","internalType":"uint32"},{"name":"throttleExecution","type":"uint32","internalType":"uint32"},{"name":"needFulfilled","type":"uint16","internalType":"uint16"},{"name":"needNotFulfilled","type":"uint16","internalType":"uint16"},{"name":"quorum","type":"uint8","internalType":"uint8"},{"name":"succeedAt","type":"uint8","internalType":"uint8"}]}],"stateMutability":"view"},{"type":"function","name":"getFlowDescriptionAtIndex","inputs":[{"name":"index","type":"uint8","internalType":"uint8"}],"outputs":[{"name":"","type":"string","internalType":"string"}],"stateMutability":"view"},{"type":"function","name":"getFlowMandatesAtIndex","inputs":[{"name":"index","type":"uint8","internalType":"uint8"}],"outputs":[{"name":"","type":"uint16[]","internalType":"uint16[]"}],"stateMutability":"view"},{"type":"function","name":"getLatestFulfillment","inputs":[{"name":"mandateId","type":"uint16","internalType":"uint16"}],"outputs":[{"name":"latestFulfillment","type":"uint48","internalType":"uint48"}],"stateMutability":"view"},{"type":"function","name":"getMandateActionAtIndex","inputs":[{"name":"mandateId","type":"uint16","internalType":"uint16"},{"name":"index","type":"uint256","internalType":"uint256"}],"outputs":[{"name":"actionId","type":"uint256","internalType":"uint256"}],"stateMutability":"view"},{"type":"function","name":"getMandateCounter","inputs":[],"outputs":[{"name":"","type":"uint16","internalType":"uint16"}],"stateMutability":"view"},{"type":"function","name":"getQuantityMandateActions","inputs":[{"name":"mandateId","type":"uint16","internalType":"uint16"}],"outputs":[{"name":"quantityMandateActions","type":"uint256","internalType":"uint256"}],"stateMutability":"view"},{"type":"function","name":"getRoleHolderAtIndex","inputs":[{"name":"roleId","type":"uint256","internalType":"uint256"},{"name":"index","type":"uint256","internalType":"uint256"}],"outputs":[{"name":"account","type":"address","internalType":"address"}],"stateMutability":"view"},{"type":"function","name":"getRoleLabel","inputs":[{"name":"roleId","type":"uint256","internalType":"uint256"}],"outputs":[{"name":"label","type":"string","internalType":"string"}],"stateMutability":"view"},{"type":"function","name":"getRoleMetadata","inputs":[{"name":"roleId","type":"uint256","internalType":"uint256"}],"outputs":[{"name":"metadata","type":"string","internalType":"string"}],"stateMutability":"view"},{"type":"function","name":"getTreasury","inputs":[],"outputs":[{"name":"","type":"address","internalType":"address payable"}],"stateMutability":"view"},{"type":"function","name":"hasRoleSince","inputs":[{"name":"account","type":"address","internalType":"address"},{"name":"roleId","type":"uint256","internalType":"uint256"}],"outputs":[{"name":"since","type":"uint48","internalType":"uint48"}],"stateMutability":"view"},{"type":"function","name":"hasVoted","inputs":[{"name":"actionId","type":"uint256","internalType":"uint256"},{"name":"account","type":"address","internalType":"address"}],"outputs":[{"name":"","type":"bool","internalType":"bool"}],"stateMutability":"view"},{"type":"function","name":"isBlacklisted","inputs":[{"name":"account","type":"address","internalType":"address"}],"outputs":[{"name":"","type":"bool","internalType":"bool"}],"stateMutability":"view"},{"type":"function","name":"labelRole","inputs":[{"name":"roleId","type":"uint256","internalType":"uint256"},{"name":"label","type":"string","internalType":"string"},{"name":"metadata","type":"string","internalType":"string"}],"outputs":[],"stateMutability":"nonpayable"},{"type":"function","name":"mandateCounter","inputs":[],"outputs":[{"name":"","type":"uint16","internalType":"uint16"}],"stateMutability":"view"},{"type":"function","name":"name","inputs":[],"outputs":[{"name":"","type":"string","internalType":"string"}],"stateMutability":"view"},{"type":"function","name":"paymaster","inputs":[],"outputs":[{"name":"","type":"address","internalType":"address"}],"stateMutability":"view"},{"type":"function","name":"propose","inputs":[{"name":"mandateId","type":"uint16","internalType":"uint16"},{"name":"mandateCalldata","type":"bytes","internalType":"bytes"},{"name":"nonce","type":"uint256","internalType":"uint256"},{"name":"uriAction","type":"string","internalType":"string"}],"outputs":[{"name":"actionId","type":"uint256","internalType":"uint256"}],"stateMutability":"nonpayable"},{"type":"function","name":"removeFlow","inputs":[{"name":"index","type":"uint8","internalType":"uint8"}],"outputs":[],"stateMutability":"nonpayable"},{"type":"function","name":"request","inputs":[{"name":"mandateId","type":"uint16","internalType":"uint16"},{"name":"mandateCalldata","type":"bytes","internalType":"bytes"},{"name":"nonce","type":"uint256","internalType":"uint256"},{"name":"uriAction","type":"string","internalType":"string"}],"outputs":[{"name":"actionId","type":"uint256","internalType":"uint256"}],"stateMutability":"nonpayable"},{"type":"function","name":"revokeMandate","inputs":[{"name":"mandateId","type":"uint16","internalType":"uint16"}],"outputs":[],"stateMutability":"nonpayable"},{"type":"function","name":"revokeRole","inputs":[{"name":"roleId","type":"uint256","internalType":"uint256"},{"name":"account","type":"address","internalType":"address"}],"outputs":[],"stateMutability":"nonpayable"},{"type":"function","name":"setPaymaster","inputs":[{"name":"newPaymaster","type":"address","internalType":"address"}],"outputs":[],"stateMutability":"nonpayable"},{"type":"function","name":"setTreasury","inputs":[{"name":"newTreasury","type":"address","internalType":"address payable"}],"outputs":[],"stateMutability":"nonpayable"},{"type":"function","name":"setUri","inputs":[{"name":"newUri","type":"string","internalType":"string"}],"outputs":[],"stateMutability":"nonpayable"},{"type":"function","name":"uri","inputs":[],"outputs":[{"name":"","type":"string","internalType":"string"}],"stateMutability":"view"},{"type":"function","name":"version","inputs":[],"outputs":[{"name":"","type":"string","internalType":"string"}],"stateMutability":"pure"},{"type":"event","name":"ActionFulfilled","inputs":[{"name":"mandateId","type":"uint16","indexed":true,"internalType":"uint16"},{"name":"actionId","type":"uint256","indexed":true,"internalType":"uint256"},{"name":"targets","type":"address[]","indexed":false,"internalType":"address[]"},{"name":"values","type":"uint256[]","indexed":false,"internalType":"uint256[]"},{"name":"calldatas","type":"bytes[]","indexed":false,"internalType":"bytes[]"}],"anonymous":false},{"type":"event","name":"ActionRequested","inputs":[{"name":"caller","type":"address","indexed":true,"internalType":"address"},{"name":"mandateId","type":"uint16","indexed":true,"internalType":"uint16"},{"name":"mandateCalldata","type":"bytes","indexed":false,"internalType":"bytes"},{"name":"nonce","type":"uint256","indexed":false,"internalType":"uint256"},{"name":"description","type":"string","indexed":false,"internalType":"string"}],"anonymous":false},{"type":"event","name":"BlacklistSet","inputs":[{"name":"account","type":"address","indexed":true,"internalType":"address"},{"name":"blacklisted","type":"bool","indexed":true,"internalType":"bool"}],"anonymous":false},{"type":"event","name":"EIP712DomainChanged","inputs":[],"anonymous":false},{"type":"event","name":"FlowAdapted","inputs":[{"name":"index1","type":"uint8","indexed":false,"internalType":"uint8"},{"name":"index2","type":"uint8","indexed":false,"internalType":"uint8"},{"name":"mandateId","type":"uint16","indexed":false,"internalType":"uint16"}],"anonymous":false},{"type":"event","name":"FlowAdded","inputs":[{"name":"mandateIds","type":"uint16[]","indexed":false,"internalType":"uint16[]"},{"name":"nameDescription","type":"string","indexed":false,"internalType":"string"}],"anonymous":false},{"type":"event","name":"FlowDeleted","inputs":[{"name":"index","type":"uint8","indexed":true,"internalType":"uint8"}],"anonymous":false},{"type":"event","name":"FundsReceived","inputs":[{"name":"sender","type":"address","indexed":false,"internalType":"address"},{"name":"value","type":"uint256","indexed":false,"internalType":"uint256"}],"anonymous":false},{"type":"event","name":"MandateAdopted","inputs":[{"name":"mandateId","type":"uint16","indexed":true,"internalType":"uint16"}],"anonymous":false},{"type":"event","name":"MandateRevoked","inputs":[{"name":"mandateId","type":"uint16","indexed":true,"internalType":"uint16"}],"anonymous":false},{"type":"event","name":"PaymasterSet","inputs":[{"name":"newPaymaster","type":"address","indexed":true,"internalType":"address"}],"anonymous":false},{"type":"event","name":"Powers__Initialized","inputs":[{"name":"contractAddress","type":"address","indexed":false,"internalType":"address"},{"name":"name","type":"string","indexed":false,"internalType":"string"},{"name":"uri","type":"string","indexed":false,"internalType":"string"}],"anonymous":false},{"type":"event","name":"ProposedActionCancelled","inputs":[{"name":"actionId","type":"uint256","indexed":true,"internalType":"uint256"}],"anonymous":false},{"type":"event","name":"ProposedActionCreated","inputs":[{"name":"actionId","type":"uint256","indexed":true,"internalType":"uint256"},{"name":"caller","type":"address","indexed":true,"internalType":"address"},{"name":"mandateId","type":"uint16","indexed":true,"internalType":"uint16"},{"name":"signature","type":"string","indexed":false,"internalType":"string"},{"name":"executeCalldata","type":"bytes","indexed":false,"internalType":"bytes"},{"name":"voteStart","type":"uint256","indexed":false,"internalType":"uint256"},{"name":"voteEnd","type":"uint256","indexed":false,"internalType":"uint256"},{"name":"nonce","type":"uint256","indexed":false,"internalType":"uint256"},{"name":"description","type":"string","indexed":false,"internalType":"string"}],"anonymous":false},{"type":"event","name":"RoleLabel","inputs":[{"name":"roleId","type":"uint256","indexed":true,"internalType":"uint256"},{"name":"label","type":"string","indexed":false,"internalType":"string"}],"anonymous":false},{"type":"event","name":"RoleSet","inputs":[{"name":"roleId","type":"uint256","indexed":true,"internalType":"uint256"},{"name":"account","type":"address","indexed":true,"internalType":"address"},{"name":"access","type":"bool","indexed":true,"internalType":"bool"}],"anonymous":false},{"type":"event","name":"VoteCast","inputs":[{"name":"account","type":"address","indexed":true,"internalType":"address"},{"name":"actionId","type":"uint256","indexed":true,"internalType":"uint256"},{"name":"support","type":"uint8","indexed":true,"internalType":"uint8"},{"name":"reason","type":"string","indexed":false,"internalType":"string"}],"anonymous":false},{"type":"error","name":"InvalidShortString","inputs":[]},{"type":"error","name":"Powers__ActionAlreadyFulfilled","inputs":[]},{"type":"error","name":"Powers__ActionAlreadyInitiated","inputs":[]},{"type":"error","name":"Powers__ActionCancelled","inputs":[]},{"type":"error","name":"Powers__ActionNotProposed","inputs":[]},{"type":"error","name":"Powers__ActionNotRequested","inputs":[]},{"type":"error","name":"Powers__AddressBlacklisted","inputs":[]},{"type":"error","name":"Powers__AlreadyCastVote","inputs":[]},{"type":"error","name":"Powers__CalldataTooLong","inputs":[]},{"type":"error","name":"Powers__CallerNotTargetMandate","inputs":[]},{"type":"error","name":"Powers__CannotAddPowersAddressAsMember","inputs":[]},{"type":"error","name":"Powers__CannotAddZeroAddress","inputs":[]},{"type":"error","name":"Powers__CannotCallMandate","inputs":[]},{"type":"error","name":"Powers__CannotSetPublicRole","inputs":[]},{"type":"error","name":"Powers__CannotSetZeroAddress","inputs":[]},{"type":"error","name":"Powers__ConstituteClosed","inputs":[]},{"type":"error","name":"Powers__ConstituteOpen","inputs":[]},{"type":"error","name":"Powers__ConstitutionAlreadyExecuted","inputs":[]},{"type":"error","name":"Powers__ExecutionArrayTooLong","inputs":[]},{"type":"error","name":"Powers__ExternalContractBlacklisted","inputs":[]},{"type":"error","name":"Powers__IncorrectInterface","inputs":[{"name":"targetMandate","type":"address","internalType":"address"}]},{"type":"error","name":"Powers__InvalidAddress","inputs":[]},{"type":"error","name":"Powers__InvalidCallData","inputs":[]},{"type":"error","name":"Powers__InvalidFlowIndex","inputs":[]},{"type":"error","name":"Powers__InvalidIndex","inputs":[]},{"type":"error","name":"Powers__InvalidLabel","inputs":[]},{"type":"error","name":"Powers__InvalidMandateId","inputs":[]},{"type":"error","name":"Powers__InvalidMandateIndex","inputs":[]},{"type":"error","name":"Powers__InvalidMaxCallDataLength","inputs":[]},{"type":"error","name":"Powers__InvalidMaxExecutionsLength","inputs":[]},{"type":"error","name":"Powers__InvalidName","inputs":[]},{"type":"error","name":"Powers__InvalidReturnCallDataLength","inputs":[]},{"type":"error","name":"Powers__InvalidVoteType","inputs":[]},{"type":"error","name":"Powers__LabelTooLong","inputs":[]},{"type":"error","name":"Powers__LockedRole","inputs":[]},{"type":"error","name":"Powers__MandateFulfillCallFailed","inputs":[]},{"type":"error","name":"Powers__MandateNotActive","inputs":[]},{"type":"error","name":"Powers__MandateRequestFailed","inputs":[]},{"type":"error","name":"Powers__NoMembersInRole","inputs":[]},{"type":"error","name":"Powers__NoVoteNeeded","inputs":[]},{"type":"error","name":"Powers__NotAContract","inputs":[]},{"type":"error","name":"Powers__NotProposerAction","inputs":[]},{"type":"error","name":"Powers__OnlyAdmin","inputs":[]},{"type":"error","name":"Powers__OnlyPowers","inputs":[]},{"type":"error","name":"Powers__PayableNotEnabled","inputs":[]},{"type":"error","name":"Powers__ProposedActionNotActive","inputs":[]},{"type":"error","name":"Powers__UnexpectedActionState","inputs":[]},{"type":"error","name":"Powers__UriTooLong","inputs":[]},{"type":"error","name":"Powers__VoteWithPublicRoleDisallowed","inputs":[]},{"type":"error","name":"StringTooLong","inputs":[{"name":"str","type":"string","internalType":"string"}]}],"bytecode":{"object":"0x6101e060408190526009805461ffff60a01b1916600160a01b17905561553a38819003908190833981016040819052610037916105bd565b8461005b60408051808201909152600681526576302e362e3160d01b602082015290565b610065825f61020f565b6101205261007481600161020f565b61014052815160208084019190912060e052815190820120610100524660a05261010060e05161010051604080517f8b73c3c69bb8fe3d512ecc4cf759cc79239f7b179b0ffacaa9a75d522b39400f60208201529081019290925260608201524660808201523060a08201525f9060c00160405160208183030381529060405280519060200120905090565b60805250503060c05284515f0361012a57604051634acb0e6d60e01b815260040160405180910390fd5b825f0361014a57604051631c58c0e160e01b815260040160405180910390fd5b815f0361016a5760405163a19bdd3b60e01b815260040160405180910390fd5b805f0361018a57604051638a2b742f60e01b815260040160405180910390fd5b6101965f336001610241565b60066101a286826106bf565b5060076101af85826106bf565b506101608390526101808290526101a0819052436101c0526040517f8e09415123fab1f9e22246686c8d24ad9f84c70288cd5fa338213bccd3c5fb76906101fd9030906006906007906107f8565b60405180910390a150505050506108d6565b5f60208351101561022a57610223836104da565b905061023b565b8161023584826106bf565b5060ff90505b92915050565b5f1983036102625760405163a1dd2b9360e01b815260040160405180910390fd5b6001600160a01b038216610289576040516329f62b5d60e11b815260040160405180910390fd5b306001600160a01b038316036102b25760405163ca208ab960e01b815260040160405180910390fd5b5f8381526004602090815260408083206001600160a01b038616845291829052909120548015158380156102e4575080155b15610365576040805180820182526001600160a01b0380881680835265ffffffffffff43811660208086019182526001808b01805491820181555f81815283812098519890920180549451909516600160a01b026001600160d01b031990941697909616969096179190911790915591549083529086905291902055610498565b831580156103705750805b15610498576001838101545f9161038691610837565b90505f84600101828154811061039e5761039e610856565b5f918252602091829020604080518082019091529101546001600160a01b0381168252600160a01b900465ffffffffffff16918101919091529050806001868101906103ea9087610837565b815481106103fa576103fa610856565b5f918252602091829020835191018054939092015165ffffffffffff16600160a01b026001600160d01b03199093166001600160a01b03909116179190911790556001850180548061044e5761044e61086a565b5f828152602080822083015f1990810180546001600160d01b031916905590920190925591516001600160a01b039081168252918690526040808220869055918816815290812055505b831515856001600160a01b0316877f294507a8f5830b538faef39fbdd28f1164f27c8338a32fc7b47ddf82e4c8d9e460405160405180910390a4505050505050565b5f5f829050601f8151111561050d578260405163305a27a960e01b8152600401610504919061087e565b60405180910390fd5b8051610518826108b3565b179392505050565b634e487b7160e01b5f52604160045260245ffd5b5f82601f830112610543575f5ffd5b81516001600160401b0381111561055c5761055c610520565b604051601f8201601f19908116603f011681016001600160401b038111828210171561058a5761058a610520565b6040528181528382016020018510156105a1575f5ffd5b8160208501602083015e5f918101602001919091529392505050565b5f5f5f5f5f60a086880312156105d1575f5ffd5b85516001600160401b038111156105e6575f5ffd5b6105f288828901610534565b602088015190965090506001600160401b0381111561060f575f5ffd5b61061b88828901610534565b60408801516060890151608090990151979a919950979695509350505050565b600181811c9082168061064f57607f821691505b60208210810361066d57634e487b7160e01b5f52602260045260245ffd5b50919050565b601f8211156106ba57805f5260205f20601f840160051c810160208510156106985750805b601f840160051c820191505b818110156106b7575f81556001016106a4565b50505b505050565b81516001600160401b038111156106d8576106d8610520565b6106ec816106e6845461063b565b84610673565b6020601f82116001811461071e575f83156107075750848201515b5f19600385901b1c1916600184901b1784556106b7565b5f84815260208120601f198516915b8281101561074d578785015182556020948501946001909201910161072d565b508482101561076a57868401515f19600387901b60f8161c191681555b50505050600190811b01905550565b5f81546107858161063b565b80855260018216801561079f57600181146107bb576107ef565b60ff1983166020870152602082151560051b87010193506107ef565b845f5260205f205f5b838110156107e65781546020828a0101526001820191506020810190506107c4565b87016020019450505b50505092915050565b6001600160a01b03841681526060602082018190525f9061081b90830185610779565b828103604084015261082d8185610779565b9695505050505050565b8181038181111561023b57634e487b7160e01b5f52601160045260245ffd5b634e487b7160e01b5f52603260045260245ffd5b634e487b7160e01b5f52603160045260245ffd5b602081525f82518060208401528060208501604085015e5f604082850101526040601f19601f83011684010191505092915050565b8051602080830151919081101561066d575f1960209190910360031b1b16919050565b60805160a05160c05160e05161010051610120516101405161016051610180516101a0516101c051614bd76109635f395f61091501525f8181610d44015261105501525f8181610a22015261129c01525f8181610ca0015281816110c90152818161179c015261275b01525f61324e01525f61321d01525f50505f50505f50505f50505f5050614bd75ff3fe60806040526004361061038a575f3560e01c80637258883f116101d3578063b367cac0116100fd578063ebef6d971161009d578063f2a0bb751161006d578063f2a0bb7514610d14578063f6226e7c14610d33578063fc2d96d014610d66578063fe575a8714610d85575f5ffd5b8063ebef6d9714610c70578063edf2a59614610c8f578063edfd2e8714610cc2578063f0f4426014610cf5575f5ffd5b8063cc5812cf116100d8578063cc5812cf14610bfd578063d902bf3a14610c1c578063e88efe3514610c3b578063eac989f814610c5c575f5ffd5b8063b367cac014610b91578063b4324dd314610bb0578063b449711514610bde575f5ffd5b806384b0196e1161017357806393d7dae51161014357806393d7dae514610b085780639a0435d414610b275780639b642de114610b53578063a375109814610b72575f5ffd5b806384b0196e14610a8f5780638973be0414610ab65780638a4359e014610ad5578063918f867414610af4575f5ffd5b80637b3c71d3116101ae5780637b3c71d3146109f25780637c1b553914610a115780638180d29e14610a44578063831af37914610a63575f5ffd5b80637258883f146109a157806375b238fc146109c057806376ff7577146109d3575f5ffd5b80632e2d8253116102b4578063455a4396116102545780635532f99b116102245780635532f99b146109045780635678138814610937578063666ca2d614610956578063685b824a14610982575f5ffd5b8063455a4396146107c85780634583476b146107e7578063519fcfb0146108b757806354fd4d50146108d6575f5ffd5b80633ca7c02a1161028f5780633ca7c02a1461071e5780633fc42d2e1461073257806341bd157d146107515780634385963214610770575f5ffd5b80632e2d8253146106c357806336126216146106e25780633b19e84a14610701575f5ffd5b806312561b1a1161032a5780632179e04e116102fa5780632179e04e1461061257806323b1971b146106715780632a97fa77146106855780632d90fe5f146106a4575f5ffd5b806312561b1a1461057057806316e4cbf91461059d578063199093bb146105d45780631d0b19e7146105f3575f5ffd5b806306fdde031161036557806306fdde031461048f5780630d7abeaa146104a35780630de6a601146104b95780631031bdb0146104d8575f5ffd5b80630398f05f146103d7578063040b8c241461040c578063055dbe1014610461575f5ffd5b366103d3577f8e47b87b0ef542cdfa1659c551d88bad38aa7f452d2bbb349ab7530dfec8be8f33604080516001600160a01b0390921682523460208301520160405180910390a1005b5f5ffd5b3480156103e2575f5ffd5b506103f66103f136600461396f565b610dbc565b60405161040391906139b4565b60405180910390f35b348015610417575f5ffd5b5061044a6104263660046139d7565b61ffff165f90815260036020526040902054600160a01b900465ffffffffffff1690565b60405165ffffffffffff9091168152602001610403565b34801561046c575f5ffd5b50600954600160a01b900461ffff165b60405161ffff9091168152602001610403565b34801561049a575f5ffd5b506103f6610e5e565b3480156104ae575f5ffd5b506104b7610eea565b005b3480156104c4575f5ffd5b506104b76104d3366004613a38565b610f3a565b3480156104e3575f5ffd5b506105496104f23660046139d7565b61ffff165f81815260036020908152604091829020548251308184015280840194909452825180850384018152606090940190925282519201919091206001600160a01b038216929091600160d01b900460ff1690565b604080516001600160a01b0390941684526020840192909252151590820152606001610403565b34801561057b575f5ffd5b5061058f61058a366004613b2e565b611377565b604051908152602001610403565b3480156105a8575f5ffd5b506009546105bc906001600160a01b031681565b6040516001600160a01b039091168152602001610403565b3480156105df575f5ffd5b506105bc6105ee366004613b84565b611558565b3480156105fe575f5ffd5b506104b761060d366004613bb8565b6115bc565b34801561061d575f5ffd5b5061063161062c36600461396f565b6115d3565b6040805165ffffffffffff909716875263ffffffff95861660208801528601939093529083166060850152821660808401521660a082015260c001610403565b34801561067c575f5ffd5b50600a5461058f565b348015610690575f5ffd5b506104b761069f366004613be6565b611654565b3480156106af575f5ffd5b506103f66106be36600461396f565b6116cc565b3480156106ce575f5ffd5b5061058f6106dd366004613d2d565b6116eb565b3480156106ed575f5ffd5b506103f66106fc366004613dc0565b6119e3565b34801561070c575f5ffd5b506008546001600160a01b03166105bc565b348015610729575f5ffd5b5061058f5f1981565b34801561073d575f5ffd5b506104b761074c366004613dd9565b611a3b565b34801561075c575f5ffd5b506103f661076b366004613b84565b611b89565b34801561077b575f5ffd5b506107b861078a366004613bb8565b5f8281526002602090815260408083206001600160a01b038516845260070190915290205460ff1692915050565b6040519015158152602001610403565b3480156107d3575f5ffd5b506104b76107e2366004613e26565b611c46565b3480156107f2575f5ffd5b5061086461080136600461396f565b5f9081526002602081905260409091206001810154815492820154600390920154600160301b9182900461ffff169465ffffffffffff80861695938404811694600160601b8504821694600160901b9004909116926001600160a01b0390911691565b6040805161ffff909816885265ffffffffffff96871660208901529486169487019490945291841660608601529290921660808401526001600160a01b0390911660a083015260c082015260e001610403565b3480156108c2575f5ffd5b506104b76108d1366004613dc0565b611ca1565b3480156108e1575f5ffd5b5060408051808201909152600681526576302e362e3160d01b60208201526103f6565b34801561090f575f5ffd5b5061058f7f000000000000000000000000000000000000000000000000000000000000000081565b348015610942575f5ffd5b506104b7610951366004613e52565b611dc7565b348015610961575f5ffd5b5061097561097036600461396f565b611de1565b6040516104039190613e7c565b34801561098d575f5ffd5b506104b761099c366004613bb8565b611f45565b3480156109ac575f5ffd5b506104b76109bb366004613be6565b611f92565b3480156109cb575f5ffd5b5061058f5f81565b3480156109de575f5ffd5b506104b76109ed366004613ea2565b611fb8565b3480156109fd575f5ffd5b506104b7610a0c366004613f0f565b61209a565b348015610a1c575f5ffd5b5061058f7f000000000000000000000000000000000000000000000000000000000000000081565b348015610a4f575f5ffd5b506103f6610a5e36600461396f565b6120e1565b348015610a6e575f5ffd5b50610a82610a7d3660046139d7565b612191565b6040516104039190613f65565b348015610a9a575f5ffd5b50610aa361226c565b6040516104039796959493929190613ffd565b348015610ac1575f5ffd5b506104b7610ad0366004614189565b6122ae565b348015610ae0575f5ffd5b5061058f610aef36600461424f565b6122c0565b348015610aff575f5ffd5b5061058f606481565b348015610b13575f5ffd5b506107b8610b22366004614277565b61231e565b348015610b32575f5ffd5b50610b46610b41366004613dc0565b612360565b60405161040391906142df565b348015610b5e575f5ffd5b506104b7610b6d3660046142f1565b612420565b348015610b7d575f5ffd5b506104b7610b8c36600461432b565b612434565b348015610b9c575f5ffd5b506104b7610bab3660046139d7565b6124e0565b348015610bbb575f5ffd5b5061058f610bca36600461396f565b5f9081526004602052604090206001015490565b348015610be9575f5ffd5b5061047c610bf83660046144b5565b612587565b348015610c08575f5ffd5b5061044a610c173660046144e7565b6125d5565b348015610c27575f5ffd5b506103f6610c3636600461396f565b61264d565b348015610c46575f5ffd5b5060095461047c90600160a01b900461ffff1681565b348015610c67575f5ffd5b506103f661266c565b348015610c7b575f5ffd5b5061058f610c8a366004613d2d565b612679565b348015610c9a575f5ffd5b5061058f7f000000000000000000000000000000000000000000000000000000000000000081565b348015610ccd575f5ffd5b5061058f610cdc3660046139d7565b61ffff165f908152600360208190526040909120015490565b348015610d00575f5ffd5b506104b7610d0f366004613be6565b612a8d565b348015610d1f575f5ffd5b506103f6610d2e36600461396f565b612ade565b348015610d3e575f5ffd5b5061058f7f000000000000000000000000000000000000000000000000000000000000000081565b348015610d71575f5ffd5b506104b7610d80366004614503565b612afd565b348015610d90575f5ffd5b506107b8610d9f366004613be6565b6001600160a01b03165f9081526005602052604090205460ff1690565b5f818152600460205260409020600201805460609190610ddb906145b4565b80601f0160208091040260200160405190810160405280929190818152602001828054610e07906145b4565b8015610e525780601f10610e2957610100808354040283529160200191610e52565b820191905f5260205f20905b815481529060010190602001808311610e3557829003601f168201915b50505050509050919050565b60068054610e6b906145b4565b80601f0160208091040260200160405190810160405280929190818152602001828054610e97906145b4565b8015610ee25780601f10610eb957610100808354040283529160200191610ee2565b820191905f5260205f20905b815481529060010190602001808311610ec557829003601f168201915b505050505081565b610ef2612bce565b610f3833604080515f8082526020820190925290610f32565b6040805180820190915260608082526020820152815260200190600190039081610f0b5790505b50612bff565b565b61ffff88165f9081526003602052604090208054600160d01b900460ff16610f7557604051632e53afcd60e01b815260040160405180910390fd5b80546001600160a01b03163314610f9f57604051635574892960e11b815260040160405180910390fd5b5f8881526002602052604090208054600160301b900465ffffffffffff161580610fd857508054600160901b900465ffffffffffff1615155b15610ff6576040516301dd1d1560e71b815260040160405180910390fd5b8054600160601b900465ffffffffffff16156110255760405163a517239560e01b815260040160405180910390fd5b8685811415806110355750808414155b156110535760405163dbf15fa560e01b815260040160405180910390fd5b7f00000000000000000000000000000000000000000000000000000000000000008111156110945760405163d0b6a17960e01b815260040160405180910390fd5b815471ffffffffffff0000000000000000000000001916600160601b4365ffffffffffff16021782555f5b81811015611333577f00000000000000000000000000000000000000000000000000000000000000008686838181106110fa576110fa6145ec565b905060200281019061110c9190614600565b9050111561112d57604051631c3bc5e360e31b815260040160405180910390fd5b6111578a8a83818110611142576111426145ec565b9050602002016020810190610d9f9190613be6565b15611175576040516334d52f6b60e01b815260040160405180910390fd5b5f5f8b8b84818110611189576111896145ec565b905060200201602081019061119e9190613be6565b6001600160a01b03168a8a858181106111b9576111b96145ec565b905060200201358989868181106111d2576111d26145ec565b90506020028101906111e49190614600565b6040516111f2929190614643565b5f6040518083038185875af1925050503d805f811461122c576040519150601f19603f3d011682016040523d82523d5f602084013e611231565b606091505b50915091508161129a5784547fffff000000000000ffffffffffffffffffffffffffffffffffffffffffffffff16600160c01b4365ffffffffffff16021785558051156112815780518082602001fd5b604051631d8fb90d60e21b815260040160405180910390fd5b7f00000000000000000000000000000000000000000000000000000000000000008151116112e8576005850180546001810182555f9182526020909120016112e2828261469e565b50611329565b604080515f602082015260058701910160408051601f1981840301815291905281546001810183555f928352602090922090910190611327908261469e565b505b50506001016110bf565b505081547fffffffffffff000000000000ffffffffffffffffffffffffffffffffffffffff16600160a01b4365ffffffffffff160217909155505050505050505050565b61ffff84165f9081526003602052604081208054600160d01b900460ff166113b257604051632e53afcd60e01b815260040160405180910390fd5b604051630b704dbd60e11b81525f9073__$b8401669eb6e3c34470049924d5a7c9ef9$__906316e09b7a906113f1908a908a908a908a90600401614784565b602060405180830381865af415801561140c573d5f5f3e3d5ffd5b505050506040513d601f19601f8201168201806040525081019061143091906147b2565b5f81815260026020819052604090912090810154919250906001600160a01b0316336001600160a01b03161461147957604051637365858560e01b815260040160405180910390fd5b805465ffffffffffff165f036114a25760405163f661f4bf60e01b815260040160405180910390fd5b8054600160601b900465ffffffffffff161515806114cf57508054600160901b900465ffffffffffff1615155b156114ed5760405163b831530960e01b815260040160405180910390fd5b80547fffffffffffffffff000000000000ffffffffffffffffffffffffffffffffffff16600160901b4365ffffffffffff160217815560405182907f8eb4cfeba12ece86fc1590773502e55423b37db556543430337376b30d27c42b905f90a2509695505050505050565b5f828152600460205260408120600181015483106115895760405163472e61bd60e01b815260040160405180910390fd5b80600101838154811061159e5761159e6145ec565b5f918252602090912001546001600160a01b03169150505b92915050565b6115c4612cb7565b6115cf82825f612cd7565b5050565b5f8181526002602052604081206001810154829182918291829182919065ffffffffffff811690600160401b900463ffffffff1661161181836147dd565b60019390930154919a90995065ffffffffffff909216975063ffffffff600160601b820481169750600160801b820481169650600160a01b909104169350915050565b61165c612cb7565b6001600160a01b03811661168357604051636e7e8feb60e11b815260040160405180910390fd5b600980546001600160a01b0319166001600160a01b0383169081179091556040517f8be32e66bcd4d1783b05affa4e89ba5fc5e37bea009c896d862c795acf9e842b905f90a250565b5f818152600460205260409020600301805460609190610ddb906145b4565b600b545f9060ff1661171057604051630889b5b960e31b815260040160405180910390fd5b61ffff86165f9081526003602052604090208054600160d01b900460ff1661174b57604051632e53afcd60e01b815260040160405180910390fd5b611756335b8861231e565b61177357604051637079d1b960e11b815260040160405180910390fd5b61177c33610d9f565b1561179a576040516334d52f6b60e01b815260040160405180910390fd5b7f00000000000000000000000000000000000000000000000000000000000000008511156117db57604051631c3bc5e360e31b815260040160405180910390fd5b6002810154604051630b704dbd60e11b815263ffffffff821691600160801b900460ff169073__$b8401669eb6e3c34470049924d5a7c9ef9$__906316e09b7a90611830908c908c908c908c90600401614784565b602060405180830381865af415801561184b573d5f5f3e3d5ffd5b505050506040513d601f19601f8201168201806040525081019061186f91906147b2565b5f818152600260205260409020600181015491955090600160301b900461ffff16156118ae5760405163fc0e49ff60e01b815260040160405180910390fd5b6003840180546001810182555f918252602090912001859055600481016118d6898b836147fb565b50805465ffffffffffff19164365ffffffffffff1617815560018101805467ffff0000000000001916600160301b61ffff8d160217905560ff821661191b575f61191d565b435b60018201805465ffffffffffff929092166bffffffff0000ffffffffffff1990921691909117600160401b63ffffffff861602179055600281018054336001600160a01b031990911617905560068101611977878261469e565b506003810187905561ffff8a1633867fb5856a9700a7e851456d3a16348b4ae0fbb11b06ac0af8dbe8e8652c57cc4cbd8c8c436119ba63ffffffff8b16826148b5565b8e8e6040516119ce969594939291906148c8565b60405180910390a45050505095945050505050565b600a5460609060ff831610611a0b5760405163472e61bd60e01b815260040160405180910390fd5b600a8260ff1681548110611a2157611a216145ec565b905f5260205f2090600202016001018054610ddb906145b4565b611a43612cb7565b60095461ffff600160a01b909104811690821610611a7457604051633a8de3a560e11b815260040160405180910390fd5b600a5460ff841610611a995760405163e2190a4d60e01b815260040160405180910390fd5b5f600a8460ff1681548110611ab057611ab06145ec565b5f9182526020909120600290910201805490915060ff841610611ae65760405163321decd960e21b815260040160405180910390fd5b81815f018460ff1681548110611afe57611afe6145ec565b905f5260205f2090601091828204019190066002026101000a81548161ffff021916908361ffff1602179055507fbab75fb33733fb786b1bd731a4e31deb8b360f52fdc6e437843f5803cd84141d848484604051611b7b9392919060ff938416815291909216602082015261ffff91909116604082015260600190565b60405180910390a150505050565b5f82815260026020526040902060050180546060919083908110611baf57611baf6145ec565b905f5260205f20018054611bc2906145b4565b80601f0160208091040260200160405190810160405280929190818152602001828054611bee906145b4565b8015611c395780601f10611c1057610100808354040283529160200191611c39565b820191905f5260205f20905b815481529060010190602001808311611c1c57829003601f168201915b5050505050905092915050565b611c4e612cb7565b6001600160a01b0382165f81815260056020526040808220805460ff191685151590811790915590519092917f921341769c2075d1ae425396063d5ab65ff5006c4bc0bd0821e50ce51fb6012391a35050565b611ca9612cb7565b600a5460ff821610611cce5760405163e2190a4d60e01b815260040160405180910390fd5b600a545f90611cdf90600190614919565b9050808260ff1614611d5657600a8181548110611cfe57611cfe6145ec565b905f5260205f209060020201600a8360ff1681548110611d2057611d206145ec565b5f9182526020909120825460029092020190611d3f908290849061380b565b50600181810190611d529084018261492c565b5050505b600a805480611d6757611d676149f9565b5f828152602081205f1990920191600283020190611d858282613865565b611d92600183015f613887565b5050905560405160ff8316907fdb9bcd47830726db0b83034aa4bc1b92414a20b1790a2f63434fe60bd243d9e0905f90a25050565b6115cf82338360405180602001604052805f815250612f70565b5f818152600260205260408120805465ffffffffffff16158015611e1357508054600160301b900465ffffffffffff16155b8015611e2d57508054600160601b900465ffffffffffff16155b8015611e4757508054600160901b900465ffffffffffff16155b15611e5457505f92915050565b8054600160c01b900465ffffffffffff1615611e735750600892915050565b8054600160601b900465ffffffffffff1615611e925750600792915050565b8054600160901b900465ffffffffffff1615611eb15750600292915050565b8054600160301b900465ffffffffffff1615611ed05750600692915050565b60018101545f90611ef69063ffffffff600160401b8204169065ffffffffffff166147dd565b65ffffffffffff169050438110611f11575060039392505050565b611f1a846130f5565b1580611f2c5750611f2a84613198565b155b15611f3b575060049392505050565b5060059392505050565b611f4d612cb7565b6001600160a01b0381165f9081526005602052604090205460ff1615611f86576040516334d52f6b60e01b815260040160405180910390fd5b6115cf82826001612cd7565b611f9a612bce565b604080515f80825260208201909252611fb591839190610f32565b50565b611fc0612cb7565b81515f03611fe1576040516333a0807f60e21b815260040160405180910390fd5b60ff82511115612004576040516350cc0e8d60e01b815260040160405180910390fd5b60ff815111156120275760405163d315c6bd60e01b815260040160405180910390fd5b5f838152600460205260409020600201612041838261469e565b505f83815260046020526040902060030161205c828261469e565b50827f4c6d3d4a776b1458bbd518e75903a3f27a0c6f4597b10882784aa64769d56c718360405161208d91906139b4565b60405180910390a2505050565b6120db84338585858080601f0160208091040260200160405190810160405280939291908181526020018383808284375f92019190915250612f7092505050565b50505050565b600a81815481106120f0575f80fd5b905f5260205f2090600202015f91509050806001018054612110906145b4565b80601f016020809104026020016040519081016040528092919081815260200182805461213c906145b4565b80156121875780601f1061215e57610100808354040283529160200191612187565b820191905f5260205f20905b81548152906001019060200180831161216a57829003601f168201915b5050505050905081565b60408051610100810182525f80825260208201819052918101829052606081018290526080810182905260a0810182905260c0810182905260e08101919091525061ffff9081165f908152600360209081526040918290208251610100810184526001820154815260029091015463ffffffff808216938301939093526401000000008104831693820193909352600160401b83049091166060820152600160601b820483166080820152600160701b820490921660a083015260ff600160801b8204811660c0840152600160881b9091041660e082015290565b5f6060805f5f5f606061227d613216565b612285613247565b604080515f80825260208201909252600f60f81b9b939a50919850469750309650945092509050565b6122b6612bce565b6115cf8282612bff565b61ffff82165f90815260036020819052604082209081015483106122f75760405163472e61bd60e01b815260040160405180910390fd5b80600301838154811061230c5761230c6145ec565b905f5260205f20015491505092915050565b61ffff81165f908152600360205260408120600101548161233f85836125d5565b905065ffffffffffff811615158061235757505f1982145b95945050505050565b600a5460609060ff8316106123885760405163472e61bd60e01b815260040160405180910390fd5b600a8260ff168154811061239e5761239e6145ec565b5f9182526020918290206002909102018054604080518285028101850190915281815292830182828015610e5257602002820191905f5260205f20905f905b82829054906101000a900461ffff1661ffff16815260200190600201906020826001010492830192600103820291508084116123dd575094979650505050505050565b612428612cb7565b60076115cf828261469e565b61243c612cb7565b600a80546001810182555f919091528151805183926002027fc65a7bb8d6351c1cf70c95a316cc6a92839c986682d98bc35f958f4883f9d2a80191612486918391602001906138be565b506020820151600182019061249b908261469e565b5050815160208301516040517fb56a1edd5f36655e5ec0dfaaee335db8dce67084b7e03de2f6771824f68d356593506124d5929190614a0d565b60405180910390a150565b6124e8612cb7565b61ffff81165f90815260036020526040812054600160d01b900460ff161515900361252657604051632e53afcd60e01b815260040160405180910390fd5b61ffff81165f8181526003602052604080822080547fffffffffff00ffffffffffffffffffffffffffffffffffffffffffffffffffff169055517ffb1d94dcf467f70febf412166aaa551737afd946ba6a4b4eac970aaf28a7e74f9190a250565b5f612590612cb7565b50600954600160a01b900461ffff166125a98183613274565b60098054600161ffff600160a01b808404821692909201160261ffff60a01b199091161790555b919050565b5f8181526004602090815260408083206001600160a01b038616845291829052822054808303612609575f925050506115b6565b8160010160018261261a9190614919565b8154811061262a5761262a6145ec565b5f91825260209091200154600160a01b900465ffffffffffff1695945050505050565b5f818152600260205260409020600401805460609190610ddb906145b4565b60078054610e6b906145b4565b600b545f9060ff1661269e57604051630889b5b960e31b815260040160405180910390fd5b604051630b704dbd60e11b815273__$b8401669eb6e3c34470049924d5a7c9ef9$__906316e09b7a906126db908990899089908990600401614784565b602060405180830381865af41580156126f6573d5f5f3e3d5ffd5b505050506040513d601f19601f8201168201806040525081019061271a91906147b2565b61ffff87165f908152600360205260409020805491925090600160d01b900460ff1661275957604051632e53afcd60e01b815260040160405180910390fd5b7f000000000000000000000000000000000000000000000000000000000000000085111561279a57604051631c3bc5e360e31b815260040160405180910390fd5b6127a333610d9f565b156127c1576040516334d52f6b60e01b815260040160405180910390fd5b6127ca33611750565b6127e757604051637079d1b960e11b815260040160405180910390fd5b5f8281526002602052604090208054600160301b900465ffffffffffff1615158061282157508054600160601b900465ffffffffffff1615155b1561283f5760405163fc0e49ff60e01b815260040160405180910390fd5b8054600160901b900465ffffffffffff161561286e57604051632ec3fe1560e11b815260040160405180910390fd5b8154604051633881b32960e01b815273__$b8401669eb6e3c34470049924d5a7c9ef9$__91633881b329916128c0918c918c918c9130918d91600160a01b90910465ffffffffffff1690600401614a31565b5f6040518083038186803b1580156128d6575f5ffd5b505af41580156128e8573d5f5f3e3d5ffd5b505050506001810154600160301b900461ffff165f0361291c576003820180546001810182555f9182526020909120018390555b600281018054336001600160a01b031990911617905580546bffffffffffff0000000000001916600160301b4365ffffffffffff16810291909117825560018201805467ffff000000000000191661ffff8b16909202919091179055600481016129878789836147fb565b5060068101612996858261469e565b506003810185905581546040516326a8b78760e11b81525f916001600160a01b031690634d516f0e906129d59033908d908d908d908d90600401614a7d565b6020604051808303815f875af11580156129f1573d5f5f3e3d5ffd5b505050506040513d601f19601f82011682018060405250810190612a159190614abb565b905080612a355760405163382654b960e21b815260040160405180910390fd5b61ffff8916336001600160a01b03167f98e1e52af9c2155b4c2b4844cdccf64c85cb13dd804231d177ef6fea4325d4058a8a8a8a604051612a799493929190614ad6565b60405180910390a350505095945050505050565b612a95612cb7565b6001600160a01b038116612abc57604051636e7e8feb60e11b815260040160405180910390fd5b600880546001600160a01b0319166001600160a01b0392909216919091179055565b5f818152600260205260409020600601805460609190610ddb906145b4565b612b05612bce565b600b5460ff1615612b29576040516315ea064b60e31b815260040160405180910390fd5b600954600160a01b900461ffff165f5b8251811015612baa575f6001600160a01b0316838281518110612b5e57612b5e6145ec565b6020026020010151602001516001600160a01b031614612ba257612b9b82848381518110612b8e57612b8e6145ec565b6020026020010151613274565b8160010191505b600101612b39565b506009805461ffff909216600160a01b0261ffff60a01b1990921691909117905550565b612bd8335f6125d5565b65ffffffffffff165f03610f3857604051630eaa87a560e21b815260040160405180910390fd5b336001600160a01b03831614612c2657612c1a5f335f612cd7565b612c265f836001612cd7565b805115612ca6575f5b8151811015612ca457600a828281518110612c4c57612c4c6145ec565b60209081029190910181015182546001810184555f9384529282902081518051929460020290910192612c84928492909101906138be565b5060208201516001820190612c99908261469e565b505050600101612c2f565b505b5050600b805460ff19166001179055565b333014610f385760405163e890ccbf60e01b815260040160405180910390fd5b5f198303612cf85760405163a1dd2b9360e01b815260040160405180910390fd5b6001600160a01b038216612d1f576040516329f62b5d60e11b815260040160405180910390fd5b306001600160a01b03831603612d485760405163ca208ab960e01b815260040160405180910390fd5b5f8381526004602090815260408083206001600160a01b03861684529182905290912054801515838015612d7a575080155b15612dfb576040805180820182526001600160a01b0380881680835265ffffffffffff43811660208086019182526001808b01805491820181555f81815283812098519890920180549451909516600160a01b026001600160d01b031990941697909616969096179190911790915591549083529086905291902055612f2e565b83158015612e065750805b15612f2e576001838101545f91612e1c91614919565b90505f846001018281548110612e3457612e346145ec565b5f918252602091829020604080518082019091529101546001600160a01b0381168252600160a01b900465ffffffffffff1691810191909152905080600186810190612e809087614919565b81548110612e9057612e906145ec565b5f918252602091829020835191018054939092015165ffffffffffff16600160a01b026001600160d01b03199093166001600160a01b039091161791909117905560018501805480612ee457612ee46149f9565b5f828152602080822083015f1990810180546001600160d01b031916905590920190925591516001600160a01b039081168252918690526040808220869055918816815290812055505b831515856001600160a01b0316877f294507a8f5830b538faef39fbdd28f1164f27c8338a32fc7b47ddf82e4c8d9e460405160405180910390a4505050505050565b5f848152600260205260409020805465ffffffffffff161580612fa257508054600160601b900465ffffffffffff1615155b80612fbc57508054600160901b900465ffffffffffff1615155b80612fd657508054600160301b900465ffffffffffff1615155b8061300c5750600181015443906130029063ffffffff600160401b8204169065ffffffffffff166147dd565b65ffffffffffff16105b1561302a576040516322024acd60e21b815260040160405180910390fd5b6001810154600160301b900461ffff16613044858261231e565b61306157604051637079d1b960e11b815260040160405180910390fd5b6001600160a01b0385165f90815260078301602052604090205460ff161561309c5760405163c9e3c8d960e01b815260040160405180910390fd5b6130a7868686613525565b8360ff1686866001600160a01b03167f5be2678cab71c7d94235767eb1df3c57673f19e805cdc0edbd2e74854ae9f0f9866040516130e591906139b4565b60405180910390a4505050505050565b5f8181526002602052604081206001810154829061311d90600160301b900461ffff16612191565b80515f9081526004602052604090206001015460c08201519192509060ff1615806123575750600183015460649061316b9063ffffffff600160a01b8204811691600160801b900416614b01565b63ffffffff1661317b9190614b1d565b60c083015161318d9060ff1683614b1d565b111595945050505050565b5f818152600260205260408120600181015482906131c090600160301b900461ffff16612191565b80515f9081526004602052604090206001015460c08201519192509060ff1615806123575750600183015461320490606490600160801b900463ffffffff16614b1d565b60e083015161318d9060ff1683614b1d565b60606132427f00000000000000000000000000000000000000000000000000000000000000005f61360f565b905090565b60606132427f0000000000000000000000000000000000000000000000000000000000000000600161360f565b613289816020015163e81bd2dd60e01b6136b8565b6132bb576020810151604051631f09f19160e21b81526001600160a01b03909116600482015260240160405180910390fd5b6132e081602001516001600160a01b03165f9081526005602052604090205460ff1690565b156132fe576040516334d52f6b60e01b815260040160405180910390fd5b6060810151515f1914801561331d57505f816060015160c0015160ff16115b1561333b57604051632e562fc560e01b815260040160405180910390fd5b61ffff8083165f908152600360209081526040918290208054858301516001600160a01b03167fffffffffff00ffffffffffff00000000000000000000000000000000000000009091168117600160d01b17825560608087015180516001850155938401516002840180548688015193870151608088015160a089015160c08a015160e0909a015160ff908116600160881b0271ff0000000000000000000000000000000000199b909116600160801b0270ff0000000000000000000000000000000019928e16600160701b029290921670ffffff00000000000000000000000000001993909d16600160601b026dffff0000000000000000000000001963ffffffff958616600160401b02166dffffffffffff0000000000000000199986166401000000000267ffffffffffffffff199097169590981694909417949094179690961694909417179290921697909717919091179390931692909217909355835184830151925163b1f50f8960e01b8152919263b1f50f89926134c59288929091600401614b34565b5f604051808303815f87803b1580156134dc575f5ffd5b505af11580156134ee573d5f5f3e3d5ffd5b505060405161ffff861692507f284812f41d73696d76ff026c35ebc1a8e8bf24544551c55dd0877334dca88a5691505f90a2505050565b5f8381526002602090815260408083206001600160a01b038616845260078101909252909120805460ff1916600117905560ff82166135a157600181018054600160601b900463ffffffff1690600c61357d83614b7d565b91906101000a81548163ffffffff021916908363ffffffff160217905550506120db565b5f1960ff8316016135cb57600181018054600160801b900463ffffffff1690601061357d83614b7d565b60011960ff8316016135f657600181018054600160a01b900463ffffffff1690601461357d83614b7d565b6040516333397b4360e11b815260040160405180910390fd5b606060ff831461362957613622836136da565b90506115b6565b818054613635906145b4565b80601f0160208091040260200160405190810160405280929190818152602001828054613661906145b4565b80156136ac5780601f10613683576101008083540402835291602001916136ac565b820191905f5260205f20905b81548152906001019060200180831161368f57829003601f168201915b505050505090506115b6565b5f6136c283613717565b80156136d357506136d38383613749565b9392505050565b60605f6136e6836137e4565b6040805160208082528183019092529192505f91906020820181803683375050509182525060208101929092525090565b5f613729826301ffc9a760e01b613749565b80156115b65750613742826001600160e01b0319613749565b1592915050565b6040516001600160e01b0319821660248201525f90819060440160408051601f19818403018152919052602080820180517bffffffffffffffffffffffffffffffffffffffffffffffffffffffff166301ffc9a760e01b17815282519293505f9283928392909183918a617530fa92503d91505f5190508280156137ce575060208210155b80156137d957505f81115b979650505050505050565b5f60ff8216601f8111156115b657604051632cd44ac360e21b815260040160405180910390fd5b828054828255905f5260205f2090600f01601090048101928215613855575f5260205f2091600f016010900482015b8281111561385557825482559160010191906001019061383a565b5061386192915061395b565b5090565b5080545f8255600f0160109004905f5260205f2090810190611fb5919061395b565b508054613893906145b4565b5f825580601f106138a2575050565b601f0160209004905f5260205f2090810190611fb5919061395b565b828054828255905f5260205f2090600f01601090048101928215613855579160200282015f5b8382111561392457835183826101000a81548161ffff021916908361ffff16021790555092602001926002016020816001010492830192600103026138e4565b80156139525782816101000a81549061ffff0219169055600201602081600101049283019260010302613924565b50506138619291505b5b80821115613861575f815560010161395c565b5f6020828403121561397f575f5ffd5b5035919050565b5f81518084528060208401602086015e5f602082860101526020601f19601f83011685010191505092915050565b602081525f6136d36020830184613986565b803561ffff811681146125d0575f5ffd5b5f602082840312156139e7575f5ffd5b6136d3826139c6565b5f5f83601f840112613a00575f5ffd5b50813567ffffffffffffffff811115613a17575f5ffd5b6020830191508360208260051b8501011115613a31575f5ffd5b9250929050565b5f5f5f5f5f5f5f5f60a0898b031215613a4f575f5ffd5b613a58896139c6565b975060208901359650604089013567ffffffffffffffff811115613a7a575f5ffd5b613a868b828c016139f0565b909750955050606089013567ffffffffffffffff811115613aa5575f5ffd5b613ab18b828c016139f0565b909550935050608089013567ffffffffffffffff811115613ad0575f5ffd5b613adc8b828c016139f0565b999c989b5096995094979396929594505050565b5f5f83601f840112613b00575f5ffd5b50813567ffffffffffffffff811115613b17575f5ffd5b602083019150836020828501011115613a31575f5ffd5b5f5f5f5f60608587031215613b41575f5ffd5b613b4a856139c6565b9350602085013567ffffffffffffffff811115613b65575f5ffd5b613b7187828801613af0565b9598909750949560400135949350505050565b5f5f60408385031215613b95575f5ffd5b50508035926020909101359150565b6001600160a01b0381168114611fb5575f5ffd5b5f5f60408385031215613bc9575f5ffd5b823591506020830135613bdb81613ba4565b809150509250929050565b5f60208284031215613bf6575f5ffd5b81356136d381613ba4565b634e487b7160e01b5f52604160045260245ffd5b6040805190810167ffffffffffffffff81118282101715613c3857613c38613c01565b60405290565b604051610100810167ffffffffffffffff81118282101715613c3857613c38613c01565b6040516080810167ffffffffffffffff81118282101715613c3857613c38613c01565b604051601f8201601f1916810167ffffffffffffffff81118282101715613cae57613cae613c01565b604052919050565b5f5f67ffffffffffffffff841115613cd057613cd0613c01565b50601f8301601f1916602001613ce581613c85565b915050828152838383011115613cf9575f5ffd5b828260208301375f602084830101529392505050565b5f82601f830112613d1e575f5ffd5b6136d383833560208501613cb6565b5f5f5f5f5f60808688031215613d41575f5ffd5b613d4a866139c6565b9450602086013567ffffffffffffffff811115613d65575f5ffd5b613d7188828901613af0565b90955093505060408601359150606086013567ffffffffffffffff811115613d97575f5ffd5b613da388828901613d0f565b9150509295509295909350565b803560ff811681146125d0575f5ffd5b5f60208284031215613dd0575f5ffd5b6136d382613db0565b5f5f5f60608486031215613deb575f5ffd5b613df484613db0565b9250613e0260208501613db0565b9150613e10604085016139c6565b90509250925092565b8015158114611fb5575f5ffd5b5f5f60408385031215613e37575f5ffd5b8235613e4281613ba4565b91506020830135613bdb81613e19565b5f5f60408385031215613e63575f5ffd5b82359150613e7360208401613db0565b90509250929050565b6020810160098310613e9c57634e487b7160e01b5f52602160045260245ffd5b91905290565b5f5f5f60608486031215613eb4575f5ffd5b83359250602084013567ffffffffffffffff811115613ed1575f5ffd5b613edd86828701613d0f565b925050604084013567ffffffffffffffff811115613ef9575f5ffd5b613f0586828701613d0f565b9150509250925092565b5f5f5f5f60608587031215613f22575f5ffd5b84359350613f3260208601613db0565b9250604085013567ffffffffffffffff811115613f4d575f5ffd5b613f5987828801613af0565b95989497509550505050565b5f610100820190508251825263ffffffff602084015116602083015263ffffffff604084015116604083015263ffffffff60608401511660608301526080830151613fb6608084018261ffff169052565b5060a0830151613fcc60a084018261ffff169052565b5060c0830151613fe160c084018260ff169052565b5060e0830151613ff660e084018260ff169052565b5092915050565b60ff60f81b8816815260e060208201525f61401b60e0830189613986565b828103604084015261402d8189613986565b606084018890526001600160a01b038716608085015260a0840186905283810360c0850152845180825260208087019350909101905f5b81811015614082578351835260209384019390920191600101614064565b50909b9a5050505050505050505050565b5f67ffffffffffffffff8211156140ac576140ac613c01565b5060051b60200190565b5f604082840312156140c6575f5ffd5b6140ce613c15565b9050813567ffffffffffffffff8111156140e6575f5ffd5b8201601f810184136140f6575f5ffd5b803561410961410482614093565b613c85565b8082825260208201915060208360051b85010192508683111561412a575f5ffd5b6020840193505b8284101561415357614142846139c6565b825260209384019390910190614131565b8452505050602082013567ffffffffffffffff811115614171575f5ffd5b61417d84828501613d0f565b60208301525092915050565b5f5f6040838503121561419a575f5ffd5b82356141a581613ba4565b9150602083013567ffffffffffffffff8111156141c0575f5ffd5b8301601f810185136141d0575f5ffd5b80356141de61410482614093565b8082825260208201915060208360051b8501019250878311156141ff575f5ffd5b602084015b8381101561424057803567ffffffffffffffff811115614222575f5ffd5b6142318a6020838901016140b6565b84525060209283019201614204565b50809450505050509250929050565b5f5f60408385031215614260575f5ffd5b614269836139c6565b946020939093013593505050565b5f5f60408385031215614288575f5ffd5b823561429381613ba4565b9150613e73602084016139c6565b5f8151808452602084019350602083015f5b828110156142d557815161ffff168652602095860195909101906001016142b3565b5093949350505050565b602081525f6136d360208301846142a1565b5f60208284031215614301575f5ffd5b813567ffffffffffffffff811115614317575f5ffd5b61432384828501613d0f565b949350505050565b5f6020828403121561433b575f5ffd5b813567ffffffffffffffff811115614351575f5ffd5b614323848285016140b6565b803563ffffffff811681146125d0575f5ffd5b5f6101008284031215614381575f5ffd5b614389613c3e565b82358152905061439b6020830161435d565b60208201526143ac6040830161435d565b60408201526143bd6060830161435d565b60608201526143ce608083016139c6565b60808201526143df60a083016139c6565b60a08201526143f060c08301613db0565b60c082015261440160e08301613db0565b60e082015292915050565b5f610160828403121561441d575f5ffd5b614425613c62565b9050813567ffffffffffffffff81111561443d575f5ffd5b61444984828501613d0f565b825250602082013561445a81613ba4565b6020820152604082013567ffffffffffffffff811115614478575f5ffd5b8201601f81018413614488575f5ffd5b61449784823560208401613cb6565b6040830152506144aa8360608401614370565b606082015292915050565b5f602082840312156144c5575f5ffd5b813567ffffffffffffffff8111156144db575f5ffd5b6143238482850161440c565b5f5f604083850312156144f8575f5ffd5b823561426981613ba4565b5f60208284031215614513575f5ffd5b813567ffffffffffffffff811115614529575f5ffd5b8201601f81018413614539575f5ffd5b803561454761410482614093565b8082825260208201915060208360051b850101925086831115614568575f5ffd5b602084015b838110156145a957803567ffffffffffffffff81111561458b575f5ffd5b61459a8960208389010161440c565b8452506020928301920161456d565b509695505050505050565b600181811c908216806145c857607f821691505b6020821081036145e657634e487b7160e01b5f52602260045260245ffd5b50919050565b634e487b7160e01b5f52603260045260245ffd5b5f5f8335601e19843603018112614615575f5ffd5b83018035915067ffffffffffffffff82111561462f575f5ffd5b602001915036819003821315613a31575f5ffd5b818382375f9101908152919050565b601f82111561469957805f5260205f20601f840160051c810160208510156146775750805b601f840160051c820191505b81811015614696575f8155600101614683565b50505b505050565b815167ffffffffffffffff8111156146b8576146b8613c01565b6146cc816146c684546145b4565b84614652565b6020601f821160018114614701575f83156146e75750848201515b600184901b5f19600386901b1c198216175b855550614696565b5f84815260208120601f198516915b828110156147305787850151825560209485019460019092019101614710565b508482101561474d57868401515f19600387901b60f8161c191681555b50505050600190811b01905550565b81835281816020850137505f828201602090810191909152601f909101601f19169091010190565b61ffff85168152606060208201525f6147a160608301858761475c565b905082604083015295945050505050565b5f602082840312156147c2575f5ffd5b5051919050565b634e487b7160e01b5f52601160045260245ffd5b65ffffffffffff81811683821601908111156115b6576115b66147c9565b67ffffffffffffffff83111561481357614813613c01565b6148278361482183546145b4565b83614652565b5f601f841160018114614858575f85156148415750838201355b5f19600387901b1c1916600186901b178355614696565b5f83815260208120601f198716915b828110156148875786850135825560209485019460019092019101614867565b50868210156148a3575f1960f88860031b161c19848701351681555b505060018560011b0183555050505050565b808201808211156115b6576115b66147c9565b60c081525f60c082015260e060208201525f6148e860e08301888a61475c565b86604084015285606084015284608084015282810360a084015261490c8185613986565b9998505050505050505050565b818103818111156115b6576115b66147c9565b818103614937575050565b61494182546145b4565b67ffffffffffffffff81111561495957614959613c01565b614967816146c684546145b4565b5f601f821160018114614996575f83156146e7575081850154600184901b5f19600386901b1c198216176146f9565b5f8581526020808220868352908220601f198616925b838110156149cc57828601548255600195860195909101906020016149ac565b50858310156149e957818501545f19600388901b60f8161c191681555b5050505050600190811b01905550565b634e487b7160e01b5f52603160045260245ffd5b604081525f614a1f60408301856142a1565b82810360208401526123578185613986565b61ffff8716815260a060208201525f614a4e60a08301878961475c565b6001600160a01b0395909516604083015250606081019290925265ffffffffffff166080909101529392505050565b6001600160a01b038616815261ffff85166020820152608060408201525f614aa960808301858761475c565b90508260608301529695505050505050565b5f60208284031215614acb575f5ffd5b81516136d381613e19565b606081525f614ae960608301868861475c565b84602084015282810360408401526137d98185613986565b63ffffffff81811683821601908111156115b6576115b66147c9565b80820281158282048414176115b6576115b66147c9565b61ffff84168152608060208201525f614b506080830185613986565b8281038060408501525f825260208101606085015250614b736020820185613986565b9695505050505050565b5f63ffffffff821663ffffffff8103614b9857614b986147c9565b6001019291505056fea26469706673582212208c1f213c06b259b4d3d1bee87a18fb695a699d6a21857c929640fadfdd82e88e64736f6c634300081e0033","linkReferences":{"src/libraries/Checks.sol":{"Checks":[{"start":7462,"length":20},{"start":8549,"length":20},{"start":12304,"length":20},{"start":12770,"length":20}]}}},"methodIdentifiers":{"ADMIN_ROLE()":"75b238fc","DENOMINATOR()":"918f8674","FOUNDED_AT()":"5532f99b","MAX_CALLDATA_LENGTH()":"edf2a596","MAX_EXECUTIONS_LENGTH()":"f6226e7c","MAX_RETURN_DATA_LENGTH()":"7c1b5539","PUBLIC_ROLE()":"3ca7c02a","addFlow((uint16[],string))":"a3751098","adoptMandate((string,address,bytes,(uint256,uint32,uint32,uint32,uint16,uint16,uint8,uint8)))":"b4497115","assignRole(uint256,address)":"685b824a","blacklistAddress(address,bool)":"455a4396","canCallMandate(address,uint16)":"93d7dae5","cancel(uint16,bytes,uint256)":"12561b1a","castVote(uint256,uint8)":"56781388","castVoteWithReason(uint256,uint8,string)":"7b3c71d3","closeConstitute()":"0d7abeaa","closeConstitute(address)":"7258883f","closeConstitute(address,(uint16[],string)[])":"8973be04","constitute((string,address,bytes,(uint256,uint32,uint32,uint32,uint16,uint16,uint8,uint8))[])":"fc2d96d0","editFlowByIndex(uint8,uint8,uint16)":"3fc42d2e","eip712Domain()":"84b0196e","flows(uint256)":"8180d29e","fulfill(uint16,uint256,address[],uint256[],bytes[])":"0de6a601","getActionCalldata(uint256)":"d902bf3a","getActionData(uint256)":"4583476b","getActionReturnData(uint256,uint256)":"41bd157d","getActionState(uint256)":"666ca2d6","getActionUri(uint256)":"f2a0bb75","getActionVoteData(uint256)":"2179e04e","getAdoptedMandate(uint16)":"1031bdb0","getAmountFlows()":"23b1971b","getAmountRoleHolders(uint256)":"b4324dd3","getConditions(uint16)":"831af379","getFlowDescriptionAtIndex(uint8)":"36126216","getFlowMandatesAtIndex(uint8)":"9a0435d4","getLatestFulfillment(uint16)":"040b8c24","getMandateActionAtIndex(uint16,uint256)":"8a4359e0","getMandateCounter()":"055dbe10","getQuantityMandateActions(uint16)":"edfd2e87","getRoleHolderAtIndex(uint256,uint256)":"199093bb","getRoleLabel(uint256)":"0398f05f","getRoleMetadata(uint256)":"2d90fe5f","getTreasury()":"3b19e84a","hasRoleSince(address,uint256)":"cc5812cf","hasVoted(uint256,address)":"43859632","isBlacklisted(address)":"fe575a87","labelRole(uint256,string,string)":"76ff7577","mandateCounter()":"e88efe35","name()":"06fdde03","paymaster()":"16e4cbf9","propose(uint16,bytes,uint256,string)":"2e2d8253","removeFlow(uint8)":"519fcfb0","request(uint16,bytes,uint256,string)":"ebef6d97","revokeMandate(uint16)":"b367cac0","revokeRole(uint256,address)":"1d0b19e7","setPaymaster(address)":"2a97fa77","setTreasury(address)":"f0f44260","setUri(string)":"9b642de1","uri()":"eac989f8","version()":"54fd4d50"},"id":112}